{
  "contractName": "Blog",
  "abi": [
    {
      "inputs": [],
      "stateMutability": "nonpayable",
      "type": "constructor"
    },
    {
      "anonymous": false,
      "inputs": [
        {
          "indexed": false,
          "internalType": "uint16",
          "name": "id",
          "type": "uint16"
        },
        {
          "indexed": false,
          "internalType": "uint256",
          "name": "date",
          "type": "uint256"
        },
        {
          "indexed": false,
          "internalType": "string",
          "name": "title",
          "type": "string"
        },
        {
          "indexed": false,
          "internalType": "string",
          "name": "imageHash",
          "type": "string"
        },
        {
          "indexed": false,
          "internalType": "string",
          "name": "content",
          "type": "string"
        },
        {
          "indexed": false,
          "internalType": "address",
          "name": "author",
          "type": "address"
        },
        {
          "indexed": false,
          "internalType": "bool",
          "name": "published",
          "type": "bool"
        },
        {
          "indexed": false,
          "internalType": "uint256",
          "name": "tips",
          "type": "uint256"
        }
      ],
      "name": "ArticleCreated",
      "type": "event"
    },
    {
      "anonymous": false,
      "inputs": [
        {
          "indexed": false,
          "internalType": "uint16",
          "name": "id",
          "type": "uint16"
        },
        {
          "indexed": false,
          "internalType": "uint256",
          "name": "date",
          "type": "uint256"
        },
        {
          "indexed": false,
          "internalType": "string",
          "name": "title",
          "type": "string"
        },
        {
          "indexed": false,
          "internalType": "string",
          "name": "imageHash",
          "type": "string"
        },
        {
          "indexed": false,
          "internalType": "string",
          "name": "content",
          "type": "string"
        },
        {
          "indexed": false,
          "internalType": "address",
          "name": "author",
          "type": "address"
        },
        {
          "indexed": false,
          "internalType": "bool",
          "name": "published",
          "type": "bool"
        },
        {
          "indexed": false,
          "internalType": "uint256",
          "name": "tips",
          "type": "uint256"
        }
      ],
      "name": "ArticleEdited",
      "type": "event"
    },
    {
      "anonymous": false,
      "inputs": [
        {
          "indexed": false,
          "internalType": "uint16",
          "name": "id",
          "type": "uint16"
        },
        {
          "indexed": false,
          "internalType": "uint256",
          "name": "date",
          "type": "uint256"
        },
        {
          "indexed": false,
          "internalType": "bool",
          "name": "published",
          "type": "bool"
        }
      ],
      "name": "ArticlePublished",
      "type": "event"
    },
    {
      "anonymous": false,
      "inputs": [
        {
          "indexed": false,
          "internalType": "uint256",
          "name": "id",
          "type": "uint256"
        },
        {
          "indexed": false,
          "internalType": "uint16",
          "name": "articleId",
          "type": "uint16"
        },
        {
          "indexed": false,
          "internalType": "string",
          "name": "message",
          "type": "string"
        },
        {
          "indexed": false,
          "internalType": "address payable",
          "name": "author",
          "type": "address"
        },
        {
          "indexed": false,
          "internalType": "uint256",
          "name": "tips",
          "type": "uint256"
        },
        {
          "indexed": false,
          "internalType": "uint256",
          "name": "date",
          "type": "uint256"
        }
      ],
      "name": "CommentCreated",
      "type": "event"
    },
    {
      "anonymous": false,
      "inputs": [
        {
          "indexed": false,
          "internalType": "bytes32",
          "name": "name",
          "type": "bytes32"
        },
        {
          "indexed": false,
          "internalType": "address",
          "name": "wallet_address",
          "type": "address"
        },
        {
          "indexed": false,
          "internalType": "uint256",
          "name": "tips_received",
          "type": "uint256"
        },
        {
          "indexed": false,
          "internalType": "uint256",
          "name": "tips_sent",
          "type": "uint256"
        }
      ],
      "name": "UserCreated",
      "type": "event"
    },
    {
      "inputs": [
        {
          "internalType": "uint16",
          "name": "",
          "type": "uint16"
        }
      ],
      "name": "articleCommentsCount",
      "outputs": [
        {
          "internalType": "uint16",
          "name": "",
          "type": "uint16"
        }
      ],
      "stateMutability": "view",
      "type": "function",
      "constant": true
    },
    {
      "inputs": [],
      "name": "articleCount",
      "outputs": [
        {
          "internalType": "uint16",
          "name": "",
          "type": "uint16"
        }
      ],
      "stateMutability": "view",
      "type": "function",
      "constant": true
    },
    {
      "inputs": [
        {
          "internalType": "uint16",
          "name": "",
          "type": "uint16"
        }
      ],
      "name": "articleToUser",
      "outputs": [
        {
          "internalType": "address",
          "name": "",
          "type": "address"
        }
      ],
      "stateMutability": "view",
      "type": "function",
      "constant": true
    },
    {
      "inputs": [],
      "name": "commentCount",
      "outputs": [
        {
          "internalType": "uint256",
          "name": "",
          "type": "uint256"
        }
      ],
      "stateMutability": "view",
      "type": "function",
      "constant": true
    },
    {
      "inputs": [
        {
          "internalType": "uint256",
          "name": "",
          "type": "uint256"
        }
      ],
      "name": "commentToArticle",
      "outputs": [
        {
          "internalType": "uint16",
          "name": "",
          "type": "uint16"
        }
      ],
      "stateMutability": "view",
      "type": "function",
      "constant": true
    },
    {
      "inputs": [
        {
          "internalType": "address",
          "name": "",
          "type": "address"
        }
      ],
      "name": "userArticlesCount",
      "outputs": [
        {
          "internalType": "uint256",
          "name": "",
          "type": "uint256"
        }
      ],
      "stateMutability": "view",
      "type": "function",
      "constant": true
    },
    {
      "inputs": [
        {
          "internalType": "address",
          "name": "",
          "type": "address"
        }
      ],
      "name": "users",
      "outputs": [
        {
          "internalType": "bytes32",
          "name": "name",
          "type": "bytes32"
        },
        {
          "internalType": "address",
          "name": "wallet_address",
          "type": "address"
        },
        {
          "internalType": "uint256",
          "name": "tips_received",
          "type": "uint256"
        },
        {
          "internalType": "uint256",
          "name": "tips_sent",
          "type": "uint256"
        }
      ],
      "stateMutability": "view",
      "type": "function",
      "constant": true
    },
    {
      "inputs": [
        {
          "internalType": "bytes32",
          "name": "_name",
          "type": "bytes32"
        }
      ],
      "name": "createUser",
      "outputs": [],
      "stateMutability": "nonpayable",
      "type": "function"
    },
    {
      "inputs": [
        {
          "internalType": "string",
          "name": "_title",
          "type": "string"
        },
        {
          "internalType": "string",
          "name": "_imageHash",
          "type": "string"
        },
        {
          "internalType": "string",
          "name": "_content",
          "type": "string"
        }
      ],
      "name": "createArticle",
      "outputs": [],
      "stateMutability": "nonpayable",
      "type": "function"
    },
    {
      "inputs": [
        {
          "internalType": "uint16",
          "name": "_id",
          "type": "uint16"
        },
        {
          "internalType": "string",
          "name": "_title",
          "type": "string"
        },
        {
          "internalType": "string",
          "name": "_imageHash",
          "type": "string"
        },
        {
          "internalType": "string",
          "name": "_content",
          "type": "string"
        }
      ],
      "name": "editArticle",
      "outputs": [],
      "stateMutability": "nonpayable",
      "type": "function"
    },
    {
      "inputs": [
        {
          "internalType": "uint16",
          "name": "_id",
          "type": "uint16"
        }
      ],
      "name": "getArticle",
      "outputs": [
        {
          "components": [
            {
              "internalType": "uint16",
              "name": "id",
              "type": "uint16"
            },
            {
              "internalType": "uint256",
              "name": "date",
              "type": "uint256"
            },
            {
              "internalType": "string",
              "name": "title",
              "type": "string"
            },
            {
              "internalType": "string",
              "name": "imageHash",
              "type": "string"
            },
            {
              "internalType": "string",
              "name": "content",
              "type": "string"
            },
            {
              "internalType": "address payable",
              "name": "author",
              "type": "address"
            },
            {
              "internalType": "bool",
              "name": "published",
              "type": "bool"
            },
            {
              "internalType": "uint256",
              "name": "tips",
              "type": "uint256"
            }
          ],
          "internalType": "struct Blog.Article",
          "name": "",
          "type": "tuple"
        }
      ],
      "stateMutability": "view",
      "type": "function",
      "constant": true
    },
    {
      "inputs": [],
      "name": "getArticles",
      "outputs": [
        {
          "components": [
            {
              "internalType": "uint16",
              "name": "id",
              "type": "uint16"
            },
            {
              "internalType": "uint256",
              "name": "date",
              "type": "uint256"
            },
            {
              "internalType": "string",
              "name": "title",
              "type": "string"
            },
            {
              "internalType": "string",
              "name": "imageHash",
              "type": "string"
            },
            {
              "internalType": "string",
              "name": "content",
              "type": "string"
            },
            {
              "internalType": "address payable",
              "name": "author",
              "type": "address"
            },
            {
              "internalType": "bool",
              "name": "published",
              "type": "bool"
            },
            {
              "internalType": "uint256",
              "name": "tips",
              "type": "uint256"
            }
          ],
          "internalType": "struct Blog.Article[]",
          "name": "",
          "type": "tuple[]"
        }
      ],
      "stateMutability": "view",
      "type": "function",
      "constant": true
    },
    {
      "inputs": [],
      "name": "getUserArticles",
      "outputs": [
        {
          "components": [
            {
              "internalType": "uint16",
              "name": "id",
              "type": "uint16"
            },
            {
              "internalType": "uint256",
              "name": "date",
              "type": "uint256"
            },
            {
              "internalType": "string",
              "name": "title",
              "type": "string"
            },
            {
              "internalType": "string",
              "name": "imageHash",
              "type": "string"
            },
            {
              "internalType": "string",
              "name": "content",
              "type": "string"
            },
            {
              "internalType": "address payable",
              "name": "author",
              "type": "address"
            },
            {
              "internalType": "bool",
              "name": "published",
              "type": "bool"
            },
            {
              "internalType": "uint256",
              "name": "tips",
              "type": "uint256"
            }
          ],
          "internalType": "struct Blog.Article[]",
          "name": "",
          "type": "tuple[]"
        }
      ],
      "stateMutability": "view",
      "type": "function",
      "constant": true
    },
    {
      "inputs": [
        {
          "internalType": "uint16",
          "name": "_id",
          "type": "uint16"
        }
      ],
      "name": "togglePublished",
      "outputs": [],
      "stateMutability": "nonpayable",
      "type": "function"
    },
    {
      "inputs": [
        {
          "internalType": "uint16",
          "name": "_id",
          "type": "uint16"
        }
      ],
      "name": "tipArticle",
      "outputs": [],
      "stateMutability": "payable",
      "type": "function",
      "payable": true
    },
    {
      "inputs": [
        {
          "internalType": "uint16",
          "name": "_articleId",
          "type": "uint16"
        },
        {
          "internalType": "string",
          "name": "_message",
          "type": "string"
        }
      ],
      "name": "addCommentToArticle",
      "outputs": [],
      "stateMutability": "nonpayable",
      "type": "function"
    },
    {
      "inputs": [
        {
          "internalType": "uint16",
          "name": "_articleId",
          "type": "uint16"
        }
      ],
      "name": "getArticleComments",
      "outputs": [
        {
          "components": [
            {
              "internalType": "uint256",
              "name": "id",
              "type": "uint256"
            },
            {
              "internalType": "uint16",
              "name": "articleId",
              "type": "uint16"
            },
            {
              "internalType": "string",
              "name": "message",
              "type": "string"
            },
            {
              "internalType": "address payable",
              "name": "author",
              "type": "address"
            },
            {
              "internalType": "uint256",
              "name": "tips",
              "type": "uint256"
            },
            {
              "internalType": "uint256",
              "name": "date",
              "type": "uint256"
            }
          ],
          "internalType": "struct Blog.Comment[]",
          "name": "",
          "type": "tuple[]"
        }
      ],
      "stateMutability": "view",
      "type": "function",
      "constant": true
    },
    {
      "inputs": [],
      "name": "getUserComments",
      "outputs": [
        {
          "components": [
            {
              "internalType": "uint256",
              "name": "id",
              "type": "uint256"
            },
            {
              "internalType": "uint16",
              "name": "articleId",
              "type": "uint16"
            },
            {
              "internalType": "string",
              "name": "message",
              "type": "string"
            },
            {
              "internalType": "address payable",
              "name": "author",
              "type": "address"
            },
            {
              "internalType": "uint256",
              "name": "tips",
              "type": "uint256"
            },
            {
              "internalType": "uint256",
              "name": "date",
              "type": "uint256"
            }
          ],
          "internalType": "struct Blog.Comment[]",
          "name": "",
          "type": "tuple[]"
        }
      ],
      "stateMutability": "view",
      "type": "function",
      "constant": true
    }
  ],
  "bytecode": "0x608060405260008060006101000a81548161ffff021916908361ffff16021790555060006001553480156200003357600080fd5b50620000657f546961676f2044696173000000000000000000000000000000000000000000006200010160201b60201c565b620000fb6040518060400160405280601681526020017f4d7920666972737420626c6f672773207469746c652e000000000000000000008152506040518060600160405280602e815260200162004e73602e91396040518060400160405280601e81526020017f4d7920666972737420626c6f672061727469636c6520636f6e74656e742100008152506200022460201b60201c565b62000a35565b60405180608001604052808281526020013373ffffffffffffffffffffffffffffffffffffffff168152602001600081526020016000815250600460003373ffffffffffffffffffffffffffffffffffffffff1673ffffffffffffffffffffffffffffffffffffffff1681526020019081526020016000206000820151816000015560208201518160010160006101000a81548173ffffffffffffffffffffffffffffffffffffffff021916908373ffffffffffffffffffffffffffffffffffffffff16021790555060408201518160020155606082015181600301559050507fa50219d9fe08f0c84080df6d3e14efcc4a4a138396328787c560d776875f5a0381336000806040516200021994939291906200074b565b60405180910390a150565b336000600460008373ffffffffffffffffffffffffffffffffffffffff1673ffffffffffffffffffffffffffffffffffffffff1681526020019081526020016000206000015414156200027657600080fd5b600260405180610100016040528060008054906101000a900461ffff1661ffff1681526020014281526020018681526020018581526020018481526020013373ffffffffffffffffffffffffffffffffffffffff1681526020016000151581526020016000815250908060018154018082558091505060019003906000526020600020906007020160009091909190915060008201518160000160006101000a81548161ffff021916908361ffff16021790555060208201518160010155604082015181600201908051906020019062000352929190620005f4565b50606082015181600301908051906020019062000371929190620005f4565b50608082015181600401908051906020019062000390929190620005f4565b5060a08201518160050160006101000a81548173ffffffffffffffffffffffffffffffffffffffff021916908373ffffffffffffffffffffffffffffffffffffffff16021790555060c08201518160050160146101000a81548160ff02191690831515021790555060e08201518160060155505033600560008060009054906101000a900461ffff1661ffff1661ffff16815260200190815260200160002060006101000a81548173ffffffffffffffffffffffffffffffffffffffff021916908373ffffffffffffffffffffffffffffffffffffffff1602179055506001600660003373ffffffffffffffffffffffffffffffffffffffff1673ffffffffffffffffffffffffffffffffffffffff16815260200190815260200160002054620004bb919062000857565b600660003373ffffffffffffffffffffffffffffffffffffffff1673ffffffffffffffffffffffffffffffffffffffff168152602001908152602001600020819055507fd45a18f512a868a957b292903d58190ae32786655c138111e70120b435041d8c60008054906101000a900461ffff16600260008054906101000a900461ffff1661ffff16815481106200057b577f4e487b7100000000000000000000000000000000000000000000000000000000600052603260045260246000fd5b90600052602060002090600702016001015486868633600080604051620005aa98979695949392919062000798565b60405180910390a160008081819054906101000a900461ffff1680929190620005d39062000996565b91906101000a81548161ffff021916908361ffff1602179055505050505050565b828054620006029062000960565b90600052602060002090601f01602090048101928262000626576000855562000672565b82601f106200064157805160ff191683800117855562000672565b8280016001018555821562000672579182015b828111156200067157825182559160200191906001019062000654565b5b50905062000681919062000685565b5090565b5b80821115620006a057600081600090555060010162000686565b5090565b620006af81620008b4565b82525050565b620006c081620008c8565b82525050565b620006d181620008d4565b82525050565b620006e28162000916565b82525050565b6000620006f5826200083b565b62000701818562000846565b9350620007138185602086016200092a565b6200071e8162000a24565b840191505092915050565b6200073481620008de565b82525050565b62000745816200090c565b82525050565b6000608082019050620007626000830187620006c6565b620007716020830186620006a4565b620007806040830185620006d7565b6200078f6060830184620006d7565b95945050505050565b600061010082019050620007b0600083018b62000729565b620007bf602083018a6200073a565b8181036040830152620007d38189620006e8565b90508181036060830152620007e98188620006e8565b90508181036080830152620007ff8187620006e8565b90506200081060a0830186620006a4565b6200081f60c0830185620006b5565b6200082e60e0830184620006d7565b9998505050505050505050565b600081519050919050565b600082825260208201905092915050565b600062000864826200090c565b915062000871836200090c565b9250827fffffffffffffffffffffffffffffffffffffffffffffffffffffffffffffffff03821115620008a957620008a8620009c6565b5b828201905092915050565b6000620008c182620008ec565b9050919050565b60008115159050919050565b6000819050919050565b600061ffff82169050919050565b600073ffffffffffffffffffffffffffffffffffffffff82169050919050565b6000819050919050565b600062000923826200090c565b9050919050565b60005b838110156200094a5780820151818401526020810190506200092d565b838111156200095a576000848401525b50505050565b600060028204905060018216806200097957607f821691505b6020821081141562000990576200098f620009f5565b5b50919050565b6000620009a382620008de565b915061ffff821415620009bb57620009ba620009c6565b5b600182019050919050565b7f4e487b7100000000000000000000000000000000000000000000000000000000600052601160045260246000fd5b7f4e487b7100000000000000000000000000000000000000000000000000000000600052602260045260246000fd5b6000601f19601f8301169050919050565b61442e8062000a456000396000f3fe6080604052600436106101095760003560e01c80636f3ed9b411610095578063a87430ba11610064578063a87430ba1461037d578063abf7bfd8146103bd578063bafe18ae146103e6578063d92c98de14610423578063fd4214fe1461046057610109565b80636f3ed9b4146102c1578063719b741d146102ea5780638568e2591461031557806391bcc9d31461034057610109565b80632dd9437f116100dc5780632dd9437f146101da578063414e28b01461020357806345ff20de1461022e5780636529f44a146102595780636d6db3451461028457610109565b8063056a86bb1461010e57806306eb029c146101375780630c5685f5146101605780631686e8381461019d575b600080fd5b34801561011a57600080fd5b506101356004803603810190610130919061367f565b61047c565b005b34801561014357600080fd5b5061015e600480360381019061015991906136a8565b610671565b005b34801561016c57600080fd5b506101876004803603810190610182919061367f565b610986565b6040516101949190613d98565b60405180910390f35b3480156101a957600080fd5b506101c460048036038101906101bf9190613596565b6109a7565b6040516101d19190613f10565b60405180910390f35b3480156101e657600080fd5b5061020160048036038101906101fc91906135e8565b6109bf565b005b34801561020f57600080fd5b50610218610d81565b6040516102259190613d98565b60405180910390f35b34801561023a57600080fd5b50610243610d93565b6040516102509190613f10565b60405180910390f35b34801561026557600080fd5b5061026e610d99565b60405161027b9190613ca8565b60405180910390f35b34801561029057600080fd5b506102ab60048036038101906102a6919061367f565b6115a7565b6040516102b89190613cca565b60405180910390f35b3480156102cd57600080fd5b506102e860048036038101906102e391906136fc565b6119ad565b005b3480156102f657600080fd5b506102ff611c4f565b60405161030c9190613cca565b60405180910390f35b34801561032157600080fd5b5061032a612089565b6040516103379190613ca8565b60405180910390f35b34801561034c57600080fd5b50610367600480360381019061036291906137a7565b612622565b6040516103749190613d98565b60405180910390f35b34801561038957600080fd5b506103a4600480360381019061039f9190613596565b612643565b6040516103b49493929190613d31565b60405180910390f35b3480156103c957600080fd5b506103e460048036038101906103df91906135bf565b612693565b005b3480156103f257600080fd5b5061040d6004803603810190610408919061367f565b6127b4565b60405161041a9190613c8d565b60405180910390f35b34801561042f57600080fd5b5061044a6004803603810190610445919061367f565b6127e7565b6040516104579190613d76565b60405180910390f35b61047a6004803603810190610475919061367f565b612b0b565b005b80600060028261ffff16815481106104bd577f4e487b7100000000000000000000000000000000000000000000000000000000600052603260045260246000fd5b90600052602060002090600702016001015414156104da57600080fd5b813373ffffffffffffffffffffffffffffffffffffffff1660028261ffff1681548110610530577f4e487b7100000000000000000000000000000000000000000000000000000000600052603260045260246000fd5b906000526020600020906007020160050160009054906101000a900473ffffffffffffffffffffffffffffffffffffffff1673ffffffffffffffffffffffffffffffffffffffff161461058257600080fd5b600060028461ffff16815481106105c2577f4e487b7100000000000000000000000000000000000000000000000000000000600052603260045260246000fd5b906000526020600020906007020190508060050160149054906101000a900460ff16158160050160146101000a81548160ff0219169083151502179055504281600101819055507f14e88741af6b08028f509f1124d07f4f703011ddc2d1e829927f69fc5cc8aadf8160000160009054906101000a900461ffff1682600101548360050160149054906101000a900460ff1660405161066393929190613db3565b60405180910390a150505050565b81600060028261ffff16815481106106b2577f4e487b7100000000000000000000000000000000000000000000000000000000600052603260045260246000fd5b90600052602060002090600702016001015414156106cf57600080fd5b336000600460008373ffffffffffffffffffffffffffffffffffffffff1673ffffffffffffffffffffffffffffffffffffffff16815260200190815260200160002060000154141561072057600080fd5b60036040518060c0016040528060015481526020018661ffff1681526020018581526020013373ffffffffffffffffffffffffffffffffffffffff168152602001600081526020014281525090806001815401808255809150506001900390600052602060002090600602016000909190919091506000820151816000015560208201518160010160006101000a81548161ffff021916908361ffff16021790555060408201518160020190805190602001906107de929190613386565b5060608201518160030160006101000a81548173ffffffffffffffffffffffffffffffffffffffff021916908373ffffffffffffffffffffffffffffffffffffffff1602179055506080820151816004015560a0820151816005015550508360076000600154815260200190815260200160002060006101000a81548161ffff021916908361ffff1602179055506001600860008661ffff1661ffff16815260200190815260200160002060009054906101000a900461ffff166108a2919061409d565b600860008661ffff1661ffff16815260200190815260200160002060006101000a81548161ffff021916908361ffff1602179055507fb363410516054b83e62df36ed5eb3806d36639b941298819f3e98a3bfd1d348e600154858533600060036001548154811061093c577f4e487b7100000000000000000000000000000000000000000000000000000000600052603260045260246000fd5b90600052602060002090600602016005015460405161096096959493929190613f2b565b60405180910390a16001600081548092919061097b906142b5565b919050555050505050565b60086020528060005260406000206000915054906101000a900461ffff1681565b60066020528060005260406000206000915090505481565b336000600460008373ffffffffffffffffffffffffffffffffffffffff1673ffffffffffffffffffffffffffffffffffffffff168152602001908152602001600020600001541415610a1057600080fd5b600260405180610100016040528060008054906101000a900461ffff1661ffff1681526020014281526020018681526020018581526020018481526020013373ffffffffffffffffffffffffffffffffffffffff1681526020016000151581526020016000815250908060018154018082558091505060019003906000526020600020906007020160009091909190915060008201518160000160006101000a81548161ffff021916908361ffff160217905550602082015181600101556040820151816002019080519060200190610aea929190613386565b506060820151816003019080519060200190610b07929190613386565b506080820151816004019080519060200190610b24929190613386565b5060a08201518160050160006101000a81548173ffffffffffffffffffffffffffffffffffffffff021916908373ffffffffffffffffffffffffffffffffffffffff16021790555060c08201518160050160146101000a81548160ff02191690831515021790555060e08201518160060155505033600560008060009054906101000a900461ffff1661ffff1661ffff16815260200190815260200160002060006101000a81548173ffffffffffffffffffffffffffffffffffffffff021916908373ffffffffffffffffffffffffffffffffffffffff1602179055506001600660003373ffffffffffffffffffffffffffffffffffffffff1673ffffffffffffffffffffffffffffffffffffffff16815260200190815260200160002054610c4d91906140d5565b600660003373ffffffffffffffffffffffffffffffffffffffff1673ffffffffffffffffffffffffffffffffffffffff168152602001908152602001600020819055507fd45a18f512a868a957b292903d58190ae32786655c138111e70120b435041d8c60008054906101000a900461ffff16600260008054906101000a900461ffff1661ffff1681548110610d0c577f4e487b7100000000000000000000000000000000000000000000000000000000600052603260045260246000fd5b90600052602060002090600702016001015486868633600080604051610d39989796959493929190613dea565b60405180910390a160008081819054906101000a900461ffff1680929190610d609061428a565b91906101000a81548161ffff021916908361ffff1602179055505050505050565b60008054906101000a900461ffff1681565b60015481565b606060008060009054906101000a900461ffff1661ffff1667ffffffffffffffff811115610df0577f4e487b7100000000000000000000000000000000000000000000000000000000600052604160045260246000fd5b604051908082528060200260200182016040528015610e2957816020015b610e1661340c565b815260200190600190039081610e0e5790505b5090506000805b60008054906101000a900461ffff1661ffff168110156111bd5760028181548110610e84577f4e487b7100000000000000000000000000000000000000000000000000000000600052603260045260246000fd5b906000526020600020906007020160050160149054906101000a900460ff16156111aa5760028181548110610ee2577f4e487b7100000000000000000000000000000000000000000000000000000000600052603260045260246000fd5b9060005260206000209060070201604051806101000160405290816000820160009054906101000a900461ffff1661ffff1661ffff16815260200160018201548152602001600282018054610f3690614227565b80601f0160208091040260200160405190810160405280929190818152602001828054610f6290614227565b8015610faf5780601f10610f8457610100808354040283529160200191610faf565b820191906000526020600020905b815481529060010190602001808311610f9257829003601f168201915b50505050508152602001600382018054610fc890614227565b80601f0160208091040260200160405190810160405280929190818152602001828054610ff490614227565b80156110415780601f1061101657610100808354040283529160200191611041565b820191906000526020600020905b81548152906001019060200180831161102457829003601f168201915b5050505050815260200160048201805461105a90614227565b80601f016020809104026020016040519081016040528092919081815260200182805461108690614227565b80156110d35780601f106110a8576101008083540402835291602001916110d3565b820191906000526020600020905b8154815290600101906020018083116110b657829003601f168201915b505050505081526020016005820160009054906101000a900473ffffffffffffffffffffffffffffffffffffffff1673ffffffffffffffffffffffffffffffffffffffff1673ffffffffffffffffffffffffffffffffffffffff1681526020016005820160149054906101000a900460ff16151515158152602001600682015481525050838281518110611190577f4e487b7100000000000000000000000000000000000000000000000000000000600052603260045260246000fd5b602002602001018190525081806111a69061428a565b9250505b80806111b5906142b5565b915050610e30565b5060008161ffff1667ffffffffffffffff811115611204577f4e487b7100000000000000000000000000000000000000000000000000000000600052604160045260246000fd5b60405190808252806020026020018201604052801561123d57816020015b61122a61340c565b8152602001906001900390816112225790505b50905060005b835181101561159d57838181518110611285577f4e487b7100000000000000000000000000000000000000000000000000000000600052603260045260246000fd5b602002602001015160c001511561158a57600281815481106112d0577f4e487b7100000000000000000000000000000000000000000000000000000000600052603260045260246000fd5b9060005260206000209060070201604051806101000160405290816000820160009054906101000a900461ffff1661ffff1661ffff1681526020016001820154815260200160028201805461132490614227565b80601f016020809104026020016040519081016040528092919081815260200182805461135090614227565b801561139d5780601f106113725761010080835404028352916020019161139d565b820191906000526020600020905b81548152906001019060200180831161138057829003601f168201915b505050505081526020016003820180546113b690614227565b80601f01602080910402602001604051908101604052809291908181526020018280546113e290614227565b801561142f5780601f106114045761010080835404028352916020019161142f565b820191906000526020600020905b81548152906001019060200180831161141257829003601f168201915b5050505050815260200160048201805461144890614227565b80601f016020809104026020016040519081016040528092919081815260200182805461147490614227565b80156114c15780601f10611496576101008083540402835291602001916114c1565b820191906000526020600020905b8154815290600101906020018083116114a457829003601f168201915b505050505081526020016005820160009054906101000a900473ffffffffffffffffffffffffffffffffffffffff1673ffffffffffffffffffffffffffffffffffffffff1673ffffffffffffffffffffffffffffffffffffffff1681526020016005820160149054906101000a900460ff1615151515815260200160068201548152505082828151811061157e577f4e487b7100000000000000000000000000000000000000000000000000000000600052603260045260246000fd5b60200260200101819052505b8080611595906142b5565b915050611243565b5080935050505090565b6060600060015467ffffffffffffffff8111156115ed577f4e487b7100000000000000000000000000000000000000000000000000000000600052604160045260246000fd5b60405190808252806020026020018201604052801561162657816020015b61161361346d565b81526020019060019003908161160b5790505b5090506000805b60015481101561187f578461ffff1660038281548110611676577f4e487b7100000000000000000000000000000000000000000000000000000000600052603260045260246000fd5b906000526020600020906006020160010160009054906101000a900461ffff1661ffff16141561186c57600381815481106116da577f4e487b7100000000000000000000000000000000000000000000000000000000600052603260045260246000fd5b90600052602060002090600602016040518060c0016040529081600082015481526020016001820160009054906101000a900461ffff1661ffff1661ffff16815260200160028201805461172d90614227565b80601f016020809104026020016040519081016040528092919081815260200182805461175990614227565b80156117a65780601f1061177b576101008083540402835291602001916117a6565b820191906000526020600020905b81548152906001019060200180831161178957829003601f168201915b505050505081526020016003820160009054906101000a900473ffffffffffffffffffffffffffffffffffffffff1673ffffffffffffffffffffffffffffffffffffffff1673ffffffffffffffffffffffffffffffffffffffff16815260200160048201548152602001600582015481525050838281518110611852577f4e487b7100000000000000000000000000000000000000000000000000000000600052603260045260246000fd5b60200260200101819052508180611868906142b5565b9250505b8080611877906142b5565b91505061162d565b5060008167ffffffffffffffff8111156118c2577f4e487b7100000000000000000000000000000000000000000000000000000000600052604160045260246000fd5b6040519080825280602002602001820160405280156118fb57816020015b6118e861346d565b8152602001906001900390816118e05790505b50905060005b828110156119a157838181518110611942577f4e487b7100000000000000000000000000000000000000000000000000000000600052603260045260246000fd5b6020026020010151828281518110611983577f4e487b7100000000000000000000000000000000000000000000000000000000600052603260045260246000fd5b60200260200101819052508080611999906142b5565b915050611901565b50809350505050919050565b336000600460008373ffffffffffffffffffffffffffffffffffffffff1673ffffffffffffffffffffffffffffffffffffffff1681526020019081526020016000206000015414156119fe57600080fd5b84600060028261ffff1681548110611a3f577f4e487b7100000000000000000000000000000000000000000000000000000000600052603260045260246000fd5b9060005260206000209060070201600101541415611a5c57600080fd5b853373ffffffffffffffffffffffffffffffffffffffff1660028261ffff1681548110611ab2577f4e487b7100000000000000000000000000000000000000000000000000000000600052603260045260246000fd5b906000526020600020906007020160050160009054906101000a900473ffffffffffffffffffffffffffffffffffffffff1673ffffffffffffffffffffffffffffffffffffffff1614611b0457600080fd5b600060028861ffff1681548110611b44577f4e487b7100000000000000000000000000000000000000000000000000000000600052603260045260246000fd5b9060005260206000209060070201905086816002019080519060200190611b6c929190613386565b5084816004019080519060200190611b85929190613386565b5085816003019080519060200190611b9e929190613386565b504281600101819055507f6fa9ae7019b10f8eb5a1c3a19700521d5e6c99768d95bf5ca95d022be71b85d68160000160009054906101000a900461ffff1682600101548360020184600301856004018660050160009054906101000a900473ffffffffffffffffffffffffffffffffffffffff168760050160149054906101000a900460ff168860060154604051611c3d989796959493929190613e7d565b60405180910390a15050505050505050565b6060600060015467ffffffffffffffff811115611c95577f4e487b7100000000000000000000000000000000000000000000000000000000600052604160045260246000fd5b604051908082528060200260200182016040528015611cce57816020015b611cbb61346d565b815260200190600190039081611cb35790505b5090506000805b600154811015611f5d573373ffffffffffffffffffffffffffffffffffffffff1660038281548110611d30577f4e487b7100000000000000000000000000000000000000000000000000000000600052603260045260246000fd5b906000526020600020906006020160030160009054906101000a900473ffffffffffffffffffffffffffffffffffffffff1673ffffffffffffffffffffffffffffffffffffffff161415611f4a5760038181548110611db8577f4e487b7100000000000000000000000000000000000000000000000000000000600052603260045260246000fd5b90600052602060002090600602016040518060c0016040529081600082015481526020016001820160009054906101000a900461ffff1661ffff1661ffff168152602001600282018054611e0b90614227565b80601f0160208091040260200160405190810160405280929190818152602001828054611e3790614227565b8015611e845780601f10611e5957610100808354040283529160200191611e84565b820191906000526020600020905b815481529060010190602001808311611e6757829003601f168201915b505050505081526020016003820160009054906101000a900473ffffffffffffffffffffffffffffffffffffffff1673ffffffffffffffffffffffffffffffffffffffff1673ffffffffffffffffffffffffffffffffffffffff16815260200160048201548152602001600582015481525050838281518110611f30577f4e487b7100000000000000000000000000000000000000000000000000000000600052603260045260246000fd5b60200260200101819052508180611f46906142b5565b9250505b8080611f55906142b5565b915050611cd5565b5060008167ffffffffffffffff811115611fa0577f4e487b7100000000000000000000000000000000000000000000000000000000600052604160045260246000fd5b604051908082528060200260200182016040528015611fd957816020015b611fc661346d565b815260200190600190039081611fbe5790505b50905060005b8281101561207f57838181518110612020577f4e487b7100000000000000000000000000000000000000000000000000000000600052603260045260246000fd5b6020026020010151828281518110612061577f4e487b7100000000000000000000000000000000000000000000000000000000600052603260045260246000fd5b60200260200101819052508080612077906142b5565b915050611fdf565b5080935050505090565b606060008060009054906101000a900461ffff1661ffff1667ffffffffffffffff8111156120e0577f4e487b7100000000000000000000000000000000000000000000000000000000600052604160045260246000fd5b60405190808252806020026020018201604052801561211957816020015b61210661340c565b8152602001906001900390816120fe5790505b5090506000805b60008054906101000a900461ffff1661ffff168110156124ee573373ffffffffffffffffffffffffffffffffffffffff166002828154811061218b577f4e487b7100000000000000000000000000000000000000000000000000000000600052603260045260246000fd5b906000526020600020906007020160050160009054906101000a900473ffffffffffffffffffffffffffffffffffffffff1673ffffffffffffffffffffffffffffffffffffffff1614156124db5760028181548110612213577f4e487b7100000000000000000000000000000000000000000000000000000000600052603260045260246000fd5b9060005260206000209060070201604051806101000160405290816000820160009054906101000a900461ffff1661ffff1661ffff1681526020016001820154815260200160028201805461226790614227565b80601f016020809104026020016040519081016040528092919081815260200182805461229390614227565b80156122e05780601f106122b5576101008083540402835291602001916122e0565b820191906000526020600020905b8154815290600101906020018083116122c357829003601f168201915b505050505081526020016003820180546122f990614227565b80601f016020809104026020016040519081016040528092919081815260200182805461232590614227565b80156123725780601f1061234757610100808354040283529160200191612372565b820191906000526020600020905b81548152906001019060200180831161235557829003601f168201915b5050505050815260200160048201805461238b90614227565b80601f01602080910402602001604051908101604052809291908181526020018280546123b790614227565b80156124045780601f106123d957610100808354040283529160200191612404565b820191906000526020600020905b8154815290600101906020018083116123e757829003601f168201915b505050505081526020016005820160009054906101000a900473ffffffffffffffffffffffffffffffffffffffff1673ffffffffffffffffffffffffffffffffffffffff1673ffffffffffffffffffffffffffffffffffffffff1681526020016005820160149054906101000a900460ff161515151581526020016006820154815250508382815181106124c1577f4e487b7100000000000000000000000000000000000000000000000000000000600052603260045260246000fd5b602002602001018190525081806124d79061428a565b9250505b80806124e6906142b5565b915050612120565b5060008161ffff1667ffffffffffffffff811115612535577f4e487b7100000000000000000000000000000000000000000000000000000000600052604160045260246000fd5b60405190808252806020026020018201604052801561256e57816020015b61255b61340c565b8152602001906001900390816125535790505b50905060005b8261ffff16811015612618578381815181106125b9577f4e487b7100000000000000000000000000000000000000000000000000000000600052603260045260246000fd5b60200260200101518282815181106125fa577f4e487b7100000000000000000000000000000000000000000000000000000000600052603260045260246000fd5b60200260200101819052508080612610906142b5565b915050612574565b5080935050505090565b60076020528060005260406000206000915054906101000a900461ffff1681565b60046020528060005260406000206000915090508060000154908060010160009054906101000a900473ffffffffffffffffffffffffffffffffffffffff16908060020154908060030154905084565b60405180608001604052808281526020013373ffffffffffffffffffffffffffffffffffffffff168152602001600081526020016000815250600460003373ffffffffffffffffffffffffffffffffffffffff1673ffffffffffffffffffffffffffffffffffffffff1681526020019081526020016000206000820151816000015560208201518160010160006101000a81548173ffffffffffffffffffffffffffffffffffffffff021916908373ffffffffffffffffffffffffffffffffffffffff16021790555060408201518160020155606082015181600301559050507fa50219d9fe08f0c84080df6d3e14efcc4a4a138396328787c560d776875f5a0381336000806040516127a99493929190613cec565b60405180910390a150565b60056020528060005260406000206000915054906101000a900473ffffffffffffffffffffffffffffffffffffffff1681565b6127ef61340c565b600060028361ffff168154811061282f577f4e487b7100000000000000000000000000000000000000000000000000000000600052603260045260246000fd5b9060005260206000209060070201604051806101000160405290816000820160009054906101000a900461ffff1661ffff1661ffff1681526020016001820154815260200160028201805461288390614227565b80601f01602080910402602001604051908101604052809291908181526020018280546128af90614227565b80156128fc5780601f106128d1576101008083540402835291602001916128fc565b820191906000526020600020905b8154815290600101906020018083116128df57829003601f168201915b5050505050815260200160038201805461291590614227565b80601f016020809104026020016040519081016040528092919081815260200182805461294190614227565b801561298e5780601f106129635761010080835404028352916020019161298e565b820191906000526020600020905b81548152906001019060200180831161297157829003601f168201915b505050505081526020016004820180546129a790614227565b80601f01602080910402602001604051908101604052809291908181526020018280546129d390614227565b8015612a205780601f106129f557610100808354040283529160200191612a20565b820191906000526020600020905b815481529060010190602001808311612a0357829003601f168201915b505050505081526020016005820160009054906101000a900473ffffffffffffffffffffffffffffffffffffffff1673ffffffffffffffffffffffffffffffffffffffff1673ffffffffffffffffffffffffffffffffffffffff1681526020016005820160149054906101000a900460ff1615151515815260200160068201548152505090508060c0015180612af357508060c00151158015612af257503373ffffffffffffffffffffffffffffffffffffffff168160a0015173ffffffffffffffffffffffffffffffffffffffff16145b5b15612b015780915050612b06565b600080fd5b919050565b80600060028261ffff1681548110612b4c577f4e487b7100000000000000000000000000000000000000000000000000000000600052603260045260246000fd5b9060005260206000209060070201600101541415612b6957600080fd5b813373ffffffffffffffffffffffffffffffffffffffff1660028261ffff1681548110612bbf577f4e487b7100000000000000000000000000000000000000000000000000000000600052603260045260246000fd5b906000526020600020906007020160050160009054906101000a900473ffffffffffffffffffffffffffffffffffffffff1673ffffffffffffffffffffffffffffffffffffffff161415612c1257600080fd5b600060028461ffff1681548110612c52577f4e487b7100000000000000000000000000000000000000000000000000000000600052603260045260246000fd5b9060005260206000209060070201604051806101000160405290816000820160009054906101000a900461ffff1661ffff1661ffff16815260200160018201548152602001600282018054612ca690614227565b80601f0160208091040260200160405190810160405280929190818152602001828054612cd290614227565b8015612d1f5780601f10612cf457610100808354040283529160200191612d1f565b820191906000526020600020905b815481529060010190602001808311612d0257829003601f168201915b50505050508152602001600382018054612d3890614227565b80601f0160208091040260200160405190810160405280929190818152602001828054612d6490614227565b8015612db15780601f10612d8657610100808354040283529160200191612db1565b820191906000526020600020905b815481529060010190602001808311612d9457829003601f168201915b50505050508152602001600482018054612dca90614227565b80601f0160208091040260200160405190810160405280929190818152602001828054612df690614227565b8015612e435780601f10612e1857610100808354040283529160200191612e43565b820191906000526020600020905b815481529060010190602001808311612e2657829003601f168201915b505050505081526020016005820160009054906101000a900473ffffffffffffffffffffffffffffffffffffffff1673ffffffffffffffffffffffffffffffffffffffff1673ffffffffffffffffffffffffffffffffffffffff1681526020016005820160149054906101000a900460ff16151515158152602001600682015481525050905060008160a0015190508073ffffffffffffffffffffffffffffffffffffffff166108fc349081150290604051600060405180830381858888f19350505050158015612f18573d6000803e3d6000fd5b50348260e00151612f2991906140d5565b8260e00181815250508160028661ffff1681548110612f71577f4e487b7100000000000000000000000000000000000000000000000000000000600052603260045260246000fd5b906000526020600020906007020160008201518160000160006101000a81548161ffff021916908361ffff160217905550602082015181600101556040820151816002019080519060200190612fc8929190613386565b506060820151816003019080519060200190612fe5929190613386565b506080820151816004019080519060200190613002929190613386565b5060a08201518160050160006101000a81548173ffffffffffffffffffffffffffffffffffffffff021916908373ffffffffffffffffffffffffffffffffffffffff16021790555060c08201518160050160146101000a81548160ff02191690831515021790555060e082015181600601559050506000600460008373ffffffffffffffffffffffffffffffffffffffff1673ffffffffffffffffffffffffffffffffffffffff168152602001908152602001600020604051806080016040529081600082015481526020016001820160009054906101000a900473ffffffffffffffffffffffffffffffffffffffff1673ffffffffffffffffffffffffffffffffffffffff1673ffffffffffffffffffffffffffffffffffffffff16815260200160028201548152602001600382015481525050905034816040015161314991906140d5565b81604001818152505080600460008473ffffffffffffffffffffffffffffffffffffffff1673ffffffffffffffffffffffffffffffffffffffff1681526020019081526020016000206000820151816000015560208201518160010160006101000a81548173ffffffffffffffffffffffffffffffffffffffff021916908373ffffffffffffffffffffffffffffffffffffffff16021790555060408201518160020155606082015181600301559050506000600460003373ffffffffffffffffffffffffffffffffffffffff1673ffffffffffffffffffffffffffffffffffffffff168152602001908152602001600020604051806080016040529081600082015481526020016001820160009054906101000a900473ffffffffffffffffffffffffffffffffffffffff1673ffffffffffffffffffffffffffffffffffffffff1673ffffffffffffffffffffffffffffffffffffffff1681526020016002820154815260200160038201548152505090503481606001516132cc91906140d5565b81606001818152505080600460003373ffffffffffffffffffffffffffffffffffffffff1673ffffffffffffffffffffffffffffffffffffffff1681526020019081526020016000206000820151816000015560208201518160010160006101000a81548173ffffffffffffffffffffffffffffffffffffffff021916908373ffffffffffffffffffffffffffffffffffffffff160217905550604082015181600201556060820151816003015590505050505050505050565b82805461339290614227565b90600052602060002090601f0160209004810192826133b457600085556133fb565b82601f106133cd57805160ff19168380011785556133fb565b828001600101855582156133fb579182015b828111156133fa5782518255916020019190600101906133df565b5b50905061340891906134bd565b5090565b604051806101000160405280600061ffff16815260200160008152602001606081526020016060815260200160608152602001600073ffffffffffffffffffffffffffffffffffffffff168152602001600015158152602001600081525090565b6040518060c0016040528060008152602001600061ffff16815260200160608152602001600073ffffffffffffffffffffffffffffffffffffffff16815260200160008152602001600081525090565b5b808211156134d65760008160009055506001016134be565b5090565b60006134ed6134e884613fb8565b613f93565b90508281526020810184848401111561350557600080fd5b6135108482856141e5565b509392505050565b6000813590506135278161439c565b92915050565b60008135905061353c816143b3565b92915050565b600082601f83011261355357600080fd5b81356135638482602086016134da565b91505092915050565b60008135905061357b816143ca565b92915050565b600081359050613590816143e1565b92915050565b6000602082840312156135a857600080fd5b60006135b684828501613518565b91505092915050565b6000602082840312156135d157600080fd5b60006135df8482850161352d565b91505092915050565b6000806000606084860312156135fd57600080fd5b600084013567ffffffffffffffff81111561361757600080fd5b61362386828701613542565b935050602084013567ffffffffffffffff81111561364057600080fd5b61364c86828701613542565b925050604084013567ffffffffffffffff81111561366957600080fd5b61367586828701613542565b9150509250925092565b60006020828403121561369157600080fd5b600061369f8482850161356c565b91505092915050565b600080604083850312156136bb57600080fd5b60006136c98582860161356c565b925050602083013567ffffffffffffffff8111156136e657600080fd5b6136f285828601613542565b9150509250929050565b6000806000806080858703121561371257600080fd5b60006137208782880161356c565b945050602085013567ffffffffffffffff81111561373d57600080fd5b61374987828801613542565b935050604085013567ffffffffffffffff81111561376657600080fd5b61377287828801613542565b925050606085013567ffffffffffffffff81111561378f57600080fd5b61379b87828801613542565b91505092959194509250565b6000602082840312156137b957600080fd5b60006137c784828501613581565b91505092915050565b60006137dc8383613a4c565b905092915050565b60006137f08383613bc8565b905092915050565b6138018161419d565b82525050565b6138108161413d565b82525050565b61381f8161413d565b82525050565b61382e8161412b565b82525050565b600061383f8261401e565b6138498185614059565b93508360208202850161385b85613fe9565b8060005b85811015613897578484038952815161387885826137d0565b94506138838361403f565b925060208a0199505060018101905061385f565b50829750879550505050505092915050565b60006138b482614029565b6138be818561406a565b9350836020820285016138d085613ff9565b8060005b8581101561390c57848403895281516138ed85826137e4565b94506138f88361404c565b925060208a019950506001810190506138d4565b50829750879550505050505092915050565b6139278161414f565b82525050565b6139368161414f565b82525050565b6139458161415b565b82525050565b613954816141af565b82525050565b600061396582614034565b61396f818561407b565b935061397f8185602086016141f4565b6139888161438b565b840191505092915050565b600061399e82614034565b6139a8818561408c565b93506139b88185602086016141f4565b6139c18161438b565b840191505092915050565b600081546139d981614227565b6139e3818661408c565b945060018216600081146139fe5760018114613a1057613a43565b60ff1983168652602086019350613a43565b613a1985614009565b60005b83811015613a3b57815481890152600182019150602081019050613a1c565b808801955050505b50505092915050565b600061010083016000830151613a656000860182613c51565b506020830151613a786020860182613c6f565b5060408301518482036040860152613a90828261395a565b91505060608301518482036060860152613aaa828261395a565b91505060808301518482036080860152613ac4828261395a565b91505060a0830151613ad960a0860182613807565b5060c0830151613aec60c086018261391e565b5060e0830151613aff60e0860182613c6f565b508091505092915050565b600061010083016000830151613b236000860182613c51565b506020830151613b366020860182613c6f565b5060408301518482036040860152613b4e828261395a565b91505060608301518482036060860152613b68828261395a565b91505060808301518482036080860152613b82828261395a565b91505060a0830151613b9760a0860182613807565b5060c0830151613baa60c086018261391e565b5060e0830151613bbd60e0860182613c6f565b508091505092915050565b600060c083016000830151613be06000860182613c6f565b506020830151613bf36020860182613c51565b5060408301518482036040860152613c0b828261395a565b9150506060830151613c206060860182613807565b506080830151613c336080860182613c6f565b5060a0830151613c4660a0860182613c6f565b508091505092915050565b613c5a81614165565b82525050565b613c6981614165565b82525050565b613c7881614193565b82525050565b613c8781614193565b82525050565b6000602082019050613ca26000830184613825565b92915050565b60006020820190508181036000830152613cc28184613834565b905092915050565b60006020820190508181036000830152613ce481846138a9565b905092915050565b6000608082019050613d01600083018761393c565b613d0e6020830186613825565b613d1b604083018561394b565b613d28606083018461394b565b95945050505050565b6000608082019050613d46600083018761393c565b613d536020830186613825565b613d606040830185613c7e565b613d6d6060830184613c7e565b95945050505050565b60006020820190508181036000830152613d908184613b0a565b905092915050565b6000602082019050613dad6000830184613c60565b92915050565b6000606082019050613dc86000830186613c60565b613dd56020830185613c7e565b613de2604083018461392d565b949350505050565b600061010082019050613e00600083018b613c60565b613e0d602083018a613c7e565b8181036040830152613e1f8189613993565b90508181036060830152613e338188613993565b90508181036080830152613e478187613993565b9050613e5660a0830186613825565b613e6360c083018561392d565b613e7060e083018461394b565b9998505050505050505050565b600061010082019050613e93600083018b613c60565b613ea0602083018a613c7e565b8181036040830152613eb281896139cc565b90508181036060830152613ec681886139cc565b90508181036080830152613eda81876139cc565b9050613ee960a08301866137f8565b613ef660c083018561392d565b613f0360e0830184613c7e565b9998505050505050505050565b6000602082019050613f256000830184613c7e565b92915050565b600060c082019050613f406000830189613c7e565b613f4d6020830188613c60565b8181036040830152613f5f8187613993565b9050613f6e6060830186613816565b613f7b608083018561394b565b613f8860a0830184613c7e565b979650505050505050565b6000613f9d613fae565b9050613fa98282614259565b919050565b6000604051905090565b600067ffffffffffffffff821115613fd357613fd261435c565b5b613fdc8261438b565b9050602081019050919050565b6000819050602082019050919050565b6000819050602082019050919050565b60008190508160005260206000209050919050565b600081519050919050565b600081519050919050565b600081519050919050565b6000602082019050919050565b6000602082019050919050565b600082825260208201905092915050565b600082825260208201905092915050565b600082825260208201905092915050565b600082825260208201905092915050565b60006140a882614165565b91506140b383614165565b92508261ffff038211156140ca576140c96142fe565b5b828201905092915050565b60006140e082614193565b91506140eb83614193565b9250827fffffffffffffffffffffffffffffffffffffffffffffffffffffffffffffffff038211156141205761411f6142fe565b5b828201905092915050565b600061413682614173565b9050919050565b600061414882614173565b9050919050565b60008115159050919050565b6000819050919050565b600061ffff82169050919050565b600073ffffffffffffffffffffffffffffffffffffffff82169050919050565b6000819050919050565b60006141a8826141c1565b9050919050565b60006141ba82614193565b9050919050565b60006141cc826141d3565b9050919050565b60006141de82614173565b9050919050565b82818337600083830152505050565b60005b838110156142125780820151818401526020810190506141f7565b83811115614221576000848401525b50505050565b6000600282049050600182168061423f57607f821691505b602082108114156142535761425261432d565b5b50919050565b6142628261438b565b810181811067ffffffffffffffff821117156142815761428061435c565b5b80604052505050565b600061429582614165565b915061ffff8214156142aa576142a96142fe565b5b600182019050919050565b60006142c082614193565b91507fffffffffffffffffffffffffffffffffffffffffffffffffffffffffffffffff8214156142f3576142f26142fe565b5b600182019050919050565b7f4e487b7100000000000000000000000000000000000000000000000000000000600052601160045260246000fd5b7f4e487b7100000000000000000000000000000000000000000000000000000000600052602260045260246000fd5b7f4e487b7100000000000000000000000000000000000000000000000000000000600052604160045260246000fd5b6000601f19601f8301169050919050565b6143a58161412b565b81146143b057600080fd5b50565b6143bc8161415b565b81146143c757600080fd5b50565b6143d381614165565b81146143de57600080fd5b50565b6143ea81614193565b81146143f557600080fd5b5056fea2646970667358221220ca7bc5f4f77cbc58d7ad49b7213f7a3382f6c98f0f69de79a0641e57307df63c64736f6c63430008040033516d51706d4c326b57365966546d47776d4e383241714e554168377262703672546a33514442614173725767636d",
  "immutableReferences": {},
  "source": "//SPDX-License-Identifier: Unlicense\npragma solidity ^0.8.4;\n\ncontract Blog {\n  struct User {\n    bytes32 name;\n    address wallet_address;\n    uint tips_received;\n    uint tips_sent;\n  }\n\n  struct Article {\n    uint16 id;\n    uint date;\n    string title;\n    string imageHash;\n    string content;\n    address payable author;\n    bool published;\n    uint tips;\n  }\n\n  struct Comment {\n    uint id;\n    uint16 articleId;\n    string message;\n    address payable author;\n    uint tips;\n    uint date;\n  }\n\n  uint16 public articleCount = 0;\n  uint public commentCount = 0;\n  Article[] private articles;\n  Comment[] private comments;\n\n  mapping(address => User) public users;\n  mapping(uint16 => address) public articleToUser;\n  mapping(address => uint) public userArticlesCount;\n  mapping(uint => uint16) public commentToArticle;\n  mapping(uint16 => uint16) public articleCommentsCount;\n\n  event UserCreated(\n    bytes32 name,\n    address wallet_address,\n    uint tips_received,\n    uint tips_sent\n  );\n\n  event ArticleCreated(\n    uint16 id,\n    uint date,\n    string title,\n    string imageHash,\n    string content,\n    address author,\n    bool published,\n    uint tips\n  );\n\n  event ArticleEdited(\n    uint16 id,\n    uint date,\n    string title,\n    string imageHash,\n    string content,\n    address author,\n    bool published,\n    uint tips\n  );\n\n  event ArticlePublished(\n    uint16 id,\n    uint date,\n    bool published\n  );\n\n  event CommentCreated (\n    uint id,\n    uint16 articleId,\n    string message,\n    address payable author,\n    uint tips,\n    uint date\n  );\n\n  constructor() {\n    createUser(\"Tiago Dias\");\n    createArticle(\n      \"My first blog's title.\",\n      \"QmQpmL2kW6YfTmGwmN82AqNUAh7rbp6rTj3QDBaAsrWgcm\",\n      \"My first blog article content!\"\n    );\n    // createArticle(\n    //   \"My second blog's title.\",\n    //   \"QmfG4fbLdwbhaS3beJuAhJduhCuvrFd8cqui6EDzVkdGYd\",\n    //   \"It's about unicorns!\"\n    // );\n  }\n\n  // User Methods\n  function createUser(bytes32 _name) public {\n    users[msg.sender] = User(_name, msg.sender, 0, 0);\n    emit UserCreated(_name, msg.sender, 0, 0);\n  }\n\n  // Article Methods\n  function createArticle(string memory _title, string memory _imageHash, string memory _content) public userExists(msg.sender) {\n    articles.push(Article(articleCount, block.timestamp, _title, _imageHash, _content, payable(msg.sender), false, 0));\n    \n    articleToUser[articleCount] = msg.sender;\n    userArticlesCount[msg.sender] = userArticlesCount[msg.sender] + 1;\n\n    emit ArticleCreated(articleCount, articles[articleCount].date, _title, _imageHash, _content, msg.sender, false, 0);\n    articleCount++;\n  }\n\n  function editArticle(uint16 _id, string memory _title, string memory _imageHash, string memory _content)\n    public\n    userExists(msg.sender)\n    articleExists(_id)\n    isOwner(_id) {\n      \n      Article storage _article = articles[_id];\n      _article.title = _title;\n      _article.content = _content;\n      _article.imageHash = _imageHash;\n      _article.date = block.timestamp;\n\n      emit ArticleEdited(_article.id, _article.date, _article.title, _article.imageHash, _article.content, _article.author, _article.published, _article.tips);\n  }\n\n  function getArticle(uint16 _id) external view returns(Article memory) {\n      Article memory _article = articles[_id];\n\n      if (_article.published || (!_article.published && _article.author == msg.sender)) {\n        return _article;  \n      }\n\n      revert();\n  }\n\n  function getArticles() external view returns(Article[] memory) {\n      Article[] memory _articles = new Article[](articleCount);\n\n      uint16 _publishedCount = 0;\n\n      for(uint i = 0; i < articleCount; i++) {\n        // Only published articles are being sent\n        if (articles[i].published) {\n          _articles[i] = articles[i];\n          _publishedCount++;\n        }\n      }\n\n      Article[] memory _publishedArticles = new Article[](_publishedCount);\n      for(uint i = 0; i < _articles.length; i++) {\n        // Only published articles are being sent\n        if (_articles[i].published) {\n          _publishedArticles[i] = articles[i];\n        }\n      }\n\n      return _publishedArticles;\n  }\n\n  function getUserArticles() external view returns(Article[] memory) {\n\n      Article[] memory _articles = new Article[](articleCount);\n\n      uint16 _myCount = 0;\n\n      for(uint i = 0; i < articleCount; i++) {\n        if (articles[i].author == msg.sender) {\n          _articles[i] = articles[i];\n          _myCount++;\n        }\n      }\n\n      Article[] memory _myArticles = new Article[](_myCount);\n      for(uint i = 0; i < _myCount; i++) {\n        _myArticles[i] = _articles[i];\n      }\n\n      return _myArticles;\n  }\n\n  function togglePublished(uint16 _id) external articleExists(_id) isOwner(_id) {\n    Article storage _article = articles[_id];\n    _article.published = !_article.published;\n    _article.date = block.timestamp;\n    emit ArticlePublished(_article.id, _article.date, _article.published);\n  }\n\n  modifier userExists(address wallet_address) {\n    if (users[wallet_address].name == '') {\n      revert();\n    }\n    _;\n  }\n\n  modifier articleExists(uint16 _id) {\n    if(articles[_id].date == 0) {\n      revert();\n    }\n    _;\n  }\n\n  modifier isOwner(uint16 _id) {\n    if (articles[_id].author != msg.sender) {\n      revert();\n    }\n    _;\n  }\n\n  modifier isNotOwner(uint16 _id) {\n    if (articles[_id].author == msg.sender) {\n      revert();\n    }\n    _;\n  }\n\n  // Tips\n  function tipArticle(uint16 _id) public payable articleExists(_id) isNotOwner(_id) {\n    Article memory _article = articles[_id];\n\n    address payable _author_address = _article.author;\n    _author_address.transfer(msg.value);\n\n    _article.tips = _article.tips + msg.value;\n    articles[_id] = _article;\n    \n    User memory _author = users[_author_address];\n    _author.tips_received = _author.tips_received + msg.value;\n    users[_author_address] = _author;\n\n    User memory _tipper = users[msg.sender];\n    _tipper.tips_sent = _tipper.tips_sent + msg.value;\n    users[msg.sender] = _tipper;\n  }\n\n  // Comments methods\n  function addCommentToArticle(uint16 _articleId, string memory _message) external articleExists(_articleId) userExists(msg.sender) {\n    comments.push(Comment(commentCount, _articleId, _message, payable(msg.sender), 0, block.timestamp));\n\n    commentToArticle[commentCount] = _articleId;\n    articleCommentsCount[_articleId] = articleCommentsCount[_articleId] + 1;\n\n    // Emit Event here\n    emit CommentCreated(commentCount, _articleId, _message, payable(msg.sender), 0, comments[commentCount].date);\n    commentCount++;\n  }\n\n  function getArticleComments(uint16 _articleId) external view returns(Comment[] memory) {\n    Comment[] memory _comments = new Comment[](commentCount);\n\n    uint _articleCommentsCount = 0;\n    for (uint i = 0; i < commentCount; i++) {\n      if (comments[i].articleId == _articleId) {\n        _comments[i] = comments[i];\n        _articleCommentsCount++;\n      }\n    }\n\n    Comment[] memory _articleComments = new Comment[](_articleCommentsCount);\n    for (uint i = 0; i < _articleCommentsCount; i++) {\n      _articleComments[i] = _comments[i];\n    }\n\n    return _articleComments;\n  }\n\n  function getUserComments() external view returns(Comment[] memory) {\n    Comment[] memory _comments = new Comment[](commentCount);\n\n    uint _userCommentsCount = 0;\n    for (uint i = 0; i < commentCount; i++) {\n      if (comments[i].author == msg.sender) {\n        _comments[i] = comments[i];\n        _userCommentsCount++;\n      }\n    }\n\n    Comment[] memory _userComments = new Comment[](_userCommentsCount);\n    for (uint i = 0; i < _userCommentsCount; i++) {\n      _userComments[i] = _comments[i];\n    }\n\n    return _userComments;\n  }\n\n}",
  "sourcePath": "/Users/tiagodias/Desktop/Personal Dev/Blockchain/Blog/contracts/Blog.sol",
  "compiler": {
    "name": "solc",
    "version": "0.8.4+commit.c7e474f2.Emscripten.clang"
  },
  "schemaVersion": "3.3.4",
  "updatedAt": "2021-05-12T20:36:42.203Z",
  "networkType": "ethereum",
  "devdoc": {
    "kind": "dev",
    "methods": {},
    "version": 1
  },
  "userdoc": {
    "kind": "user",
    "methods": {},
    "version": 1
  }
}