{
  "contractName": "Blog",
  "abi": [
    {
      "inputs": [],
      "stateMutability": "nonpayable",
      "type": "constructor"
    },
    {
      "anonymous": false,
      "inputs": [
        {
          "indexed": false,
          "internalType": "uint16",
          "name": "id",
          "type": "uint16"
        },
        {
          "indexed": false,
          "internalType": "uint256",
          "name": "date",
          "type": "uint256"
        },
        {
          "indexed": false,
          "internalType": "string",
          "name": "title",
          "type": "string"
        },
        {
          "indexed": false,
          "internalType": "string",
          "name": "imageHash",
          "type": "string"
        },
        {
          "indexed": false,
          "internalType": "string",
          "name": "content",
          "type": "string"
        },
        {
          "indexed": false,
          "internalType": "address",
          "name": "author",
          "type": "address"
        },
        {
          "indexed": false,
          "internalType": "bool",
          "name": "published",
          "type": "bool"
        },
        {
          "indexed": false,
          "internalType": "uint256",
          "name": "tips",
          "type": "uint256"
        }
      ],
      "name": "ArticleCreated",
      "type": "event"
    },
    {
      "anonymous": false,
      "inputs": [
        {
          "indexed": false,
          "internalType": "uint16",
          "name": "id",
          "type": "uint16"
        },
        {
          "indexed": false,
          "internalType": "uint256",
          "name": "date",
          "type": "uint256"
        },
        {
          "indexed": false,
          "internalType": "string",
          "name": "title",
          "type": "string"
        },
        {
          "indexed": false,
          "internalType": "string",
          "name": "imageHash",
          "type": "string"
        },
        {
          "indexed": false,
          "internalType": "string",
          "name": "content",
          "type": "string"
        },
        {
          "indexed": false,
          "internalType": "address",
          "name": "author",
          "type": "address"
        },
        {
          "indexed": false,
          "internalType": "bool",
          "name": "published",
          "type": "bool"
        },
        {
          "indexed": false,
          "internalType": "uint256",
          "name": "tips",
          "type": "uint256"
        }
      ],
      "name": "ArticleEdited",
      "type": "event"
    },
    {
      "anonymous": false,
      "inputs": [
        {
          "indexed": false,
          "internalType": "uint16",
          "name": "id",
          "type": "uint16"
        },
        {
          "indexed": false,
          "internalType": "uint256",
          "name": "date",
          "type": "uint256"
        },
        {
          "indexed": false,
          "internalType": "bool",
          "name": "published",
          "type": "bool"
        }
      ],
      "name": "ArticlePublished",
      "type": "event"
    },
    {
      "anonymous": false,
      "inputs": [
        {
          "indexed": false,
          "internalType": "bytes32",
          "name": "name",
          "type": "bytes32"
        },
        {
          "indexed": false,
          "internalType": "address",
          "name": "wallet_address",
          "type": "address"
        },
        {
          "indexed": false,
          "internalType": "uint256",
          "name": "tips_received",
          "type": "uint256"
        },
        {
          "indexed": false,
          "internalType": "uint256",
          "name": "tips_sent",
          "type": "uint256"
        }
      ],
      "name": "UserCreated",
      "type": "event"
    },
    {
      "inputs": [],
      "name": "articleCount",
      "outputs": [
        {
          "internalType": "uint16",
          "name": "",
          "type": "uint16"
        }
      ],
      "stateMutability": "view",
      "type": "function",
      "constant": true
    },
    {
      "inputs": [
        {
          "internalType": "uint256",
          "name": "",
          "type": "uint256"
        }
      ],
      "name": "articleToUser",
      "outputs": [
        {
          "internalType": "address",
          "name": "",
          "type": "address"
        }
      ],
      "stateMutability": "view",
      "type": "function",
      "constant": true
    },
    {
      "inputs": [
        {
          "internalType": "address",
          "name": "",
          "type": "address"
        }
      ],
      "name": "userArticlesCount",
      "outputs": [
        {
          "internalType": "uint256",
          "name": "",
          "type": "uint256"
        }
      ],
      "stateMutability": "view",
      "type": "function",
      "constant": true
    },
    {
      "inputs": [
        {
          "internalType": "address",
          "name": "",
          "type": "address"
        }
      ],
      "name": "users",
      "outputs": [
        {
          "internalType": "bytes32",
          "name": "name",
          "type": "bytes32"
        },
        {
          "internalType": "address",
          "name": "wallet_address",
          "type": "address"
        },
        {
          "internalType": "uint256",
          "name": "tips_received",
          "type": "uint256"
        },
        {
          "internalType": "uint256",
          "name": "tips_sent",
          "type": "uint256"
        }
      ],
      "stateMutability": "view",
      "type": "function",
      "constant": true
    },
    {
      "inputs": [
        {
          "internalType": "bytes32",
          "name": "_name",
          "type": "bytes32"
        }
      ],
      "name": "createUser",
      "outputs": [],
      "stateMutability": "nonpayable",
      "type": "function"
    },
    {
      "inputs": [
        {
          "internalType": "string",
          "name": "_title",
          "type": "string"
        },
        {
          "internalType": "string",
          "name": "_imageHash",
          "type": "string"
        },
        {
          "internalType": "string",
          "name": "_content",
          "type": "string"
        }
      ],
      "name": "createArticle",
      "outputs": [],
      "stateMutability": "nonpayable",
      "type": "function"
    },
    {
      "inputs": [
        {
          "internalType": "uint16",
          "name": "_id",
          "type": "uint16"
        },
        {
          "internalType": "string",
          "name": "_title",
          "type": "string"
        },
        {
          "internalType": "string",
          "name": "_imageHash",
          "type": "string"
        },
        {
          "internalType": "string",
          "name": "_content",
          "type": "string"
        }
      ],
      "name": "editArticle",
      "outputs": [],
      "stateMutability": "nonpayable",
      "type": "function"
    },
    {
      "inputs": [
        {
          "internalType": "uint16",
          "name": "_id",
          "type": "uint16"
        }
      ],
      "name": "getArticle",
      "outputs": [
        {
          "components": [
            {
              "internalType": "uint16",
              "name": "id",
              "type": "uint16"
            },
            {
              "internalType": "uint256",
              "name": "date",
              "type": "uint256"
            },
            {
              "internalType": "string",
              "name": "title",
              "type": "string"
            },
            {
              "internalType": "string",
              "name": "imageHash",
              "type": "string"
            },
            {
              "internalType": "string",
              "name": "content",
              "type": "string"
            },
            {
              "internalType": "address payable",
              "name": "author",
              "type": "address"
            },
            {
              "internalType": "bool",
              "name": "published",
              "type": "bool"
            },
            {
              "internalType": "uint256",
              "name": "tips",
              "type": "uint256"
            }
          ],
          "internalType": "struct Blog.Article",
          "name": "",
          "type": "tuple"
        }
      ],
      "stateMutability": "view",
      "type": "function",
      "constant": true
    },
    {
      "inputs": [],
      "name": "getArticles",
      "outputs": [
        {
          "components": [
            {
              "internalType": "uint16",
              "name": "id",
              "type": "uint16"
            },
            {
              "internalType": "uint256",
              "name": "date",
              "type": "uint256"
            },
            {
              "internalType": "string",
              "name": "title",
              "type": "string"
            },
            {
              "internalType": "string",
              "name": "imageHash",
              "type": "string"
            },
            {
              "internalType": "string",
              "name": "content",
              "type": "string"
            },
            {
              "internalType": "address payable",
              "name": "author",
              "type": "address"
            },
            {
              "internalType": "bool",
              "name": "published",
              "type": "bool"
            },
            {
              "internalType": "uint256",
              "name": "tips",
              "type": "uint256"
            }
          ],
          "internalType": "struct Blog.Article[]",
          "name": "",
          "type": "tuple[]"
        }
      ],
      "stateMutability": "view",
      "type": "function",
      "constant": true
    },
    {
      "inputs": [],
      "name": "getUserArticles",
      "outputs": [
        {
          "components": [
            {
              "internalType": "uint16",
              "name": "id",
              "type": "uint16"
            },
            {
              "internalType": "uint256",
              "name": "date",
              "type": "uint256"
            },
            {
              "internalType": "string",
              "name": "title",
              "type": "string"
            },
            {
              "internalType": "string",
              "name": "imageHash",
              "type": "string"
            },
            {
              "internalType": "string",
              "name": "content",
              "type": "string"
            },
            {
              "internalType": "address payable",
              "name": "author",
              "type": "address"
            },
            {
              "internalType": "bool",
              "name": "published",
              "type": "bool"
            },
            {
              "internalType": "uint256",
              "name": "tips",
              "type": "uint256"
            }
          ],
          "internalType": "struct Blog.Article[]",
          "name": "",
          "type": "tuple[]"
        }
      ],
      "stateMutability": "view",
      "type": "function",
      "constant": true
    },
    {
      "inputs": [
        {
          "internalType": "uint16",
          "name": "_id",
          "type": "uint16"
        }
      ],
      "name": "togglePublished",
      "outputs": [],
      "stateMutability": "nonpayable",
      "type": "function"
    },
    {
      "inputs": [
        {
          "internalType": "uint16",
          "name": "_id",
          "type": "uint16"
        }
      ],
      "name": "tipArticle",
      "outputs": [],
      "stateMutability": "payable",
      "type": "function",
      "payable": true
    }
  ],
  "bytecode": "0x608060405260008060006101000a81548161ffff021916908361ffff1602179055503480156200002e57600080fd5b50620000607f546961676f204469617300000000000000000000000000000000000000000000620000fc60201b60201c565b620000f66040518060400160405280601681526020017f4d7920666972737420626c6f672773207469746c652e000000000000000000008152506040518060600160405280602e815260200162003d36602e91396040518060400160405280601e81526020017f4d7920666972737420626c6f672061727469636c6520636f6e74656e742100008152506200021f60201b60201c565b62000a2c565b60405180608001604052808281526020013373ffffffffffffffffffffffffffffffffffffffff168152602001600081526020016000815250600260003373ffffffffffffffffffffffffffffffffffffffff1673ffffffffffffffffffffffffffffffffffffffff1681526020019081526020016000206000820151816000015560208201518160010160006101000a81548173ffffffffffffffffffffffffffffffffffffffff021916908373ffffffffffffffffffffffffffffffffffffffff16021790555060408201518160020155606082015181600301559050507fa50219d9fe08f0c84080df6d3e14efcc4a4a138396328787c560d776875f5a03813360008060405162000214949392919062000742565b60405180910390a150565b336000600260008373ffffffffffffffffffffffffffffffffffffffff1673ffffffffffffffffffffffffffffffffffffffff1681526020019081526020016000206000015414156200027157600080fd5b600160405180610100016040528060008054906101000a900461ffff1661ffff1681526020014281526020018681526020018581526020018481526020013373ffffffffffffffffffffffffffffffffffffffff1681526020016000151581526020016000815250908060018154018082558091505060019003906000526020600020906007020160009091909190915060008201518160000160006101000a81548161ffff021916908361ffff1602179055506020820151816001015560408201518160020190805190602001906200034d929190620005eb565b5060608201518160030190805190602001906200036c929190620005eb565b5060808201518160040190805190602001906200038b929190620005eb565b5060a08201518160050160006101000a81548173ffffffffffffffffffffffffffffffffffffffff021916908373ffffffffffffffffffffffffffffffffffffffff16021790555060c08201518160050160146101000a81548160ff02191690831515021790555060e08201518160060155505033600360008060009054906101000a900461ffff1661ffff16815260200190815260200160002060006101000a81548173ffffffffffffffffffffffffffffffffffffffff021916908373ffffffffffffffffffffffffffffffffffffffff1602179055506001600460003373ffffffffffffffffffffffffffffffffffffffff1673ffffffffffffffffffffffffffffffffffffffff16815260200190815260200160002054620004b291906200084e565b600460003373ffffffffffffffffffffffffffffffffffffffff1673ffffffffffffffffffffffffffffffffffffffff168152602001908152602001600020819055507fd45a18f512a868a957b292903d58190ae32786655c138111e70120b435041d8c60008054906101000a900461ffff16600160008054906101000a900461ffff1661ffff168154811062000572577f4e487b7100000000000000000000000000000000000000000000000000000000600052603260045260246000fd5b90600052602060002090600702016001015486868633600080604051620005a19897969594939291906200078f565b60405180910390a160008081819054906101000a900461ffff1680929190620005ca906200098d565b91906101000a81548161ffff021916908361ffff1602179055505050505050565b828054620005f99062000957565b90600052602060002090601f0160209004810192826200061d576000855562000669565b82601f106200063857805160ff191683800117855562000669565b8280016001018555821562000669579182015b82811115620006685782518255916020019190600101906200064b565b5b5090506200067891906200067c565b5090565b5b80821115620006975760008160009055506001016200067d565b5090565b620006a681620008ab565b82525050565b620006b781620008bf565b82525050565b620006c881620008cb565b82525050565b620006d9816200090d565b82525050565b6000620006ec8262000832565b620006f881856200083d565b93506200070a81856020860162000921565b620007158162000a1b565b840191505092915050565b6200072b81620008d5565b82525050565b6200073c8162000903565b82525050565b6000608082019050620007596000830187620006bd565b6200076860208301866200069b565b620007776040830185620006ce565b620007866060830184620006ce565b95945050505050565b600061010082019050620007a7600083018b62000720565b620007b6602083018a62000731565b8181036040830152620007ca8189620006df565b90508181036060830152620007e08188620006df565b90508181036080830152620007f68187620006df565b90506200080760a08301866200069b565b6200081660c0830185620006ac565b6200082560e0830184620006ce565b9998505050505050505050565b600081519050919050565b600082825260208201905092915050565b60006200085b8262000903565b9150620008688362000903565b9250827fffffffffffffffffffffffffffffffffffffffffffffffffffffffffffffffff03821115620008a0576200089f620009bd565b5b828201905092915050565b6000620008b882620008e3565b9050919050565b60008115159050919050565b6000819050919050565b600061ffff82169050919050565b600073ffffffffffffffffffffffffffffffffffffffff82169050919050565b6000819050919050565b60006200091a8262000903565b9050919050565b60005b838110156200094157808201518184015260208101905062000924565b8381111562000951576000848401525b50505050565b600060028204905060018216806200097057607f821691505b60208210811415620009875762000986620009ec565b5b50919050565b60006200099a82620008d5565b915061ffff821415620009b257620009b1620009bd565b5b600182019050919050565b7f4e487b7100000000000000000000000000000000000000000000000000000000600052601160045260246000fd5b7f4e487b7100000000000000000000000000000000000000000000000000000000600052602260045260246000fd5b6000601f19601f8301169050919050565b6132fa8062000a3c6000396000f3fe6080604052600436106100a75760003560e01c80636f3ed9b4116100645780636f3ed9b4146101ce5780638568e259146101f7578063a87430ba14610222578063abf7bfd814610262578063d92c98de1461028b578063fd4214fe146102c8576100a7565b8063056a86bb146100ac5780631686e838146100d55780632dd9437f14610112578063414e28b01461013b5780635a354063146101665780636529f44a146101a3575b600080fd5b3480156100b857600080fd5b506100d360048036038101906100ce91906127bb565b6102e4565b005b3480156100e157600080fd5b506100fc60048036038101906100f791906126d2565b6104d9565b6040516101099190612eb5565b60405180910390f35b34801561011e57600080fd5b5061013960048036038101906101349190612724565b6104f1565b005b34801561014757600080fd5b506101506108af565b60405161015d9190612d3d565b60405180910390f35b34801561017257600080fd5b5061018d6004803603810190610188919061288f565b6108c1565b60405161019a9190612c54565b60405180910390f35b3480156101af57600080fd5b506101b86108f4565b6040516101c59190612c6f565b60405180910390f35b3480156101da57600080fd5b506101f560048036038101906101f091906127e4565b611102565b005b34801561020357600080fd5b5061020c6113a4565b6040516102199190612c6f565b60405180910390f35b34801561022e57600080fd5b50610249600480360381019061024491906126d2565b611802565b6040516102599493929190612cd6565b60405180910390f35b34801561026e57600080fd5b50610289600480360381019061028491906126fb565b611852565b005b34801561029757600080fd5b506102b260048036038101906102ad91906127bb565b611973565b6040516102bf9190612d1b565b60405180910390f35b6102e260048036038101906102dd91906127bb565b611c97565b005b80600060018261ffff1681548110610325577f4e487b7100000000000000000000000000000000000000000000000000000000600052603260045260246000fd5b906000526020600020906007020160010154141561034257600080fd5b813373ffffffffffffffffffffffffffffffffffffffff1660018261ffff1681548110610398577f4e487b7100000000000000000000000000000000000000000000000000000000600052603260045260246000fd5b906000526020600020906007020160050160009054906101000a900473ffffffffffffffffffffffffffffffffffffffff1673ffffffffffffffffffffffffffffffffffffffff16146103ea57600080fd5b600060018461ffff168154811061042a577f4e487b7100000000000000000000000000000000000000000000000000000000600052603260045260246000fd5b906000526020600020906007020190508060050160149054906101000a900460ff16158160050160146101000a81548160ff0219169083151502179055504281600101819055507f14e88741af6b08028f509f1124d07f4f703011ddc2d1e829927f69fc5cc8aadf8160000160009054906101000a900461ffff1682600101548360050160149054906101000a900460ff166040516104cb93929190612d58565b60405180910390a150505050565b60046020528060005260406000206000915090505481565b336000600260008373ffffffffffffffffffffffffffffffffffffffff1673ffffffffffffffffffffffffffffffffffffffff16815260200190815260200160002060000154141561054257600080fd5b600160405180610100016040528060008054906101000a900461ffff1661ffff1681526020014281526020018681526020018581526020018481526020013373ffffffffffffffffffffffffffffffffffffffff1681526020016000151581526020016000815250908060018154018082558091505060019003906000526020600020906007020160009091909190915060008201518160000160006101000a81548161ffff021916908361ffff16021790555060208201518160010155604082015181600201908051906020019061061c929190612512565b506060820151816003019080519060200190610639929190612512565b506080820151816004019080519060200190610656929190612512565b5060a08201518160050160006101000a81548173ffffffffffffffffffffffffffffffffffffffff021916908373ffffffffffffffffffffffffffffffffffffffff16021790555060c08201518160050160146101000a81548160ff02191690831515021790555060e08201518160060155505033600360008060009054906101000a900461ffff1661ffff16815260200190815260200160002060006101000a81548173ffffffffffffffffffffffffffffffffffffffff021916908373ffffffffffffffffffffffffffffffffffffffff1602179055506001600460003373ffffffffffffffffffffffffffffffffffffffff1673ffffffffffffffffffffffffffffffffffffffff1681526020019081526020016000205461077b9190612fa1565b600460003373ffffffffffffffffffffffffffffffffffffffff1673ffffffffffffffffffffffffffffffffffffffff168152602001908152602001600020819055507fd45a18f512a868a957b292903d58190ae32786655c138111e70120b435041d8c60008054906101000a900461ffff16600160008054906101000a900461ffff1661ffff168154811061083a577f4e487b7100000000000000000000000000000000000000000000000000000000600052603260045260246000fd5b90600052602060002090600702016001015486868633600080604051610867989796959493929190612d8f565b60405180910390a160008081819054906101000a900461ffff168092919061088e90613156565b91906101000a81548161ffff021916908361ffff1602179055505050505050565b60008054906101000a900461ffff1681565b60036020528060005260406000206000915054906101000a900473ffffffffffffffffffffffffffffffffffffffff1681565b606060008060009054906101000a900461ffff1661ffff1667ffffffffffffffff81111561094b577f4e487b7100000000000000000000000000000000000000000000000000000000600052604160045260246000fd5b60405190808252806020026020018201604052801561098457816020015b610971612598565b8152602001906001900390816109695790505b5090506000805b60008054906101000a900461ffff1661ffff16811015610d1857600181815481106109df577f4e487b7100000000000000000000000000000000000000000000000000000000600052603260045260246000fd5b906000526020600020906007020160050160149054906101000a900460ff1615610d055760018181548110610a3d577f4e487b7100000000000000000000000000000000000000000000000000000000600052603260045260246000fd5b9060005260206000209060070201604051806101000160405290816000820160009054906101000a900461ffff1661ffff1661ffff16815260200160018201548152602001600282018054610a91906130f3565b80601f0160208091040260200160405190810160405280929190818152602001828054610abd906130f3565b8015610b0a5780601f10610adf57610100808354040283529160200191610b0a565b820191906000526020600020905b815481529060010190602001808311610aed57829003601f168201915b50505050508152602001600382018054610b23906130f3565b80601f0160208091040260200160405190810160405280929190818152602001828054610b4f906130f3565b8015610b9c5780601f10610b7157610100808354040283529160200191610b9c565b820191906000526020600020905b815481529060010190602001808311610b7f57829003601f168201915b50505050508152602001600482018054610bb5906130f3565b80601f0160208091040260200160405190810160405280929190818152602001828054610be1906130f3565b8015610c2e5780601f10610c0357610100808354040283529160200191610c2e565b820191906000526020600020905b815481529060010190602001808311610c1157829003601f168201915b505050505081526020016005820160009054906101000a900473ffffffffffffffffffffffffffffffffffffffff1673ffffffffffffffffffffffffffffffffffffffff1673ffffffffffffffffffffffffffffffffffffffff1681526020016005820160149054906101000a900460ff16151515158152602001600682015481525050838281518110610ceb577f4e487b7100000000000000000000000000000000000000000000000000000000600052603260045260246000fd5b60200260200101819052508180610d0190613156565b9250505b8080610d1090613181565b91505061098b565b5060008161ffff1667ffffffffffffffff811115610d5f577f4e487b7100000000000000000000000000000000000000000000000000000000600052604160045260246000fd5b604051908082528060200260200182016040528015610d9857816020015b610d85612598565b815260200190600190039081610d7d5790505b50905060005b83518110156110f857838181518110610de0577f4e487b7100000000000000000000000000000000000000000000000000000000600052603260045260246000fd5b602002602001015160c00151156110e55760018181548110610e2b577f4e487b7100000000000000000000000000000000000000000000000000000000600052603260045260246000fd5b9060005260206000209060070201604051806101000160405290816000820160009054906101000a900461ffff1661ffff1661ffff16815260200160018201548152602001600282018054610e7f906130f3565b80601f0160208091040260200160405190810160405280929190818152602001828054610eab906130f3565b8015610ef85780601f10610ecd57610100808354040283529160200191610ef8565b820191906000526020600020905b815481529060010190602001808311610edb57829003601f168201915b50505050508152602001600382018054610f11906130f3565b80601f0160208091040260200160405190810160405280929190818152602001828054610f3d906130f3565b8015610f8a5780601f10610f5f57610100808354040283529160200191610f8a565b820191906000526020600020905b815481529060010190602001808311610f6d57829003601f168201915b50505050508152602001600482018054610fa3906130f3565b80601f0160208091040260200160405190810160405280929190818152602001828054610fcf906130f3565b801561101c5780601f10610ff15761010080835404028352916020019161101c565b820191906000526020600020905b815481529060010190602001808311610fff57829003601f168201915b505050505081526020016005820160009054906101000a900473ffffffffffffffffffffffffffffffffffffffff1673ffffffffffffffffffffffffffffffffffffffff1673ffffffffffffffffffffffffffffffffffffffff1681526020016005820160149054906101000a900460ff161515151581526020016006820154815250508282815181106110d9577f4e487b7100000000000000000000000000000000000000000000000000000000600052603260045260246000fd5b60200260200101819052505b80806110f090613181565b915050610d9e565b5080935050505090565b336000600260008373ffffffffffffffffffffffffffffffffffffffff1673ffffffffffffffffffffffffffffffffffffffff16815260200190815260200160002060000154141561115357600080fd5b84600060018261ffff1681548110611194577f4e487b7100000000000000000000000000000000000000000000000000000000600052603260045260246000fd5b90600052602060002090600702016001015414156111b157600080fd5b853373ffffffffffffffffffffffffffffffffffffffff1660018261ffff1681548110611207577f4e487b7100000000000000000000000000000000000000000000000000000000600052603260045260246000fd5b906000526020600020906007020160050160009054906101000a900473ffffffffffffffffffffffffffffffffffffffff1673ffffffffffffffffffffffffffffffffffffffff161461125957600080fd5b600060018861ffff1681548110611299577f4e487b7100000000000000000000000000000000000000000000000000000000600052603260045260246000fd5b90600052602060002090600702019050868160020190805190602001906112c1929190612512565b50848160040190805190602001906112da929190612512565b50858160030190805190602001906112f3929190612512565b504281600101819055507f6fa9ae7019b10f8eb5a1c3a19700521d5e6c99768d95bf5ca95d022be71b85d68160000160009054906101000a900461ffff1682600101548360020184600301856004018660050160009054906101000a900473ffffffffffffffffffffffffffffffffffffffff168760050160149054906101000a900460ff168860060154604051611392989796959493929190612e22565b60405180910390a15050505050505050565b606060008060009054906101000a900461ffff1661ffff1667ffffffffffffffff8111156113fb577f4e487b7100000000000000000000000000000000000000000000000000000000600052604160045260246000fd5b60405190808252806020026020018201604052801561143457816020015b611421612598565b8152602001906001900390816114195790505b50905060005b60008054906101000a900461ffff1661ffff168110156117fa573373ffffffffffffffffffffffffffffffffffffffff16600182815481106114a5577f4e487b7100000000000000000000000000000000000000000000000000000000600052603260045260246000fd5b906000526020600020906007020160050160009054906101000a900473ffffffffffffffffffffffffffffffffffffffff1673ffffffffffffffffffffffffffffffffffffffff1614156117e7576001818154811061152d577f4e487b7100000000000000000000000000000000000000000000000000000000600052603260045260246000fd5b9060005260206000209060070201604051806101000160405290816000820160009054906101000a900461ffff1661ffff1661ffff16815260200160018201548152602001600282018054611581906130f3565b80601f01602080910402602001604051908101604052809291908181526020018280546115ad906130f3565b80156115fa5780601f106115cf576101008083540402835291602001916115fa565b820191906000526020600020905b8154815290600101906020018083116115dd57829003601f168201915b50505050508152602001600382018054611613906130f3565b80601f016020809104026020016040519081016040528092919081815260200182805461163f906130f3565b801561168c5780601f106116615761010080835404028352916020019161168c565b820191906000526020600020905b81548152906001019060200180831161166f57829003601f168201915b505050505081526020016004820180546116a5906130f3565b80601f01602080910402602001604051908101604052809291908181526020018280546116d1906130f3565b801561171e5780601f106116f35761010080835404028352916020019161171e565b820191906000526020600020905b81548152906001019060200180831161170157829003601f168201915b505050505081526020016005820160009054906101000a900473ffffffffffffffffffffffffffffffffffffffff1673ffffffffffffffffffffffffffffffffffffffff1673ffffffffffffffffffffffffffffffffffffffff1681526020016005820160149054906101000a900460ff161515151581526020016006820154815250508282815181106117db577f4e487b7100000000000000000000000000000000000000000000000000000000600052603260045260246000fd5b60200260200101819052505b80806117f290613181565b91505061143a565b508091505090565b60026020528060005260406000206000915090508060000154908060010160009054906101000a900473ffffffffffffffffffffffffffffffffffffffff16908060020154908060030154905084565b60405180608001604052808281526020013373ffffffffffffffffffffffffffffffffffffffff168152602001600081526020016000815250600260003373ffffffffffffffffffffffffffffffffffffffff1673ffffffffffffffffffffffffffffffffffffffff1681526020019081526020016000206000820151816000015560208201518160010160006101000a81548173ffffffffffffffffffffffffffffffffffffffff021916908373ffffffffffffffffffffffffffffffffffffffff16021790555060408201518160020155606082015181600301559050507fa50219d9fe08f0c84080df6d3e14efcc4a4a138396328787c560d776875f5a0381336000806040516119689493929190612c91565b60405180910390a150565b61197b612598565b600060018361ffff16815481106119bb577f4e487b7100000000000000000000000000000000000000000000000000000000600052603260045260246000fd5b9060005260206000209060070201604051806101000160405290816000820160009054906101000a900461ffff1661ffff1661ffff16815260200160018201548152602001600282018054611a0f906130f3565b80601f0160208091040260200160405190810160405280929190818152602001828054611a3b906130f3565b8015611a885780601f10611a5d57610100808354040283529160200191611a88565b820191906000526020600020905b815481529060010190602001808311611a6b57829003601f168201915b50505050508152602001600382018054611aa1906130f3565b80601f0160208091040260200160405190810160405280929190818152602001828054611acd906130f3565b8015611b1a5780601f10611aef57610100808354040283529160200191611b1a565b820191906000526020600020905b815481529060010190602001808311611afd57829003601f168201915b50505050508152602001600482018054611b33906130f3565b80601f0160208091040260200160405190810160405280929190818152602001828054611b5f906130f3565b8015611bac5780601f10611b8157610100808354040283529160200191611bac565b820191906000526020600020905b815481529060010190602001808311611b8f57829003601f168201915b505050505081526020016005820160009054906101000a900473ffffffffffffffffffffffffffffffffffffffff1673ffffffffffffffffffffffffffffffffffffffff1673ffffffffffffffffffffffffffffffffffffffff1681526020016005820160149054906101000a900460ff1615151515815260200160068201548152505090508060c0015180611c7f57508060c00151158015611c7e57503373ffffffffffffffffffffffffffffffffffffffff168160a0015173ffffffffffffffffffffffffffffffffffffffff16145b5b15611c8d5780915050611c92565b600080fd5b919050565b80600060018261ffff1681548110611cd8577f4e487b7100000000000000000000000000000000000000000000000000000000600052603260045260246000fd5b9060005260206000209060070201600101541415611cf557600080fd5b813373ffffffffffffffffffffffffffffffffffffffff1660018261ffff1681548110611d4b577f4e487b7100000000000000000000000000000000000000000000000000000000600052603260045260246000fd5b906000526020600020906007020160050160009054906101000a900473ffffffffffffffffffffffffffffffffffffffff1673ffffffffffffffffffffffffffffffffffffffff161415611d9e57600080fd5b600060018461ffff1681548110611dde577f4e487b7100000000000000000000000000000000000000000000000000000000600052603260045260246000fd5b9060005260206000209060070201604051806101000160405290816000820160009054906101000a900461ffff1661ffff1661ffff16815260200160018201548152602001600282018054611e32906130f3565b80601f0160208091040260200160405190810160405280929190818152602001828054611e5e906130f3565b8015611eab5780601f10611e8057610100808354040283529160200191611eab565b820191906000526020600020905b815481529060010190602001808311611e8e57829003601f168201915b50505050508152602001600382018054611ec4906130f3565b80601f0160208091040260200160405190810160405280929190818152602001828054611ef0906130f3565b8015611f3d5780601f10611f1257610100808354040283529160200191611f3d565b820191906000526020600020905b815481529060010190602001808311611f2057829003601f168201915b50505050508152602001600482018054611f56906130f3565b80601f0160208091040260200160405190810160405280929190818152602001828054611f82906130f3565b8015611fcf5780601f10611fa457610100808354040283529160200191611fcf565b820191906000526020600020905b815481529060010190602001808311611fb257829003601f168201915b505050505081526020016005820160009054906101000a900473ffffffffffffffffffffffffffffffffffffffff1673ffffffffffffffffffffffffffffffffffffffff1673ffffffffffffffffffffffffffffffffffffffff1681526020016005820160149054906101000a900460ff16151515158152602001600682015481525050905060008160a0015190508073ffffffffffffffffffffffffffffffffffffffff166108fc349081150290604051600060405180830381858888f193505050501580156120a4573d6000803e3d6000fd5b50348260e001516120b59190612fa1565b8260e00181815250508160018661ffff16815481106120fd577f4e487b7100000000000000000000000000000000000000000000000000000000600052603260045260246000fd5b906000526020600020906007020160008201518160000160006101000a81548161ffff021916908361ffff160217905550602082015181600101556040820151816002019080519060200190612154929190612512565b506060820151816003019080519060200190612171929190612512565b50608082015181600401908051906020019061218e929190612512565b5060a08201518160050160006101000a81548173ffffffffffffffffffffffffffffffffffffffff021916908373ffffffffffffffffffffffffffffffffffffffff16021790555060c08201518160050160146101000a81548160ff02191690831515021790555060e082015181600601559050506000600260008373ffffffffffffffffffffffffffffffffffffffff1673ffffffffffffffffffffffffffffffffffffffff168152602001908152602001600020604051806080016040529081600082015481526020016001820160009054906101000a900473ffffffffffffffffffffffffffffffffffffffff1673ffffffffffffffffffffffffffffffffffffffff1673ffffffffffffffffffffffffffffffffffffffff1681526020016002820154815260200160038201548152505090503481604001516122d59190612fa1565b81604001818152505080600260008473ffffffffffffffffffffffffffffffffffffffff1673ffffffffffffffffffffffffffffffffffffffff1681526020019081526020016000206000820151816000015560208201518160010160006101000a81548173ffffffffffffffffffffffffffffffffffffffff021916908373ffffffffffffffffffffffffffffffffffffffff16021790555060408201518160020155606082015181600301559050506000600260003373ffffffffffffffffffffffffffffffffffffffff1673ffffffffffffffffffffffffffffffffffffffff168152602001908152602001600020604051806080016040529081600082015481526020016001820160009054906101000a900473ffffffffffffffffffffffffffffffffffffffff1673ffffffffffffffffffffffffffffffffffffffff1673ffffffffffffffffffffffffffffffffffffffff1681526020016002820154815260200160038201548152505090503481606001516124589190612fa1565b81606001818152505080600260003373ffffffffffffffffffffffffffffffffffffffff1673ffffffffffffffffffffffffffffffffffffffff1681526020019081526020016000206000820151816000015560208201518160010160006101000a81548173ffffffffffffffffffffffffffffffffffffffff021916908373ffffffffffffffffffffffffffffffffffffffff160217905550604082015181600201556060820151816003015590505050505050505050565b82805461251e906130f3565b90600052602060002090601f0160209004810192826125405760008555612587565b82601f1061255957805160ff1916838001178555612587565b82800160010185558215612587579182015b8281111561258657825182559160200191906001019061256b565b5b50905061259491906125f9565b5090565b604051806101000160405280600061ffff16815260200160008152602001606081526020016060815260200160608152602001600073ffffffffffffffffffffffffffffffffffffffff168152602001600015158152602001600081525090565b5b808211156126125760008160009055506001016125fa565b5090565b600061262961262484612ef5565b612ed0565b90508281526020810184848401111561264157600080fd5b61264c8482856130b1565b509392505050565b60008135905061266381613268565b92915050565b6000813590506126788161327f565b92915050565b600082601f83011261268f57600080fd5b813561269f848260208601612616565b91505092915050565b6000813590506126b781613296565b92915050565b6000813590506126cc816132ad565b92915050565b6000602082840312156126e457600080fd5b60006126f284828501612654565b91505092915050565b60006020828403121561270d57600080fd5b600061271b84828501612669565b91505092915050565b60008060006060848603121561273957600080fd5b600084013567ffffffffffffffff81111561275357600080fd5b61275f8682870161267e565b935050602084013567ffffffffffffffff81111561277c57600080fd5b6127888682870161267e565b925050604084013567ffffffffffffffff8111156127a557600080fd5b6127b18682870161267e565b9150509250925092565b6000602082840312156127cd57600080fd5b60006127db848285016126a8565b91505092915050565b600080600080608085870312156127fa57600080fd5b6000612808878288016126a8565b945050602085013567ffffffffffffffff81111561282557600080fd5b6128318782880161267e565b935050604085013567ffffffffffffffff81111561284e57600080fd5b61285a8782880161267e565b925050606085013567ffffffffffffffff81111561287757600080fd5b6128838782880161267e565b91505092959194509250565b6000602082840312156128a157600080fd5b60006128af848285016126bd565b91505092915050565b60006128c48383612a9c565b905092915050565b6128d581613069565b82525050565b6128e481613009565b82525050565b6128f381612ff7565b82525050565b600061290482612f4b565b61290e8185612f6e565b93508360208202850161292085612f26565b8060005b8581101561295c578484038952815161293d85826128b8565b945061294883612f61565b925060208a01995050600181019050612924565b50829750879550505050505092915050565b6129778161301b565b82525050565b6129868161301b565b82525050565b61299581613027565b82525050565b6129a48161307b565b82525050565b60006129b582612f56565b6129bf8185612f7f565b93506129cf8185602086016130c0565b6129d881613257565b840191505092915050565b60006129ee82612f56565b6129f88185612f90565b9350612a088185602086016130c0565b612a1181613257565b840191505092915050565b60008154612a29816130f3565b612a338186612f90565b94506001821660008114612a4e5760018114612a6057612a93565b60ff1983168652602086019350612a93565b612a6985612f36565b60005b83811015612a8b57815481890152600182019150602081019050612a6c565b808801955050505b50505092915050565b600061010083016000830151612ab56000860182612c18565b506020830151612ac86020860182612c36565b5060408301518482036040860152612ae082826129aa565b91505060608301518482036060860152612afa82826129aa565b91505060808301518482036080860152612b1482826129aa565b91505060a0830151612b2960a08601826128db565b5060c0830151612b3c60c086018261296e565b5060e0830151612b4f60e0860182612c36565b508091505092915050565b600061010083016000830151612b736000860182612c18565b506020830151612b866020860182612c36565b5060408301518482036040860152612b9e82826129aa565b91505060608301518482036060860152612bb882826129aa565b91505060808301518482036080860152612bd282826129aa565b91505060a0830151612be760a08601826128db565b5060c0830151612bfa60c086018261296e565b5060e0830151612c0d60e0860182612c36565b508091505092915050565b612c2181613031565b82525050565b612c3081613031565b82525050565b612c3f8161305f565b82525050565b612c4e8161305f565b82525050565b6000602082019050612c6960008301846128ea565b92915050565b60006020820190508181036000830152612c8981846128f9565b905092915050565b6000608082019050612ca6600083018761298c565b612cb360208301866128ea565b612cc0604083018561299b565b612ccd606083018461299b565b95945050505050565b6000608082019050612ceb600083018761298c565b612cf860208301866128ea565b612d056040830185612c45565b612d126060830184612c45565b95945050505050565b60006020820190508181036000830152612d358184612b5a565b905092915050565b6000602082019050612d526000830184612c27565b92915050565b6000606082019050612d6d6000830186612c27565b612d7a6020830185612c45565b612d87604083018461297d565b949350505050565b600061010082019050612da5600083018b612c27565b612db2602083018a612c45565b8181036040830152612dc481896129e3565b90508181036060830152612dd881886129e3565b90508181036080830152612dec81876129e3565b9050612dfb60a08301866128ea565b612e0860c083018561297d565b612e1560e083018461299b565b9998505050505050505050565b600061010082019050612e38600083018b612c27565b612e45602083018a612c45565b8181036040830152612e578189612a1c565b90508181036060830152612e6b8188612a1c565b90508181036080830152612e7f8187612a1c565b9050612e8e60a08301866128cc565b612e9b60c083018561297d565b612ea860e0830184612c45565b9998505050505050505050565b6000602082019050612eca6000830184612c45565b92915050565b6000612eda612eeb565b9050612ee68282613125565b919050565b6000604051905090565b600067ffffffffffffffff821115612f1057612f0f613228565b5b612f1982613257565b9050602081019050919050565b6000819050602082019050919050565b60008190508160005260206000209050919050565b600081519050919050565b600081519050919050565b6000602082019050919050565b600082825260208201905092915050565b600082825260208201905092915050565b600082825260208201905092915050565b6000612fac8261305f565b9150612fb78361305f565b9250827fffffffffffffffffffffffffffffffffffffffffffffffffffffffffffffffff03821115612fec57612feb6131ca565b5b828201905092915050565b60006130028261303f565b9050919050565b60006130148261303f565b9050919050565b60008115159050919050565b6000819050919050565b600061ffff82169050919050565b600073ffffffffffffffffffffffffffffffffffffffff82169050919050565b6000819050919050565b60006130748261308d565b9050919050565b60006130868261305f565b9050919050565b60006130988261309f565b9050919050565b60006130aa8261303f565b9050919050565b82818337600083830152505050565b60005b838110156130de5780820151818401526020810190506130c3565b838111156130ed576000848401525b50505050565b6000600282049050600182168061310b57607f821691505b6020821081141561311f5761311e6131f9565b5b50919050565b61312e82613257565b810181811067ffffffffffffffff8211171561314d5761314c613228565b5b80604052505050565b600061316182613031565b915061ffff821415613176576131756131ca565b5b600182019050919050565b600061318c8261305f565b91507fffffffffffffffffffffffffffffffffffffffffffffffffffffffffffffffff8214156131bf576131be6131ca565b5b600182019050919050565b7f4e487b7100000000000000000000000000000000000000000000000000000000600052601160045260246000fd5b7f4e487b7100000000000000000000000000000000000000000000000000000000600052602260045260246000fd5b7f4e487b7100000000000000000000000000000000000000000000000000000000600052604160045260246000fd5b6000601f19601f8301169050919050565b61327181612ff7565b811461327c57600080fd5b50565b61328881613027565b811461329357600080fd5b50565b61329f81613031565b81146132aa57600080fd5b50565b6132b68161305f565b81146132c157600080fd5b5056fea264697066735822122058d218f9ec7c24c5b164f1b728cbcfd720ff6422fc3997bec43c3ea36a3a2bbf64736f6c63430008040033516d51706d4c326b57365966546d47776d4e383241714e554168377262703672546a33514442614173725767636d",
  "immutableReferences": {},
  "source": "//SPDX-License-Identifier: Unlicense\npragma solidity ^0.8.4;\n\ncontract Blog {\n  struct User {\n    bytes32 name;\n    address wallet_address;\n    uint tips_received;\n    uint tips_sent;\n  }\n\n  struct Article {\n    uint16 id;\n    uint date;\n    string title;\n    string imageHash;\n    string content;\n    address payable author;\n    bool published;\n    uint tips;\n  }\n\n  uint16 public articleCount = 0;\n  Article[] private articles;\n\n  mapping(address => User) public users;\n  mapping(uint => address) public articleToUser;\n  mapping(address => uint) public userArticlesCount;\n\n   event UserCreated(\n    bytes32 name,\n    address wallet_address,\n    uint tips_received,\n    uint tips_sent\n  );\n\n  event ArticleCreated(\n    uint16 id,\n    uint date,\n    string title,\n    string imageHash,\n    string content,\n    address author,\n    bool published,\n    uint tips\n  );\n\n  event ArticleEdited(\n    uint16 id,\n    uint date,\n    string title,\n    string imageHash,\n    string content,\n    address author,\n    bool published,\n    uint tips\n  );\n\n  event ArticlePublished(\n    uint16 id,\n    uint date,\n    bool published\n  );\n\n  constructor() {\n    createUser(\"Tiago Dias\");\n    createArticle(\n      \"My first blog's title.\",\n      \"QmQpmL2kW6YfTmGwmN82AqNUAh7rbp6rTj3QDBaAsrWgcm\",\n      \"My first blog article content!\"\n    );\n    // createArticle(\n    //   \"My second blog's title.\",\n    //   \"QmfG4fbLdwbhaS3beJuAhJduhCuvrFd8cqui6EDzVkdGYd\",\n    //   \"It's about unicorns!\"\n    // );\n  }\n\n  // User Methods\n  function createUser(bytes32 _name) public {\n    users[msg.sender] = User(_name, msg.sender, 0, 0);\n    emit UserCreated(_name, msg.sender, 0, 0);\n  }\n\n  // Article Methods\n  function createArticle(string memory _title, string memory _imageHash, string memory _content) public userExists(msg.sender) {\n    articles.push(Article(articleCount, block.timestamp, _title, _imageHash, _content, payable(msg.sender), false, 0));\n    \n    articleToUser[articleCount] = msg.sender;\n    userArticlesCount[msg.sender] = userArticlesCount[msg.sender] + 1;\n\n    emit ArticleCreated(articleCount, articles[articleCount].date, _title, _imageHash, _content, msg.sender, false, 0);\n    articleCount++;\n  }\n\n  function editArticle(uint16 _id, string memory _title, string memory _imageHash, string memory _content)\n    public\n    userExists(msg.sender)\n    articleExists(_id)\n    isOwner(_id) {\n      \n      Article storage _article = articles[_id];\n      _article.title = _title;\n      _article.content = _content;\n      _article.imageHash = _imageHash;\n      _article.date = block.timestamp;\n\n      emit ArticleEdited(_article.id, _article.date, _article.title, _article.imageHash, _article.content, _article.author, _article.published, _article.tips);\n  }\n\n  function getArticle(uint16 _id) external view returns(Article memory) {\n      Article memory _article = articles[_id];\n\n      if (_article.published || (!_article.published && _article.author == msg.sender)) {\n        return _article;  \n      }\n\n      revert();\n  }\n\n  function getArticles() external view returns(Article[] memory) {\n      Article[] memory _articles = new Article[](articleCount);\n\n      uint16 _publishedCount = 0;\n\n      for(uint i = 0; i < articleCount; i++) {\n        // Only published articles are being sent\n        if (articles[i].published) {\n          _articles[i] = articles[i];\n          _publishedCount++;\n        }\n      }\n\n      Article[] memory _publishedArticles = new Article[](_publishedCount);\n      for(uint i = 0; i < _articles.length; i++) {\n        // Only published articles are being sent\n        if (_articles[i].published) {\n          _publishedArticles[i] = articles[i];\n        }\n      }\n\n      return _publishedArticles;\n  }\n\n  function getUserArticles() external view returns(Article[] memory) {\n\n      Article[] memory _articles = new Article[](articleCount);\n\n      for(uint i = 0; i < articleCount; i++) {\n        if (articles[i].author == msg.sender) {\n          _articles[i] = articles[i];\n        }\n      }\n\n      return _articles;\n  }\n\n  function togglePublished(uint16 _id) external articleExists(_id) isOwner(_id) {\n    Article storage _article = articles[_id];\n    _article.published = !_article.published;\n    _article.date = block.timestamp;\n    emit ArticlePublished(_article.id, _article.date, _article.published);\n  }\n\n  modifier userExists(address wallet_address) {\n    if (users[wallet_address].name == '') {\n      revert();\n    }\n    _;\n  }\n\n  modifier articleExists(uint16 _id) {\n    if(articles[_id].date == 0) {\n      revert();\n    }\n    _;\n  }\n\n  modifier isOwner(uint16 _id) {\n    if (articles[_id].author != msg.sender) {\n      revert();\n    }\n    _;\n  }\n\n  modifier isNotOwner(uint16 _id) {\n    if (articles[_id].author == msg.sender) {\n      revert();\n    }\n    _;\n  }\n\n  // Tips\n  function tipArticle(uint16 _id) public payable articleExists(_id) isNotOwner(_id) {\n    Article memory _article = articles[_id];\n\n    address payable _author_address = _article.author;\n    _author_address.transfer(msg.value);\n\n    _article.tips = _article.tips + msg.value;\n    articles[_id] = _article;\n    \n    User memory _author = users[_author_address];\n    _author.tips_received = _author.tips_received + msg.value;\n    users[_author_address] = _author;\n\n    User memory _tipper = users[msg.sender];\n    _tipper.tips_sent = _tipper.tips_sent + msg.value;\n    users[msg.sender] = _tipper;\n  }\n\n}",
  "sourcePath": "/Users/tiagodias/Desktop/Personal Dev/Blockchain/Blog/contracts/Blog.sol",
  "compiler": {
    "name": "solc",
    "version": "0.8.4+commit.c7e474f2.Emscripten.clang"
  },
  "schemaVersion": "3.3.4",
  "updatedAt": "2021-05-05T16:15:33.924Z",
  "networkType": "ethereum",
  "devdoc": {
    "kind": "dev",
    "methods": {},
    "version": 1
  },
  "userdoc": {
    "kind": "user",
    "methods": {},
    "version": 1
  }
}