{
  "contractName": "Blog",
  "abi": [
    {
      "inputs": [],
      "stateMutability": "nonpayable",
      "type": "constructor"
    },
    {
      "anonymous": false,
      "inputs": [
        {
          "indexed": false,
          "internalType": "uint16",
          "name": "id",
          "type": "uint16"
        },
        {
          "indexed": false,
          "internalType": "uint256",
          "name": "date",
          "type": "uint256"
        },
        {
          "indexed": false,
          "internalType": "string",
          "name": "title",
          "type": "string"
        },
        {
          "indexed": false,
          "internalType": "string",
          "name": "imageHash",
          "type": "string"
        },
        {
          "indexed": false,
          "internalType": "string",
          "name": "content",
          "type": "string"
        },
        {
          "indexed": false,
          "internalType": "address",
          "name": "author",
          "type": "address"
        },
        {
          "indexed": false,
          "internalType": "bool",
          "name": "published",
          "type": "bool"
        },
        {
          "indexed": false,
          "internalType": "uint256",
          "name": "tips",
          "type": "uint256"
        }
      ],
      "name": "ArticleCreated",
      "type": "event"
    },
    {
      "anonymous": false,
      "inputs": [
        {
          "indexed": false,
          "internalType": "uint16",
          "name": "id",
          "type": "uint16"
        },
        {
          "indexed": false,
          "internalType": "uint256",
          "name": "date",
          "type": "uint256"
        },
        {
          "indexed": false,
          "internalType": "bool",
          "name": "published",
          "type": "bool"
        }
      ],
      "name": "ArticlePublished",
      "type": "event"
    },
    {
      "anonymous": false,
      "inputs": [
        {
          "indexed": false,
          "internalType": "bytes32",
          "name": "name",
          "type": "bytes32"
        },
        {
          "indexed": false,
          "internalType": "address",
          "name": "wallet_address",
          "type": "address"
        },
        {
          "indexed": false,
          "internalType": "uint256",
          "name": "tips_received",
          "type": "uint256"
        },
        {
          "indexed": false,
          "internalType": "uint256",
          "name": "tips_sent",
          "type": "uint256"
        }
      ],
      "name": "UserCreated",
      "type": "event"
    },
    {
      "inputs": [],
      "name": "articleCount",
      "outputs": [
        {
          "internalType": "uint16",
          "name": "",
          "type": "uint16"
        }
      ],
      "stateMutability": "view",
      "type": "function",
      "constant": true
    },
    {
      "inputs": [
        {
          "internalType": "uint256",
          "name": "",
          "type": "uint256"
        }
      ],
      "name": "articleToUser",
      "outputs": [
        {
          "internalType": "address",
          "name": "",
          "type": "address"
        }
      ],
      "stateMutability": "view",
      "type": "function",
      "constant": true
    },
    {
      "inputs": [
        {
          "internalType": "uint256",
          "name": "",
          "type": "uint256"
        }
      ],
      "name": "articles",
      "outputs": [
        {
          "internalType": "uint16",
          "name": "id",
          "type": "uint16"
        },
        {
          "internalType": "uint256",
          "name": "date",
          "type": "uint256"
        },
        {
          "internalType": "string",
          "name": "title",
          "type": "string"
        },
        {
          "internalType": "string",
          "name": "imageHash",
          "type": "string"
        },
        {
          "internalType": "string",
          "name": "content",
          "type": "string"
        },
        {
          "internalType": "address payable",
          "name": "author",
          "type": "address"
        },
        {
          "internalType": "bool",
          "name": "published",
          "type": "bool"
        },
        {
          "internalType": "uint256",
          "name": "tips",
          "type": "uint256"
        }
      ],
      "stateMutability": "view",
      "type": "function",
      "constant": true
    },
    {
      "inputs": [
        {
          "internalType": "address",
          "name": "",
          "type": "address"
        }
      ],
      "name": "userArticlesCount",
      "outputs": [
        {
          "internalType": "uint256",
          "name": "",
          "type": "uint256"
        }
      ],
      "stateMutability": "view",
      "type": "function",
      "constant": true
    },
    {
      "inputs": [
        {
          "internalType": "address",
          "name": "",
          "type": "address"
        }
      ],
      "name": "users",
      "outputs": [
        {
          "internalType": "bytes32",
          "name": "name",
          "type": "bytes32"
        },
        {
          "internalType": "address",
          "name": "wallet_address",
          "type": "address"
        },
        {
          "internalType": "uint256",
          "name": "tips_received",
          "type": "uint256"
        },
        {
          "internalType": "uint256",
          "name": "tips_sent",
          "type": "uint256"
        }
      ],
      "stateMutability": "view",
      "type": "function",
      "constant": true
    },
    {
      "inputs": [
        {
          "internalType": "bytes32",
          "name": "_name",
          "type": "bytes32"
        }
      ],
      "name": "createUser",
      "outputs": [],
      "stateMutability": "nonpayable",
      "type": "function"
    },
    {
      "inputs": [
        {
          "internalType": "string",
          "name": "_title",
          "type": "string"
        },
        {
          "internalType": "string",
          "name": "_imageHash",
          "type": "string"
        },
        {
          "internalType": "string",
          "name": "_content",
          "type": "string"
        }
      ],
      "name": "createArticle",
      "outputs": [],
      "stateMutability": "nonpayable",
      "type": "function"
    },
    {
      "inputs": [],
      "name": "getArticles",
      "outputs": [
        {
          "internalType": "uint16[]",
          "name": "",
          "type": "uint16[]"
        },
        {
          "internalType": "uint256[]",
          "name": "",
          "type": "uint256[]"
        },
        {
          "internalType": "string[]",
          "name": "",
          "type": "string[]"
        },
        {
          "internalType": "string[]",
          "name": "",
          "type": "string[]"
        },
        {
          "internalType": "string[]",
          "name": "",
          "type": "string[]"
        },
        {
          "internalType": "address[]",
          "name": "",
          "type": "address[]"
        },
        {
          "internalType": "bool[]",
          "name": "",
          "type": "bool[]"
        },
        {
          "internalType": "uint256[]",
          "name": "",
          "type": "uint256[]"
        }
      ],
      "stateMutability": "view",
      "type": "function",
      "constant": true
    },
    {
      "inputs": [
        {
          "internalType": "uint16",
          "name": "_id",
          "type": "uint16"
        }
      ],
      "name": "togglePublished",
      "outputs": [],
      "stateMutability": "nonpayable",
      "type": "function"
    },
    {
      "inputs": [
        {
          "internalType": "uint16",
          "name": "_id",
          "type": "uint16"
        }
      ],
      "name": "tipArticle",
      "outputs": [],
      "stateMutability": "payable",
      "type": "function",
      "payable": true
    }
  ],
  "bytecode": "0x608060405260008060006101000a81548161ffff021916908361ffff1602179055503480156200002e57600080fd5b50620000607f546961676f204469617300000000000000000000000000000000000000000000620000fc60201b60201c565b620000f66040518060400160405280601681526020017f4d7920666972737420626c6f672773207469746c652e000000000000000000008152506040518060600160405280602e8152602001620037ea602e91396040518060400160405280601e81526020017f4d7920666972737420626c6f672061727469636c6520636f6e74656e742100008152506200021f60201b60201c565b62000a2c565b60405180608001604052808281526020013373ffffffffffffffffffffffffffffffffffffffff168152602001600081526020016000815250600260003373ffffffffffffffffffffffffffffffffffffffff1673ffffffffffffffffffffffffffffffffffffffff1681526020019081526020016000206000820151816000015560208201518160010160006101000a81548173ffffffffffffffffffffffffffffffffffffffff021916908373ffffffffffffffffffffffffffffffffffffffff16021790555060408201518160020155606082015181600301559050507fa50219d9fe08f0c84080df6d3e14efcc4a4a138396328787c560d776875f5a03813360008060405162000214949392919062000742565b60405180910390a150565b336000600260008373ffffffffffffffffffffffffffffffffffffffff1673ffffffffffffffffffffffffffffffffffffffff1681526020019081526020016000206000015414156200027157600080fd5b600160405180610100016040528060008054906101000a900461ffff1661ffff1681526020014281526020018681526020018581526020018481526020013373ffffffffffffffffffffffffffffffffffffffff1681526020016000151581526020016000815250908060018154018082558091505060019003906000526020600020906007020160009091909190915060008201518160000160006101000a81548161ffff021916908361ffff1602179055506020820151816001015560408201518160020190805190602001906200034d929190620005eb565b5060608201518160030190805190602001906200036c929190620005eb565b5060808201518160040190805190602001906200038b929190620005eb565b5060a08201518160050160006101000a81548173ffffffffffffffffffffffffffffffffffffffff021916908373ffffffffffffffffffffffffffffffffffffffff16021790555060c08201518160050160146101000a81548160ff02191690831515021790555060e08201518160060155505033600360008060009054906101000a900461ffff1661ffff16815260200190815260200160002060006101000a81548173ffffffffffffffffffffffffffffffffffffffff021916908373ffffffffffffffffffffffffffffffffffffffff1602179055506001600460003373ffffffffffffffffffffffffffffffffffffffff1673ffffffffffffffffffffffffffffffffffffffff16815260200190815260200160002054620004b291906200084e565b600460003373ffffffffffffffffffffffffffffffffffffffff1673ffffffffffffffffffffffffffffffffffffffff168152602001908152602001600020819055507fd45a18f512a868a957b292903d58190ae32786655c138111e70120b435041d8c60008054906101000a900461ffff16600160008054906101000a900461ffff1661ffff168154811062000572577f4e487b7100000000000000000000000000000000000000000000000000000000600052603260045260246000fd5b90600052602060002090600702016001015486868633600080604051620005a19897969594939291906200078f565b60405180910390a160008081819054906101000a900461ffff1680929190620005ca906200098d565b91906101000a81548161ffff021916908361ffff1602179055505050505050565b828054620005f99062000957565b90600052602060002090601f0160209004810192826200061d576000855562000669565b82601f106200063857805160ff191683800117855562000669565b8280016001018555821562000669579182015b82811115620006685782518255916020019190600101906200064b565b5b5090506200067891906200067c565b5090565b5b80821115620006975760008160009055506001016200067d565b5090565b620006a681620008ab565b82525050565b620006b781620008bf565b82525050565b620006c881620008cb565b82525050565b620006d9816200090d565b82525050565b6000620006ec8262000832565b620006f881856200083d565b93506200070a81856020860162000921565b620007158162000a1b565b840191505092915050565b6200072b81620008d5565b82525050565b6200073c8162000903565b82525050565b6000608082019050620007596000830187620006bd565b6200076860208301866200069b565b620007776040830185620006ce565b620007866060830184620006ce565b95945050505050565b600061010082019050620007a7600083018b62000720565b620007b6602083018a62000731565b8181036040830152620007ca8189620006df565b90508181036060830152620007e08188620006df565b90508181036080830152620007f68187620006df565b90506200080760a08301866200069b565b6200081660c0830185620006ac565b6200082560e0830184620006ce565b9998505050505050505050565b600081519050919050565b600082825260208201905092915050565b60006200085b8262000903565b9150620008688362000903565b9250827fffffffffffffffffffffffffffffffffffffffffffffffffffffffffffffffff03821115620008a0576200089f620009bd565b5b828201905092915050565b6000620008b882620008e3565b9050919050565b60008115159050919050565b6000819050919050565b600061ffff82169050919050565b600073ffffffffffffffffffffffffffffffffffffffff82169050919050565b6000819050919050565b60006200091a8262000903565b9050919050565b60005b838110156200094157808201518184015260208101905062000924565b8381111562000951576000848401525b50505050565b600060028204905060018216806200097057607f821691505b60208210811415620009875762000986620009ec565b5b50919050565b60006200099a82620008d5565b915061ffff821415620009b257620009b1620009bd565b5b600182019050919050565b7f4e487b7100000000000000000000000000000000000000000000000000000000600052601160045260246000fd5b7f4e487b7100000000000000000000000000000000000000000000000000000000600052602260045260246000fd5b6000601f19601f8301169050919050565b612dae8062000a3c6000396000f3fe6080604052600436106100915760003560e01c80636529f44a116100595780636529f44a1461018d578063a87430ba146101bf578063abf7bfd8146101ff578063edcfafe614610228578063fd4214fe1461026c57610091565b8063056a86bb146100965780631686e838146100bf5780632dd9437f146100fc578063414e28b0146101255780635a35406314610150575b600080fd5b3480156100a257600080fd5b506100bd60048036038101906100b89190612233565b610288565b005b3480156100cb57600080fd5b506100e660048036038101906100e1919061214a565b61047d565b6040516100f391906128d0565b60405180910390f35b34801561010857600080fd5b50610123600480360381019061011e919061219c565b610495565b005b34801561013157600080fd5b5061013a610853565b6040516101479190612758565b60405180910390f35b34801561015c57600080fd5b506101776004803603810190610172919061225c565b610865565b60405161018491906125fd565b60405180910390f35b34801561019957600080fd5b506101a2610898565b6040516101b6989796959493929190612618565b60405180910390f35b3480156101cb57600080fd5b506101e660048036038101906101e1919061214a565b6113d4565b6040516101f69493929190612713565b60405180910390f35b34801561020b57600080fd5b5061022660048036038101906102219190612173565b611424565b005b34801561023457600080fd5b5061024f600480360381019061024a919061225c565b611545565b6040516102639897969594939291906127aa565b60405180910390f35b61028660048036038101906102819190612233565b611770565b005b80600060018261ffff16815481106102c9577f4e487b7100000000000000000000000000000000000000000000000000000000600052603260045260246000fd5b90600052602060002090600702016001015414156102e657600080fd5b813373ffffffffffffffffffffffffffffffffffffffff1660018261ffff168154811061033c577f4e487b7100000000000000000000000000000000000000000000000000000000600052603260045260246000fd5b906000526020600020906007020160050160009054906101000a900473ffffffffffffffffffffffffffffffffffffffff1673ffffffffffffffffffffffffffffffffffffffff161461038e57600080fd5b600060018461ffff16815481106103ce577f4e487b7100000000000000000000000000000000000000000000000000000000600052603260045260246000fd5b906000526020600020906007020190508060050160149054906101000a900460ff16158160050160146101000a81548160ff0219169083151502179055504281600101819055507f14e88741af6b08028f509f1124d07f4f703011ddc2d1e829927f69fc5cc8aadf8160000160009054906101000a900461ffff1682600101548360050160149054906101000a900460ff1660405161046f93929190612773565b60405180910390a150505050565b60046020528060005260406000206000915090505481565b336000600260008373ffffffffffffffffffffffffffffffffffffffff1673ffffffffffffffffffffffffffffffffffffffff1681526020019081526020016000206000015414156104e657600080fd5b600160405180610100016040528060008054906101000a900461ffff1661ffff1681526020014281526020018681526020018581526020018481526020013373ffffffffffffffffffffffffffffffffffffffff1681526020016000151581526020016000815250908060018154018082558091505060019003906000526020600020906007020160009091909190915060008201518160000160006101000a81548161ffff021916908361ffff1602179055506020820151816001015560408201518160020190805190602001906105c0929190611feb565b5060608201518160030190805190602001906105dd929190611feb565b5060808201518160040190805190602001906105fa929190611feb565b5060a08201518160050160006101000a81548173ffffffffffffffffffffffffffffffffffffffff021916908373ffffffffffffffffffffffffffffffffffffffff16021790555060c08201518160050160146101000a81548160ff02191690831515021790555060e08201518160060155505033600360008060009054906101000a900461ffff1661ffff16815260200190815260200160002060006101000a81548173ffffffffffffffffffffffffffffffffffffffff021916908373ffffffffffffffffffffffffffffffffffffffff1602179055506001600460003373ffffffffffffffffffffffffffffffffffffffff1673ffffffffffffffffffffffffffffffffffffffff1681526020019081526020016000205461071f9190612a8b565b600460003373ffffffffffffffffffffffffffffffffffffffff1673ffffffffffffffffffffffffffffffffffffffff168152602001908152602001600020819055507fd45a18f512a868a957b292903d58190ae32786655c138111e70120b435041d8c60008054906101000a900461ffff16600160008054906101000a900461ffff1661ffff16815481106107de577f4e487b7100000000000000000000000000000000000000000000000000000000600052603260045260246000fd5b9060005260206000209060070201600101548686863360008060405161080b98979695949392919061283d565b60405180910390a160008081819054906101000a900461ffff168092919061083290612c0a565b91906101000a81548161ffff021916908361ffff1602179055505050505050565b60008054906101000a900461ffff1681565b60036020528060005260406000206000915054906101000a900473ffffffffffffffffffffffffffffffffffffffff1681565b60608060608060608060608060008060009054906101000a900461ffff1661ffff1667ffffffffffffffff8111156108f9577f4e487b7100000000000000000000000000000000000000000000000000000000600052604160045260246000fd5b6040519080825280602002602001820160405280156109275781602001602082028036833780820191505090505b50905060008060009054906101000a900461ffff1661ffff1667ffffffffffffffff81111561097f577f4e487b7100000000000000000000000000000000000000000000000000000000600052604160045260246000fd5b6040519080825280602002602001820160405280156109ad5781602001602082028036833780820191505090505b50905060008060009054906101000a900461ffff1661ffff1667ffffffffffffffff811115610a05577f4e487b7100000000000000000000000000000000000000000000000000000000600052604160045260246000fd5b604051908082528060200260200182016040528015610a3857816020015b6060815260200190600190039081610a235790505b50905060008060009054906101000a900461ffff1661ffff1667ffffffffffffffff811115610a90577f4e487b7100000000000000000000000000000000000000000000000000000000600052604160045260246000fd5b604051908082528060200260200182016040528015610ac357816020015b6060815260200190600190039081610aae5790505b50905060008060009054906101000a900461ffff1661ffff1667ffffffffffffffff811115610b1b577f4e487b7100000000000000000000000000000000000000000000000000000000600052604160045260246000fd5b604051908082528060200260200182016040528015610b4e57816020015b6060815260200190600190039081610b395790505b50905060008060009054906101000a900461ffff1661ffff1667ffffffffffffffff811115610ba6577f4e487b7100000000000000000000000000000000000000000000000000000000600052604160045260246000fd5b604051908082528060200260200182016040528015610bd45781602001602082028036833780820191505090505b50905060008060009054906101000a900461ffff1661ffff1667ffffffffffffffff811115610c2c577f4e487b7100000000000000000000000000000000000000000000000000000000600052604160045260246000fd5b604051908082528060200260200182016040528015610c5a5781602001602082028036833780820191505090505b50905060008060009054906101000a900461ffff1661ffff1667ffffffffffffffff811115610cb2577f4e487b7100000000000000000000000000000000000000000000000000000000600052604160045260246000fd5b604051908082528060200260200182016040528015610ce05781602001602082028036833780820191505090505b50905060005b60008054906101000a900461ffff1661ffff168110156113a95760018181548110610d3a577f4e487b7100000000000000000000000000000000000000000000000000000000600052603260045260246000fd5b906000526020600020906007020160000160009054906101000a900461ffff16898281518110610d93577f4e487b7100000000000000000000000000000000000000000000000000000000600052603260045260246000fd5b602002602001019061ffff16908161ffff168152505060018181548110610de3577f4e487b7100000000000000000000000000000000000000000000000000000000600052603260045260246000fd5b906000526020600020906007020160010154888281518110610e2e577f4e487b7100000000000000000000000000000000000000000000000000000000600052603260045260246000fd5b60200260200101818152505060018181548110610e74577f4e487b7100000000000000000000000000000000000000000000000000000000600052603260045260246000fd5b90600052602060002090600702016002018054610e9090612ba7565b80601f0160208091040260200160405190810160405280929190818152602001828054610ebc90612ba7565b8015610f095780601f10610ede57610100808354040283529160200191610f09565b820191906000526020600020905b815481529060010190602001808311610eec57829003601f168201915b5050505050878281518110610f47577f4e487b7100000000000000000000000000000000000000000000000000000000600052603260045260246000fd5b602002602001018190525060018181548110610f8c577f4e487b7100000000000000000000000000000000000000000000000000000000600052603260045260246000fd5b90600052602060002090600702016003018054610fa890612ba7565b80601f0160208091040260200160405190810160405280929190818152602001828054610fd490612ba7565b80156110215780601f10610ff657610100808354040283529160200191611021565b820191906000526020600020905b81548152906001019060200180831161100457829003601f168201915b505050505086828151811061105f577f4e487b7100000000000000000000000000000000000000000000000000000000600052603260045260246000fd5b6020026020010181905250600181815481106110a4577f4e487b7100000000000000000000000000000000000000000000000000000000600052603260045260246000fd5b906000526020600020906007020160040180546110c090612ba7565b80601f01602080910402602001604051908101604052809291908181526020018280546110ec90612ba7565b80156111395780601f1061110e57610100808354040283529160200191611139565b820191906000526020600020905b81548152906001019060200180831161111c57829003601f168201915b5050505050858281518110611177577f4e487b7100000000000000000000000000000000000000000000000000000000600052603260045260246000fd5b6020026020010181905250600181815481106111bc577f4e487b7100000000000000000000000000000000000000000000000000000000600052603260045260246000fd5b906000526020600020906007020160050160009054906101000a900473ffffffffffffffffffffffffffffffffffffffff16848281518110611227577f4e487b7100000000000000000000000000000000000000000000000000000000600052603260045260246000fd5b602002602001019073ffffffffffffffffffffffffffffffffffffffff16908173ffffffffffffffffffffffffffffffffffffffff16815250506001818154811061129b577f4e487b7100000000000000000000000000000000000000000000000000000000600052603260045260246000fd5b906000526020600020906007020160050160149054906101000a900460ff168382815181106112f3577f4e487b7100000000000000000000000000000000000000000000000000000000600052603260045260246000fd5b6020026020010190151590811515815250506001818154811061133f577f4e487b7100000000000000000000000000000000000000000000000000000000600052603260045260246000fd5b90600052602060002090600702016006015482828151811061138a577f4e487b7100000000000000000000000000000000000000000000000000000000600052603260045260246000fd5b60200260200101818152505080806113a190612c35565b915050610ce6565b5087878787878787879f509f509f509f509f509f509f509f5050505050505050509091929394959697565b60026020528060005260406000206000915090508060000154908060010160009054906101000a900473ffffffffffffffffffffffffffffffffffffffff16908060020154908060030154905084565b60405180608001604052808281526020013373ffffffffffffffffffffffffffffffffffffffff168152602001600081526020016000815250600260003373ffffffffffffffffffffffffffffffffffffffff1673ffffffffffffffffffffffffffffffffffffffff1681526020019081526020016000206000820151816000015560208201518160010160006101000a81548173ffffffffffffffffffffffffffffffffffffffff021916908373ffffffffffffffffffffffffffffffffffffffff16021790555060408201518160020155606082015181600301559050507fa50219d9fe08f0c84080df6d3e14efcc4a4a138396328787c560d776875f5a03813360008060405161153a94939291906126ce565b60405180910390a150565b6001818154811061155557600080fd5b90600052602060002090600702016000915090508060000160009054906101000a900461ffff169080600101549080600201805461159290612ba7565b80601f01602080910402602001604051908101604052809291908181526020018280546115be90612ba7565b801561160b5780601f106115e05761010080835404028352916020019161160b565b820191906000526020600020905b8154815290600101906020018083116115ee57829003601f168201915b50505050509080600301805461162090612ba7565b80601f016020809104026020016040519081016040528092919081815260200182805461164c90612ba7565b80156116995780601f1061166e57610100808354040283529160200191611699565b820191906000526020600020905b81548152906001019060200180831161167c57829003601f168201915b5050505050908060040180546116ae90612ba7565b80601f01602080910402602001604051908101604052809291908181526020018280546116da90612ba7565b80156117275780601f106116fc57610100808354040283529160200191611727565b820191906000526020600020905b81548152906001019060200180831161170a57829003601f168201915b5050505050908060050160009054906101000a900473ffffffffffffffffffffffffffffffffffffffff16908060050160149054906101000a900460ff16908060060154905088565b80600060018261ffff16815481106117b1577f4e487b7100000000000000000000000000000000000000000000000000000000600052603260045260246000fd5b90600052602060002090600702016001015414156117ce57600080fd5b813373ffffffffffffffffffffffffffffffffffffffff1660018261ffff1681548110611824577f4e487b7100000000000000000000000000000000000000000000000000000000600052603260045260246000fd5b906000526020600020906007020160050160009054906101000a900473ffffffffffffffffffffffffffffffffffffffff1673ffffffffffffffffffffffffffffffffffffffff16141561187757600080fd5b600060018461ffff16815481106118b7577f4e487b7100000000000000000000000000000000000000000000000000000000600052603260045260246000fd5b9060005260206000209060070201604051806101000160405290816000820160009054906101000a900461ffff1661ffff1661ffff1681526020016001820154815260200160028201805461190b90612ba7565b80601f016020809104026020016040519081016040528092919081815260200182805461193790612ba7565b80156119845780601f1061195957610100808354040283529160200191611984565b820191906000526020600020905b81548152906001019060200180831161196757829003601f168201915b5050505050815260200160038201805461199d90612ba7565b80601f01602080910402602001604051908101604052809291908181526020018280546119c990612ba7565b8015611a165780601f106119eb57610100808354040283529160200191611a16565b820191906000526020600020905b8154815290600101906020018083116119f957829003601f168201915b50505050508152602001600482018054611a2f90612ba7565b80601f0160208091040260200160405190810160405280929190818152602001828054611a5b90612ba7565b8015611aa85780601f10611a7d57610100808354040283529160200191611aa8565b820191906000526020600020905b815481529060010190602001808311611a8b57829003601f168201915b505050505081526020016005820160009054906101000a900473ffffffffffffffffffffffffffffffffffffffff1673ffffffffffffffffffffffffffffffffffffffff1673ffffffffffffffffffffffffffffffffffffffff1681526020016005820160149054906101000a900460ff16151515158152602001600682015481525050905060008160a0015190508073ffffffffffffffffffffffffffffffffffffffff166108fc349081150290604051600060405180830381858888f19350505050158015611b7d573d6000803e3d6000fd5b50348260e00151611b8e9190612a8b565b8260e00181815250508160018661ffff1681548110611bd6577f4e487b7100000000000000000000000000000000000000000000000000000000600052603260045260246000fd5b906000526020600020906007020160008201518160000160006101000a81548161ffff021916908361ffff160217905550602082015181600101556040820151816002019080519060200190611c2d929190611feb565b506060820151816003019080519060200190611c4a929190611feb565b506080820151816004019080519060200190611c67929190611feb565b5060a08201518160050160006101000a81548173ffffffffffffffffffffffffffffffffffffffff021916908373ffffffffffffffffffffffffffffffffffffffff16021790555060c08201518160050160146101000a81548160ff02191690831515021790555060e082015181600601559050506000600260008373ffffffffffffffffffffffffffffffffffffffff1673ffffffffffffffffffffffffffffffffffffffff168152602001908152602001600020604051806080016040529081600082015481526020016001820160009054906101000a900473ffffffffffffffffffffffffffffffffffffffff1673ffffffffffffffffffffffffffffffffffffffff1673ffffffffffffffffffffffffffffffffffffffff168152602001600282015481526020016003820154815250509050348160400151611dae9190612a8b565b81604001818152505080600260008473ffffffffffffffffffffffffffffffffffffffff1673ffffffffffffffffffffffffffffffffffffffff1681526020019081526020016000206000820151816000015560208201518160010160006101000a81548173ffffffffffffffffffffffffffffffffffffffff021916908373ffffffffffffffffffffffffffffffffffffffff16021790555060408201518160020155606082015181600301559050506000600260003373ffffffffffffffffffffffffffffffffffffffff1673ffffffffffffffffffffffffffffffffffffffff168152602001908152602001600020604051806080016040529081600082015481526020016001820160009054906101000a900473ffffffffffffffffffffffffffffffffffffffff1673ffffffffffffffffffffffffffffffffffffffff1673ffffffffffffffffffffffffffffffffffffffff168152602001600282015481526020016003820154815250509050348160600151611f319190612a8b565b81606001818152505080600260003373ffffffffffffffffffffffffffffffffffffffff1673ffffffffffffffffffffffffffffffffffffffff1681526020019081526020016000206000820151816000015560208201518160010160006101000a81548173ffffffffffffffffffffffffffffffffffffffff021916908373ffffffffffffffffffffffffffffffffffffffff160217905550604082015181600201556060820151816003015590505050505050505050565b828054611ff790612ba7565b90600052602060002090601f0160209004810192826120195760008555612060565b82601f1061203257805160ff1916838001178555612060565b82800160010185558215612060579182015b8281111561205f578251825591602001919060010190612044565b5b50905061206d9190612071565b5090565b5b8082111561208a576000816000905550600101612072565b5090565b60006120a161209c84612910565b6128eb565b9050828152602081018484840111156120b957600080fd5b6120c4848285612b65565b509392505050565b6000813590506120db81612d1c565b92915050565b6000813590506120f081612d33565b92915050565b600082601f83011261210757600080fd5b813561211784826020860161208e565b91505092915050565b60008135905061212f81612d4a565b92915050565b60008135905061214481612d61565b92915050565b60006020828403121561215c57600080fd5b600061216a848285016120cc565b91505092915050565b60006020828403121561218557600080fd5b6000612193848285016120e1565b91505092915050565b6000806000606084860312156121b157600080fd5b600084013567ffffffffffffffff8111156121cb57600080fd5b6121d7868287016120f6565b935050602084013567ffffffffffffffff8111156121f457600080fd5b612200868287016120f6565b925050604084013567ffffffffffffffff81111561221d57600080fd5b612229868287016120f6565b9150509250925092565b60006020828403121561224557600080fd5b600061225384828501612120565b91505092915050565b60006020828403121561226e57600080fd5b600061227c84828501612135565b91505092915050565b60006122918383612308565b60208301905092915050565b60006122a98383612513565b60208301905092915050565b60006122c1838361254f565b905092915050565b60006122d583836125c1565b60208301905092915050565b60006122ed83836125df565b60208301905092915050565b61230281612af3565b82525050565b61231181612ae1565b82525050565b61232081612ae1565b82525050565b600061233182612991565b61233b8185612a14565b935061234683612941565b8060005b8381101561237757815161235e8882612285565b9750612369836129d3565b92505060018101905061234a565b5085935050505092915050565b600061238f8261299c565b6123998185612a25565b93506123a483612951565b8060005b838110156123d55781516123bc888261229d565b97506123c7836129e0565b9250506001810190506123a8565b5085935050505092915050565b60006123ed826129a7565b6123f78185612a36565b93508360208202850161240985612961565b8060005b85811015612445578484038952815161242685826122b5565b9450612431836129ed565b925060208a0199505060018101905061240d565b50829750879550505050505092915050565b6000612462826129b2565b61246c8185612a47565b935061247783612971565b8060005b838110156124a857815161248f88826122c9565b975061249a836129fa565b92505060018101905061247b565b5085935050505092915050565b60006124c0826129bd565b6124ca8185612a58565b93506124d583612981565b8060005b838110156125065781516124ed88826122e1565b97506124f883612a07565b9250506001810190506124d9565b5085935050505092915050565b61251c81612b05565b82525050565b61252b81612b05565b82525050565b61253a81612b11565b82525050565b61254981612b53565b82525050565b600061255a826129c8565b6125648185612a69565b9350612574818560208601612b74565b61257d81612d0b565b840191505092915050565b6000612593826129c8565b61259d8185612a7a565b93506125ad818560208601612b74565b6125b681612d0b565b840191505092915050565b6125ca81612b1b565b82525050565b6125d981612b1b565b82525050565b6125e881612b49565b82525050565b6125f781612b49565b82525050565b60006020820190506126126000830184612317565b92915050565b6000610100820190508181036000830152612633818b612457565b90508181036020830152612647818a6124b5565b9050818103604083015261265b81896123e2565b9050818103606083015261266f81886123e2565b9050818103608083015261268381876123e2565b905081810360a08301526126978186612326565b905081810360c08301526126ab8185612384565b905081810360e08301526126bf81846124b5565b90509998505050505050505050565b60006080820190506126e36000830187612531565b6126f06020830186612317565b6126fd6040830185612540565b61270a6060830184612540565b95945050505050565b60006080820190506127286000830187612531565b6127356020830186612317565b61274260408301856125ee565b61274f60608301846125ee565b95945050505050565b600060208201905061276d60008301846125d0565b92915050565b600060608201905061278860008301866125d0565b61279560208301856125ee565b6127a26040830184612522565b949350505050565b6000610100820190506127c0600083018b6125d0565b6127cd602083018a6125ee565b81810360408301526127df8189612588565b905081810360608301526127f38188612588565b905081810360808301526128078187612588565b905061281660a08301866122f9565b61282360c0830185612522565b61283060e08301846125ee565b9998505050505050505050565b600061010082019050612853600083018b6125d0565b612860602083018a6125ee565b81810360408301526128728189612588565b905081810360608301526128868188612588565b9050818103608083015261289a8187612588565b90506128a960a0830186612317565b6128b660c0830185612522565b6128c360e0830184612540565b9998505050505050505050565b60006020820190506128e560008301846125ee565b92915050565b60006128f5612906565b90506129018282612bd9565b919050565b6000604051905090565b600067ffffffffffffffff82111561292b5761292a612cdc565b5b61293482612d0b565b9050602081019050919050565b6000819050602082019050919050565b6000819050602082019050919050565b6000819050602082019050919050565b6000819050602082019050919050565b6000819050602082019050919050565b600081519050919050565b600081519050919050565b600081519050919050565b600081519050919050565b600081519050919050565b600081519050919050565b6000602082019050919050565b6000602082019050919050565b6000602082019050919050565b6000602082019050919050565b6000602082019050919050565b600082825260208201905092915050565b600082825260208201905092915050565b600082825260208201905092915050565b600082825260208201905092915050565b600082825260208201905092915050565b600082825260208201905092915050565b600082825260208201905092915050565b6000612a9682612b49565b9150612aa183612b49565b9250827fffffffffffffffffffffffffffffffffffffffffffffffffffffffffffffffff03821115612ad657612ad5612c7e565b5b828201905092915050565b6000612aec82612b29565b9050919050565b6000612afe82612b29565b9050919050565b60008115159050919050565b6000819050919050565b600061ffff82169050919050565b600073ffffffffffffffffffffffffffffffffffffffff82169050919050565b6000819050919050565b6000612b5e82612b49565b9050919050565b82818337600083830152505050565b60005b83811015612b92578082015181840152602081019050612b77565b83811115612ba1576000848401525b50505050565b60006002820490506001821680612bbf57607f821691505b60208210811415612bd357612bd2612cad565b5b50919050565b612be282612d0b565b810181811067ffffffffffffffff82111715612c0157612c00612cdc565b5b80604052505050565b6000612c1582612b1b565b915061ffff821415612c2a57612c29612c7e565b5b600182019050919050565b6000612c4082612b49565b91507fffffffffffffffffffffffffffffffffffffffffffffffffffffffffffffffff821415612c7357612c72612c7e565b5b600182019050919050565b7f4e487b7100000000000000000000000000000000000000000000000000000000600052601160045260246000fd5b7f4e487b7100000000000000000000000000000000000000000000000000000000600052602260045260246000fd5b7f4e487b7100000000000000000000000000000000000000000000000000000000600052604160045260246000fd5b6000601f19601f8301169050919050565b612d2581612ae1565b8114612d3057600080fd5b50565b612d3c81612b11565b8114612d4757600080fd5b50565b612d5381612b1b565b8114612d5e57600080fd5b50565b612d6a81612b49565b8114612d7557600080fd5b5056fea264697066735822122065e35caabff11e0db01c252e5bab0b93069a4ece22d3f8d1b97acfd714cc2cae64736f6c63430008040033516d51706d4c326b57365966546d47776d4e383241714e554168377262703672546a33514442614173725767636d",
  "immutableReferences": {},
  "source": "//SPDX-License-Identifier: Unlicense\npragma solidity ^0.8.4;\n\ncontract Blog {\n  struct User {\n    bytes32 name;\n    address wallet_address;\n    uint tips_received;\n    uint tips_sent;\n  }\n\n  struct Article {\n    uint16 id;\n    uint date;\n    string title;\n    string imageHash;\n    string content;\n    address payable author;\n    bool published;\n    uint tips;\n  }\n\n  uint16 public articleCount = 0;\n  Article[] public articles;\n\n  mapping(address => User) public users;\n  mapping(uint => address) public articleToUser;\n  mapping(address => uint) public userArticlesCount;\n\n   event UserCreated(\n    bytes32 name,\n    address wallet_address,\n    uint tips_received,\n    uint tips_sent\n  );\n\n  event ArticleCreated(\n    uint16 id,\n    uint date,\n    string title,\n    string imageHash,\n    string content,\n    address author,\n    bool published,\n    uint tips\n  );\n\n  event ArticlePublished(\n    uint16 id,\n    uint date,\n    bool published\n  );\n\n  constructor() {\n    createUser(\"Tiago Dias\");\n    createArticle(\n      \"My first blog's title.\",\n      \"QmQpmL2kW6YfTmGwmN82AqNUAh7rbp6rTj3QDBaAsrWgcm\",\n      \"My first blog article content!\"\n    );\n  }\n\n  // User Methods\n  function createUser(bytes32 _name) public {\n    users[msg.sender] = User(_name, msg.sender, 0, 0);\n    emit UserCreated(_name, msg.sender, 0, 0);\n  }\n\n  // Article Methods\n  function createArticle(string memory _title, string memory _imageHash, string memory _content) public userExists(msg.sender) {\n    articles.push(Article(articleCount, block.timestamp, _title, _imageHash, _content, payable(msg.sender), false, 0));\n    \n    articleToUser[articleCount] = msg.sender;\n    userArticlesCount[msg.sender] = userArticlesCount[msg.sender] + 1;\n\n    emit ArticleCreated(articleCount, articles[articleCount].date, _title, _imageHash, _content, msg.sender, false, 0);\n    articleCount++;\n  }\n\n  function getArticles()\n    external\n    view\n    returns(\n      uint16[] memory,\n      uint[] memory,\n      string[] memory,\n      string[] memory,\n      string[] memory,\n      address[] memory,\n      bool[] memory,\n      uint[] memory\n    ) {\n\n      uint16[] memory ids = new uint16[](articleCount);\n      uint[] memory dates = new uint[](articleCount);\n      string[] memory titles = new string[](articleCount);\n      string[] memory imageHashes = new string[](articleCount);\n      string[] memory contents = new string[](articleCount);\n      address[] memory authors = new address[](articleCount);\n      bool[] memory publisheds = new bool[](articleCount);\n      uint[] memory tips = new uint[](articleCount);\n\n      for(uint i = 0; i < articleCount; i++) {\n        ids[i] = articles[i].id;\n        dates[i] = articles[i].date;\n        titles[i] = articles[i].title;\n        imageHashes[i] = articles[i].imageHash;\n        contents[i] = articles[i].content;\n        authors[i] = articles[i].author;\n        publisheds[i] = articles[i].published;\n        tips[i] = articles[i].tips;\n      }\n\n      return (ids, dates, titles, imageHashes, contents, authors, publisheds, tips);\n  }\n\n  function togglePublished(uint16 _id) external articleExists(_id) isOwner(_id) {\n    Article storage _article = articles[_id];\n    _article.published = !_article.published;\n    _article.date = block.timestamp;\n    emit ArticlePublished(_article.id, _article.date, _article.published);\n  }\n\n  modifier userExists(address wallet_address) {\n    if (users[wallet_address].name == '') {\n      revert();\n    }\n    _;\n  }\n\n  modifier articleExists(uint16 _id) {\n    if(articles[_id].date == 0) {\n      revert();\n    }\n    _;\n  }\n\n  modifier isOwner(uint16 _id) {\n    if (articles[_id].author != msg.sender) {\n      revert();\n    }\n    _;\n  }\n\n  modifier isNotOwner(uint16 _id) {\n    if (articles[_id].author == msg.sender) {\n      revert();\n    }\n    _;\n  }\n\n  // Tips\n  function tipArticle(uint16 _id) public payable articleExists(_id) isNotOwner(_id) {\n    Article memory _article = articles[_id];\n\n    address payable _author_address = _article.author;\n    _author_address.transfer(msg.value);\n\n    _article.tips = _article.tips + msg.value;\n    articles[_id] = _article;\n    \n    User memory _author = users[_author_address];\n    _author.tips_received = _author.tips_received + msg.value;\n    users[_author_address] = _author;\n\n    User memory _tipper = users[msg.sender];\n    _tipper.tips_sent = _tipper.tips_sent + msg.value;\n    users[msg.sender] = _tipper;\n  }\n\n}",
  "sourcePath": "/Users/tiagodias/Desktop/Personal Dev/Blockchain/Blog/contracts/Blog.sol",
  "compiler": {
    "name": "solc",
    "version": "0.8.4+commit.c7e474f2.Emscripten.clang"
  },
  "schemaVersion": "3.3.4",
  "updatedAt": "2021-05-05T07:50:02.112Z",
  "networkType": "ethereum",
  "devdoc": {
    "kind": "dev",
    "methods": {},
    "version": 1
  },
  "userdoc": {
    "kind": "user",
    "methods": {},
    "version": 1
  }
}