{
  "contractName": "Blog",
  "abi": [
    {
      "inputs": [],
      "payable": false,
      "stateMutability": "nonpayable",
      "type": "constructor"
    },
    {
      "anonymous": false,
      "inputs": [
        {
          "indexed": false,
          "internalType": "uint16",
          "name": "id",
          "type": "uint16"
        },
        {
          "indexed": false,
          "internalType": "uint256",
          "name": "date",
          "type": "uint256"
        },
        {
          "indexed": false,
          "internalType": "string",
          "name": "title",
          "type": "string"
        },
        {
          "indexed": false,
          "internalType": "string",
          "name": "imageUrl",
          "type": "string"
        },
        {
          "indexed": false,
          "internalType": "string",
          "name": "content",
          "type": "string"
        },
        {
          "indexed": false,
          "internalType": "bytes32",
          "name": "author",
          "type": "bytes32"
        },
        {
          "indexed": false,
          "internalType": "bool",
          "name": "published",
          "type": "bool"
        }
      ],
      "name": "ArticleCreated",
      "type": "event"
    },
    {
      "anonymous": false,
      "inputs": [
        {
          "indexed": false,
          "internalType": "uint16",
          "name": "id",
          "type": "uint16"
        },
        {
          "indexed": false,
          "internalType": "uint256",
          "name": "date",
          "type": "uint256"
        },
        {
          "indexed": false,
          "internalType": "bool",
          "name": "published",
          "type": "bool"
        }
      ],
      "name": "ArticlePublished",
      "type": "event"
    },
    {
      "constant": true,
      "inputs": [],
      "name": "articleCount",
      "outputs": [
        {
          "internalType": "uint16",
          "name": "",
          "type": "uint16"
        }
      ],
      "payable": false,
      "stateMutability": "view",
      "type": "function"
    },
    {
      "constant": true,
      "inputs": [
        {
          "internalType": "uint256",
          "name": "",
          "type": "uint256"
        }
      ],
      "name": "articles",
      "outputs": [
        {
          "internalType": "uint16",
          "name": "id",
          "type": "uint16"
        },
        {
          "internalType": "uint256",
          "name": "date",
          "type": "uint256"
        },
        {
          "internalType": "string",
          "name": "title",
          "type": "string"
        },
        {
          "internalType": "string",
          "name": "imageUrl",
          "type": "string"
        },
        {
          "internalType": "string",
          "name": "content",
          "type": "string"
        },
        {
          "internalType": "bytes32",
          "name": "author",
          "type": "bytes32"
        },
        {
          "internalType": "bool",
          "name": "published",
          "type": "bool"
        }
      ],
      "payable": false,
      "stateMutability": "view",
      "type": "function"
    },
    {
      "constant": false,
      "inputs": [
        {
          "internalType": "string",
          "name": "_title",
          "type": "string"
        },
        {
          "internalType": "string",
          "name": "_imageUrl",
          "type": "string"
        },
        {
          "internalType": "string",
          "name": "_content",
          "type": "string"
        },
        {
          "internalType": "bytes32",
          "name": "_author",
          "type": "bytes32"
        }
      ],
      "name": "createArticle",
      "outputs": [],
      "payable": false,
      "stateMutability": "nonpayable",
      "type": "function"
    },
    {
      "constant": true,
      "inputs": [],
      "name": "getArticles",
      "outputs": [
        {
          "internalType": "uint16[]",
          "name": "",
          "type": "uint16[]"
        },
        {
          "internalType": "uint256[]",
          "name": "",
          "type": "uint256[]"
        },
        {
          "internalType": "string[]",
          "name": "",
          "type": "string[]"
        },
        {
          "internalType": "string[]",
          "name": "",
          "type": "string[]"
        },
        {
          "internalType": "string[]",
          "name": "",
          "type": "string[]"
        },
        {
          "internalType": "bytes32[]",
          "name": "",
          "type": "bytes32[]"
        },
        {
          "internalType": "bool[]",
          "name": "",
          "type": "bool[]"
        }
      ],
      "payable": false,
      "stateMutability": "view",
      "type": "function"
    },
    {
      "constant": false,
      "inputs": [
        {
          "internalType": "uint16",
          "name": "_id",
          "type": "uint16"
        }
      ],
      "name": "togglePublished",
      "outputs": [],
      "payable": false,
      "stateMutability": "nonpayable",
      "type": "function"
    }
  ],
  "bytecode": "0x60806040526000805461ffff191690553480156200001c57600080fd5b50620000c26040518060400160405280601681526020017f4d7920666972737420626c6f672773207469746c652e000000000000000000008152506040518060600160405280603781526020016200146e6037913960408051808201909152601e81527f4d7920666972737420626c6f672061727469636c6520636f6e74656e74210000602082015269546961676f204469617360b01b6001600160e01b03620000c816565b62000410565b6040805160e0810182526000805461ffff9081168084524260208086019182528587018b8152606087018b9052608087018a905260a0870189905260c087018690529285526001808252969094208551815461ffff1916941693909317835551948201949094559251805192939262000148926002850192019062000223565b50606082015180516200016691600384019160209091019062000223565b50608082015180516200018491600484019160209091019062000223565b5060a0820151600582015560c0909101516006909101805460ff19169115159190911790556000805461ffff168082526001602081905260408084209091015490517f5c1d7b50241db0e1c69164f5ff47ffac9ffe03dd389979a8c6b8484b941b74a893620001fd93929189918991899189916200032f565b60405180910390a150506000805461ffff8082166001011661ffff199091161790555050565b828054600181600116156101000203166002900490600052602060002090601f016020900481019282601f106200026657805160ff191683800117855562000296565b8280016001018555821562000296579182015b828111156200029657825182559160200191906001019062000279565b50620002a4929150620002a8565b5090565b620002c591905b80821115620002a45760008155600101620002af565b90565b620002d381620003c7565b82525050565b620002d381620002c5565b6000620002f182620003ba565b620002fd8185620003be565b93506200030f818560208601620003d3565b6200031a8162000406565b9093019392505050565b620002d381620003cc565b60e081016200033f828a62000324565b6200034e6020830189620002d9565b8181036040830152620003628188620002e4565b90508181036060830152620003788187620002e4565b905081810360808301526200038e8186620002e4565b90506200039f60a0830185620002d9565b620003ae60c0830184620002c8565b98975050505050505050565b5190565b90815260200190565b151590565b61ffff1690565b60005b83811015620003f0578181015183820152602001620003d6565b8381111562000400576000848401525b50505050565b601f01601f191690565b61104e80620004206000396000f3fe608060405234801561001057600080fd5b50600436106100575760003560e01c8063056a86bb1461005c578063414e28b0146100715780636529f44a1461008f578063d7aaa00e146100aa578063edcfafe6146100bd575b600080fd5b61006f61006a366004610b61565b6100e3565b005b610079610182565b6040516100869190610e84565b60405180910390f35b61009761018c565b6040516100869796959493929190610dee565b61006f6100b8366004610ab9565b61067d565b6100d06100cb366004610b87565b6107d0565b6040516100869796959493929190610eba565b61ffff811660009081526001602081905260409091200154819061010657600080fd5b61ffff80831660009081526001602081905260409182902060068101805460ff19811660ff918216151791829055429383018490558254945192957f14e88741af6b08028f509f1124d07f4f703011ddc2d1e829927f69fc5cc8aadf9561017595911693909290911690610e92565b60405180910390a1505050565b60005461ffff1681565b6060806060806060806060806000809054906101000a900461ffff1661ffff166040519080825280602002602001820160405280156101d5578160200160208202803883390190505b506000546040805161ffff9092168083526020808202840101909152919250606091801561020d578160200160208202803883390190505b506000546040805161ffff9092168083526020808202840101909152919250606091801561024f57816020015b606081526020019060019003908161023a5790505b506000546040805161ffff9092168083526020808202840101909152919250606091801561029157816020015b606081526020019060019003908161027c5790505b506000546040805161ffff909216808352602080820284010190915291925060609180156102d357816020015b60608152602001906001900390816102be5790505b506000546040805161ffff9092168083526020808202840101909152919250606091801561030b578160200160208202803883390190505b506000546040805161ffff90921680835260208082028401019091529192506060918015610343578160200160208202803883390190505b50905060005b60005461ffff1681101561066657600081815260016020526040902054885161ffff9091169089908390811061037b57fe5b61ffff909216602092830291909101820152600082815260019182905260409020015487518890839081106103ac57fe5b602090810291909101810191909152600082815260018083526040918290206002908101805484519381161561010002600019011691909104601f8101859004850283018501909352828252909290919083018282801561044e5780601f106104235761010080835404028352916020019161044e565b820191906000526020600020905b81548152906001019060200180831161043157829003601f168201915b505050505086828151811061045f57fe5b6020026020010181905250600160008281526020019081526020016000206003018054600181600116156101000203166002900480601f0160208091040260200160405190810160405280929190818152602001828054600181600116156101000203166002900480156105145780601f106104e957610100808354040283529160200191610514565b820191906000526020600020905b8154815290600101906020018083116104f757829003601f168201915b505050505085828151811061052557fe5b6020026020010181905250600160008281526020019081526020016000206004018054600181600116156101000203166002900480601f0160208091040260200160405190810160405280929190818152602001828054600181600116156101000203166002900480156105da5780601f106105af576101008083540402835291602001916105da565b820191906000526020600020905b8154815290600101906020018083116105bd57829003601f168201915b50505050508482815181106105eb57fe5b6020026020010181905250600160008281526020019081526020016000206005015483828151811061061957fe5b602090810291909101810191909152600082815260019091526040902060060154825160ff9091169083908390811061064e57fe5b91151560209283029190910190910152600101610349565b50959d949c50929a50909850965094509092509050565b6040805160e0810182526000805461ffff9081168084524260208086019182528587018b8152606087018b9052608087018a905260a0870189905260c087018690529285526001808252969094208551815461ffff191694169390931783555194820194909455925180519293926106fb92600285019201906109ae565b50606082015180516107179160038401916020909101906109ae565b50608082015180516107339160048401916020909101906109ae565b5060a0820151600582015560c0909101516006909101805460ff19169115159190911790556000805461ffff168082526001602081905260408084209091015490517f5c1d7b50241db0e1c69164f5ff47ffac9ffe03dd389979a8c6b8484b941b74a8936107aa9392918991899189918991610eba565b60405180910390a150506000805461ffff8082166001011661ffff199091161790555050565b6001602081815260009283526040928390208054818401546002808401805488516101009882161598909802600019011691909104601f810186900486028701860190975286865261ffff90921695909492938301828280156108745780601f1061084957610100808354040283529160200191610874565b820191906000526020600020905b81548152906001019060200180831161085757829003601f168201915b5050505060038301805460408051602060026001851615610100026000190190941693909304601f81018490048402820184019092528181529495949350908301828280156109045780601f106108d957610100808354040283529160200191610904565b820191906000526020600020905b8154815290600101906020018083116108e757829003601f168201915b5050505060048301805460408051602060026001851615610100026000190190941693909304601f81018490048402820184019092528181529495949350908301828280156109945780601f1061096957610100808354040283529160200191610994565b820191906000526020600020905b81548152906001019060200180831161097757829003601f168201915b50505050600583015460069093015491929160ff16905087565b828054600181600116156101000203166002900490600052602060002090601f016020900481019282601f106109ef57805160ff1916838001178555610a1c565b82800160010185558215610a1c579182015b82811115610a1c578251825591602001919060010190610a01565b50610a28929150610a2c565b5090565b610a4691905b80821115610a285760008155600101610a32565b90565b8035610a5481610feb565b92915050565b600082601f830112610a6b57600080fd5b8135610a7e610a7982610f5e565b610f37565b91508082526020830160208301858383011115610a9a57600080fd5b610aa5838284610fa5565b50505092915050565b8035610a5481611002565b60008060008060808587031215610acf57600080fd5b843567ffffffffffffffff811115610ae657600080fd5b610af287828801610a5a565b945050602085013567ffffffffffffffff811115610b0f57600080fd5b610b1b87828801610a5a565b935050604085013567ffffffffffffffff811115610b3857600080fd5b610b4487828801610a5a565b9250506060610b5587828801610a49565b91505092959194509250565b600060208284031215610b7357600080fd5b6000610b7f8484610aae565b949350505050565b600060208284031215610b9957600080fd5b6000610b7f8484610a49565b6000610bb18383610d95565b505060200190565b6000610bb18383610da4565b6000610bd18383610dad565b9392505050565b6000610bb18383610de5565b6000610bef82610f8c565b610bf98185610f90565b9350610c0483610f86565b8060005b83811015610c32578151610c1c8882610ba5565b9750610c2783610f86565b925050600101610c08565b509495945050505050565b6000610c4882610f8c565b610c528185610f90565b9350610c5d83610f86565b8060005b83811015610c32578151610c758882610bb9565b9750610c8083610f86565b925050600101610c61565b6000610c9682610f8c565b610ca08185610f90565b935083602082028501610cb285610f86565b8060005b85811015610cec5784840389528151610ccf8582610bc5565b9450610cda83610f86565b60209a909a0199925050600101610cb6565b5091979650505050505050565b6000610d0482610f8c565b610d0e8185610f90565b9350610d1983610f86565b8060005b83811015610c32578151610d318882610bd8565b9750610d3c83610f86565b925050600101610d1d565b6000610d5282610f8c565b610d5c8185610f90565b9350610d6783610f86565b8060005b83811015610c32578151610d7f8882610bb9565b9750610d8a83610f86565b925050600101610d6b565b610d9e81610f99565b82525050565b610d9e81610a46565b6000610db882610f8c565b610dc28185610f90565b9350610dd2818560208601610fb1565b610ddb81610fe1565b9093019392505050565b610d9e81610f9e565b60e08082528101610dff818a610cf9565b90508181036020830152610e138189610d47565b90508181036040830152610e278188610c8b565b90508181036060830152610e3b8187610c8b565b90508181036080830152610e4f8186610c8b565b905081810360a0830152610e638185610c3d565b905081810360c0830152610e778184610be4565b9998505050505050505050565b60208101610a548284610de5565b60608101610ea08286610de5565b610ead6020830185610da4565b610b7f6040830184610d95565b60e08101610ec8828a610de5565b610ed56020830189610da4565b8181036040830152610ee78188610dad565b90508181036060830152610efb8187610dad565b90508181036080830152610f0f8186610dad565b9050610f1e60a0830185610da4565b610f2b60c0830184610d95565b98975050505050505050565b60405181810167ffffffffffffffff81118282101715610f5657600080fd5b604052919050565b600067ffffffffffffffff821115610f7557600080fd5b506020601f91909101601f19160190565b60200190565b5190565b90815260200190565b151590565b61ffff1690565b82818337506000910152565b60005b83811015610fcc578181015183820152602001610fb4565b83811115610fdb576000848401525b50505050565b601f01601f191690565b610ff481610a46565b8114610fff57600080fd5b50565b610ff481610f9e56fea365627a7a72315820286cfbecd24cc53c9cc517a180c4af54c31380aa5c84c2d83df62d19d1150aea6c6578706572696d656e74616cf564736f6c6343000510004068747470733a2f2f7777772e65706963636f64652e6465762f696d672f69636f6e426c61636b4c6f676f2e63643766643932652e706e67",
  "source": "pragma solidity ^0.5.16;\npragma experimental ABIEncoderV2;\n\ncontract Blog {\n  struct Article {\n    uint16 id;\n    uint date;\n    string title;\n    string imageUrl;\n    string content;\n    bytes32 author;\n    bool published;\n  }\n\n  uint16 public articleCount = 0;\n\n  mapping(uint => Article) public articles;\n\n  event ArticleCreated(\n    uint16 id,\n    uint date,\n    string title,\n    string imageUrl,\n    string content,\n    bytes32 author,\n    bool published\n  );\n\n  event ArticlePublished(\n    uint16 id,\n    uint date,\n    bool published\n  );\n\n  constructor() public {\n    createArticle(\"My first blog's title.\", \"https://www.epiccode.dev/img/iconBlackLogo.cd7fd92e.png\" ,\"My first blog article content!\", bytes32(\"Tiago Dias\"));\n  }\n\n  function createArticle(string memory _title, string memory _imageUrl, string memory _content, bytes32 _author) public {\n    articles[articleCount] = Article(articleCount, block.timestamp, _title, _imageUrl, _content, _author, false);\n    emit ArticleCreated(articleCount, articles[articleCount].date, _title, _imageUrl, _content, _author, false);\n    articleCount++;\n  }\n\n  function getArticles()\n    external\n    view\n    returns(\n      uint16[] memory,\n      uint[] memory,\n      string[] memory,\n      string[] memory,\n      string[] memory,\n      bytes32[] memory,\n      bool[] memory\n    ) {\n\n      uint16[] memory ids = new uint16[](articleCount);\n      uint[] memory dates = new uint[](articleCount);\n      string[] memory titles = new string[](articleCount);\n      string[] memory imageUrls = new string[](articleCount);\n      string[] memory contents = new string[](articleCount);\n      bytes32[] memory authors = new bytes32[](articleCount);\n      bool[] memory publisheds = new bool[](articleCount);\n\n      for(uint i = 0; i < articleCount; i++) {\n        ids[i] = articles[i].id;\n        dates[i] = articles[i].date;\n        titles[i] = articles[i].title;\n        imageUrls[i] = articles[i].imageUrl;\n        contents[i] = articles[i].content;\n        authors[i] = articles[i].author;\n        publisheds[i] = articles[i].published;\n      }\n\n      return (ids, dates, titles, imageUrls, contents, authors, publisheds);\n  }\n\n  function togglePublished(uint16 _id) external articleExists(_id) {\n    Article storage _article = articles[_id];\n    _article.published = !_article.published;\n    _article.date = block.timestamp;\n    emit ArticlePublished(_article.id, _article.date, _article.published);\n  }\n\n  modifier articleExists(uint16 _id) {\n    if(articles[_id].date == 0) {\n      revert();\n    }\n    _;\n  }\n\n}",
  "sourcePath": "/Users/tiagodias/Desktop/Personal Dev/Blockchain/Blog/contracts/Blog.sol",
  "compiler": {
    "name": "solc",
    "version": "0.5.16+commit.9c3226ce.Emscripten.clang"
  },
  "schemaVersion": "3.3.4",
  "updatedAt": "2021-04-12T13:43:06.104Z",
  "networkType": "ethereum",
  "devdoc": {
    "methods": {}
  },
  "userdoc": {
    "methods": {}
  }
}