{
  "contractName": "Blog",
  "abi": [
    {
      "inputs": [],
      "stateMutability": "nonpayable",
      "type": "constructor"
    },
    {
      "anonymous": false,
      "inputs": [
        {
          "indexed": false,
          "internalType": "uint16",
          "name": "id",
          "type": "uint16"
        },
        {
          "indexed": false,
          "internalType": "uint256",
          "name": "date",
          "type": "uint256"
        },
        {
          "indexed": false,
          "internalType": "string",
          "name": "title",
          "type": "string"
        },
        {
          "indexed": false,
          "internalType": "string",
          "name": "imageHash",
          "type": "string"
        },
        {
          "indexed": false,
          "internalType": "string",
          "name": "content",
          "type": "string"
        },
        {
          "indexed": false,
          "internalType": "address",
          "name": "author",
          "type": "address"
        },
        {
          "indexed": false,
          "internalType": "bool",
          "name": "published",
          "type": "bool"
        },
        {
          "indexed": false,
          "internalType": "uint256",
          "name": "tips",
          "type": "uint256"
        }
      ],
      "name": "ArticleCreated",
      "type": "event"
    },
    {
      "anonymous": false,
      "inputs": [
        {
          "indexed": false,
          "internalType": "uint16",
          "name": "id",
          "type": "uint16"
        },
        {
          "indexed": false,
          "internalType": "uint256",
          "name": "date",
          "type": "uint256"
        },
        {
          "indexed": false,
          "internalType": "bool",
          "name": "published",
          "type": "bool"
        }
      ],
      "name": "ArticlePublished",
      "type": "event"
    },
    {
      "anonymous": false,
      "inputs": [
        {
          "indexed": false,
          "internalType": "bytes32",
          "name": "name",
          "type": "bytes32"
        },
        {
          "indexed": false,
          "internalType": "address",
          "name": "wallet_address",
          "type": "address"
        },
        {
          "indexed": false,
          "internalType": "uint256",
          "name": "tips_received",
          "type": "uint256"
        },
        {
          "indexed": false,
          "internalType": "uint256",
          "name": "tips_sent",
          "type": "uint256"
        }
      ],
      "name": "UserCreated",
      "type": "event"
    },
    {
      "inputs": [],
      "name": "articleCount",
      "outputs": [
        {
          "internalType": "uint16",
          "name": "",
          "type": "uint16"
        }
      ],
      "stateMutability": "view",
      "type": "function",
      "constant": true
    },
    {
      "inputs": [
        {
          "internalType": "uint256",
          "name": "",
          "type": "uint256"
        }
      ],
      "name": "articleToUser",
      "outputs": [
        {
          "internalType": "address",
          "name": "",
          "type": "address"
        }
      ],
      "stateMutability": "view",
      "type": "function",
      "constant": true
    },
    {
      "inputs": [
        {
          "internalType": "uint256",
          "name": "",
          "type": "uint256"
        }
      ],
      "name": "articles",
      "outputs": [
        {
          "internalType": "uint16",
          "name": "id",
          "type": "uint16"
        },
        {
          "internalType": "uint256",
          "name": "date",
          "type": "uint256"
        },
        {
          "internalType": "string",
          "name": "title",
          "type": "string"
        },
        {
          "internalType": "string",
          "name": "imageHash",
          "type": "string"
        },
        {
          "internalType": "string",
          "name": "content",
          "type": "string"
        },
        {
          "internalType": "address payable",
          "name": "author",
          "type": "address"
        },
        {
          "internalType": "bool",
          "name": "published",
          "type": "bool"
        },
        {
          "internalType": "uint256",
          "name": "tips",
          "type": "uint256"
        }
      ],
      "stateMutability": "view",
      "type": "function",
      "constant": true
    },
    {
      "inputs": [
        {
          "internalType": "address",
          "name": "",
          "type": "address"
        }
      ],
      "name": "userArticlesCount",
      "outputs": [
        {
          "internalType": "uint256",
          "name": "",
          "type": "uint256"
        }
      ],
      "stateMutability": "view",
      "type": "function",
      "constant": true
    },
    {
      "inputs": [
        {
          "internalType": "address",
          "name": "",
          "type": "address"
        }
      ],
      "name": "users",
      "outputs": [
        {
          "internalType": "bytes32",
          "name": "name",
          "type": "bytes32"
        },
        {
          "internalType": "address",
          "name": "wallet_address",
          "type": "address"
        },
        {
          "internalType": "uint256",
          "name": "tips_received",
          "type": "uint256"
        },
        {
          "internalType": "uint256",
          "name": "tips_sent",
          "type": "uint256"
        }
      ],
      "stateMutability": "view",
      "type": "function",
      "constant": true
    },
    {
      "inputs": [
        {
          "internalType": "bytes32",
          "name": "_name",
          "type": "bytes32"
        },
        {
          "internalType": "address",
          "name": "_wallet_address",
          "type": "address"
        }
      ],
      "name": "createUser",
      "outputs": [],
      "stateMutability": "nonpayable",
      "type": "function"
    },
    {
      "inputs": [
        {
          "internalType": "string",
          "name": "_title",
          "type": "string"
        },
        {
          "internalType": "string",
          "name": "_imageHash",
          "type": "string"
        },
        {
          "internalType": "string",
          "name": "_content",
          "type": "string"
        },
        {
          "internalType": "address payable",
          "name": "_author",
          "type": "address"
        }
      ],
      "name": "createArticle",
      "outputs": [],
      "stateMutability": "nonpayable",
      "type": "function"
    },
    {
      "inputs": [],
      "name": "getArticles",
      "outputs": [
        {
          "internalType": "uint16[]",
          "name": "",
          "type": "uint16[]"
        },
        {
          "internalType": "uint256[]",
          "name": "",
          "type": "uint256[]"
        },
        {
          "internalType": "string[]",
          "name": "",
          "type": "string[]"
        },
        {
          "internalType": "string[]",
          "name": "",
          "type": "string[]"
        },
        {
          "internalType": "string[]",
          "name": "",
          "type": "string[]"
        },
        {
          "internalType": "address[]",
          "name": "",
          "type": "address[]"
        },
        {
          "internalType": "bool[]",
          "name": "",
          "type": "bool[]"
        },
        {
          "internalType": "uint256[]",
          "name": "",
          "type": "uint256[]"
        }
      ],
      "stateMutability": "view",
      "type": "function",
      "constant": true
    },
    {
      "inputs": [
        {
          "internalType": "uint16",
          "name": "_id",
          "type": "uint16"
        }
      ],
      "name": "togglePublished",
      "outputs": [],
      "stateMutability": "nonpayable",
      "type": "function"
    },
    {
      "inputs": [
        {
          "internalType": "uint16",
          "name": "_id",
          "type": "uint16"
        }
      ],
      "name": "tipArticle",
      "outputs": [],
      "stateMutability": "payable",
      "type": "function",
      "payable": true
    }
  ],
  "bytecode": "0x608060405260008060006101000a81548161ffff021916908361ffff1602179055503480156200002e57600080fd5b50620000617f546961676f20446961730000000000000000000000000000000000000000000033620000fe60201b60201c565b620000f86040518060400160405280601681526020017f4d7920666972737420626c6f672773207469746c652e000000000000000000008152506040518060600160405280602e8152602001620038d5602e91396040518060400160405280601e81526020017f4d7920666972737420626c6f672061727469636c6520636f6e74656e74210000815250336200022260201b60201c565b62000a7d565b60405180608001604052808381526020018273ffffffffffffffffffffffffffffffffffffffff168152602001600081526020016000815250600260008373ffffffffffffffffffffffffffffffffffffffff1673ffffffffffffffffffffffffffffffffffffffff1681526020019081526020016000206000820151816000015560208201518160010160006101000a81548173ffffffffffffffffffffffffffffffffffffffff021916908373ffffffffffffffffffffffffffffffffffffffff16021790555060408201518160020155606082015181600301559050507fa50219d9fe08f0c84080df6d3e14efcc4a4a138396328787c560d776875f5a03828260008060405162000216949392919062000757565b60405180910390a15050565b806000600260008373ffffffffffffffffffffffffffffffffffffffff1673ffffffffffffffffffffffffffffffffffffffff1681526020019081526020016000206000015414156200027457600080fd5b600160405180610100016040528060008054906101000a900461ffff1661ffff1681526020014281526020018781526020018681526020018581526020018473ffffffffffffffffffffffffffffffffffffffff1681526020016000151581526020016000815250908060018154018082558091505060019003906000526020600020906007020160009091909190915060008201518160000160006101000a81548161ffff021916908361ffff16021790555060208201518160010155604082015181600201908051906020019062000350929190620005ef565b5060608201518160030190805190602001906200036f929190620005ef565b5060808201518160040190805190602001906200038e929190620005ef565b5060a08201518160050160006101000a81548173ffffffffffffffffffffffffffffffffffffffff021916908373ffffffffffffffffffffffffffffffffffffffff16021790555060c08201518160050160146101000a81548160ff02191690831515021790555060e08201518160060155505033600360008060009054906101000a900461ffff1661ffff16815260200190815260200160002060006101000a81548173ffffffffffffffffffffffffffffffffffffffff021916908373ffffffffffffffffffffffffffffffffffffffff1602179055506001600460003373ffffffffffffffffffffffffffffffffffffffff1673ffffffffffffffffffffffffffffffffffffffff16815260200190815260200160002054620004b5919062000863565b600460003373ffffffffffffffffffffffffffffffffffffffff1673ffffffffffffffffffffffffffffffffffffffff168152602001908152602001600020819055507fd45a18f512a868a957b292903d58190ae32786655c138111e70120b435041d8c60008054906101000a900461ffff16600160008054906101000a900461ffff1661ffff168154811062000575577f4e487b7100000000000000000000000000000000000000000000000000000000600052603260045260246000fd5b90600052602060002090600702016001015487878787600080604051620005a4989796959493929190620007a4565b60405180910390a160008081819054906101000a900461ffff1680929190620005cd90620009de565b91906101000a81548161ffff021916908361ffff160217905550505050505050565b828054620005fd90620009a8565b90600052602060002090601f0160209004810192826200062157600085556200066d565b82601f106200063c57805160ff19168380011785556200066d565b828001600101855582156200066d579182015b828111156200066c5782518255916020019190600101906200064f565b5b5090506200067c919062000680565b5090565b5b808211156200069b57600081600090555060010162000681565b5090565b620006aa8162000922565b82525050565b620006bb81620008c0565b82525050565b620006cc81620008d4565b82525050565b620006dd81620008e0565b82525050565b620006ee8162000936565b82525050565b6000620007018262000847565b6200070d818562000852565b93506200071f81856020860162000972565b6200072a8162000a6c565b840191505092915050565b6200074081620008ea565b82525050565b620007518162000918565b82525050565b60006080820190506200076e6000830187620006d2565b6200077d6020830186620006b0565b6200078c6040830185620006e3565b6200079b6060830184620006e3565b95945050505050565b600061010082019050620007bc600083018b62000735565b620007cb602083018a62000746565b8181036040830152620007df8189620006f4565b90508181036060830152620007f58188620006f4565b905081810360808301526200080b8187620006f4565b90506200081c60a08301866200069f565b6200082b60c0830185620006c1565b6200083a60e0830184620006e3565b9998505050505050505050565b600081519050919050565b600082825260208201905092915050565b6000620008708262000918565b91506200087d8362000918565b9250827fffffffffffffffffffffffffffffffffffffffffffffffffffffffffffffffff03821115620008b557620008b462000a0e565b5b828201905092915050565b6000620008cd82620008f8565b9050919050565b60008115159050919050565b6000819050919050565b600061ffff82169050919050565b600073ffffffffffffffffffffffffffffffffffffffff82169050919050565b6000819050919050565b60006200092f826200094a565b9050919050565b6000620009438262000918565b9050919050565b600062000957826200095e565b9050919050565b60006200096b82620008f8565b9050919050565b60005b838110156200099257808201518184015260208101905062000975565b83811115620009a2576000848401525b50505050565b60006002820490506001821680620009c157607f821691505b60208210811415620009d857620009d762000a3d565b5b50919050565b6000620009eb82620008ea565b915061ffff82141562000a035762000a0262000a0e565b5b600182019050919050565b7f4e487b7100000000000000000000000000000000000000000000000000000000600052601160045260246000fd5b7f4e487b7100000000000000000000000000000000000000000000000000000000600052602260045260246000fd5b6000601f19601f8301169050919050565b612e488062000a8d6000396000f3fe6080604052600436106100915760003560e01c80635a354063116100595780635a354063146101795780636529f44a146101b6578063a87430ba146101e8578063edcfafe614610228578063fd4214fe1461026c57610091565b8063056a86bb1461009657806310e61a45146100bf5780631686e838146100e857806316db95ec14610125578063414e28b01461014e575b600080fd5b3480156100a257600080fd5b506100bd60048036038101906100b89190612271565b610288565b005b3480156100cb57600080fd5b506100e660048036038101906100e191906121c6565b61047d565b005b3480156100f457600080fd5b5061010f600480360381019061010a9190612161565b61083c565b60405161011c919061291d565b60405180910390f35b34801561013157600080fd5b5061014c6004803603810190610147919061218a565b610854565b005b34801561015a57600080fd5b50610163610976565b60405161017091906127a5565b60405180910390f35b34801561018557600080fd5b506101a0600480360381019061019b919061229a565b610988565b6040516101ad919061264a565b60405180910390f35b3480156101c257600080fd5b506101cb6109bb565b6040516101df989796959493929190612665565b60405180910390f35b3480156101f457600080fd5b5061020f600480360381019061020a9190612161565b6114f7565b60405161021f9493929190612760565b60405180910390f35b34801561023457600080fd5b5061024f600480360381019061024a919061229a565b611547565b60405161026398979695949392919061288a565b60405180910390f35b61028660048036038101906102819190612271565b611772565b005b80600060018261ffff16815481106102c9577f4e487b7100000000000000000000000000000000000000000000000000000000600052603260045260246000fd5b90600052602060002090600702016001015414156102e657600080fd5b813373ffffffffffffffffffffffffffffffffffffffff1660018261ffff168154811061033c577f4e487b7100000000000000000000000000000000000000000000000000000000600052603260045260246000fd5b906000526020600020906007020160050160009054906101000a900473ffffffffffffffffffffffffffffffffffffffff1673ffffffffffffffffffffffffffffffffffffffff161461038e57600080fd5b600060018461ffff16815481106103ce577f4e487b7100000000000000000000000000000000000000000000000000000000600052603260045260246000fd5b906000526020600020906007020190508060050160149054906101000a900460ff16158160050160146101000a81548160ff0219169083151502179055504281600101819055507f14e88741af6b08028f509f1124d07f4f703011ddc2d1e829927f69fc5cc8aadf8160000160009054906101000a900461ffff1682600101548360050160149054906101000a900460ff1660405161046f939291906127c0565b60405180910390a150505050565b806000600260008373ffffffffffffffffffffffffffffffffffffffff1673ffffffffffffffffffffffffffffffffffffffff1681526020019081526020016000206000015414156104ce57600080fd5b600160405180610100016040528060008054906101000a900461ffff1661ffff1681526020014281526020018781526020018681526020018581526020018473ffffffffffffffffffffffffffffffffffffffff1681526020016000151581526020016000815250908060018154018082558091505060019003906000526020600020906007020160009091909190915060008201518160000160006101000a81548161ffff021916908361ffff1602179055506020820151816001015560408201518160020190805190602001906105a8929190611fed565b5060608201518160030190805190602001906105c5929190611fed565b5060808201518160040190805190602001906105e2929190611fed565b5060a08201518160050160006101000a81548173ffffffffffffffffffffffffffffffffffffffff021916908373ffffffffffffffffffffffffffffffffffffffff16021790555060c08201518160050160146101000a81548160ff02191690831515021790555060e08201518160060155505033600360008060009054906101000a900461ffff1661ffff16815260200190815260200160002060006101000a81548173ffffffffffffffffffffffffffffffffffffffff021916908373ffffffffffffffffffffffffffffffffffffffff1602179055506001600460003373ffffffffffffffffffffffffffffffffffffffff1673ffffffffffffffffffffffffffffffffffffffff168152602001908152602001600020546107079190612ad8565b600460003373ffffffffffffffffffffffffffffffffffffffff1673ffffffffffffffffffffffffffffffffffffffff168152602001908152602001600020819055507fd45a18f512a868a957b292903d58190ae32786655c138111e70120b435041d8c60008054906101000a900461ffff16600160008054906101000a900461ffff1661ffff16815481106107c6577f4e487b7100000000000000000000000000000000000000000000000000000000600052603260045260246000fd5b906000526020600020906007020160010154878787876000806040516107f39897969594939291906127f7565b60405180910390a160008081819054906101000a900461ffff168092919061081a90612c8d565b91906101000a81548161ffff021916908361ffff160217905550505050505050565b60046020528060005260406000206000915090505481565b60405180608001604052808381526020018273ffffffffffffffffffffffffffffffffffffffff168152602001600081526020016000815250600260008373ffffffffffffffffffffffffffffffffffffffff1673ffffffffffffffffffffffffffffffffffffffff1681526020019081526020016000206000820151816000015560208201518160010160006101000a81548173ffffffffffffffffffffffffffffffffffffffff021916908373ffffffffffffffffffffffffffffffffffffffff16021790555060408201518160020155606082015181600301559050507fa50219d9fe08f0c84080df6d3e14efcc4a4a138396328787c560d776875f5a03828260008060405161096a949392919061271b565b60405180910390a15050565b60008054906101000a900461ffff1681565b60036020528060005260406000206000915054906101000a900473ffffffffffffffffffffffffffffffffffffffff1681565b60608060608060608060608060008060009054906101000a900461ffff1661ffff1667ffffffffffffffff811115610a1c577f4e487b7100000000000000000000000000000000000000000000000000000000600052604160045260246000fd5b604051908082528060200260200182016040528015610a4a5781602001602082028036833780820191505090505b50905060008060009054906101000a900461ffff1661ffff1667ffffffffffffffff811115610aa2577f4e487b7100000000000000000000000000000000000000000000000000000000600052604160045260246000fd5b604051908082528060200260200182016040528015610ad05781602001602082028036833780820191505090505b50905060008060009054906101000a900461ffff1661ffff1667ffffffffffffffff811115610b28577f4e487b7100000000000000000000000000000000000000000000000000000000600052604160045260246000fd5b604051908082528060200260200182016040528015610b5b57816020015b6060815260200190600190039081610b465790505b50905060008060009054906101000a900461ffff1661ffff1667ffffffffffffffff811115610bb3577f4e487b7100000000000000000000000000000000000000000000000000000000600052604160045260246000fd5b604051908082528060200260200182016040528015610be657816020015b6060815260200190600190039081610bd15790505b50905060008060009054906101000a900461ffff1661ffff1667ffffffffffffffff811115610c3e577f4e487b7100000000000000000000000000000000000000000000000000000000600052604160045260246000fd5b604051908082528060200260200182016040528015610c7157816020015b6060815260200190600190039081610c5c5790505b50905060008060009054906101000a900461ffff1661ffff1667ffffffffffffffff811115610cc9577f4e487b7100000000000000000000000000000000000000000000000000000000600052604160045260246000fd5b604051908082528060200260200182016040528015610cf75781602001602082028036833780820191505090505b50905060008060009054906101000a900461ffff1661ffff1667ffffffffffffffff811115610d4f577f4e487b7100000000000000000000000000000000000000000000000000000000600052604160045260246000fd5b604051908082528060200260200182016040528015610d7d5781602001602082028036833780820191505090505b50905060008060009054906101000a900461ffff1661ffff1667ffffffffffffffff811115610dd5577f4e487b7100000000000000000000000000000000000000000000000000000000600052604160045260246000fd5b604051908082528060200260200182016040528015610e035781602001602082028036833780820191505090505b50905060005b60008054906101000a900461ffff1661ffff168110156114cc5760018181548110610e5d577f4e487b7100000000000000000000000000000000000000000000000000000000600052603260045260246000fd5b906000526020600020906007020160000160009054906101000a900461ffff16898281518110610eb6577f4e487b7100000000000000000000000000000000000000000000000000000000600052603260045260246000fd5b602002602001019061ffff16908161ffff168152505060018181548110610f06577f4e487b7100000000000000000000000000000000000000000000000000000000600052603260045260246000fd5b906000526020600020906007020160010154888281518110610f51577f4e487b7100000000000000000000000000000000000000000000000000000000600052603260045260246000fd5b60200260200101818152505060018181548110610f97577f4e487b7100000000000000000000000000000000000000000000000000000000600052603260045260246000fd5b90600052602060002090600702016002018054610fb390612c2a565b80601f0160208091040260200160405190810160405280929190818152602001828054610fdf90612c2a565b801561102c5780601f106110015761010080835404028352916020019161102c565b820191906000526020600020905b81548152906001019060200180831161100f57829003601f168201915b505050505087828151811061106a577f4e487b7100000000000000000000000000000000000000000000000000000000600052603260045260246000fd5b6020026020010181905250600181815481106110af577f4e487b7100000000000000000000000000000000000000000000000000000000600052603260045260246000fd5b906000526020600020906007020160030180546110cb90612c2a565b80601f01602080910402602001604051908101604052809291908181526020018280546110f790612c2a565b80156111445780601f1061111957610100808354040283529160200191611144565b820191906000526020600020905b81548152906001019060200180831161112757829003601f168201915b5050505050868281518110611182577f4e487b7100000000000000000000000000000000000000000000000000000000600052603260045260246000fd5b6020026020010181905250600181815481106111c7577f4e487b7100000000000000000000000000000000000000000000000000000000600052603260045260246000fd5b906000526020600020906007020160040180546111e390612c2a565b80601f016020809104026020016040519081016040528092919081815260200182805461120f90612c2a565b801561125c5780601f106112315761010080835404028352916020019161125c565b820191906000526020600020905b81548152906001019060200180831161123f57829003601f168201915b505050505085828151811061129a577f4e487b7100000000000000000000000000000000000000000000000000000000600052603260045260246000fd5b6020026020010181905250600181815481106112df577f4e487b7100000000000000000000000000000000000000000000000000000000600052603260045260246000fd5b906000526020600020906007020160050160009054906101000a900473ffffffffffffffffffffffffffffffffffffffff1684828151811061134a577f4e487b7100000000000000000000000000000000000000000000000000000000600052603260045260246000fd5b602002602001019073ffffffffffffffffffffffffffffffffffffffff16908173ffffffffffffffffffffffffffffffffffffffff1681525050600181815481106113be577f4e487b7100000000000000000000000000000000000000000000000000000000600052603260045260246000fd5b906000526020600020906007020160050160149054906101000a900460ff16838281518110611416577f4e487b7100000000000000000000000000000000000000000000000000000000600052603260045260246000fd5b60200260200101901515908115158152505060018181548110611462577f4e487b7100000000000000000000000000000000000000000000000000000000600052603260045260246000fd5b9060005260206000209060070201600601548282815181106114ad577f4e487b7100000000000000000000000000000000000000000000000000000000600052603260045260246000fd5b60200260200101818152505080806114c490612cb8565b915050610e09565b5087878787878787879f509f509f509f509f509f509f509f5050505050505050509091929394959697565b60026020528060005260406000206000915090508060000154908060010160009054906101000a900473ffffffffffffffffffffffffffffffffffffffff16908060020154908060030154905084565b6001818154811061155757600080fd5b90600052602060002090600702016000915090508060000160009054906101000a900461ffff169080600101549080600201805461159490612c2a565b80601f01602080910402602001604051908101604052809291908181526020018280546115c090612c2a565b801561160d5780601f106115e25761010080835404028352916020019161160d565b820191906000526020600020905b8154815290600101906020018083116115f057829003601f168201915b50505050509080600301805461162290612c2a565b80601f016020809104026020016040519081016040528092919081815260200182805461164e90612c2a565b801561169b5780601f106116705761010080835404028352916020019161169b565b820191906000526020600020905b81548152906001019060200180831161167e57829003601f168201915b5050505050908060040180546116b090612c2a565b80601f01602080910402602001604051908101604052809291908181526020018280546116dc90612c2a565b80156117295780601f106116fe57610100808354040283529160200191611729565b820191906000526020600020905b81548152906001019060200180831161170c57829003601f168201915b5050505050908060050160009054906101000a900473ffffffffffffffffffffffffffffffffffffffff16908060050160149054906101000a900460ff16908060060154905088565b80600060018261ffff16815481106117b3577f4e487b7100000000000000000000000000000000000000000000000000000000600052603260045260246000fd5b90600052602060002090600702016001015414156117d057600080fd5b813373ffffffffffffffffffffffffffffffffffffffff1660018261ffff1681548110611826577f4e487b7100000000000000000000000000000000000000000000000000000000600052603260045260246000fd5b906000526020600020906007020160050160009054906101000a900473ffffffffffffffffffffffffffffffffffffffff1673ffffffffffffffffffffffffffffffffffffffff16141561187957600080fd5b600060018461ffff16815481106118b9577f4e487b7100000000000000000000000000000000000000000000000000000000600052603260045260246000fd5b9060005260206000209060070201604051806101000160405290816000820160009054906101000a900461ffff1661ffff1661ffff1681526020016001820154815260200160028201805461190d90612c2a565b80601f016020809104026020016040519081016040528092919081815260200182805461193990612c2a565b80156119865780601f1061195b57610100808354040283529160200191611986565b820191906000526020600020905b81548152906001019060200180831161196957829003601f168201915b5050505050815260200160038201805461199f90612c2a565b80601f01602080910402602001604051908101604052809291908181526020018280546119cb90612c2a565b8015611a185780601f106119ed57610100808354040283529160200191611a18565b820191906000526020600020905b8154815290600101906020018083116119fb57829003601f168201915b50505050508152602001600482018054611a3190612c2a565b80601f0160208091040260200160405190810160405280929190818152602001828054611a5d90612c2a565b8015611aaa5780601f10611a7f57610100808354040283529160200191611aaa565b820191906000526020600020905b815481529060010190602001808311611a8d57829003601f168201915b505050505081526020016005820160009054906101000a900473ffffffffffffffffffffffffffffffffffffffff1673ffffffffffffffffffffffffffffffffffffffff1673ffffffffffffffffffffffffffffffffffffffff1681526020016005820160149054906101000a900460ff16151515158152602001600682015481525050905060008160a0015190508073ffffffffffffffffffffffffffffffffffffffff166108fc349081150290604051600060405180830381858888f19350505050158015611b7f573d6000803e3d6000fd5b50348260e00151611b909190612ad8565b8260e00181815250508160018661ffff1681548110611bd8577f4e487b7100000000000000000000000000000000000000000000000000000000600052603260045260246000fd5b906000526020600020906007020160008201518160000160006101000a81548161ffff021916908361ffff160217905550602082015181600101556040820151816002019080519060200190611c2f929190611fed565b506060820151816003019080519060200190611c4c929190611fed565b506080820151816004019080519060200190611c69929190611fed565b5060a08201518160050160006101000a81548173ffffffffffffffffffffffffffffffffffffffff021916908373ffffffffffffffffffffffffffffffffffffffff16021790555060c08201518160050160146101000a81548160ff02191690831515021790555060e082015181600601559050506000600260008373ffffffffffffffffffffffffffffffffffffffff1673ffffffffffffffffffffffffffffffffffffffff168152602001908152602001600020604051806080016040529081600082015481526020016001820160009054906101000a900473ffffffffffffffffffffffffffffffffffffffff1673ffffffffffffffffffffffffffffffffffffffff1673ffffffffffffffffffffffffffffffffffffffff168152602001600282015481526020016003820154815250509050348160400151611db09190612ad8565b81604001818152505080600260008473ffffffffffffffffffffffffffffffffffffffff1673ffffffffffffffffffffffffffffffffffffffff1681526020019081526020016000206000820151816000015560208201518160010160006101000a81548173ffffffffffffffffffffffffffffffffffffffff021916908373ffffffffffffffffffffffffffffffffffffffff16021790555060408201518160020155606082015181600301559050506000600260003373ffffffffffffffffffffffffffffffffffffffff1673ffffffffffffffffffffffffffffffffffffffff168152602001908152602001600020604051806080016040529081600082015481526020016001820160009054906101000a900473ffffffffffffffffffffffffffffffffffffffff1673ffffffffffffffffffffffffffffffffffffffff1673ffffffffffffffffffffffffffffffffffffffff168152602001600282015481526020016003820154815250509050348160600151611f339190612ad8565b81606001818152505080600260003373ffffffffffffffffffffffffffffffffffffffff1673ffffffffffffffffffffffffffffffffffffffff1681526020019081526020016000206000820151816000015560208201518160010160006101000a81548173ffffffffffffffffffffffffffffffffffffffff021916908373ffffffffffffffffffffffffffffffffffffffff160217905550604082015181600201556060820151816003015590505050505050505050565b828054611ff990612c2a565b90600052602060002090601f01602090048101928261201b5760008555612062565b82601f1061203457805160ff1916838001178555612062565b82800160010185558215612062579182015b82811115612061578251825591602001919060010190612046565b5b50905061206f9190612073565b5090565b5b8082111561208c576000816000905550600101612074565b5090565b60006120a361209e8461295d565b612938565b9050828152602081018484840111156120bb57600080fd5b6120c6848285612be8565b509392505050565b6000813590506120dd81612d9f565b92915050565b6000813590506120f281612db6565b92915050565b60008135905061210781612dcd565b92915050565b600082601f83011261211e57600080fd5b813561212e848260208601612090565b91505092915050565b60008135905061214681612de4565b92915050565b60008135905061215b81612dfb565b92915050565b60006020828403121561217357600080fd5b6000612181848285016120ce565b91505092915050565b6000806040838503121561219d57600080fd5b60006121ab858286016120f8565b92505060206121bc858286016120ce565b9150509250929050565b600080600080608085870312156121dc57600080fd5b600085013567ffffffffffffffff8111156121f657600080fd5b6122028782880161210d565b945050602085013567ffffffffffffffff81111561221f57600080fd5b61222b8782880161210d565b935050604085013567ffffffffffffffff81111561224857600080fd5b6122548782880161210d565b9250506060612265878288016120e3565b91505092959194509250565b60006020828403121561228357600080fd5b600061229184828501612137565b91505092915050565b6000602082840312156122ac57600080fd5b60006122ba8482850161214c565b91505092915050565b60006122cf8383612355565b60208301905092915050565b60006122e78383612560565b60208301905092915050565b60006122ff838361259c565b905092915050565b6000612313838361260e565b60208301905092915050565b600061232b838361262c565b60208301905092915050565b61234081612ba0565b82525050565b61234f81612b40565b82525050565b61235e81612b2e565b82525050565b61236d81612b2e565b82525050565b600061237e826129de565b6123888185612a61565b93506123938361298e565b8060005b838110156123c45781516123ab88826122c3565b97506123b683612a20565b925050600181019050612397565b5085935050505092915050565b60006123dc826129e9565b6123e68185612a72565b93506123f18361299e565b8060005b8381101561242257815161240988826122db565b975061241483612a2d565b9250506001810190506123f5565b5085935050505092915050565b600061243a826129f4565b6124448185612a83565b935083602082028501612456856129ae565b8060005b85811015612492578484038952815161247385826122f3565b945061247e83612a3a565b925060208a0199505060018101905061245a565b50829750879550505050505092915050565b60006124af826129ff565b6124b98185612a94565b93506124c4836129be565b8060005b838110156124f55781516124dc8882612307565b97506124e783612a47565b9250506001810190506124c8565b5085935050505092915050565b600061250d82612a0a565b6125178185612aa5565b9350612522836129ce565b8060005b8381101561255357815161253a888261231f565b975061254583612a54565b925050600181019050612526565b5085935050505092915050565b61256981612b52565b82525050565b61257881612b52565b82525050565b61258781612b5e565b82525050565b61259681612bb2565b82525050565b60006125a782612a15565b6125b18185612ab6565b93506125c1818560208601612bf7565b6125ca81612d8e565b840191505092915050565b60006125e082612a15565b6125ea8185612ac7565b93506125fa818560208601612bf7565b61260381612d8e565b840191505092915050565b61261781612b68565b82525050565b61262681612b68565b82525050565b61263581612b96565b82525050565b61264481612b96565b82525050565b600060208201905061265f6000830184612364565b92915050565b6000610100820190508181036000830152612680818b6124a4565b90508181036020830152612694818a612502565b905081810360408301526126a8818961242f565b905081810360608301526126bc818861242f565b905081810360808301526126d0818761242f565b905081810360a08301526126e48186612373565b905081810360c08301526126f881856123d1565b905081810360e083015261270c8184612502565b90509998505050505050505050565b6000608082019050612730600083018761257e565b61273d6020830186612364565b61274a604083018561258d565b612757606083018461258d565b95945050505050565b6000608082019050612775600083018761257e565b6127826020830186612364565b61278f604083018561263b565b61279c606083018461263b565b95945050505050565b60006020820190506127ba600083018461261d565b92915050565b60006060820190506127d5600083018661261d565b6127e2602083018561263b565b6127ef604083018461256f565b949350505050565b60006101008201905061280d600083018b61261d565b61281a602083018a61263b565b818103604083015261282c81896125d5565b9050818103606083015261284081886125d5565b9050818103608083015261285481876125d5565b905061286360a0830186612337565b61287060c083018561256f565b61287d60e083018461258d565b9998505050505050505050565b6000610100820190506128a0600083018b61261d565b6128ad602083018a61263b565b81810360408301526128bf81896125d5565b905081810360608301526128d381886125d5565b905081810360808301526128e781876125d5565b90506128f660a0830186612346565b61290360c083018561256f565b61291060e083018461263b565b9998505050505050505050565b6000602082019050612932600083018461263b565b92915050565b6000612942612953565b905061294e8282612c5c565b919050565b6000604051905090565b600067ffffffffffffffff82111561297857612977612d5f565b5b61298182612d8e565b9050602081019050919050565b6000819050602082019050919050565b6000819050602082019050919050565b6000819050602082019050919050565b6000819050602082019050919050565b6000819050602082019050919050565b600081519050919050565b600081519050919050565b600081519050919050565b600081519050919050565b600081519050919050565b600081519050919050565b6000602082019050919050565b6000602082019050919050565b6000602082019050919050565b6000602082019050919050565b6000602082019050919050565b600082825260208201905092915050565b600082825260208201905092915050565b600082825260208201905092915050565b600082825260208201905092915050565b600082825260208201905092915050565b600082825260208201905092915050565b600082825260208201905092915050565b6000612ae382612b96565b9150612aee83612b96565b9250827fffffffffffffffffffffffffffffffffffffffffffffffffffffffffffffffff03821115612b2357612b22612d01565b5b828201905092915050565b6000612b3982612b76565b9050919050565b6000612b4b82612b76565b9050919050565b60008115159050919050565b6000819050919050565b600061ffff82169050919050565b600073ffffffffffffffffffffffffffffffffffffffff82169050919050565b6000819050919050565b6000612bab82612bc4565b9050919050565b6000612bbd82612b96565b9050919050565b6000612bcf82612bd6565b9050919050565b6000612be182612b76565b9050919050565b82818337600083830152505050565b60005b83811015612c15578082015181840152602081019050612bfa565b83811115612c24576000848401525b50505050565b60006002820490506001821680612c4257607f821691505b60208210811415612c5657612c55612d30565b5b50919050565b612c6582612d8e565b810181811067ffffffffffffffff82111715612c8457612c83612d5f565b5b80604052505050565b6000612c9882612b68565b915061ffff821415612cad57612cac612d01565b5b600182019050919050565b6000612cc382612b96565b91507fffffffffffffffffffffffffffffffffffffffffffffffffffffffffffffffff821415612cf657612cf5612d01565b5b600182019050919050565b7f4e487b7100000000000000000000000000000000000000000000000000000000600052601160045260246000fd5b7f4e487b7100000000000000000000000000000000000000000000000000000000600052602260045260246000fd5b7f4e487b7100000000000000000000000000000000000000000000000000000000600052604160045260246000fd5b6000601f19601f8301169050919050565b612da881612b2e565b8114612db357600080fd5b50565b612dbf81612b40565b8114612dca57600080fd5b50565b612dd681612b5e565b8114612de157600080fd5b50565b612ded81612b68565b8114612df857600080fd5b50565b612e0481612b96565b8114612e0f57600080fd5b5056fea264697066735822122037f6d30c94c088b3d2c3f228b7020b37c5c43c93174e348eef1f3edd436b6f3764736f6c63430008040033516d51706d4c326b57365966546d47776d4e383241714e554168377262703672546a33514442614173725767636d",
  "immutableReferences": {},
  "source": "//SPDX-License-Identifier: Unlicense\npragma solidity ^0.8.4;\n\ncontract Blog {\n  struct User {\n    bytes32 name;\n    address wallet_address;\n    uint tips_received;\n    uint tips_sent;\n  }\n\n  struct Article {\n    uint16 id;\n    uint date;\n    string title;\n    string imageHash;\n    string content;\n    address payable author;\n    bool published;\n    uint tips;\n  }\n\n  uint16 public articleCount = 0;\n  Article[] public articles;\n\n  mapping(address => User) public users;\n  mapping(uint => address) public articleToUser;\n  mapping(address => uint) public userArticlesCount;\n\n   event UserCreated(\n    bytes32 name,\n    address wallet_address,\n    uint tips_received,\n    uint tips_sent\n  );\n\n  event ArticleCreated(\n    uint16 id,\n    uint date,\n    string title,\n    string imageHash,\n    string content,\n    address author,\n    bool published,\n    uint tips\n  );\n\n  event ArticlePublished(\n    uint16 id,\n    uint date,\n    bool published\n  );\n\n  constructor() {\n    createUser(\"Tiago Dias\", msg.sender);\n    createArticle(\n      \"My first blog's title.\",\n      \"QmQpmL2kW6YfTmGwmN82AqNUAh7rbp6rTj3QDBaAsrWgcm\",\n      \"My first blog article content!\",\n      payable(msg.sender)\n    );\n  }\n\n  // User Methods\n  function createUser(bytes32 _name, address _wallet_address) public {\n    users[_wallet_address] = User(_name, _wallet_address, 0, 0);\n    emit UserCreated(_name, _wallet_address, 0, 0);\n  }\n\n  // Article Methods\n  function createArticle(string memory _title, string memory _imageHash, string memory _content, address payable _author) public userExists(_author) {\n    articles.push(Article(articleCount, block.timestamp, _title, _imageHash, _content, _author, false, 0));\n    \n    articleToUser[articleCount] = msg.sender;\n    userArticlesCount[msg.sender] = userArticlesCount[msg.sender] + 1;\n\n    emit ArticleCreated(articleCount, articles[articleCount].date, _title, _imageHash, _content, _author, false, 0);\n    articleCount++;\n  }\n\n  function getArticles()\n    external\n    view\n    returns(\n      uint16[] memory,\n      uint[] memory,\n      string[] memory,\n      string[] memory,\n      string[] memory,\n      address[] memory,\n      bool[] memory,\n      uint[] memory\n    ) {\n\n      uint16[] memory ids = new uint16[](articleCount);\n      uint[] memory dates = new uint[](articleCount);\n      string[] memory titles = new string[](articleCount);\n      string[] memory imageHashes = new string[](articleCount);\n      string[] memory contents = new string[](articleCount);\n      address[] memory authors = new address[](articleCount);\n      bool[] memory publisheds = new bool[](articleCount);\n      uint[] memory tips = new uint[](articleCount);\n\n      for(uint i = 0; i < articleCount; i++) {\n        ids[i] = articles[i].id;\n        dates[i] = articles[i].date;\n        titles[i] = articles[i].title;\n        imageHashes[i] = articles[i].imageHash;\n        contents[i] = articles[i].content;\n        authors[i] = articles[i].author;\n        publisheds[i] = articles[i].published;\n        tips[i] = articles[i].tips;\n      }\n\n      return (ids, dates, titles, imageHashes, contents, authors, publisheds, tips);\n  }\n\n  function togglePublished(uint16 _id) external articleExists(_id) isOwner(_id) {\n    Article storage _article = articles[_id];\n    _article.published = !_article.published;\n    _article.date = block.timestamp;\n    emit ArticlePublished(_article.id, _article.date, _article.published);\n  }\n\n  modifier userExists(address wallet_address) {\n    if (users[wallet_address].name == '') {\n      revert();\n    }\n    _;\n  }\n\n  modifier articleExists(uint16 _id) {\n    if(articles[_id].date == 0) {\n      revert();\n    }\n    _;\n  }\n\n  modifier isOwner(uint16 _id) {\n    if (articles[_id].author != msg.sender) {\n      revert();\n    }\n    _;\n  }\n\n  modifier isNotOwner(uint16 _id) {\n    if (articles[_id].author == msg.sender) {\n      revert();\n    }\n    _;\n  }\n\n  // Tips\n  function tipArticle(uint16 _id) public payable articleExists(_id) isNotOwner(_id) {\n    Article memory _article = articles[_id];\n\n    address payable _author_address = _article.author;\n    _author_address.transfer(msg.value);\n\n    _article.tips = _article.tips + msg.value;\n    articles[_id] = _article;\n    \n    User memory _author = users[_author_address];\n    _author.tips_received = _author.tips_received + msg.value;\n    users[_author_address] = _author;\n\n    User memory _tipper = users[msg.sender];\n    _tipper.tips_sent = _tipper.tips_sent + msg.value;\n    users[msg.sender] = _tipper;\n  }\n\n}",
  "sourcePath": "/Users/tiagodias/Desktop/Personal Dev/Blockchain/Blog/contracts/Blog.sol",
  "compiler": {
    "name": "solc",
    "version": "0.8.4+commit.c7e474f2.Emscripten.clang"
  },
  "schemaVersion": "3.3.4",
  "updatedAt": "2021-04-30T14:42:35.030Z",
  "networkType": "ethereum",
  "devdoc": {
    "kind": "dev",
    "methods": {},
    "version": 1
  },
  "userdoc": {
    "kind": "user",
    "methods": {},
    "version": 1
  }
}