{
  "contractName": "Blog",
  "abi": [
    {
      "inputs": [],
      "stateMutability": "nonpayable",
      "type": "constructor"
    },
    {
      "anonymous": false,
      "inputs": [
        {
          "indexed": false,
          "internalType": "uint16",
          "name": "id",
          "type": "uint16"
        },
        {
          "indexed": false,
          "internalType": "uint256",
          "name": "date",
          "type": "uint256"
        },
        {
          "indexed": false,
          "internalType": "string",
          "name": "title",
          "type": "string"
        },
        {
          "indexed": false,
          "internalType": "string",
          "name": "imageHash",
          "type": "string"
        },
        {
          "indexed": false,
          "internalType": "string",
          "name": "content",
          "type": "string"
        },
        {
          "indexed": false,
          "internalType": "address",
          "name": "author",
          "type": "address"
        },
        {
          "indexed": false,
          "internalType": "bool",
          "name": "published",
          "type": "bool"
        },
        {
          "indexed": false,
          "internalType": "uint256",
          "name": "tips",
          "type": "uint256"
        }
      ],
      "name": "ArticleCreated",
      "type": "event"
    },
    {
      "anonymous": false,
      "inputs": [
        {
          "indexed": false,
          "internalType": "uint16",
          "name": "id",
          "type": "uint16"
        },
        {
          "indexed": false,
          "internalType": "uint256",
          "name": "date",
          "type": "uint256"
        },
        {
          "indexed": false,
          "internalType": "string",
          "name": "title",
          "type": "string"
        },
        {
          "indexed": false,
          "internalType": "string",
          "name": "imageHash",
          "type": "string"
        },
        {
          "indexed": false,
          "internalType": "string",
          "name": "content",
          "type": "string"
        },
        {
          "indexed": false,
          "internalType": "address",
          "name": "author",
          "type": "address"
        },
        {
          "indexed": false,
          "internalType": "bool",
          "name": "published",
          "type": "bool"
        },
        {
          "indexed": false,
          "internalType": "uint256",
          "name": "tips",
          "type": "uint256"
        }
      ],
      "name": "ArticleEdited",
      "type": "event"
    },
    {
      "anonymous": false,
      "inputs": [
        {
          "indexed": false,
          "internalType": "uint16",
          "name": "id",
          "type": "uint16"
        },
        {
          "indexed": false,
          "internalType": "uint256",
          "name": "date",
          "type": "uint256"
        },
        {
          "indexed": false,
          "internalType": "bool",
          "name": "published",
          "type": "bool"
        }
      ],
      "name": "ArticlePublished",
      "type": "event"
    },
    {
      "anonymous": false,
      "inputs": [
        {
          "indexed": false,
          "internalType": "uint256",
          "name": "id",
          "type": "uint256"
        },
        {
          "indexed": false,
          "internalType": "uint16",
          "name": "articleId",
          "type": "uint16"
        },
        {
          "indexed": false,
          "internalType": "string",
          "name": "message",
          "type": "string"
        },
        {
          "indexed": false,
          "internalType": "address payable",
          "name": "author",
          "type": "address"
        },
        {
          "indexed": false,
          "internalType": "uint256",
          "name": "tips",
          "type": "uint256"
        },
        {
          "indexed": false,
          "internalType": "uint256",
          "name": "date",
          "type": "uint256"
        }
      ],
      "name": "CommentCreated",
      "type": "event"
    },
    {
      "anonymous": false,
      "inputs": [
        {
          "indexed": false,
          "internalType": "bytes32",
          "name": "name",
          "type": "bytes32"
        },
        {
          "indexed": false,
          "internalType": "address",
          "name": "wallet_address",
          "type": "address"
        },
        {
          "indexed": false,
          "internalType": "uint256",
          "name": "tips_received",
          "type": "uint256"
        },
        {
          "indexed": false,
          "internalType": "uint256",
          "name": "tips_sent",
          "type": "uint256"
        }
      ],
      "name": "UserCreated",
      "type": "event"
    },
    {
      "inputs": [
        {
          "internalType": "uint16",
          "name": "",
          "type": "uint16"
        }
      ],
      "name": "articleCommentsCount",
      "outputs": [
        {
          "internalType": "uint16",
          "name": "",
          "type": "uint16"
        }
      ],
      "stateMutability": "view",
      "type": "function",
      "constant": true
    },
    {
      "inputs": [],
      "name": "articleCount",
      "outputs": [
        {
          "internalType": "uint16",
          "name": "",
          "type": "uint16"
        }
      ],
      "stateMutability": "view",
      "type": "function",
      "constant": true
    },
    {
      "inputs": [
        {
          "internalType": "uint16",
          "name": "",
          "type": "uint16"
        }
      ],
      "name": "articleToUser",
      "outputs": [
        {
          "internalType": "address",
          "name": "",
          "type": "address"
        }
      ],
      "stateMutability": "view",
      "type": "function",
      "constant": true
    },
    {
      "inputs": [],
      "name": "commentCount",
      "outputs": [
        {
          "internalType": "uint256",
          "name": "",
          "type": "uint256"
        }
      ],
      "stateMutability": "view",
      "type": "function",
      "constant": true
    },
    {
      "inputs": [
        {
          "internalType": "uint256",
          "name": "",
          "type": "uint256"
        }
      ],
      "name": "commentToArticle",
      "outputs": [
        {
          "internalType": "uint16",
          "name": "",
          "type": "uint16"
        }
      ],
      "stateMutability": "view",
      "type": "function",
      "constant": true
    },
    {
      "inputs": [],
      "name": "owner",
      "outputs": [
        {
          "internalType": "address payable",
          "name": "",
          "type": "address"
        }
      ],
      "stateMutability": "view",
      "type": "function",
      "constant": true
    },
    {
      "inputs": [
        {
          "internalType": "address",
          "name": "",
          "type": "address"
        }
      ],
      "name": "userArticlesCount",
      "outputs": [
        {
          "internalType": "uint256",
          "name": "",
          "type": "uint256"
        }
      ],
      "stateMutability": "view",
      "type": "function",
      "constant": true
    },
    {
      "inputs": [
        {
          "internalType": "address",
          "name": "",
          "type": "address"
        }
      ],
      "name": "users",
      "outputs": [
        {
          "internalType": "bytes32",
          "name": "name",
          "type": "bytes32"
        },
        {
          "internalType": "address",
          "name": "wallet_address",
          "type": "address"
        },
        {
          "internalType": "uint256",
          "name": "tips_received",
          "type": "uint256"
        },
        {
          "internalType": "uint256",
          "name": "tips_sent",
          "type": "uint256"
        }
      ],
      "stateMutability": "view",
      "type": "function",
      "constant": true
    },
    {
      "inputs": [
        {
          "internalType": "bytes32",
          "name": "_name",
          "type": "bytes32"
        }
      ],
      "name": "createUser",
      "outputs": [],
      "stateMutability": "nonpayable",
      "type": "function"
    },
    {
      "inputs": [
        {
          "internalType": "string",
          "name": "_title",
          "type": "string"
        },
        {
          "internalType": "string",
          "name": "_imageHash",
          "type": "string"
        },
        {
          "internalType": "string",
          "name": "_content",
          "type": "string"
        }
      ],
      "name": "createArticle",
      "outputs": [],
      "stateMutability": "nonpayable",
      "type": "function"
    },
    {
      "inputs": [
        {
          "internalType": "uint16",
          "name": "_id",
          "type": "uint16"
        },
        {
          "internalType": "string",
          "name": "_title",
          "type": "string"
        },
        {
          "internalType": "string",
          "name": "_imageHash",
          "type": "string"
        },
        {
          "internalType": "string",
          "name": "_content",
          "type": "string"
        }
      ],
      "name": "editArticle",
      "outputs": [],
      "stateMutability": "nonpayable",
      "type": "function"
    },
    {
      "inputs": [
        {
          "internalType": "uint16",
          "name": "_id",
          "type": "uint16"
        }
      ],
      "name": "getArticle",
      "outputs": [
        {
          "components": [
            {
              "internalType": "uint16",
              "name": "id",
              "type": "uint16"
            },
            {
              "internalType": "uint256",
              "name": "date",
              "type": "uint256"
            },
            {
              "internalType": "string",
              "name": "title",
              "type": "string"
            },
            {
              "internalType": "string",
              "name": "imageHash",
              "type": "string"
            },
            {
              "internalType": "string",
              "name": "content",
              "type": "string"
            },
            {
              "internalType": "address payable",
              "name": "author",
              "type": "address"
            },
            {
              "internalType": "bool",
              "name": "published",
              "type": "bool"
            },
            {
              "internalType": "uint256",
              "name": "tips",
              "type": "uint256"
            }
          ],
          "internalType": "struct Blog.Article",
          "name": "",
          "type": "tuple"
        }
      ],
      "stateMutability": "view",
      "type": "function",
      "constant": true
    },
    {
      "inputs": [],
      "name": "getArticles",
      "outputs": [
        {
          "components": [
            {
              "internalType": "uint16",
              "name": "id",
              "type": "uint16"
            },
            {
              "internalType": "uint256",
              "name": "date",
              "type": "uint256"
            },
            {
              "internalType": "string",
              "name": "title",
              "type": "string"
            },
            {
              "internalType": "string",
              "name": "imageHash",
              "type": "string"
            },
            {
              "internalType": "string",
              "name": "content",
              "type": "string"
            },
            {
              "internalType": "address payable",
              "name": "author",
              "type": "address"
            },
            {
              "internalType": "bool",
              "name": "published",
              "type": "bool"
            },
            {
              "internalType": "uint256",
              "name": "tips",
              "type": "uint256"
            }
          ],
          "internalType": "struct Blog.Article[]",
          "name": "",
          "type": "tuple[]"
        }
      ],
      "stateMutability": "view",
      "type": "function",
      "constant": true
    },
    {
      "inputs": [],
      "name": "getUserArticles",
      "outputs": [
        {
          "components": [
            {
              "internalType": "uint16",
              "name": "id",
              "type": "uint16"
            },
            {
              "internalType": "uint256",
              "name": "date",
              "type": "uint256"
            },
            {
              "internalType": "string",
              "name": "title",
              "type": "string"
            },
            {
              "internalType": "string",
              "name": "imageHash",
              "type": "string"
            },
            {
              "internalType": "string",
              "name": "content",
              "type": "string"
            },
            {
              "internalType": "address payable",
              "name": "author",
              "type": "address"
            },
            {
              "internalType": "bool",
              "name": "published",
              "type": "bool"
            },
            {
              "internalType": "uint256",
              "name": "tips",
              "type": "uint256"
            }
          ],
          "internalType": "struct Blog.Article[]",
          "name": "",
          "type": "tuple[]"
        }
      ],
      "stateMutability": "view",
      "type": "function",
      "constant": true
    },
    {
      "inputs": [
        {
          "internalType": "uint16",
          "name": "_id",
          "type": "uint16"
        }
      ],
      "name": "togglePublished",
      "outputs": [],
      "stateMutability": "nonpayable",
      "type": "function"
    },
    {
      "inputs": [
        {
          "internalType": "uint16",
          "name": "_id",
          "type": "uint16"
        }
      ],
      "name": "tipArticle",
      "outputs": [],
      "stateMutability": "payable",
      "type": "function",
      "payable": true
    },
    {
      "inputs": [
        {
          "internalType": "uint16",
          "name": "_articleId",
          "type": "uint16"
        },
        {
          "internalType": "string",
          "name": "_message",
          "type": "string"
        }
      ],
      "name": "addCommentToArticle",
      "outputs": [],
      "stateMutability": "nonpayable",
      "type": "function"
    },
    {
      "inputs": [
        {
          "internalType": "uint16",
          "name": "_articleId",
          "type": "uint16"
        }
      ],
      "name": "getArticleComments",
      "outputs": [
        {
          "components": [
            {
              "internalType": "uint256",
              "name": "id",
              "type": "uint256"
            },
            {
              "internalType": "uint16",
              "name": "articleId",
              "type": "uint16"
            },
            {
              "internalType": "string",
              "name": "message",
              "type": "string"
            },
            {
              "internalType": "address payable",
              "name": "author",
              "type": "address"
            },
            {
              "internalType": "uint256",
              "name": "tips",
              "type": "uint256"
            },
            {
              "internalType": "uint256",
              "name": "date",
              "type": "uint256"
            }
          ],
          "internalType": "struct Blog.Comment[]",
          "name": "",
          "type": "tuple[]"
        }
      ],
      "stateMutability": "view",
      "type": "function",
      "constant": true
    },
    {
      "inputs": [],
      "name": "getUserComments",
      "outputs": [
        {
          "components": [
            {
              "internalType": "uint256",
              "name": "id",
              "type": "uint256"
            },
            {
              "internalType": "uint16",
              "name": "articleId",
              "type": "uint16"
            },
            {
              "internalType": "string",
              "name": "message",
              "type": "string"
            },
            {
              "internalType": "address payable",
              "name": "author",
              "type": "address"
            },
            {
              "internalType": "uint256",
              "name": "tips",
              "type": "uint256"
            },
            {
              "internalType": "uint256",
              "name": "date",
              "type": "uint256"
            }
          ],
          "internalType": "struct Blog.Comment[]",
          "name": "",
          "type": "tuple[]"
        }
      ],
      "stateMutability": "view",
      "type": "function",
      "constant": true
    }
  ],
  "bytecode": "0x608060405260008060146101000a81548161ffff021916908361ffff16021790555060006001553480156200003357600080fd5b50336000806101000a81548173ffffffffffffffffffffffffffffffffffffffff021916908373ffffffffffffffffffffffffffffffffffffffff160217905550620000a57f546961676f204469617300000000000000000000000000000000000000000000620000ab60201b60201c565b620002aa565b60405180608001604052808281526020013373ffffffffffffffffffffffffffffffffffffffff168152602001600081526020016000815250600460003373ffffffffffffffffffffffffffffffffffffffff1673ffffffffffffffffffffffffffffffffffffffff1681526020019081526020016000206000820151816000015560208201518160010160006101000a81548173ffffffffffffffffffffffffffffffffffffffff021916908373ffffffffffffffffffffffffffffffffffffffff16021790555060408201518160020155606082015181600301559050507fa50219d9fe08f0c84080df6d3e14efcc4a4a138396328787c560d776875f5a038133600080604051620001c3949392919062000201565b60405180910390a150565b620001d9816200024e565b82525050565b620001ea8162000262565b82525050565b620001fb8162000296565b82525050565b6000608082019050620002186000830187620001df565b620002276020830186620001ce565b620002366040830185620001f0565b620002456060830184620001f0565b95945050505050565b60006200025b826200026c565b9050919050565b6000819050919050565b600073ffffffffffffffffffffffffffffffffffffffff82169050919050565b6000819050919050565b6000620002a3826200028c565b9050919050565b61450280620002ba6000396000f3fe6080604052600436106101145760003560e01c80636f3ed9b4116100a0578063a87430ba11610064578063a87430ba146103b3578063abf7bfd8146103f3578063bafe18ae1461041c578063d92c98de14610459578063fd4214fe1461049657610114565b80636f3ed9b4146102cc578063719b741d146102f55780638568e259146103205780638da5cb5b1461034b57806391bcc9d31461037657610114565b80632dd9437f116100e75780632dd9437f146101e5578063414e28b01461020e57806345ff20de146102395780636529f44a146102645780636d6db3451461028f57610114565b8063056a86bb1461011957806306eb029c146101425780630c5685f51461016b5780631686e838146101a8575b600080fd5b34801561012557600080fd5b50610140600480360381019061013b9190613738565b6104b2565b005b34801561014e57600080fd5b5061016960048036038101906101649190613761565b6106a7565b005b34801561017757600080fd5b50610192600480360381019061018d9190613738565b6109ba565b60405161019f9190613e6c565b60405180910390f35b3480156101b457600080fd5b506101cf60048036038101906101ca919061364f565b6109db565b6040516101dc9190613fe4565b60405180910390f35b3480156101f157600080fd5b5061020c600480360381019061020791906136a1565b6109f3565b005b34801561021a57600080fd5b50610223610e12565b6040516102309190613e6c565b60405180910390f35b34801561024557600080fd5b5061024e610e26565b60405161025b9190613fe4565b60405180910390f35b34801561027057600080fd5b50610279610e2c565b6040516102869190613d7c565b60405180910390f35b34801561029b57600080fd5b506102b660048036038101906102b19190613738565b61163c565b6040516102c39190613d9e565b60405180910390f35b3480156102d857600080fd5b506102f360048036038101906102ee91906137b5565b611a42565b005b34801561030157600080fd5b5061030a611ce2565b6040516103179190613d9e565b60405180910390f35b34801561032c57600080fd5b5061033561211c565b6040516103429190613d7c565b60405180910390f35b34801561035757600080fd5b506103606126b7565b60405161036d9190613d61565b60405180910390f35b34801561038257600080fd5b5061039d60048036038101906103989190613860565b6126db565b6040516103aa9190613e6c565b60405180910390f35b3480156103bf57600080fd5b506103da60048036038101906103d5919061364f565b6126fc565b6040516103ea9493929190613e05565b60405180910390f35b3480156103ff57600080fd5b5061041a60048036038101906104159190613678565b61274c565b005b34801561042857600080fd5b50610443600480360381019061043e9190613738565b61286d565b6040516104509190613d46565b60405180910390f35b34801561046557600080fd5b50610480600480360381019061047b9190613738565b6128a0565b60405161048d9190613e4a565b60405180910390f35b6104b060048036038101906104ab9190613738565b612bc4565b005b80600060028261ffff16815481106104f3577f4e487b7100000000000000000000000000000000000000000000000000000000600052603260045260246000fd5b906000526020600020906007020160010154141561051057600080fd5b813373ffffffffffffffffffffffffffffffffffffffff1660028261ffff1681548110610566577f4e487b7100000000000000000000000000000000000000000000000000000000600052603260045260246000fd5b906000526020600020906007020160050160009054906101000a900473ffffffffffffffffffffffffffffffffffffffff1673ffffffffffffffffffffffffffffffffffffffff16146105b857600080fd5b600060028461ffff16815481106105f8577f4e487b7100000000000000000000000000000000000000000000000000000000600052603260045260246000fd5b906000526020600020906007020190508060050160149054906101000a900460ff16158160050160146101000a81548160ff0219169083151502179055504281600101819055507f14e88741af6b08028f509f1124d07f4f703011ddc2d1e829927f69fc5cc8aadf8160000160009054906101000a900461ffff1682600101548360050160149054906101000a900460ff1660405161069993929190613e87565b60405180910390a150505050565b81600060028261ffff16815481106106e8577f4e487b7100000000000000000000000000000000000000000000000000000000600052603260045260246000fd5b906000526020600020906007020160010154141561070557600080fd5b6000600460003373ffffffffffffffffffffffffffffffffffffffff1673ffffffffffffffffffffffffffffffffffffffff16815260200190815260200160002060000154141561075557600080fd5b60036040518060c0016040528060015481526020018561ffff1681526020018481526020013373ffffffffffffffffffffffffffffffffffffffff168152602001600081526020014281525090806001815401808255809150506001900390600052602060002090600602016000909190919091506000820151816000015560208201518160010160006101000a81548161ffff021916908361ffff160217905550604082015181600201908051906020019061081392919061343f565b5060608201518160030160006101000a81548173ffffffffffffffffffffffffffffffffffffffff021916908373ffffffffffffffffffffffffffffffffffffffff1602179055506080820151816004015560a0820151816005015550508260076000600154815260200190815260200160002060006101000a81548161ffff021916908361ffff1602179055506001600860008561ffff1661ffff16815260200190815260200160002060009054906101000a900461ffff166108d79190614171565b600860008561ffff1661ffff16815260200190815260200160002060006101000a81548161ffff021916908361ffff1602179055507fb363410516054b83e62df36ed5eb3806d36639b941298819f3e98a3bfd1d348e6001548484336000600360015481548110610971577f4e487b7100000000000000000000000000000000000000000000000000000000600052603260045260246000fd5b90600052602060002090600602016005015460405161099596959493929190613fff565b60405180910390a1600160008154809291906109b090614389565b9190505550505050565b60086020528060005260406000206000915054906101000a900461ffff1681565b60066020528060005260406000206000915090505481565b6000600460003373ffffffffffffffffffffffffffffffffffffffff1673ffffffffffffffffffffffffffffffffffffffff168152602001908152602001600020600001541415610a4357600080fd5b3373ffffffffffffffffffffffffffffffffffffffff1660008054906101000a900473ffffffffffffffffffffffffffffffffffffffff1673ffffffffffffffffffffffffffffffffffffffff1614610a9b57600080fd5b6002604051806101000160405280600060149054906101000a900461ffff1661ffff1681526020014281526020018581526020018481526020018381526020013373ffffffffffffffffffffffffffffffffffffffff1681526020016000151581526020016000815250908060018154018082558091505060019003906000526020600020906007020160009091909190915060008201518160000160006101000a81548161ffff021916908361ffff160217905550602082015181600101556040820151816002019080519060200190610b7792919061343f565b506060820151816003019080519060200190610b9492919061343f565b506080820151816004019080519060200190610bb192919061343f565b5060a08201518160050160006101000a81548173ffffffffffffffffffffffffffffffffffffffff021916908373ffffffffffffffffffffffffffffffffffffffff16021790555060c08201518160050160146101000a81548160ff02191690831515021790555060e08201518160060155505033600560008060149054906101000a900461ffff1661ffff1661ffff16815260200190815260200160002060006101000a81548173ffffffffffffffffffffffffffffffffffffffff021916908373ffffffffffffffffffffffffffffffffffffffff1602179055506001600660003373ffffffffffffffffffffffffffffffffffffffff1673ffffffffffffffffffffffffffffffffffffffff16815260200190815260200160002054610cda91906141a9565b600660003373ffffffffffffffffffffffffffffffffffffffff1673ffffffffffffffffffffffffffffffffffffffff168152602001908152602001600020819055507fd45a18f512a868a957b292903d58190ae32786655c138111e70120b435041d8c600060149054906101000a900461ffff166002600060149054906101000a900461ffff1661ffff1681548110610d9d577f4e487b7100000000000000000000000000000000000000000000000000000000600052603260045260246000fd5b90600052602060002090600702016001015485858533600080604051610dca989796959493929190613ebe565b60405180910390a16000601481819054906101000a900461ffff1680929190610df29061435e565b91906101000a81548161ffff021916908361ffff16021790555050505050565b600060149054906101000a900461ffff1681565b60015481565b606060008060149054906101000a900461ffff1661ffff1667ffffffffffffffff811115610e83577f4e487b7100000000000000000000000000000000000000000000000000000000600052604160045260246000fd5b604051908082528060200260200182016040528015610ebc57816020015b610ea96134c5565b815260200190600190039081610ea15790505b5090506000805b600060149054906101000a900461ffff1661ffff168110156112525760028181548110610f19577f4e487b7100000000000000000000000000000000000000000000000000000000600052603260045260246000fd5b906000526020600020906007020160050160149054906101000a900460ff161561123f5760028181548110610f77577f4e487b7100000000000000000000000000000000000000000000000000000000600052603260045260246000fd5b9060005260206000209060070201604051806101000160405290816000820160009054906101000a900461ffff1661ffff1661ffff16815260200160018201548152602001600282018054610fcb906142fb565b80601f0160208091040260200160405190810160405280929190818152602001828054610ff7906142fb565b80156110445780601f1061101957610100808354040283529160200191611044565b820191906000526020600020905b81548152906001019060200180831161102757829003601f168201915b5050505050815260200160038201805461105d906142fb565b80601f0160208091040260200160405190810160405280929190818152602001828054611089906142fb565b80156110d65780601f106110ab576101008083540402835291602001916110d6565b820191906000526020600020905b8154815290600101906020018083116110b957829003601f168201915b505050505081526020016004820180546110ef906142fb565b80601f016020809104026020016040519081016040528092919081815260200182805461111b906142fb565b80156111685780601f1061113d57610100808354040283529160200191611168565b820191906000526020600020905b81548152906001019060200180831161114b57829003601f168201915b505050505081526020016005820160009054906101000a900473ffffffffffffffffffffffffffffffffffffffff1673ffffffffffffffffffffffffffffffffffffffff1673ffffffffffffffffffffffffffffffffffffffff1681526020016005820160149054906101000a900460ff16151515158152602001600682015481525050838281518110611225577f4e487b7100000000000000000000000000000000000000000000000000000000600052603260045260246000fd5b6020026020010181905250818061123b9061435e565b9250505b808061124a90614389565b915050610ec3565b5060008161ffff1667ffffffffffffffff811115611299577f4e487b7100000000000000000000000000000000000000000000000000000000600052604160045260246000fd5b6040519080825280602002602001820160405280156112d257816020015b6112bf6134c5565b8152602001906001900390816112b75790505b50905060005b83518110156116325783818151811061131a577f4e487b7100000000000000000000000000000000000000000000000000000000600052603260045260246000fd5b602002602001015160c001511561161f5760028181548110611365577f4e487b7100000000000000000000000000000000000000000000000000000000600052603260045260246000fd5b9060005260206000209060070201604051806101000160405290816000820160009054906101000a900461ffff1661ffff1661ffff168152602001600182015481526020016002820180546113b9906142fb565b80601f01602080910402602001604051908101604052809291908181526020018280546113e5906142fb565b80156114325780601f1061140757610100808354040283529160200191611432565b820191906000526020600020905b81548152906001019060200180831161141557829003601f168201915b5050505050815260200160038201805461144b906142fb565b80601f0160208091040260200160405190810160405280929190818152602001828054611477906142fb565b80156114c45780601f10611499576101008083540402835291602001916114c4565b820191906000526020600020905b8154815290600101906020018083116114a757829003601f168201915b505050505081526020016004820180546114dd906142fb565b80601f0160208091040260200160405190810160405280929190818152602001828054611509906142fb565b80156115565780601f1061152b57610100808354040283529160200191611556565b820191906000526020600020905b81548152906001019060200180831161153957829003601f168201915b505050505081526020016005820160009054906101000a900473ffffffffffffffffffffffffffffffffffffffff1673ffffffffffffffffffffffffffffffffffffffff1673ffffffffffffffffffffffffffffffffffffffff1681526020016005820160149054906101000a900460ff16151515158152602001600682015481525050828281518110611613577f4e487b7100000000000000000000000000000000000000000000000000000000600052603260045260246000fd5b60200260200101819052505b808061162a90614389565b9150506112d8565b5080935050505090565b6060600060015467ffffffffffffffff811115611682577f4e487b7100000000000000000000000000000000000000000000000000000000600052604160045260246000fd5b6040519080825280602002602001820160405280156116bb57816020015b6116a8613526565b8152602001906001900390816116a05790505b5090506000805b600154811015611914578461ffff166003828154811061170b577f4e487b7100000000000000000000000000000000000000000000000000000000600052603260045260246000fd5b906000526020600020906006020160010160009054906101000a900461ffff1661ffff161415611901576003818154811061176f577f4e487b7100000000000000000000000000000000000000000000000000000000600052603260045260246000fd5b90600052602060002090600602016040518060c0016040529081600082015481526020016001820160009054906101000a900461ffff1661ffff1661ffff1681526020016002820180546117c2906142fb565b80601f01602080910402602001604051908101604052809291908181526020018280546117ee906142fb565b801561183b5780601f106118105761010080835404028352916020019161183b565b820191906000526020600020905b81548152906001019060200180831161181e57829003601f168201915b505050505081526020016003820160009054906101000a900473ffffffffffffffffffffffffffffffffffffffff1673ffffffffffffffffffffffffffffffffffffffff1673ffffffffffffffffffffffffffffffffffffffff168152602001600482015481526020016005820154815250508382815181106118e7577f4e487b7100000000000000000000000000000000000000000000000000000000600052603260045260246000fd5b602002602001018190525081806118fd90614389565b9250505b808061190c90614389565b9150506116c2565b5060008167ffffffffffffffff811115611957577f4e487b7100000000000000000000000000000000000000000000000000000000600052604160045260246000fd5b60405190808252806020026020018201604052801561199057816020015b61197d613526565b8152602001906001900390816119755790505b50905060005b82811015611a36578381815181106119d7577f4e487b7100000000000000000000000000000000000000000000000000000000600052603260045260246000fd5b6020026020010151828281518110611a18577f4e487b7100000000000000000000000000000000000000000000000000000000600052603260045260246000fd5b60200260200101819052508080611a2e90614389565b915050611996565b50809350505050919050565b6000600460003373ffffffffffffffffffffffffffffffffffffffff1673ffffffffffffffffffffffffffffffffffffffff168152602001908152602001600020600001541415611a9257600080fd5b83600060028261ffff1681548110611ad3577f4e487b7100000000000000000000000000000000000000000000000000000000600052603260045260246000fd5b9060005260206000209060070201600101541415611af057600080fd5b843373ffffffffffffffffffffffffffffffffffffffff1660028261ffff1681548110611b46577f4e487b7100000000000000000000000000000000000000000000000000000000600052603260045260246000fd5b906000526020600020906007020160050160009054906101000a900473ffffffffffffffffffffffffffffffffffffffff1673ffffffffffffffffffffffffffffffffffffffff1614611b9857600080fd5b600060028761ffff1681548110611bd8577f4e487b7100000000000000000000000000000000000000000000000000000000600052603260045260246000fd5b9060005260206000209060070201905085816002019080519060200190611c0092919061343f565b5083816004019080519060200190611c1992919061343f565b5084816003019080519060200190611c3292919061343f565b504281600101819055507f6fa9ae7019b10f8eb5a1c3a19700521d5e6c99768d95bf5ca95d022be71b85d68160000160009054906101000a900461ffff1682600101548360020184600301856004018660050160009054906101000a900473ffffffffffffffffffffffffffffffffffffffff168760050160149054906101000a900460ff168860060154604051611cd1989796959493929190613f51565b60405180910390a150505050505050565b6060600060015467ffffffffffffffff811115611d28577f4e487b7100000000000000000000000000000000000000000000000000000000600052604160045260246000fd5b604051908082528060200260200182016040528015611d6157816020015b611d4e613526565b815260200190600190039081611d465790505b5090506000805b600154811015611ff0573373ffffffffffffffffffffffffffffffffffffffff1660038281548110611dc3577f4e487b7100000000000000000000000000000000000000000000000000000000600052603260045260246000fd5b906000526020600020906006020160030160009054906101000a900473ffffffffffffffffffffffffffffffffffffffff1673ffffffffffffffffffffffffffffffffffffffff161415611fdd5760038181548110611e4b577f4e487b7100000000000000000000000000000000000000000000000000000000600052603260045260246000fd5b90600052602060002090600602016040518060c0016040529081600082015481526020016001820160009054906101000a900461ffff1661ffff1661ffff168152602001600282018054611e9e906142fb565b80601f0160208091040260200160405190810160405280929190818152602001828054611eca906142fb565b8015611f175780601f10611eec57610100808354040283529160200191611f17565b820191906000526020600020905b815481529060010190602001808311611efa57829003601f168201915b505050505081526020016003820160009054906101000a900473ffffffffffffffffffffffffffffffffffffffff1673ffffffffffffffffffffffffffffffffffffffff1673ffffffffffffffffffffffffffffffffffffffff16815260200160048201548152602001600582015481525050838281518110611fc3577f4e487b7100000000000000000000000000000000000000000000000000000000600052603260045260246000fd5b60200260200101819052508180611fd990614389565b9250505b8080611fe890614389565b915050611d68565b5060008167ffffffffffffffff811115612033577f4e487b7100000000000000000000000000000000000000000000000000000000600052604160045260246000fd5b60405190808252806020026020018201604052801561206c57816020015b612059613526565b8152602001906001900390816120515790505b50905060005b82811015612112578381815181106120b3577f4e487b7100000000000000000000000000000000000000000000000000000000600052603260045260246000fd5b60200260200101518282815181106120f4577f4e487b7100000000000000000000000000000000000000000000000000000000600052603260045260246000fd5b6020026020010181905250808061210a90614389565b915050612072565b5080935050505090565b606060008060149054906101000a900461ffff1661ffff1667ffffffffffffffff811115612173577f4e487b7100000000000000000000000000000000000000000000000000000000600052604160045260246000fd5b6040519080825280602002602001820160405280156121ac57816020015b6121996134c5565b8152602001906001900390816121915790505b5090506000805b600060149054906101000a900461ffff1661ffff16811015612583573373ffffffffffffffffffffffffffffffffffffffff1660028281548110612220577f4e487b7100000000000000000000000000000000000000000000000000000000600052603260045260246000fd5b906000526020600020906007020160050160009054906101000a900473ffffffffffffffffffffffffffffffffffffffff1673ffffffffffffffffffffffffffffffffffffffff16141561257057600281815481106122a8577f4e487b7100000000000000000000000000000000000000000000000000000000600052603260045260246000fd5b9060005260206000209060070201604051806101000160405290816000820160009054906101000a900461ffff1661ffff1661ffff168152602001600182015481526020016002820180546122fc906142fb565b80601f0160208091040260200160405190810160405280929190818152602001828054612328906142fb565b80156123755780601f1061234a57610100808354040283529160200191612375565b820191906000526020600020905b81548152906001019060200180831161235857829003601f168201915b5050505050815260200160038201805461238e906142fb565b80601f01602080910402602001604051908101604052809291908181526020018280546123ba906142fb565b80156124075780601f106123dc57610100808354040283529160200191612407565b820191906000526020600020905b8154815290600101906020018083116123ea57829003601f168201915b50505050508152602001600482018054612420906142fb565b80601f016020809104026020016040519081016040528092919081815260200182805461244c906142fb565b80156124995780601f1061246e57610100808354040283529160200191612499565b820191906000526020600020905b81548152906001019060200180831161247c57829003601f168201915b505050505081526020016005820160009054906101000a900473ffffffffffffffffffffffffffffffffffffffff1673ffffffffffffffffffffffffffffffffffffffff1673ffffffffffffffffffffffffffffffffffffffff1681526020016005820160149054906101000a900460ff16151515158152602001600682015481525050838281518110612556577f4e487b7100000000000000000000000000000000000000000000000000000000600052603260045260246000fd5b6020026020010181905250818061256c9061435e565b9250505b808061257b90614389565b9150506121b3565b5060008161ffff1667ffffffffffffffff8111156125ca577f4e487b7100000000000000000000000000000000000000000000000000000000600052604160045260246000fd5b60405190808252806020026020018201604052801561260357816020015b6125f06134c5565b8152602001906001900390816125e85790505b50905060005b8261ffff168110156126ad5783818151811061264e577f4e487b7100000000000000000000000000000000000000000000000000000000600052603260045260246000fd5b602002602001015182828151811061268f577f4e487b7100000000000000000000000000000000000000000000000000000000600052603260045260246000fd5b602002602001018190525080806126a590614389565b915050612609565b5080935050505090565b60008054906101000a900473ffffffffffffffffffffffffffffffffffffffff1681565b60076020528060005260406000206000915054906101000a900461ffff1681565b60046020528060005260406000206000915090508060000154908060010160009054906101000a900473ffffffffffffffffffffffffffffffffffffffff16908060020154908060030154905084565b60405180608001604052808281526020013373ffffffffffffffffffffffffffffffffffffffff168152602001600081526020016000815250600460003373ffffffffffffffffffffffffffffffffffffffff1673ffffffffffffffffffffffffffffffffffffffff1681526020019081526020016000206000820151816000015560208201518160010160006101000a81548173ffffffffffffffffffffffffffffffffffffffff021916908373ffffffffffffffffffffffffffffffffffffffff16021790555060408201518160020155606082015181600301559050507fa50219d9fe08f0c84080df6d3e14efcc4a4a138396328787c560d776875f5a0381336000806040516128629493929190613dc0565b60405180910390a150565b60056020528060005260406000206000915054906101000a900473ffffffffffffffffffffffffffffffffffffffff1681565b6128a86134c5565b600060028361ffff16815481106128e8577f4e487b7100000000000000000000000000000000000000000000000000000000600052603260045260246000fd5b9060005260206000209060070201604051806101000160405290816000820160009054906101000a900461ffff1661ffff1661ffff1681526020016001820154815260200160028201805461293c906142fb565b80601f0160208091040260200160405190810160405280929190818152602001828054612968906142fb565b80156129b55780601f1061298a576101008083540402835291602001916129b5565b820191906000526020600020905b81548152906001019060200180831161299857829003601f168201915b505050505081526020016003820180546129ce906142fb565b80601f01602080910402602001604051908101604052809291908181526020018280546129fa906142fb565b8015612a475780601f10612a1c57610100808354040283529160200191612a47565b820191906000526020600020905b815481529060010190602001808311612a2a57829003601f168201915b50505050508152602001600482018054612a60906142fb565b80601f0160208091040260200160405190810160405280929190818152602001828054612a8c906142fb565b8015612ad95780601f10612aae57610100808354040283529160200191612ad9565b820191906000526020600020905b815481529060010190602001808311612abc57829003601f168201915b505050505081526020016005820160009054906101000a900473ffffffffffffffffffffffffffffffffffffffff1673ffffffffffffffffffffffffffffffffffffffff1673ffffffffffffffffffffffffffffffffffffffff1681526020016005820160149054906101000a900460ff1615151515815260200160068201548152505090508060c0015180612bac57508060c00151158015612bab57503373ffffffffffffffffffffffffffffffffffffffff168160a0015173ffffffffffffffffffffffffffffffffffffffff16145b5b15612bba5780915050612bbf565b600080fd5b919050565b80600060028261ffff1681548110612c05577f4e487b7100000000000000000000000000000000000000000000000000000000600052603260045260246000fd5b9060005260206000209060070201600101541415612c2257600080fd5b813373ffffffffffffffffffffffffffffffffffffffff1660028261ffff1681548110612c78577f4e487b7100000000000000000000000000000000000000000000000000000000600052603260045260246000fd5b906000526020600020906007020160050160009054906101000a900473ffffffffffffffffffffffffffffffffffffffff1673ffffffffffffffffffffffffffffffffffffffff161415612ccb57600080fd5b600060028461ffff1681548110612d0b577f4e487b7100000000000000000000000000000000000000000000000000000000600052603260045260246000fd5b9060005260206000209060070201604051806101000160405290816000820160009054906101000a900461ffff1661ffff1661ffff16815260200160018201548152602001600282018054612d5f906142fb565b80601f0160208091040260200160405190810160405280929190818152602001828054612d8b906142fb565b8015612dd85780601f10612dad57610100808354040283529160200191612dd8565b820191906000526020600020905b815481529060010190602001808311612dbb57829003601f168201915b50505050508152602001600382018054612df1906142fb565b80601f0160208091040260200160405190810160405280929190818152602001828054612e1d906142fb565b8015612e6a5780601f10612e3f57610100808354040283529160200191612e6a565b820191906000526020600020905b815481529060010190602001808311612e4d57829003601f168201915b50505050508152602001600482018054612e83906142fb565b80601f0160208091040260200160405190810160405280929190818152602001828054612eaf906142fb565b8015612efc5780601f10612ed157610100808354040283529160200191612efc565b820191906000526020600020905b815481529060010190602001808311612edf57829003601f168201915b505050505081526020016005820160009054906101000a900473ffffffffffffffffffffffffffffffffffffffff1673ffffffffffffffffffffffffffffffffffffffff1673ffffffffffffffffffffffffffffffffffffffff1681526020016005820160149054906101000a900460ff16151515158152602001600682015481525050905060008160a0015190508073ffffffffffffffffffffffffffffffffffffffff166108fc349081150290604051600060405180830381858888f19350505050158015612fd1573d6000803e3d6000fd5b50348260e00151612fe291906141a9565b8260e00181815250508160028661ffff168154811061302a577f4e487b7100000000000000000000000000000000000000000000000000000000600052603260045260246000fd5b906000526020600020906007020160008201518160000160006101000a81548161ffff021916908361ffff16021790555060208201518160010155604082015181600201908051906020019061308192919061343f565b50606082015181600301908051906020019061309e92919061343f565b5060808201518160040190805190602001906130bb92919061343f565b5060a08201518160050160006101000a81548173ffffffffffffffffffffffffffffffffffffffff021916908373ffffffffffffffffffffffffffffffffffffffff16021790555060c08201518160050160146101000a81548160ff02191690831515021790555060e082015181600601559050506000600460008373ffffffffffffffffffffffffffffffffffffffff1673ffffffffffffffffffffffffffffffffffffffff168152602001908152602001600020604051806080016040529081600082015481526020016001820160009054906101000a900473ffffffffffffffffffffffffffffffffffffffff1673ffffffffffffffffffffffffffffffffffffffff1673ffffffffffffffffffffffffffffffffffffffff16815260200160028201548152602001600382015481525050905034816040015161320291906141a9565b81604001818152505080600460008473ffffffffffffffffffffffffffffffffffffffff1673ffffffffffffffffffffffffffffffffffffffff1681526020019081526020016000206000820151816000015560208201518160010160006101000a81548173ffffffffffffffffffffffffffffffffffffffff021916908373ffffffffffffffffffffffffffffffffffffffff16021790555060408201518160020155606082015181600301559050506000600460003373ffffffffffffffffffffffffffffffffffffffff1673ffffffffffffffffffffffffffffffffffffffff168152602001908152602001600020604051806080016040529081600082015481526020016001820160009054906101000a900473ffffffffffffffffffffffffffffffffffffffff1673ffffffffffffffffffffffffffffffffffffffff1673ffffffffffffffffffffffffffffffffffffffff16815260200160028201548152602001600382015481525050905034816060015161338591906141a9565b81606001818152505080600460003373ffffffffffffffffffffffffffffffffffffffff1673ffffffffffffffffffffffffffffffffffffffff1681526020019081526020016000206000820151816000015560208201518160010160006101000a81548173ffffffffffffffffffffffffffffffffffffffff021916908373ffffffffffffffffffffffffffffffffffffffff160217905550604082015181600201556060820151816003015590505050505050505050565b82805461344b906142fb565b90600052602060002090601f01602090048101928261346d57600085556134b4565b82601f1061348657805160ff19168380011785556134b4565b828001600101855582156134b4579182015b828111156134b3578251825591602001919060010190613498565b5b5090506134c19190613576565b5090565b604051806101000160405280600061ffff16815260200160008152602001606081526020016060815260200160608152602001600073ffffffffffffffffffffffffffffffffffffffff168152602001600015158152602001600081525090565b6040518060c0016040528060008152602001600061ffff16815260200160608152602001600073ffffffffffffffffffffffffffffffffffffffff16815260200160008152602001600081525090565b5b8082111561358f576000816000905550600101613577565b5090565b60006135a66135a18461408c565b614067565b9050828152602081018484840111156135be57600080fd5b6135c98482856142b9565b509392505050565b6000813590506135e081614470565b92915050565b6000813590506135f581614487565b92915050565b600082601f83011261360c57600080fd5b813561361c848260208601613593565b91505092915050565b6000813590506136348161449e565b92915050565b600081359050613649816144b5565b92915050565b60006020828403121561366157600080fd5b600061366f848285016135d1565b91505092915050565b60006020828403121561368a57600080fd5b6000613698848285016135e6565b91505092915050565b6000806000606084860312156136b657600080fd5b600084013567ffffffffffffffff8111156136d057600080fd5b6136dc868287016135fb565b935050602084013567ffffffffffffffff8111156136f957600080fd5b613705868287016135fb565b925050604084013567ffffffffffffffff81111561372257600080fd5b61372e868287016135fb565b9150509250925092565b60006020828403121561374a57600080fd5b600061375884828501613625565b91505092915050565b6000806040838503121561377457600080fd5b600061378285828601613625565b925050602083013567ffffffffffffffff81111561379f57600080fd5b6137ab858286016135fb565b9150509250929050565b600080600080608085870312156137cb57600080fd5b60006137d987828801613625565b945050602085013567ffffffffffffffff8111156137f657600080fd5b613802878288016135fb565b935050604085013567ffffffffffffffff81111561381f57600080fd5b61382b878288016135fb565b925050606085013567ffffffffffffffff81111561384857600080fd5b613854878288016135fb565b91505092959194509250565b60006020828403121561387257600080fd5b60006138808482850161363a565b91505092915050565b60006138958383613b05565b905092915050565b60006138a98383613c81565b905092915050565b6138ba81614271565b82525050565b6138c981614211565b82525050565b6138d881614211565b82525050565b6138e7816141ff565b82525050565b60006138f8826140f2565b613902818561412d565b935083602082028501613914856140bd565b8060005b8581101561395057848403895281516139318582613889565b945061393c83614113565b925060208a01995050600181019050613918565b50829750879550505050505092915050565b600061396d826140fd565b613977818561413e565b935083602082028501613989856140cd565b8060005b858110156139c557848403895281516139a6858261389d565b94506139b183614120565b925060208a0199505060018101905061398d565b50829750879550505050505092915050565b6139e081614223565b82525050565b6139ef81614223565b82525050565b6139fe8161422f565b82525050565b613a0d81614283565b82525050565b6000613a1e82614108565b613a28818561414f565b9350613a388185602086016142c8565b613a418161445f565b840191505092915050565b6000613a5782614108565b613a618185614160565b9350613a718185602086016142c8565b613a7a8161445f565b840191505092915050565b60008154613a92816142fb565b613a9c8186614160565b94506001821660008114613ab75760018114613ac957613afc565b60ff1983168652602086019350613afc565b613ad2856140dd565b60005b83811015613af457815481890152600182019150602081019050613ad5565b808801955050505b50505092915050565b600061010083016000830151613b1e6000860182613d0a565b506020830151613b316020860182613d28565b5060408301518482036040860152613b498282613a13565b91505060608301518482036060860152613b638282613a13565b91505060808301518482036080860152613b7d8282613a13565b91505060a0830151613b9260a08601826138c0565b5060c0830151613ba560c08601826139d7565b5060e0830151613bb860e0860182613d28565b508091505092915050565b600061010083016000830151613bdc6000860182613d0a565b506020830151613bef6020860182613d28565b5060408301518482036040860152613c078282613a13565b91505060608301518482036060860152613c218282613a13565b91505060808301518482036080860152613c3b8282613a13565b91505060a0830151613c5060a08601826138c0565b5060c0830151613c6360c08601826139d7565b5060e0830151613c7660e0860182613d28565b508091505092915050565b600060c083016000830151613c996000860182613d28565b506020830151613cac6020860182613d0a565b5060408301518482036040860152613cc48282613a13565b9150506060830151613cd960608601826138c0565b506080830151613cec6080860182613d28565b5060a0830151613cff60a0860182613d28565b508091505092915050565b613d1381614239565b82525050565b613d2281614239565b82525050565b613d3181614267565b82525050565b613d4081614267565b82525050565b6000602082019050613d5b60008301846138de565b92915050565b6000602082019050613d7660008301846138cf565b92915050565b60006020820190508181036000830152613d9681846138ed565b905092915050565b60006020820190508181036000830152613db88184613962565b905092915050565b6000608082019050613dd560008301876139f5565b613de260208301866138de565b613def6040830185613a04565b613dfc6060830184613a04565b95945050505050565b6000608082019050613e1a60008301876139f5565b613e2760208301866138de565b613e346040830185613d37565b613e416060830184613d37565b95945050505050565b60006020820190508181036000830152613e648184613bc3565b905092915050565b6000602082019050613e816000830184613d19565b92915050565b6000606082019050613e9c6000830186613d19565b613ea96020830185613d37565b613eb660408301846139e6565b949350505050565b600061010082019050613ed4600083018b613d19565b613ee1602083018a613d37565b8181036040830152613ef38189613a4c565b90508181036060830152613f078188613a4c565b90508181036080830152613f1b8187613a4c565b9050613f2a60a08301866138de565b613f3760c08301856139e6565b613f4460e0830184613a04565b9998505050505050505050565b600061010082019050613f67600083018b613d19565b613f74602083018a613d37565b8181036040830152613f868189613a85565b90508181036060830152613f9a8188613a85565b90508181036080830152613fae8187613a85565b9050613fbd60a08301866138b1565b613fca60c08301856139e6565b613fd760e0830184613d37565b9998505050505050505050565b6000602082019050613ff96000830184613d37565b92915050565b600060c0820190506140146000830189613d37565b6140216020830188613d19565b81810360408301526140338187613a4c565b905061404260608301866138cf565b61404f6080830185613a04565b61405c60a0830184613d37565b979650505050505050565b6000614071614082565b905061407d828261432d565b919050565b6000604051905090565b600067ffffffffffffffff8211156140a7576140a6614430565b5b6140b08261445f565b9050602081019050919050565b6000819050602082019050919050565b6000819050602082019050919050565b60008190508160005260206000209050919050565b600081519050919050565b600081519050919050565b600081519050919050565b6000602082019050919050565b6000602082019050919050565b600082825260208201905092915050565b600082825260208201905092915050565b600082825260208201905092915050565b600082825260208201905092915050565b600061417c82614239565b915061418783614239565b92508261ffff0382111561419e5761419d6143d2565b5b828201905092915050565b60006141b482614267565b91506141bf83614267565b9250827fffffffffffffffffffffffffffffffffffffffffffffffffffffffffffffffff038211156141f4576141f36143d2565b5b828201905092915050565b600061420a82614247565b9050919050565b600061421c82614247565b9050919050565b60008115159050919050565b6000819050919050565b600061ffff82169050919050565b600073ffffffffffffffffffffffffffffffffffffffff82169050919050565b6000819050919050565b600061427c82614295565b9050919050565b600061428e82614267565b9050919050565b60006142a0826142a7565b9050919050565b60006142b282614247565b9050919050565b82818337600083830152505050565b60005b838110156142e65780820151818401526020810190506142cb565b838111156142f5576000848401525b50505050565b6000600282049050600182168061431357607f821691505b6020821081141561432757614326614401565b5b50919050565b6143368261445f565b810181811067ffffffffffffffff8211171561435557614354614430565b5b80604052505050565b600061436982614239565b915061ffff82141561437e5761437d6143d2565b5b600182019050919050565b600061439482614267565b91507fffffffffffffffffffffffffffffffffffffffffffffffffffffffffffffffff8214156143c7576143c66143d2565b5b600182019050919050565b7f4e487b7100000000000000000000000000000000000000000000000000000000600052601160045260246000fd5b7f4e487b7100000000000000000000000000000000000000000000000000000000600052602260045260246000fd5b7f4e487b7100000000000000000000000000000000000000000000000000000000600052604160045260246000fd5b6000601f19601f8301169050919050565b614479816141ff565b811461448457600080fd5b50565b6144908161422f565b811461449b57600080fd5b50565b6144a781614239565b81146144b257600080fd5b50565b6144be81614267565b81146144c957600080fd5b5056fea264697066735822122053ed439413f303c3aa0f5732679d2d5a10d9424d63f601e8b62958a3a0f6a3d764736f6c63430008040033",
  "immutableReferences": {},
  "source": "//SPDX-License-Identifier: Unlicense\npragma solidity ^0.8.4;\n\ncontract Blog {\n  struct User {\n    bytes32 name;\n    address wallet_address;\n    uint tips_received;\n    uint tips_sent;\n  }\n\n  struct Article {\n    uint16 id;\n    uint date;\n    string title;\n    string imageHash;\n    string content;\n    address payable author;\n    bool published;\n    uint tips;\n  }\n\n  struct Comment {\n    uint id;\n    uint16 articleId;\n    string message;\n    address payable author;\n    uint tips;\n    uint date;\n  }\n\n  address payable public owner;\n  uint16 public articleCount = 0;\n  uint public commentCount = 0;\n  Article[] private articles;\n  Comment[] private comments;\n\n  mapping(address => User) public users;\n  mapping(uint16 => address) public articleToUser;\n  mapping(address => uint) public userArticlesCount;\n  mapping(uint => uint16) public commentToArticle;\n  mapping(uint16 => uint16) public articleCommentsCount;\n\n  event UserCreated(\n    bytes32 name,\n    address wallet_address,\n    uint tips_received,\n    uint tips_sent\n  );\n\n  event ArticleCreated(\n    uint16 id,\n    uint date,\n    string title,\n    string imageHash,\n    string content,\n    address author,\n    bool published,\n    uint tips\n  );\n\n  event ArticleEdited(\n    uint16 id,\n    uint date,\n    string title,\n    string imageHash,\n    string content,\n    address author,\n    bool published,\n    uint tips\n  );\n\n  event ArticlePublished(\n    uint16 id,\n    uint date,\n    bool published\n  );\n\n  event CommentCreated (\n    uint id,\n    uint16 articleId,\n    string message,\n    address payable author,\n    uint tips,\n    uint date\n  );\n\n  constructor() {\n    owner = payable(msg.sender);\n    createUser(\"Tiago Dias\");\n    // createArticle(\n    //   \"My first blog's title.\",\n    //   \"QmQpmL2kW6YfTmGwmN82AqNUAh7rbp6rTj3QDBaAsrWgcm\",\n    //   \"My first blog article content!\"\n    // );\n    // createArticle(\n    //   \"My second blog's title.\",\n    //   \"QmfG4fbLdwbhaS3beJuAhJduhCuvrFd8cqui6EDzVkdGYd\",\n    //   \"It's about unicorns!\"\n    // );\n  }\n\n  // User Methods\n  function createUser(bytes32 _name) public {\n    users[msg.sender] = User(_name, msg.sender, 0, 0);\n    emit UserCreated(_name, msg.sender, 0, 0);\n  }\n\n  // Article Methods\n  function createArticle(string memory _title, string memory _imageHash, string memory _content) public userExists() isOwner() {\n    articles.push(Article(articleCount, block.timestamp, _title, _imageHash, _content, payable(msg.sender), false, 0));\n    \n    articleToUser[articleCount] = msg.sender;\n    userArticlesCount[msg.sender] = userArticlesCount[msg.sender] + 1;\n\n    emit ArticleCreated(articleCount, articles[articleCount].date, _title, _imageHash, _content, msg.sender, false, 0);\n    articleCount++;\n  }\n\n  function editArticle(uint16 _id, string memory _title, string memory _imageHash, string memory _content)\n    public\n    userExists()\n    articleExists(_id)\n    isAuthor(_id) {\n      \n      Article storage _article = articles[_id];\n      _article.title = _title;\n      _article.content = _content;\n      _article.imageHash = _imageHash;\n      _article.date = block.timestamp;\n\n      emit ArticleEdited(_article.id, _article.date, _article.title, _article.imageHash, _article.content, _article.author, _article.published, _article.tips);\n  }\n\n  function getArticle(uint16 _id) external view returns(Article memory) {\n      Article memory _article = articles[_id];\n\n      if (_article.published || (!_article.published && _article.author == msg.sender)) {\n        return _article;  \n      }\n\n      revert();\n  }\n\n  function getArticles() external view returns(Article[] memory) {\n      Article[] memory _articles = new Article[](articleCount);\n\n      uint16 _publishedCount = 0;\n\n      for(uint i = 0; i < articleCount; i++) {\n        // Only published articles are being sent\n        if (articles[i].published) {\n          _articles[i] = articles[i];\n          _publishedCount++;\n        }\n      }\n\n      Article[] memory _publishedArticles = new Article[](_publishedCount);\n      for(uint i = 0; i < _articles.length; i++) {\n        // Only published articles are being sent\n        if (_articles[i].published) {\n          _publishedArticles[i] = articles[i];\n        }\n      }\n\n      return _publishedArticles;\n  }\n\n  function getUserArticles() external view returns(Article[] memory) {\n\n      Article[] memory _articles = new Article[](articleCount);\n\n      uint16 _myCount = 0;\n\n      for(uint i = 0; i < articleCount; i++) {\n        if (articles[i].author == msg.sender) {\n          _articles[i] = articles[i];\n          _myCount++;\n        }\n      }\n\n      Article[] memory _myArticles = new Article[](_myCount);\n      for(uint i = 0; i < _myCount; i++) {\n        _myArticles[i] = _articles[i];\n      }\n\n      return _myArticles;\n  }\n\n  function togglePublished(uint16 _id) external articleExists(_id) isAuthor(_id) {\n    Article storage _article = articles[_id];\n    _article.published = !_article.published;\n    _article.date = block.timestamp;\n    emit ArticlePublished(_article.id, _article.date, _article.published);\n  }\n\n  modifier userExists() {\n    if (users[msg.sender].name == '') {\n      revert();\n    }\n    _;\n  }\n\n  modifier articleExists(uint16 _id) {\n    if(articles[_id].date == 0) {\n      revert();\n    }\n    _;\n  }\n\n  modifier isAuthor(uint16 _id) {\n    if (articles[_id].author != msg.sender) {\n      revert();\n    }\n    _;\n  }\n\n  modifier isNotAuthor(uint16 _id) {\n    if (articles[_id].author == msg.sender) {\n      revert();\n    }\n    _;\n  }\n\n  modifier isOwner() {\n    if (owner != msg.sender) {\n      revert();\n    }\n    _;\n  }\n\n  // Tips\n  function tipArticle(uint16 _id) public payable articleExists(_id) isNotAuthor(_id) {\n    Article memory _article = articles[_id];\n\n    address payable _author_address = _article.author;\n    _author_address.transfer(msg.value);\n\n    _article.tips = _article.tips + msg.value;\n    articles[_id] = _article;\n    \n    User memory _author = users[_author_address];\n    _author.tips_received = _author.tips_received + msg.value;\n    users[_author_address] = _author;\n\n    User memory _tipper = users[msg.sender];\n    _tipper.tips_sent = _tipper.tips_sent + msg.value;\n    users[msg.sender] = _tipper;\n  }\n\n  // Comments methods\n  function addCommentToArticle(uint16 _articleId, string memory _message) external articleExists(_articleId) userExists() {\n    comments.push(Comment(commentCount, _articleId, _message, payable(msg.sender), 0, block.timestamp));\n\n    commentToArticle[commentCount] = _articleId;\n    articleCommentsCount[_articleId] = articleCommentsCount[_articleId] + 1;\n\n    // Emit Event here\n    emit CommentCreated(commentCount, _articleId, _message, payable(msg.sender), 0, comments[commentCount].date);\n    commentCount++;\n  }\n\n  function getArticleComments(uint16 _articleId) external view returns(Comment[] memory) {\n    Comment[] memory _comments = new Comment[](commentCount);\n\n    uint _articleCommentsCount = 0;\n    for (uint i = 0; i < commentCount; i++) {\n      if (comments[i].articleId == _articleId) {\n        _comments[i] = comments[i];\n        _articleCommentsCount++;\n      }\n    }\n\n    Comment[] memory _articleComments = new Comment[](_articleCommentsCount);\n    for (uint i = 0; i < _articleCommentsCount; i++) {\n      _articleComments[i] = _comments[i];\n    }\n\n    return _articleComments;\n  }\n\n  function getUserComments() external view returns(Comment[] memory) {\n    Comment[] memory _comments = new Comment[](commentCount);\n\n    uint _userCommentsCount = 0;\n    for (uint i = 0; i < commentCount; i++) {\n      if (comments[i].author == msg.sender) {\n        _comments[i] = comments[i];\n        _userCommentsCount++;\n      }\n    }\n\n    Comment[] memory _userComments = new Comment[](_userCommentsCount);\n    for (uint i = 0; i < _userCommentsCount; i++) {\n      _userComments[i] = _comments[i];\n    }\n\n    return _userComments;\n  }\n\n}",
  "sourcePath": "/Users/tiagodias/Desktop/Personal Dev/Blockchain/Blog/contracts/Blog.sol",
  "compiler": {
    "name": "solc",
    "version": "0.8.4+commit.c7e474f2.Emscripten.clang"
  },
  "schemaVersion": "3.3.4",
  "updatedAt": "2021-05-14T13:10:50.584Z",
  "networkType": "ethereum",
  "devdoc": {
    "kind": "dev",
    "methods": {},
    "version": 1
  },
  "userdoc": {
    "kind": "user",
    "methods": {},
    "version": 1
  }
}