{
  "contractName": "Blog",
  "abi": [
    {
      "inputs": [],
      "stateMutability": "nonpayable",
      "type": "constructor"
    },
    {
      "anonymous": false,
      "inputs": [
        {
          "indexed": false,
          "internalType": "uint16",
          "name": "id",
          "type": "uint16"
        },
        {
          "indexed": false,
          "internalType": "uint256",
          "name": "date",
          "type": "uint256"
        },
        {
          "indexed": false,
          "internalType": "string",
          "name": "title",
          "type": "string"
        },
        {
          "indexed": false,
          "internalType": "string",
          "name": "imageHash",
          "type": "string"
        },
        {
          "indexed": false,
          "internalType": "string",
          "name": "content",
          "type": "string"
        },
        {
          "indexed": false,
          "internalType": "address",
          "name": "author",
          "type": "address"
        },
        {
          "indexed": false,
          "internalType": "bool",
          "name": "published",
          "type": "bool"
        },
        {
          "indexed": false,
          "internalType": "uint256",
          "name": "tips",
          "type": "uint256"
        }
      ],
      "name": "ArticleCreated",
      "type": "event"
    },
    {
      "anonymous": false,
      "inputs": [
        {
          "indexed": false,
          "internalType": "uint16",
          "name": "id",
          "type": "uint16"
        },
        {
          "indexed": false,
          "internalType": "uint256",
          "name": "date",
          "type": "uint256"
        },
        {
          "indexed": false,
          "internalType": "string",
          "name": "title",
          "type": "string"
        },
        {
          "indexed": false,
          "internalType": "string",
          "name": "imageHash",
          "type": "string"
        },
        {
          "indexed": false,
          "internalType": "string",
          "name": "content",
          "type": "string"
        },
        {
          "indexed": false,
          "internalType": "address",
          "name": "author",
          "type": "address"
        },
        {
          "indexed": false,
          "internalType": "bool",
          "name": "published",
          "type": "bool"
        },
        {
          "indexed": false,
          "internalType": "uint256",
          "name": "tips",
          "type": "uint256"
        }
      ],
      "name": "ArticleEdited",
      "type": "event"
    },
    {
      "anonymous": false,
      "inputs": [
        {
          "indexed": false,
          "internalType": "uint16",
          "name": "id",
          "type": "uint16"
        },
        {
          "indexed": false,
          "internalType": "uint256",
          "name": "date",
          "type": "uint256"
        },
        {
          "indexed": false,
          "internalType": "bool",
          "name": "published",
          "type": "bool"
        }
      ],
      "name": "ArticlePublished",
      "type": "event"
    },
    {
      "anonymous": false,
      "inputs": [
        {
          "indexed": false,
          "internalType": "bytes32",
          "name": "name",
          "type": "bytes32"
        },
        {
          "indexed": false,
          "internalType": "address",
          "name": "wallet_address",
          "type": "address"
        },
        {
          "indexed": false,
          "internalType": "uint256",
          "name": "tips_received",
          "type": "uint256"
        },
        {
          "indexed": false,
          "internalType": "uint256",
          "name": "tips_sent",
          "type": "uint256"
        }
      ],
      "name": "UserCreated",
      "type": "event"
    },
    {
      "inputs": [],
      "name": "articleCount",
      "outputs": [
        {
          "internalType": "uint16",
          "name": "",
          "type": "uint16"
        }
      ],
      "stateMutability": "view",
      "type": "function",
      "constant": true
    },
    {
      "inputs": [
        {
          "internalType": "uint256",
          "name": "",
          "type": "uint256"
        }
      ],
      "name": "articleToUser",
      "outputs": [
        {
          "internalType": "address",
          "name": "",
          "type": "address"
        }
      ],
      "stateMutability": "view",
      "type": "function",
      "constant": true
    },
    {
      "inputs": [
        {
          "internalType": "uint256",
          "name": "",
          "type": "uint256"
        }
      ],
      "name": "articles",
      "outputs": [
        {
          "internalType": "uint16",
          "name": "id",
          "type": "uint16"
        },
        {
          "internalType": "uint256",
          "name": "date",
          "type": "uint256"
        },
        {
          "internalType": "string",
          "name": "title",
          "type": "string"
        },
        {
          "internalType": "string",
          "name": "imageHash",
          "type": "string"
        },
        {
          "internalType": "string",
          "name": "content",
          "type": "string"
        },
        {
          "internalType": "address payable",
          "name": "author",
          "type": "address"
        },
        {
          "internalType": "bool",
          "name": "published",
          "type": "bool"
        },
        {
          "internalType": "uint256",
          "name": "tips",
          "type": "uint256"
        }
      ],
      "stateMutability": "view",
      "type": "function",
      "constant": true
    },
    {
      "inputs": [
        {
          "internalType": "address",
          "name": "",
          "type": "address"
        }
      ],
      "name": "userArticlesCount",
      "outputs": [
        {
          "internalType": "uint256",
          "name": "",
          "type": "uint256"
        }
      ],
      "stateMutability": "view",
      "type": "function",
      "constant": true
    },
    {
      "inputs": [
        {
          "internalType": "address",
          "name": "",
          "type": "address"
        }
      ],
      "name": "users",
      "outputs": [
        {
          "internalType": "bytes32",
          "name": "name",
          "type": "bytes32"
        },
        {
          "internalType": "address",
          "name": "wallet_address",
          "type": "address"
        },
        {
          "internalType": "uint256",
          "name": "tips_received",
          "type": "uint256"
        },
        {
          "internalType": "uint256",
          "name": "tips_sent",
          "type": "uint256"
        }
      ],
      "stateMutability": "view",
      "type": "function",
      "constant": true
    },
    {
      "inputs": [
        {
          "internalType": "bytes32",
          "name": "_name",
          "type": "bytes32"
        }
      ],
      "name": "createUser",
      "outputs": [],
      "stateMutability": "nonpayable",
      "type": "function"
    },
    {
      "inputs": [
        {
          "internalType": "string",
          "name": "_title",
          "type": "string"
        },
        {
          "internalType": "string",
          "name": "_imageHash",
          "type": "string"
        },
        {
          "internalType": "string",
          "name": "_content",
          "type": "string"
        }
      ],
      "name": "createArticle",
      "outputs": [],
      "stateMutability": "nonpayable",
      "type": "function"
    },
    {
      "inputs": [
        {
          "internalType": "uint16",
          "name": "_id",
          "type": "uint16"
        },
        {
          "internalType": "string",
          "name": "_title",
          "type": "string"
        },
        {
          "internalType": "string",
          "name": "_imageHash",
          "type": "string"
        },
        {
          "internalType": "string",
          "name": "_content",
          "type": "string"
        }
      ],
      "name": "editArticle",
      "outputs": [],
      "stateMutability": "nonpayable",
      "type": "function"
    },
    {
      "inputs": [],
      "name": "getArticles",
      "outputs": [
        {
          "internalType": "uint16[]",
          "name": "",
          "type": "uint16[]"
        },
        {
          "internalType": "uint256[]",
          "name": "",
          "type": "uint256[]"
        },
        {
          "internalType": "string[]",
          "name": "",
          "type": "string[]"
        },
        {
          "internalType": "string[]",
          "name": "",
          "type": "string[]"
        },
        {
          "internalType": "string[]",
          "name": "",
          "type": "string[]"
        },
        {
          "internalType": "address[]",
          "name": "",
          "type": "address[]"
        },
        {
          "internalType": "bool[]",
          "name": "",
          "type": "bool[]"
        },
        {
          "internalType": "uint256[]",
          "name": "",
          "type": "uint256[]"
        }
      ],
      "stateMutability": "view",
      "type": "function",
      "constant": true
    },
    {
      "inputs": [
        {
          "internalType": "uint16",
          "name": "_id",
          "type": "uint16"
        }
      ],
      "name": "togglePublished",
      "outputs": [],
      "stateMutability": "nonpayable",
      "type": "function"
    },
    {
      "inputs": [
        {
          "internalType": "uint16",
          "name": "_id",
          "type": "uint16"
        }
      ],
      "name": "tipArticle",
      "outputs": [],
      "stateMutability": "payable",
      "type": "function",
      "payable": true
    }
  ],
  "bytecode": "0x608060405260008060006101000a81548161ffff021916908361ffff1602179055503480156200002e57600080fd5b50620000607f546961676f204469617300000000000000000000000000000000000000000000620000fc60201b60201c565b620000f66040518060400160405280601681526020017f4d7920666972737420626c6f672773207469746c652e000000000000000000008152506040518060600160405280602e815260200162003cd8602e91396040518060400160405280601e81526020017f4d7920666972737420626c6f672061727469636c6520636f6e74656e742100008152506200021f60201b60201c565b62000a2c565b60405180608001604052808281526020013373ffffffffffffffffffffffffffffffffffffffff168152602001600081526020016000815250600260003373ffffffffffffffffffffffffffffffffffffffff1673ffffffffffffffffffffffffffffffffffffffff1681526020019081526020016000206000820151816000015560208201518160010160006101000a81548173ffffffffffffffffffffffffffffffffffffffff021916908373ffffffffffffffffffffffffffffffffffffffff16021790555060408201518160020155606082015181600301559050507fa50219d9fe08f0c84080df6d3e14efcc4a4a138396328787c560d776875f5a03813360008060405162000214949392919062000742565b60405180910390a150565b336000600260008373ffffffffffffffffffffffffffffffffffffffff1673ffffffffffffffffffffffffffffffffffffffff1681526020019081526020016000206000015414156200027157600080fd5b600160405180610100016040528060008054906101000a900461ffff1661ffff1681526020014281526020018681526020018581526020018481526020013373ffffffffffffffffffffffffffffffffffffffff1681526020016000151581526020016000815250908060018154018082558091505060019003906000526020600020906007020160009091909190915060008201518160000160006101000a81548161ffff021916908361ffff1602179055506020820151816001015560408201518160020190805190602001906200034d929190620005eb565b5060608201518160030190805190602001906200036c929190620005eb565b5060808201518160040190805190602001906200038b929190620005eb565b5060a08201518160050160006101000a81548173ffffffffffffffffffffffffffffffffffffffff021916908373ffffffffffffffffffffffffffffffffffffffff16021790555060c08201518160050160146101000a81548160ff02191690831515021790555060e08201518160060155505033600360008060009054906101000a900461ffff1661ffff16815260200190815260200160002060006101000a81548173ffffffffffffffffffffffffffffffffffffffff021916908373ffffffffffffffffffffffffffffffffffffffff1602179055506001600460003373ffffffffffffffffffffffffffffffffffffffff1673ffffffffffffffffffffffffffffffffffffffff16815260200190815260200160002054620004b291906200084e565b600460003373ffffffffffffffffffffffffffffffffffffffff1673ffffffffffffffffffffffffffffffffffffffff168152602001908152602001600020819055507fd45a18f512a868a957b292903d58190ae32786655c138111e70120b435041d8c60008054906101000a900461ffff16600160008054906101000a900461ffff1661ffff168154811062000572577f4e487b7100000000000000000000000000000000000000000000000000000000600052603260045260246000fd5b90600052602060002090600702016001015486868633600080604051620005a19897969594939291906200078f565b60405180910390a160008081819054906101000a900461ffff1680929190620005ca906200098d565b91906101000a81548161ffff021916908361ffff1602179055505050505050565b828054620005f99062000957565b90600052602060002090601f0160209004810192826200061d576000855562000669565b82601f106200063857805160ff191683800117855562000669565b8280016001018555821562000669579182015b82811115620006685782518255916020019190600101906200064b565b5b5090506200067891906200067c565b5090565b5b80821115620006975760008160009055506001016200067d565b5090565b620006a681620008ab565b82525050565b620006b781620008bf565b82525050565b620006c881620008cb565b82525050565b620006d9816200090d565b82525050565b6000620006ec8262000832565b620006f881856200083d565b93506200070a81856020860162000921565b620007158162000a1b565b840191505092915050565b6200072b81620008d5565b82525050565b6200073c8162000903565b82525050565b6000608082019050620007596000830187620006bd565b6200076860208301866200069b565b620007776040830185620006ce565b620007866060830184620006ce565b95945050505050565b600061010082019050620007a7600083018b62000720565b620007b6602083018a62000731565b8181036040830152620007ca8189620006df565b90508181036060830152620007e08188620006df565b90508181036080830152620007f68187620006df565b90506200080760a08301866200069b565b6200081660c0830185620006ac565b6200082560e0830184620006ce565b9998505050505050505050565b600081519050919050565b600082825260208201905092915050565b60006200085b8262000903565b9150620008688362000903565b9250827fffffffffffffffffffffffffffffffffffffffffffffffffffffffffffffffff03821115620008a0576200089f620009bd565b5b828201905092915050565b6000620008b882620008e3565b9050919050565b60008115159050919050565b6000819050919050565b600061ffff82169050919050565b600073ffffffffffffffffffffffffffffffffffffffff82169050919050565b6000819050919050565b60006200091a8262000903565b9050919050565b60005b838110156200094157808201518184015260208101905062000924565b8381111562000951576000848401525b50505050565b600060028204905060018216806200097057607f821691505b60208210811415620009875762000986620009ec565b5b50919050565b60006200099a82620008d5565b915061ffff821415620009b257620009b1620009bd565b5b600182019050919050565b7f4e487b7100000000000000000000000000000000000000000000000000000000600052601160045260246000fd5b7f4e487b7100000000000000000000000000000000000000000000000000000000600052602260045260246000fd5b6000601f19601f8301169050919050565b61329c8062000a3c6000396000f3fe60806040526004361061009c5760003560e01c80636529f44a116100645780636529f44a146101985780636f3ed9b4146101ca578063a87430ba146101f3578063abf7bfd814610233578063edcfafe61461025c578063fd4214fe146102a05761009c565b8063056a86bb146100a15780631686e838146100ca5780632dd9437f14610107578063414e28b0146101305780635a3540631461015b575b600080fd5b3480156100ad57600080fd5b506100c860048036038101906100c39190612509565b6102bc565b005b3480156100d657600080fd5b506100f160048036038101906100ec9190612420565b6104b1565b6040516100fe9190612d73565b60405180910390f35b34801561011357600080fd5b5061012e60048036038101906101299190612472565b6104c9565b005b34801561013c57600080fd5b50610145610887565b6040516101529190612b68565b60405180910390f35b34801561016757600080fd5b50610182600480360381019061017d91906125dd565b610899565b60405161018f9190612a0d565b60405180910390f35b3480156101a457600080fd5b506101ad6108cc565b6040516101c1989796959493929190612a28565b60405180910390f35b3480156101d657600080fd5b506101f160048036038101906101ec9190612532565b611408565b005b3480156101ff57600080fd5b5061021a60048036038101906102159190612420565b6116aa565b60405161022a9493929190612b23565b60405180910390f35b34801561023f57600080fd5b5061025a60048036038101906102559190612449565b6116fa565b005b34801561026857600080fd5b50610283600480360381019061027e91906125dd565b61181b565b604051610297989796959493929190612bba565b60405180910390f35b6102ba60048036038101906102b59190612509565b611a46565b005b80600060018261ffff16815481106102fd577f4e487b7100000000000000000000000000000000000000000000000000000000600052603260045260246000fd5b906000526020600020906007020160010154141561031a57600080fd5b813373ffffffffffffffffffffffffffffffffffffffff1660018261ffff1681548110610370577f4e487b7100000000000000000000000000000000000000000000000000000000600052603260045260246000fd5b906000526020600020906007020160050160009054906101000a900473ffffffffffffffffffffffffffffffffffffffff1673ffffffffffffffffffffffffffffffffffffffff16146103c257600080fd5b600060018461ffff1681548110610402577f4e487b7100000000000000000000000000000000000000000000000000000000600052603260045260246000fd5b906000526020600020906007020190508060050160149054906101000a900460ff16158160050160146101000a81548160ff0219169083151502179055504281600101819055507f14e88741af6b08028f509f1124d07f4f703011ddc2d1e829927f69fc5cc8aadf8160000160009054906101000a900461ffff1682600101548360050160149054906101000a900460ff166040516104a393929190612b83565b60405180910390a150505050565b60046020528060005260406000206000915090505481565b336000600260008373ffffffffffffffffffffffffffffffffffffffff1673ffffffffffffffffffffffffffffffffffffffff16815260200190815260200160002060000154141561051a57600080fd5b600160405180610100016040528060008054906101000a900461ffff1661ffff1681526020014281526020018681526020018581526020018481526020013373ffffffffffffffffffffffffffffffffffffffff1681526020016000151581526020016000815250908060018154018082558091505060019003906000526020600020906007020160009091909190915060008201518160000160006101000a81548161ffff021916908361ffff1602179055506020820151816001015560408201518160020190805190602001906105f49291906122c1565b5060608201518160030190805190602001906106119291906122c1565b50608082015181600401908051906020019061062e9291906122c1565b5060a08201518160050160006101000a81548173ffffffffffffffffffffffffffffffffffffffff021916908373ffffffffffffffffffffffffffffffffffffffff16021790555060c08201518160050160146101000a81548160ff02191690831515021790555060e08201518160060155505033600360008060009054906101000a900461ffff1661ffff16815260200190815260200160002060006101000a81548173ffffffffffffffffffffffffffffffffffffffff021916908373ffffffffffffffffffffffffffffffffffffffff1602179055506001600460003373ffffffffffffffffffffffffffffffffffffffff1673ffffffffffffffffffffffffffffffffffffffff168152602001908152602001600020546107539190612f43565b600460003373ffffffffffffffffffffffffffffffffffffffff1673ffffffffffffffffffffffffffffffffffffffff168152602001908152602001600020819055507fd45a18f512a868a957b292903d58190ae32786655c138111e70120b435041d8c60008054906101000a900461ffff16600160008054906101000a900461ffff1661ffff1681548110610812577f4e487b7100000000000000000000000000000000000000000000000000000000600052603260045260246000fd5b9060005260206000209060070201600101548686863360008060405161083f989796959493929190612c4d565b60405180910390a160008081819054906101000a900461ffff1680929190610866906130f8565b91906101000a81548161ffff021916908361ffff1602179055505050505050565b60008054906101000a900461ffff1681565b60036020528060005260406000206000915054906101000a900473ffffffffffffffffffffffffffffffffffffffff1681565b60608060608060608060608060008060009054906101000a900461ffff1661ffff1667ffffffffffffffff81111561092d577f4e487b7100000000000000000000000000000000000000000000000000000000600052604160045260246000fd5b60405190808252806020026020018201604052801561095b5781602001602082028036833780820191505090505b50905060008060009054906101000a900461ffff1661ffff1667ffffffffffffffff8111156109b3577f4e487b7100000000000000000000000000000000000000000000000000000000600052604160045260246000fd5b6040519080825280602002602001820160405280156109e15781602001602082028036833780820191505090505b50905060008060009054906101000a900461ffff1661ffff1667ffffffffffffffff811115610a39577f4e487b7100000000000000000000000000000000000000000000000000000000600052604160045260246000fd5b604051908082528060200260200182016040528015610a6c57816020015b6060815260200190600190039081610a575790505b50905060008060009054906101000a900461ffff1661ffff1667ffffffffffffffff811115610ac4577f4e487b7100000000000000000000000000000000000000000000000000000000600052604160045260246000fd5b604051908082528060200260200182016040528015610af757816020015b6060815260200190600190039081610ae25790505b50905060008060009054906101000a900461ffff1661ffff1667ffffffffffffffff811115610b4f577f4e487b7100000000000000000000000000000000000000000000000000000000600052604160045260246000fd5b604051908082528060200260200182016040528015610b8257816020015b6060815260200190600190039081610b6d5790505b50905060008060009054906101000a900461ffff1661ffff1667ffffffffffffffff811115610bda577f4e487b7100000000000000000000000000000000000000000000000000000000600052604160045260246000fd5b604051908082528060200260200182016040528015610c085781602001602082028036833780820191505090505b50905060008060009054906101000a900461ffff1661ffff1667ffffffffffffffff811115610c60577f4e487b7100000000000000000000000000000000000000000000000000000000600052604160045260246000fd5b604051908082528060200260200182016040528015610c8e5781602001602082028036833780820191505090505b50905060008060009054906101000a900461ffff1661ffff1667ffffffffffffffff811115610ce6577f4e487b7100000000000000000000000000000000000000000000000000000000600052604160045260246000fd5b604051908082528060200260200182016040528015610d145781602001602082028036833780820191505090505b50905060005b60008054906101000a900461ffff1661ffff168110156113dd5760018181548110610d6e577f4e487b7100000000000000000000000000000000000000000000000000000000600052603260045260246000fd5b906000526020600020906007020160000160009054906101000a900461ffff16898281518110610dc7577f4e487b7100000000000000000000000000000000000000000000000000000000600052603260045260246000fd5b602002602001019061ffff16908161ffff168152505060018181548110610e17577f4e487b7100000000000000000000000000000000000000000000000000000000600052603260045260246000fd5b906000526020600020906007020160010154888281518110610e62577f4e487b7100000000000000000000000000000000000000000000000000000000600052603260045260246000fd5b60200260200101818152505060018181548110610ea8577f4e487b7100000000000000000000000000000000000000000000000000000000600052603260045260246000fd5b90600052602060002090600702016002018054610ec490613095565b80601f0160208091040260200160405190810160405280929190818152602001828054610ef090613095565b8015610f3d5780601f10610f1257610100808354040283529160200191610f3d565b820191906000526020600020905b815481529060010190602001808311610f2057829003601f168201915b5050505050878281518110610f7b577f4e487b7100000000000000000000000000000000000000000000000000000000600052603260045260246000fd5b602002602001018190525060018181548110610fc0577f4e487b7100000000000000000000000000000000000000000000000000000000600052603260045260246000fd5b90600052602060002090600702016003018054610fdc90613095565b80601f016020809104026020016040519081016040528092919081815260200182805461100890613095565b80156110555780601f1061102a57610100808354040283529160200191611055565b820191906000526020600020905b81548152906001019060200180831161103857829003601f168201915b5050505050868281518110611093577f4e487b7100000000000000000000000000000000000000000000000000000000600052603260045260246000fd5b6020026020010181905250600181815481106110d8577f4e487b7100000000000000000000000000000000000000000000000000000000600052603260045260246000fd5b906000526020600020906007020160040180546110f490613095565b80601f016020809104026020016040519081016040528092919081815260200182805461112090613095565b801561116d5780601f106111425761010080835404028352916020019161116d565b820191906000526020600020905b81548152906001019060200180831161115057829003601f168201915b50505050508582815181106111ab577f4e487b7100000000000000000000000000000000000000000000000000000000600052603260045260246000fd5b6020026020010181905250600181815481106111f0577f4e487b7100000000000000000000000000000000000000000000000000000000600052603260045260246000fd5b906000526020600020906007020160050160009054906101000a900473ffffffffffffffffffffffffffffffffffffffff1684828151811061125b577f4e487b7100000000000000000000000000000000000000000000000000000000600052603260045260246000fd5b602002602001019073ffffffffffffffffffffffffffffffffffffffff16908173ffffffffffffffffffffffffffffffffffffffff1681525050600181815481106112cf577f4e487b7100000000000000000000000000000000000000000000000000000000600052603260045260246000fd5b906000526020600020906007020160050160149054906101000a900460ff16838281518110611327577f4e487b7100000000000000000000000000000000000000000000000000000000600052603260045260246000fd5b60200260200101901515908115158152505060018181548110611373577f4e487b7100000000000000000000000000000000000000000000000000000000600052603260045260246000fd5b9060005260206000209060070201600601548282815181106113be577f4e487b7100000000000000000000000000000000000000000000000000000000600052603260045260246000fd5b60200260200101818152505080806113d590613123565b915050610d1a565b5087878787878787879f509f509f509f509f509f509f509f5050505050505050509091929394959697565b336000600260008373ffffffffffffffffffffffffffffffffffffffff1673ffffffffffffffffffffffffffffffffffffffff16815260200190815260200160002060000154141561145957600080fd5b84600060018261ffff168154811061149a577f4e487b7100000000000000000000000000000000000000000000000000000000600052603260045260246000fd5b90600052602060002090600702016001015414156114b757600080fd5b853373ffffffffffffffffffffffffffffffffffffffff1660018261ffff168154811061150d577f4e487b7100000000000000000000000000000000000000000000000000000000600052603260045260246000fd5b906000526020600020906007020160050160009054906101000a900473ffffffffffffffffffffffffffffffffffffffff1673ffffffffffffffffffffffffffffffffffffffff161461155f57600080fd5b600060018861ffff168154811061159f577f4e487b7100000000000000000000000000000000000000000000000000000000600052603260045260246000fd5b90600052602060002090600702019050868160020190805190602001906115c79291906122c1565b50848160040190805190602001906115e09291906122c1565b50858160030190805190602001906115f99291906122c1565b504281600101819055507f6fa9ae7019b10f8eb5a1c3a19700521d5e6c99768d95bf5ca95d022be71b85d68160000160009054906101000a900461ffff1682600101548360020184600301856004018660050160009054906101000a900473ffffffffffffffffffffffffffffffffffffffff168760050160149054906101000a900460ff168860060154604051611698989796959493929190612ce0565b60405180910390a15050505050505050565b60026020528060005260406000206000915090508060000154908060010160009054906101000a900473ffffffffffffffffffffffffffffffffffffffff16908060020154908060030154905084565b60405180608001604052808281526020013373ffffffffffffffffffffffffffffffffffffffff168152602001600081526020016000815250600260003373ffffffffffffffffffffffffffffffffffffffff1673ffffffffffffffffffffffffffffffffffffffff1681526020019081526020016000206000820151816000015560208201518160010160006101000a81548173ffffffffffffffffffffffffffffffffffffffff021916908373ffffffffffffffffffffffffffffffffffffffff16021790555060408201518160020155606082015181600301559050507fa50219d9fe08f0c84080df6d3e14efcc4a4a138396328787c560d776875f5a0381336000806040516118109493929190612ade565b60405180910390a150565b6001818154811061182b57600080fd5b90600052602060002090600702016000915090508060000160009054906101000a900461ffff169080600101549080600201805461186890613095565b80601f016020809104026020016040519081016040528092919081815260200182805461189490613095565b80156118e15780601f106118b6576101008083540402835291602001916118e1565b820191906000526020600020905b8154815290600101906020018083116118c457829003601f168201915b5050505050908060030180546118f690613095565b80601f016020809104026020016040519081016040528092919081815260200182805461192290613095565b801561196f5780601f106119445761010080835404028352916020019161196f565b820191906000526020600020905b81548152906001019060200180831161195257829003601f168201915b50505050509080600401805461198490613095565b80601f01602080910402602001604051908101604052809291908181526020018280546119b090613095565b80156119fd5780601f106119d2576101008083540402835291602001916119fd565b820191906000526020600020905b8154815290600101906020018083116119e057829003601f168201915b5050505050908060050160009054906101000a900473ffffffffffffffffffffffffffffffffffffffff16908060050160149054906101000a900460ff16908060060154905088565b80600060018261ffff1681548110611a87577f4e487b7100000000000000000000000000000000000000000000000000000000600052603260045260246000fd5b9060005260206000209060070201600101541415611aa457600080fd5b813373ffffffffffffffffffffffffffffffffffffffff1660018261ffff1681548110611afa577f4e487b7100000000000000000000000000000000000000000000000000000000600052603260045260246000fd5b906000526020600020906007020160050160009054906101000a900473ffffffffffffffffffffffffffffffffffffffff1673ffffffffffffffffffffffffffffffffffffffff161415611b4d57600080fd5b600060018461ffff1681548110611b8d577f4e487b7100000000000000000000000000000000000000000000000000000000600052603260045260246000fd5b9060005260206000209060070201604051806101000160405290816000820160009054906101000a900461ffff1661ffff1661ffff16815260200160018201548152602001600282018054611be190613095565b80601f0160208091040260200160405190810160405280929190818152602001828054611c0d90613095565b8015611c5a5780601f10611c2f57610100808354040283529160200191611c5a565b820191906000526020600020905b815481529060010190602001808311611c3d57829003601f168201915b50505050508152602001600382018054611c7390613095565b80601f0160208091040260200160405190810160405280929190818152602001828054611c9f90613095565b8015611cec5780601f10611cc157610100808354040283529160200191611cec565b820191906000526020600020905b815481529060010190602001808311611ccf57829003601f168201915b50505050508152602001600482018054611d0590613095565b80601f0160208091040260200160405190810160405280929190818152602001828054611d3190613095565b8015611d7e5780601f10611d5357610100808354040283529160200191611d7e565b820191906000526020600020905b815481529060010190602001808311611d6157829003601f168201915b505050505081526020016005820160009054906101000a900473ffffffffffffffffffffffffffffffffffffffff1673ffffffffffffffffffffffffffffffffffffffff1673ffffffffffffffffffffffffffffffffffffffff1681526020016005820160149054906101000a900460ff16151515158152602001600682015481525050905060008160a0015190508073ffffffffffffffffffffffffffffffffffffffff166108fc349081150290604051600060405180830381858888f19350505050158015611e53573d6000803e3d6000fd5b50348260e00151611e649190612f43565b8260e00181815250508160018661ffff1681548110611eac577f4e487b7100000000000000000000000000000000000000000000000000000000600052603260045260246000fd5b906000526020600020906007020160008201518160000160006101000a81548161ffff021916908361ffff160217905550602082015181600101556040820151816002019080519060200190611f039291906122c1565b506060820151816003019080519060200190611f209291906122c1565b506080820151816004019080519060200190611f3d9291906122c1565b5060a08201518160050160006101000a81548173ffffffffffffffffffffffffffffffffffffffff021916908373ffffffffffffffffffffffffffffffffffffffff16021790555060c08201518160050160146101000a81548160ff02191690831515021790555060e082015181600601559050506000600260008373ffffffffffffffffffffffffffffffffffffffff1673ffffffffffffffffffffffffffffffffffffffff168152602001908152602001600020604051806080016040529081600082015481526020016001820160009054906101000a900473ffffffffffffffffffffffffffffffffffffffff1673ffffffffffffffffffffffffffffffffffffffff1673ffffffffffffffffffffffffffffffffffffffff1681526020016002820154815260200160038201548152505090503481604001516120849190612f43565b81604001818152505080600260008473ffffffffffffffffffffffffffffffffffffffff1673ffffffffffffffffffffffffffffffffffffffff1681526020019081526020016000206000820151816000015560208201518160010160006101000a81548173ffffffffffffffffffffffffffffffffffffffff021916908373ffffffffffffffffffffffffffffffffffffffff16021790555060408201518160020155606082015181600301559050506000600260003373ffffffffffffffffffffffffffffffffffffffff1673ffffffffffffffffffffffffffffffffffffffff168152602001908152602001600020604051806080016040529081600082015481526020016001820160009054906101000a900473ffffffffffffffffffffffffffffffffffffffff1673ffffffffffffffffffffffffffffffffffffffff1673ffffffffffffffffffffffffffffffffffffffff1681526020016002820154815260200160038201548152505090503481606001516122079190612f43565b81606001818152505080600260003373ffffffffffffffffffffffffffffffffffffffff1673ffffffffffffffffffffffffffffffffffffffff1681526020019081526020016000206000820151816000015560208201518160010160006101000a81548173ffffffffffffffffffffffffffffffffffffffff021916908373ffffffffffffffffffffffffffffffffffffffff160217905550604082015181600201556060820151816003015590505050505050505050565b8280546122cd90613095565b90600052602060002090601f0160209004810192826122ef5760008555612336565b82601f1061230857805160ff1916838001178555612336565b82800160010185558215612336579182015b8281111561233557825182559160200191906001019061231a565b5b5090506123439190612347565b5090565b5b80821115612360576000816000905550600101612348565b5090565b600061237761237284612db3565b612d8e565b90508281526020810184848401111561238f57600080fd5b61239a848285613053565b509392505050565b6000813590506123b18161320a565b92915050565b6000813590506123c681613221565b92915050565b600082601f8301126123dd57600080fd5b81356123ed848260208601612364565b91505092915050565b60008135905061240581613238565b92915050565b60008135905061241a8161324f565b92915050565b60006020828403121561243257600080fd5b6000612440848285016123a2565b91505092915050565b60006020828403121561245b57600080fd5b6000612469848285016123b7565b91505092915050565b60008060006060848603121561248757600080fd5b600084013567ffffffffffffffff8111156124a157600080fd5b6124ad868287016123cc565b935050602084013567ffffffffffffffff8111156124ca57600080fd5b6124d6868287016123cc565b925050604084013567ffffffffffffffff8111156124f357600080fd5b6124ff868287016123cc565b9150509250925092565b60006020828403121561251b57600080fd5b6000612529848285016123f6565b91505092915050565b6000806000806080858703121561254857600080fd5b6000612556878288016123f6565b945050602085013567ffffffffffffffff81111561257357600080fd5b61257f878288016123cc565b935050604085013567ffffffffffffffff81111561259c57600080fd5b6125a8878288016123cc565b925050606085013567ffffffffffffffff8111156125c557600080fd5b6125d1878288016123cc565b91505092959194509250565b6000602082840312156125ef57600080fd5b60006125fd8482850161240b565b91505092915050565b60006126128383612698565b60208301905092915050565b600061262a83836128a3565b60208301905092915050565b600061264283836128df565b905092915050565b600061265683836129d1565b60208301905092915050565b600061266e83836129ef565b60208301905092915050565b6126838161300b565b82525050565b61269281612fab565b82525050565b6126a181612f99565b82525050565b6126b081612f99565b82525050565b60006126c182612e49565b6126cb8185612ecc565b93506126d683612de4565b8060005b838110156127075781516126ee8882612606565b97506126f983612e8b565b9250506001810190506126da565b5085935050505092915050565b600061271f82612e54565b6127298185612edd565b935061273483612df4565b8060005b8381101561276557815161274c888261261e565b975061275783612e98565b925050600181019050612738565b5085935050505092915050565b600061277d82612e5f565b6127878185612eee565b93508360208202850161279985612e04565b8060005b858110156127d557848403895281516127b68582612636565b94506127c183612ea5565b925060208a0199505060018101905061279d565b50829750879550505050505092915050565b60006127f282612e6a565b6127fc8185612eff565b935061280783612e14565b8060005b8381101561283857815161281f888261264a565b975061282a83612eb2565b92505060018101905061280b565b5085935050505092915050565b600061285082612e75565b61285a8185612f10565b935061286583612e24565b8060005b8381101561289657815161287d8882612662565b975061288883612ebf565b925050600181019050612869565b5085935050505092915050565b6128ac81612fbd565b82525050565b6128bb81612fbd565b82525050565b6128ca81612fc9565b82525050565b6128d98161301d565b82525050565b60006128ea82612e80565b6128f48185612f21565b9350612904818560208601613062565b61290d816131f9565b840191505092915050565b600061292382612e80565b61292d8185612f32565b935061293d818560208601613062565b612946816131f9565b840191505092915050565b6000815461295e81613095565b6129688186612f32565b945060018216600081146129835760018114612995576129c8565b60ff19831686526020860193506129c8565b61299e85612e34565b60005b838110156129c0578154818901526001820191506020810190506129a1565b808801955050505b50505092915050565b6129da81612fd3565b82525050565b6129e981612fd3565b82525050565b6129f881613001565b82525050565b612a0781613001565b82525050565b6000602082019050612a2260008301846126a7565b92915050565b6000610100820190508181036000830152612a43818b6127e7565b90508181036020830152612a57818a612845565b90508181036040830152612a6b8189612772565b90508181036060830152612a7f8188612772565b90508181036080830152612a938187612772565b905081810360a0830152612aa781866126b6565b905081810360c0830152612abb8185612714565b905081810360e0830152612acf8184612845565b90509998505050505050505050565b6000608082019050612af360008301876128c1565b612b0060208301866126a7565b612b0d60408301856128d0565b612b1a60608301846128d0565b95945050505050565b6000608082019050612b3860008301876128c1565b612b4560208301866126a7565b612b5260408301856129fe565b612b5f60608301846129fe565b95945050505050565b6000602082019050612b7d60008301846129e0565b92915050565b6000606082019050612b9860008301866129e0565b612ba560208301856129fe565b612bb260408301846128b2565b949350505050565b600061010082019050612bd0600083018b6129e0565b612bdd602083018a6129fe565b8181036040830152612bef8189612918565b90508181036060830152612c038188612918565b90508181036080830152612c178187612918565b9050612c2660a0830186612689565b612c3360c08301856128b2565b612c4060e08301846129fe565b9998505050505050505050565b600061010082019050612c63600083018b6129e0565b612c70602083018a6129fe565b8181036040830152612c828189612918565b90508181036060830152612c968188612918565b90508181036080830152612caa8187612918565b9050612cb960a08301866126a7565b612cc660c08301856128b2565b612cd360e08301846128d0565b9998505050505050505050565b600061010082019050612cf6600083018b6129e0565b612d03602083018a6129fe565b8181036040830152612d158189612951565b90508181036060830152612d298188612951565b90508181036080830152612d3d8187612951565b9050612d4c60a083018661267a565b612d5960c08301856128b2565b612d6660e08301846129fe565b9998505050505050505050565b6000602082019050612d8860008301846129fe565b92915050565b6000612d98612da9565b9050612da482826130c7565b919050565b6000604051905090565b600067ffffffffffffffff821115612dce57612dcd6131ca565b5b612dd7826131f9565b9050602081019050919050565b6000819050602082019050919050565b6000819050602082019050919050565b6000819050602082019050919050565b6000819050602082019050919050565b6000819050602082019050919050565b60008190508160005260206000209050919050565b600081519050919050565b600081519050919050565b600081519050919050565b600081519050919050565b600081519050919050565b600081519050919050565b6000602082019050919050565b6000602082019050919050565b6000602082019050919050565b6000602082019050919050565b6000602082019050919050565b600082825260208201905092915050565b600082825260208201905092915050565b600082825260208201905092915050565b600082825260208201905092915050565b600082825260208201905092915050565b600082825260208201905092915050565b600082825260208201905092915050565b6000612f4e82613001565b9150612f5983613001565b9250827fffffffffffffffffffffffffffffffffffffffffffffffffffffffffffffffff03821115612f8e57612f8d61316c565b5b828201905092915050565b6000612fa482612fe1565b9050919050565b6000612fb682612fe1565b9050919050565b60008115159050919050565b6000819050919050565b600061ffff82169050919050565b600073ffffffffffffffffffffffffffffffffffffffff82169050919050565b6000819050919050565b60006130168261302f565b9050919050565b600061302882613001565b9050919050565b600061303a82613041565b9050919050565b600061304c82612fe1565b9050919050565b82818337600083830152505050565b60005b83811015613080578082015181840152602081019050613065565b8381111561308f576000848401525b50505050565b600060028204905060018216806130ad57607f821691505b602082108114156130c1576130c061319b565b5b50919050565b6130d0826131f9565b810181811067ffffffffffffffff821117156130ef576130ee6131ca565b5b80604052505050565b600061310382612fd3565b915061ffff8214156131185761311761316c565b5b600182019050919050565b600061312e82613001565b91507fffffffffffffffffffffffffffffffffffffffffffffffffffffffffffffffff8214156131615761316061316c565b5b600182019050919050565b7f4e487b7100000000000000000000000000000000000000000000000000000000600052601160045260246000fd5b7f4e487b7100000000000000000000000000000000000000000000000000000000600052602260045260246000fd5b7f4e487b7100000000000000000000000000000000000000000000000000000000600052604160045260246000fd5b6000601f19601f8301169050919050565b61321381612f99565b811461321e57600080fd5b50565b61322a81612fc9565b811461323557600080fd5b50565b61324181612fd3565b811461324c57600080fd5b50565b61325881613001565b811461326357600080fd5b5056fea2646970667358221220fdc691357bf0b8bd9b2c52838f2c89046ce2ad18d6852d6b7ef3b417750df75864736f6c63430008040033516d51706d4c326b57365966546d47776d4e383241714e554168377262703672546a33514442614173725767636d",
  "immutableReferences": {},
  "source": "//SPDX-License-Identifier: Unlicense\npragma solidity ^0.8.4;\n\ncontract Blog {\n  struct User {\n    bytes32 name;\n    address wallet_address;\n    uint tips_received;\n    uint tips_sent;\n  }\n\n  struct Article {\n    uint16 id;\n    uint date;\n    string title;\n    string imageHash;\n    string content;\n    address payable author;\n    bool published;\n    uint tips;\n  }\n\n  uint16 public articleCount = 0;\n  Article[] public articles;\n\n  mapping(address => User) public users;\n  mapping(uint => address) public articleToUser;\n  mapping(address => uint) public userArticlesCount;\n\n   event UserCreated(\n    bytes32 name,\n    address wallet_address,\n    uint tips_received,\n    uint tips_sent\n  );\n\n  event ArticleCreated(\n    uint16 id,\n    uint date,\n    string title,\n    string imageHash,\n    string content,\n    address author,\n    bool published,\n    uint tips\n  );\n\n  event ArticleEdited(\n    uint16 id,\n    uint date,\n    string title,\n    string imageHash,\n    string content,\n    address author,\n    bool published,\n    uint tips\n  );\n\n  event ArticlePublished(\n    uint16 id,\n    uint date,\n    bool published\n  );\n\n  constructor() {\n    createUser(\"Tiago Dias\");\n    createArticle(\n      \"My first blog's title.\",\n      \"QmQpmL2kW6YfTmGwmN82AqNUAh7rbp6rTj3QDBaAsrWgcm\",\n      \"My first blog article content!\"\n    );\n  }\n\n  // User Methods\n  function createUser(bytes32 _name) public {\n    users[msg.sender] = User(_name, msg.sender, 0, 0);\n    emit UserCreated(_name, msg.sender, 0, 0);\n  }\n\n  // Article Methods\n  function createArticle(string memory _title, string memory _imageHash, string memory _content) public userExists(msg.sender) {\n    articles.push(Article(articleCount, block.timestamp, _title, _imageHash, _content, payable(msg.sender), false, 0));\n    \n    articleToUser[articleCount] = msg.sender;\n    userArticlesCount[msg.sender] = userArticlesCount[msg.sender] + 1;\n\n    emit ArticleCreated(articleCount, articles[articleCount].date, _title, _imageHash, _content, msg.sender, false, 0);\n    articleCount++;\n  }\n\n  function editArticle(uint16 _id, string memory _title, string memory _imageHash, string memory _content) public userExists(msg.sender) articleExists(_id) isOwner(_id) {\n    Article storage _article = articles[_id];\n    _article.title = _title;\n    _article.content = _content;\n    _article.imageHash = _imageHash;\n    _article.date = block.timestamp;\n\n    emit ArticleEdited(_article.id, _article.date, _article.title, _article.imageHash, _article.content, _article.author, _article.published, _article.tips);\n  }\n\n  function getArticles()\n    external\n    view\n    returns(\n      uint16[] memory,\n      uint[] memory,\n      string[] memory,\n      string[] memory,\n      string[] memory,\n      address[] memory,\n      bool[] memory,\n      uint[] memory\n    ) {\n\n      uint16[] memory ids = new uint16[](articleCount);\n      uint[] memory dates = new uint[](articleCount);\n      string[] memory titles = new string[](articleCount);\n      string[] memory imageHashes = new string[](articleCount);\n      string[] memory contents = new string[](articleCount);\n      address[] memory authors = new address[](articleCount);\n      bool[] memory publisheds = new bool[](articleCount);\n      uint[] memory tips = new uint[](articleCount);\n\n      for(uint i = 0; i < articleCount; i++) {\n        ids[i] = articles[i].id;\n        dates[i] = articles[i].date;\n        titles[i] = articles[i].title;\n        imageHashes[i] = articles[i].imageHash;\n        contents[i] = articles[i].content;\n        authors[i] = articles[i].author;\n        publisheds[i] = articles[i].published;\n        tips[i] = articles[i].tips;\n      }\n\n      return (ids, dates, titles, imageHashes, contents, authors, publisheds, tips);\n  }\n\n  function togglePublished(uint16 _id) external articleExists(_id) isOwner(_id) {\n    Article storage _article = articles[_id];\n    _article.published = !_article.published;\n    _article.date = block.timestamp;\n    emit ArticlePublished(_article.id, _article.date, _article.published);\n  }\n\n  modifier userExists(address wallet_address) {\n    if (users[wallet_address].name == '') {\n      revert();\n    }\n    _;\n  }\n\n  modifier articleExists(uint16 _id) {\n    if(articles[_id].date == 0) {\n      revert();\n    }\n    _;\n  }\n\n  modifier isOwner(uint16 _id) {\n    if (articles[_id].author != msg.sender) {\n      revert();\n    }\n    _;\n  }\n\n  modifier isNotOwner(uint16 _id) {\n    if (articles[_id].author == msg.sender) {\n      revert();\n    }\n    _;\n  }\n\n  // Tips\n  function tipArticle(uint16 _id) public payable articleExists(_id) isNotOwner(_id) {\n    Article memory _article = articles[_id];\n\n    address payable _author_address = _article.author;\n    _author_address.transfer(msg.value);\n\n    _article.tips = _article.tips + msg.value;\n    articles[_id] = _article;\n    \n    User memory _author = users[_author_address];\n    _author.tips_received = _author.tips_received + msg.value;\n    users[_author_address] = _author;\n\n    User memory _tipper = users[msg.sender];\n    _tipper.tips_sent = _tipper.tips_sent + msg.value;\n    users[msg.sender] = _tipper;\n  }\n\n}",
  "sourcePath": "/Users/tiagodias/Desktop/Personal Dev/Blockchain/Blog/contracts/Blog.sol",
  "compiler": {
    "name": "solc",
    "version": "0.8.4+commit.c7e474f2.Emscripten.clang"
  },
  "schemaVersion": "3.3.4",
  "updatedAt": "2021-05-05T10:27:20.595Z",
  "networkType": "ethereum",
  "devdoc": {
    "kind": "dev",
    "methods": {},
    "version": 1
  },
  "userdoc": {
    "kind": "user",
    "methods": {},
    "version": 1
  }
}