{
  "contractName": "Blog",
  "abi": [
    {
      "inputs": [],
      "stateMutability": "nonpayable",
      "type": "constructor"
    },
    {
      "anonymous": false,
      "inputs": [
        {
          "indexed": false,
          "internalType": "uint16",
          "name": "id",
          "type": "uint16"
        },
        {
          "indexed": false,
          "internalType": "uint256",
          "name": "date",
          "type": "uint256"
        },
        {
          "indexed": false,
          "internalType": "string",
          "name": "title",
          "type": "string"
        },
        {
          "indexed": false,
          "internalType": "string",
          "name": "imageHash",
          "type": "string"
        },
        {
          "indexed": false,
          "internalType": "string",
          "name": "content",
          "type": "string"
        },
        {
          "indexed": false,
          "internalType": "address",
          "name": "author",
          "type": "address"
        },
        {
          "indexed": false,
          "internalType": "bool",
          "name": "published",
          "type": "bool"
        },
        {
          "indexed": false,
          "internalType": "uint256",
          "name": "tips",
          "type": "uint256"
        }
      ],
      "name": "ArticleCreated",
      "type": "event"
    },
    {
      "anonymous": false,
      "inputs": [
        {
          "indexed": false,
          "internalType": "uint16",
          "name": "id",
          "type": "uint16"
        },
        {
          "indexed": false,
          "internalType": "uint256",
          "name": "date",
          "type": "uint256"
        },
        {
          "indexed": false,
          "internalType": "string",
          "name": "title",
          "type": "string"
        },
        {
          "indexed": false,
          "internalType": "string",
          "name": "imageHash",
          "type": "string"
        },
        {
          "indexed": false,
          "internalType": "string",
          "name": "content",
          "type": "string"
        },
        {
          "indexed": false,
          "internalType": "address",
          "name": "author",
          "type": "address"
        },
        {
          "indexed": false,
          "internalType": "bool",
          "name": "published",
          "type": "bool"
        },
        {
          "indexed": false,
          "internalType": "uint256",
          "name": "tips",
          "type": "uint256"
        }
      ],
      "name": "ArticleEdited",
      "type": "event"
    },
    {
      "anonymous": false,
      "inputs": [
        {
          "indexed": false,
          "internalType": "uint16",
          "name": "id",
          "type": "uint16"
        },
        {
          "indexed": false,
          "internalType": "uint256",
          "name": "date",
          "type": "uint256"
        },
        {
          "indexed": false,
          "internalType": "bool",
          "name": "published",
          "type": "bool"
        }
      ],
      "name": "ArticlePublished",
      "type": "event"
    },
    {
      "anonymous": false,
      "inputs": [
        {
          "indexed": false,
          "internalType": "uint256",
          "name": "id",
          "type": "uint256"
        },
        {
          "indexed": false,
          "internalType": "uint16",
          "name": "articleId",
          "type": "uint16"
        },
        {
          "indexed": false,
          "internalType": "string",
          "name": "message",
          "type": "string"
        },
        {
          "indexed": false,
          "internalType": "address payable",
          "name": "author",
          "type": "address"
        },
        {
          "indexed": false,
          "internalType": "uint256",
          "name": "tips",
          "type": "uint256"
        },
        {
          "indexed": false,
          "internalType": "uint256",
          "name": "date",
          "type": "uint256"
        }
      ],
      "name": "CommentCreated",
      "type": "event"
    },
    {
      "anonymous": false,
      "inputs": [
        {
          "indexed": false,
          "internalType": "bytes32",
          "name": "name",
          "type": "bytes32"
        },
        {
          "indexed": false,
          "internalType": "address",
          "name": "wallet_address",
          "type": "address"
        },
        {
          "indexed": false,
          "internalType": "uint256",
          "name": "tips_received",
          "type": "uint256"
        },
        {
          "indexed": false,
          "internalType": "uint256",
          "name": "tips_sent",
          "type": "uint256"
        }
      ],
      "name": "UserCreated",
      "type": "event"
    },
    {
      "inputs": [
        {
          "internalType": "uint16",
          "name": "",
          "type": "uint16"
        }
      ],
      "name": "articleCommentsCount",
      "outputs": [
        {
          "internalType": "uint16",
          "name": "",
          "type": "uint16"
        }
      ],
      "stateMutability": "view",
      "type": "function",
      "constant": true
    },
    {
      "inputs": [],
      "name": "articleCount",
      "outputs": [
        {
          "internalType": "uint16",
          "name": "",
          "type": "uint16"
        }
      ],
      "stateMutability": "view",
      "type": "function",
      "constant": true
    },
    {
      "inputs": [
        {
          "internalType": "uint16",
          "name": "",
          "type": "uint16"
        }
      ],
      "name": "articleToUser",
      "outputs": [
        {
          "internalType": "address",
          "name": "",
          "type": "address"
        }
      ],
      "stateMutability": "view",
      "type": "function",
      "constant": true
    },
    {
      "inputs": [],
      "name": "commentCount",
      "outputs": [
        {
          "internalType": "uint256",
          "name": "",
          "type": "uint256"
        }
      ],
      "stateMutability": "view",
      "type": "function",
      "constant": true
    },
    {
      "inputs": [
        {
          "internalType": "uint256",
          "name": "",
          "type": "uint256"
        }
      ],
      "name": "commentToArticle",
      "outputs": [
        {
          "internalType": "uint16",
          "name": "",
          "type": "uint16"
        }
      ],
      "stateMutability": "view",
      "type": "function",
      "constant": true
    },
    {
      "inputs": [
        {
          "internalType": "address",
          "name": "",
          "type": "address"
        }
      ],
      "name": "userArticlesCount",
      "outputs": [
        {
          "internalType": "uint256",
          "name": "",
          "type": "uint256"
        }
      ],
      "stateMutability": "view",
      "type": "function",
      "constant": true
    },
    {
      "inputs": [
        {
          "internalType": "address",
          "name": "",
          "type": "address"
        }
      ],
      "name": "users",
      "outputs": [
        {
          "internalType": "bytes32",
          "name": "name",
          "type": "bytes32"
        },
        {
          "internalType": "address",
          "name": "wallet_address",
          "type": "address"
        },
        {
          "internalType": "uint256",
          "name": "tips_received",
          "type": "uint256"
        },
        {
          "internalType": "uint256",
          "name": "tips_sent",
          "type": "uint256"
        }
      ],
      "stateMutability": "view",
      "type": "function",
      "constant": true
    },
    {
      "inputs": [
        {
          "internalType": "bytes32",
          "name": "_name",
          "type": "bytes32"
        }
      ],
      "name": "createUser",
      "outputs": [],
      "stateMutability": "nonpayable",
      "type": "function"
    },
    {
      "inputs": [
        {
          "internalType": "string",
          "name": "_title",
          "type": "string"
        },
        {
          "internalType": "string",
          "name": "_imageHash",
          "type": "string"
        },
        {
          "internalType": "string",
          "name": "_content",
          "type": "string"
        }
      ],
      "name": "createArticle",
      "outputs": [],
      "stateMutability": "nonpayable",
      "type": "function"
    },
    {
      "inputs": [
        {
          "internalType": "uint16",
          "name": "_id",
          "type": "uint16"
        },
        {
          "internalType": "string",
          "name": "_title",
          "type": "string"
        },
        {
          "internalType": "string",
          "name": "_imageHash",
          "type": "string"
        },
        {
          "internalType": "string",
          "name": "_content",
          "type": "string"
        }
      ],
      "name": "editArticle",
      "outputs": [],
      "stateMutability": "nonpayable",
      "type": "function"
    },
    {
      "inputs": [
        {
          "internalType": "uint16",
          "name": "_id",
          "type": "uint16"
        }
      ],
      "name": "getArticle",
      "outputs": [
        {
          "components": [
            {
              "internalType": "uint16",
              "name": "id",
              "type": "uint16"
            },
            {
              "internalType": "uint256",
              "name": "date",
              "type": "uint256"
            },
            {
              "internalType": "string",
              "name": "title",
              "type": "string"
            },
            {
              "internalType": "string",
              "name": "imageHash",
              "type": "string"
            },
            {
              "internalType": "string",
              "name": "content",
              "type": "string"
            },
            {
              "internalType": "address payable",
              "name": "author",
              "type": "address"
            },
            {
              "internalType": "bool",
              "name": "published",
              "type": "bool"
            },
            {
              "internalType": "uint256",
              "name": "tips",
              "type": "uint256"
            }
          ],
          "internalType": "struct Blog.Article",
          "name": "",
          "type": "tuple"
        }
      ],
      "stateMutability": "view",
      "type": "function",
      "constant": true
    },
    {
      "inputs": [],
      "name": "getArticles",
      "outputs": [
        {
          "components": [
            {
              "internalType": "uint16",
              "name": "id",
              "type": "uint16"
            },
            {
              "internalType": "uint256",
              "name": "date",
              "type": "uint256"
            },
            {
              "internalType": "string",
              "name": "title",
              "type": "string"
            },
            {
              "internalType": "string",
              "name": "imageHash",
              "type": "string"
            },
            {
              "internalType": "string",
              "name": "content",
              "type": "string"
            },
            {
              "internalType": "address payable",
              "name": "author",
              "type": "address"
            },
            {
              "internalType": "bool",
              "name": "published",
              "type": "bool"
            },
            {
              "internalType": "uint256",
              "name": "tips",
              "type": "uint256"
            }
          ],
          "internalType": "struct Blog.Article[]",
          "name": "",
          "type": "tuple[]"
        }
      ],
      "stateMutability": "view",
      "type": "function",
      "constant": true
    },
    {
      "inputs": [],
      "name": "getUserArticles",
      "outputs": [
        {
          "components": [
            {
              "internalType": "uint16",
              "name": "id",
              "type": "uint16"
            },
            {
              "internalType": "uint256",
              "name": "date",
              "type": "uint256"
            },
            {
              "internalType": "string",
              "name": "title",
              "type": "string"
            },
            {
              "internalType": "string",
              "name": "imageHash",
              "type": "string"
            },
            {
              "internalType": "string",
              "name": "content",
              "type": "string"
            },
            {
              "internalType": "address payable",
              "name": "author",
              "type": "address"
            },
            {
              "internalType": "bool",
              "name": "published",
              "type": "bool"
            },
            {
              "internalType": "uint256",
              "name": "tips",
              "type": "uint256"
            }
          ],
          "internalType": "struct Blog.Article[]",
          "name": "",
          "type": "tuple[]"
        }
      ],
      "stateMutability": "view",
      "type": "function",
      "constant": true
    },
    {
      "inputs": [
        {
          "internalType": "uint16",
          "name": "_id",
          "type": "uint16"
        }
      ],
      "name": "togglePublished",
      "outputs": [],
      "stateMutability": "nonpayable",
      "type": "function"
    },
    {
      "inputs": [
        {
          "internalType": "uint16",
          "name": "_id",
          "type": "uint16"
        }
      ],
      "name": "tipArticle",
      "outputs": [],
      "stateMutability": "payable",
      "type": "function",
      "payable": true
    },
    {
      "inputs": [
        {
          "internalType": "uint16",
          "name": "_articleId",
          "type": "uint16"
        },
        {
          "internalType": "string",
          "name": "_message",
          "type": "string"
        }
      ],
      "name": "addCommentToArticle",
      "outputs": [],
      "stateMutability": "nonpayable",
      "type": "function"
    },
    {
      "inputs": [
        {
          "internalType": "uint16",
          "name": "_articleId",
          "type": "uint16"
        }
      ],
      "name": "getArticleComments",
      "outputs": [
        {
          "components": [
            {
              "internalType": "uint256",
              "name": "id",
              "type": "uint256"
            },
            {
              "internalType": "uint16",
              "name": "articleId",
              "type": "uint16"
            },
            {
              "internalType": "string",
              "name": "message",
              "type": "string"
            },
            {
              "internalType": "address payable",
              "name": "author",
              "type": "address"
            },
            {
              "internalType": "uint256",
              "name": "tips",
              "type": "uint256"
            },
            {
              "internalType": "uint256",
              "name": "date",
              "type": "uint256"
            }
          ],
          "internalType": "struct Blog.Comment[]",
          "name": "",
          "type": "tuple[]"
        }
      ],
      "stateMutability": "view",
      "type": "function",
      "constant": true
    },
    {
      "inputs": [],
      "name": "getUserComments",
      "outputs": [
        {
          "components": [
            {
              "internalType": "uint256",
              "name": "id",
              "type": "uint256"
            },
            {
              "internalType": "uint16",
              "name": "articleId",
              "type": "uint16"
            },
            {
              "internalType": "string",
              "name": "message",
              "type": "string"
            },
            {
              "internalType": "address payable",
              "name": "author",
              "type": "address"
            },
            {
              "internalType": "uint256",
              "name": "tips",
              "type": "uint256"
            },
            {
              "internalType": "uint256",
              "name": "date",
              "type": "uint256"
            }
          ],
          "internalType": "struct Blog.Comment[]",
          "name": "",
          "type": "tuple[]"
        }
      ],
      "stateMutability": "view",
      "type": "function",
      "constant": true
    }
  ],
  "bytecode": "0x608060405260008060146101000a81548161ffff021916908361ffff16021790555060006001553480156200003357600080fd5b50336000806101000a81548173ffffffffffffffffffffffffffffffffffffffff021916908373ffffffffffffffffffffffffffffffffffffffff160217905550620000a57f546961676f204469617300000000000000000000000000000000000000000000620000ab60201b60201c565b620002aa565b60405180608001604052808281526020013373ffffffffffffffffffffffffffffffffffffffff168152602001600081526020016000815250600460003373ffffffffffffffffffffffffffffffffffffffff1673ffffffffffffffffffffffffffffffffffffffff1681526020019081526020016000206000820151816000015560208201518160010160006101000a81548173ffffffffffffffffffffffffffffffffffffffff021916908373ffffffffffffffffffffffffffffffffffffffff16021790555060408201518160020155606082015181600301559050507fa50219d9fe08f0c84080df6d3e14efcc4a4a138396328787c560d776875f5a038133600080604051620001c3949392919062000201565b60405180910390a150565b620001d9816200024e565b82525050565b620001ea8162000262565b82525050565b620001fb8162000296565b82525050565b6000608082019050620002186000830187620001df565b620002276020830186620001ce565b620002366040830185620001f0565b620002456060830184620001f0565b95945050505050565b60006200025b826200026c565b9050919050565b6000819050919050565b600073ffffffffffffffffffffffffffffffffffffffff82169050919050565b6000819050919050565b6000620002a3826200028c565b9050919050565b61448d80620002ba6000396000f3fe6080604052600436106101095760003560e01c80636f3ed9b411610095578063a87430ba11610064578063a87430ba1461037d578063abf7bfd8146103bd578063bafe18ae146103e6578063d92c98de14610423578063fd4214fe1461046057610109565b80636f3ed9b4146102c1578063719b741d146102ea5780638568e2591461031557806391bcc9d31461034057610109565b80632dd9437f116100dc5780632dd9437f146101da578063414e28b01461020357806345ff20de1461022e5780636529f44a146102595780636d6db3451461028457610109565b8063056a86bb1461010e57806306eb029c146101375780630c5685f5146101605780631686e8381461019d575b600080fd5b34801561011a57600080fd5b50610135600480360381019061013091906136de565b61047c565b005b34801561014357600080fd5b5061015e60048036038101906101599190613707565b610671565b005b34801561016c57600080fd5b50610187600480360381019061018291906136de565b610984565b6040516101949190613df7565b60405180910390f35b3480156101a957600080fd5b506101c460048036038101906101bf91906135f5565b6109a5565b6040516101d19190613f6f565b60405180910390f35b3480156101e657600080fd5b5061020160048036038101906101fc9190613647565b6109bd565b005b34801561020f57600080fd5b50610218610ddc565b6040516102259190613df7565b60405180910390f35b34801561023a57600080fd5b50610243610df0565b6040516102509190613f6f565b60405180910390f35b34801561026557600080fd5b5061026e610df6565b60405161027b9190613d07565b60405180910390f35b34801561029057600080fd5b506102ab60048036038101906102a691906136de565b611606565b6040516102b89190613d29565b60405180910390f35b3480156102cd57600080fd5b506102e860048036038101906102e3919061375b565b611a0c565b005b3480156102f657600080fd5b506102ff611cac565b60405161030c9190613d29565b60405180910390f35b34801561032157600080fd5b5061032a6120e6565b6040516103379190613d07565b60405180910390f35b34801561034c57600080fd5b5061036760048036038101906103629190613806565b612681565b6040516103749190613df7565b60405180910390f35b34801561038957600080fd5b506103a4600480360381019061039f91906135f5565b6126a2565b6040516103b49493929190613d90565b60405180910390f35b3480156103c957600080fd5b506103e460048036038101906103df919061361e565b6126f2565b005b3480156103f257600080fd5b5061040d600480360381019061040891906136de565b612813565b60405161041a9190613cec565b60405180910390f35b34801561042f57600080fd5b5061044a600480360381019061044591906136de565b612846565b6040516104579190613dd5565b60405180910390f35b61047a600480360381019061047591906136de565b612b6a565b005b80600060028261ffff16815481106104bd577f4e487b7100000000000000000000000000000000000000000000000000000000600052603260045260246000fd5b90600052602060002090600702016001015414156104da57600080fd5b813373ffffffffffffffffffffffffffffffffffffffff1660028261ffff1681548110610530577f4e487b7100000000000000000000000000000000000000000000000000000000600052603260045260246000fd5b906000526020600020906007020160050160009054906101000a900473ffffffffffffffffffffffffffffffffffffffff1673ffffffffffffffffffffffffffffffffffffffff161461058257600080fd5b600060028461ffff16815481106105c2577f4e487b7100000000000000000000000000000000000000000000000000000000600052603260045260246000fd5b906000526020600020906007020190508060050160149054906101000a900460ff16158160050160146101000a81548160ff0219169083151502179055504281600101819055507f14e88741af6b08028f509f1124d07f4f703011ddc2d1e829927f69fc5cc8aadf8160000160009054906101000a900461ffff1682600101548360050160149054906101000a900460ff1660405161066393929190613e12565b60405180910390a150505050565b81600060028261ffff16815481106106b2577f4e487b7100000000000000000000000000000000000000000000000000000000600052603260045260246000fd5b90600052602060002090600702016001015414156106cf57600080fd5b6000600460003373ffffffffffffffffffffffffffffffffffffffff1673ffffffffffffffffffffffffffffffffffffffff16815260200190815260200160002060000154141561071f57600080fd5b60036040518060c0016040528060015481526020018561ffff1681526020018481526020013373ffffffffffffffffffffffffffffffffffffffff168152602001600081526020014281525090806001815401808255809150506001900390600052602060002090600602016000909190919091506000820151816000015560208201518160010160006101000a81548161ffff021916908361ffff16021790555060408201518160020190805190602001906107dd9291906133e5565b5060608201518160030160006101000a81548173ffffffffffffffffffffffffffffffffffffffff021916908373ffffffffffffffffffffffffffffffffffffffff1602179055506080820151816004015560a0820151816005015550508260076000600154815260200190815260200160002060006101000a81548161ffff021916908361ffff1602179055506001600860008561ffff1661ffff16815260200190815260200160002060009054906101000a900461ffff166108a191906140fc565b600860008561ffff1661ffff16815260200190815260200160002060006101000a81548161ffff021916908361ffff1602179055507fb363410516054b83e62df36ed5eb3806d36639b941298819f3e98a3bfd1d348e600154848433600060036001548154811061093b577f4e487b7100000000000000000000000000000000000000000000000000000000600052603260045260246000fd5b90600052602060002090600602016005015460405161095f96959493929190613f8a565b60405180910390a16001600081548092919061097a90614314565b9190505550505050565b60086020528060005260406000206000915054906101000a900461ffff1681565b60066020528060005260406000206000915090505481565b6000600460003373ffffffffffffffffffffffffffffffffffffffff1673ffffffffffffffffffffffffffffffffffffffff168152602001908152602001600020600001541415610a0d57600080fd5b3373ffffffffffffffffffffffffffffffffffffffff1660008054906101000a900473ffffffffffffffffffffffffffffffffffffffff1673ffffffffffffffffffffffffffffffffffffffff1614610a6557600080fd5b6002604051806101000160405280600060149054906101000a900461ffff1661ffff1681526020014281526020018581526020018481526020018381526020013373ffffffffffffffffffffffffffffffffffffffff1681526020016000151581526020016000815250908060018154018082558091505060019003906000526020600020906007020160009091909190915060008201518160000160006101000a81548161ffff021916908361ffff160217905550602082015181600101556040820151816002019080519060200190610b419291906133e5565b506060820151816003019080519060200190610b5e9291906133e5565b506080820151816004019080519060200190610b7b9291906133e5565b5060a08201518160050160006101000a81548173ffffffffffffffffffffffffffffffffffffffff021916908373ffffffffffffffffffffffffffffffffffffffff16021790555060c08201518160050160146101000a81548160ff02191690831515021790555060e08201518160060155505033600560008060149054906101000a900461ffff1661ffff1661ffff16815260200190815260200160002060006101000a81548173ffffffffffffffffffffffffffffffffffffffff021916908373ffffffffffffffffffffffffffffffffffffffff1602179055506001600660003373ffffffffffffffffffffffffffffffffffffffff1673ffffffffffffffffffffffffffffffffffffffff16815260200190815260200160002054610ca49190614134565b600660003373ffffffffffffffffffffffffffffffffffffffff1673ffffffffffffffffffffffffffffffffffffffff168152602001908152602001600020819055507fd45a18f512a868a957b292903d58190ae32786655c138111e70120b435041d8c600060149054906101000a900461ffff166002600060149054906101000a900461ffff1661ffff1681548110610d67577f4e487b7100000000000000000000000000000000000000000000000000000000600052603260045260246000fd5b90600052602060002090600702016001015485858533600080604051610d94989796959493929190613e49565b60405180910390a16000601481819054906101000a900461ffff1680929190610dbc906142e9565b91906101000a81548161ffff021916908361ffff16021790555050505050565b600060149054906101000a900461ffff1681565b60015481565b606060008060149054906101000a900461ffff1661ffff1667ffffffffffffffff811115610e4d577f4e487b7100000000000000000000000000000000000000000000000000000000600052604160045260246000fd5b604051908082528060200260200182016040528015610e8657816020015b610e7361346b565b815260200190600190039081610e6b5790505b5090506000805b600060149054906101000a900461ffff1661ffff1681101561121c5760028181548110610ee3577f4e487b7100000000000000000000000000000000000000000000000000000000600052603260045260246000fd5b906000526020600020906007020160050160149054906101000a900460ff16156112095760028181548110610f41577f4e487b7100000000000000000000000000000000000000000000000000000000600052603260045260246000fd5b9060005260206000209060070201604051806101000160405290816000820160009054906101000a900461ffff1661ffff1661ffff16815260200160018201548152602001600282018054610f9590614286565b80601f0160208091040260200160405190810160405280929190818152602001828054610fc190614286565b801561100e5780601f10610fe35761010080835404028352916020019161100e565b820191906000526020600020905b815481529060010190602001808311610ff157829003601f168201915b5050505050815260200160038201805461102790614286565b80601f016020809104026020016040519081016040528092919081815260200182805461105390614286565b80156110a05780601f10611075576101008083540402835291602001916110a0565b820191906000526020600020905b81548152906001019060200180831161108357829003601f168201915b505050505081526020016004820180546110b990614286565b80601f01602080910402602001604051908101604052809291908181526020018280546110e590614286565b80156111325780601f1061110757610100808354040283529160200191611132565b820191906000526020600020905b81548152906001019060200180831161111557829003601f168201915b505050505081526020016005820160009054906101000a900473ffffffffffffffffffffffffffffffffffffffff1673ffffffffffffffffffffffffffffffffffffffff1673ffffffffffffffffffffffffffffffffffffffff1681526020016005820160149054906101000a900460ff161515151581526020016006820154815250508382815181106111ef577f4e487b7100000000000000000000000000000000000000000000000000000000600052603260045260246000fd5b60200260200101819052508180611205906142e9565b9250505b808061121490614314565b915050610e8d565b5060008161ffff1667ffffffffffffffff811115611263577f4e487b7100000000000000000000000000000000000000000000000000000000600052604160045260246000fd5b60405190808252806020026020018201604052801561129c57816020015b61128961346b565b8152602001906001900390816112815790505b50905060005b83518110156115fc578381815181106112e4577f4e487b7100000000000000000000000000000000000000000000000000000000600052603260045260246000fd5b602002602001015160c00151156115e9576002818154811061132f577f4e487b7100000000000000000000000000000000000000000000000000000000600052603260045260246000fd5b9060005260206000209060070201604051806101000160405290816000820160009054906101000a900461ffff1661ffff1661ffff1681526020016001820154815260200160028201805461138390614286565b80601f01602080910402602001604051908101604052809291908181526020018280546113af90614286565b80156113fc5780601f106113d1576101008083540402835291602001916113fc565b820191906000526020600020905b8154815290600101906020018083116113df57829003601f168201915b5050505050815260200160038201805461141590614286565b80601f016020809104026020016040519081016040528092919081815260200182805461144190614286565b801561148e5780601f106114635761010080835404028352916020019161148e565b820191906000526020600020905b81548152906001019060200180831161147157829003601f168201915b505050505081526020016004820180546114a790614286565b80601f01602080910402602001604051908101604052809291908181526020018280546114d390614286565b80156115205780601f106114f557610100808354040283529160200191611520565b820191906000526020600020905b81548152906001019060200180831161150357829003601f168201915b505050505081526020016005820160009054906101000a900473ffffffffffffffffffffffffffffffffffffffff1673ffffffffffffffffffffffffffffffffffffffff1673ffffffffffffffffffffffffffffffffffffffff1681526020016005820160149054906101000a900460ff161515151581526020016006820154815250508282815181106115dd577f4e487b7100000000000000000000000000000000000000000000000000000000600052603260045260246000fd5b60200260200101819052505b80806115f490614314565b9150506112a2565b5080935050505090565b6060600060015467ffffffffffffffff81111561164c577f4e487b7100000000000000000000000000000000000000000000000000000000600052604160045260246000fd5b60405190808252806020026020018201604052801561168557816020015b6116726134cc565b81526020019060019003908161166a5790505b5090506000805b6001548110156118de578461ffff16600382815481106116d5577f4e487b7100000000000000000000000000000000000000000000000000000000600052603260045260246000fd5b906000526020600020906006020160010160009054906101000a900461ffff1661ffff1614156118cb5760038181548110611739577f4e487b7100000000000000000000000000000000000000000000000000000000600052603260045260246000fd5b90600052602060002090600602016040518060c0016040529081600082015481526020016001820160009054906101000a900461ffff1661ffff1661ffff16815260200160028201805461178c90614286565b80601f01602080910402602001604051908101604052809291908181526020018280546117b890614286565b80156118055780601f106117da57610100808354040283529160200191611805565b820191906000526020600020905b8154815290600101906020018083116117e857829003601f168201915b505050505081526020016003820160009054906101000a900473ffffffffffffffffffffffffffffffffffffffff1673ffffffffffffffffffffffffffffffffffffffff1673ffffffffffffffffffffffffffffffffffffffff168152602001600482015481526020016005820154815250508382815181106118b1577f4e487b7100000000000000000000000000000000000000000000000000000000600052603260045260246000fd5b602002602001018190525081806118c790614314565b9250505b80806118d690614314565b91505061168c565b5060008167ffffffffffffffff811115611921577f4e487b7100000000000000000000000000000000000000000000000000000000600052604160045260246000fd5b60405190808252806020026020018201604052801561195a57816020015b6119476134cc565b81526020019060019003908161193f5790505b50905060005b82811015611a00578381815181106119a1577f4e487b7100000000000000000000000000000000000000000000000000000000600052603260045260246000fd5b60200260200101518282815181106119e2577f4e487b7100000000000000000000000000000000000000000000000000000000600052603260045260246000fd5b602002602001018190525080806119f890614314565b915050611960565b50809350505050919050565b6000600460003373ffffffffffffffffffffffffffffffffffffffff1673ffffffffffffffffffffffffffffffffffffffff168152602001908152602001600020600001541415611a5c57600080fd5b83600060028261ffff1681548110611a9d577f4e487b7100000000000000000000000000000000000000000000000000000000600052603260045260246000fd5b9060005260206000209060070201600101541415611aba57600080fd5b843373ffffffffffffffffffffffffffffffffffffffff1660028261ffff1681548110611b10577f4e487b7100000000000000000000000000000000000000000000000000000000600052603260045260246000fd5b906000526020600020906007020160050160009054906101000a900473ffffffffffffffffffffffffffffffffffffffff1673ffffffffffffffffffffffffffffffffffffffff1614611b6257600080fd5b600060028761ffff1681548110611ba2577f4e487b7100000000000000000000000000000000000000000000000000000000600052603260045260246000fd5b9060005260206000209060070201905085816002019080519060200190611bca9291906133e5565b5083816004019080519060200190611be39291906133e5565b5084816003019080519060200190611bfc9291906133e5565b504281600101819055507f6fa9ae7019b10f8eb5a1c3a19700521d5e6c99768d95bf5ca95d022be71b85d68160000160009054906101000a900461ffff1682600101548360020184600301856004018660050160009054906101000a900473ffffffffffffffffffffffffffffffffffffffff168760050160149054906101000a900460ff168860060154604051611c9b989796959493929190613edc565b60405180910390a150505050505050565b6060600060015467ffffffffffffffff811115611cf2577f4e487b7100000000000000000000000000000000000000000000000000000000600052604160045260246000fd5b604051908082528060200260200182016040528015611d2b57816020015b611d186134cc565b815260200190600190039081611d105790505b5090506000805b600154811015611fba573373ffffffffffffffffffffffffffffffffffffffff1660038281548110611d8d577f4e487b7100000000000000000000000000000000000000000000000000000000600052603260045260246000fd5b906000526020600020906006020160030160009054906101000a900473ffffffffffffffffffffffffffffffffffffffff1673ffffffffffffffffffffffffffffffffffffffff161415611fa75760038181548110611e15577f4e487b7100000000000000000000000000000000000000000000000000000000600052603260045260246000fd5b90600052602060002090600602016040518060c0016040529081600082015481526020016001820160009054906101000a900461ffff1661ffff1661ffff168152602001600282018054611e6890614286565b80601f0160208091040260200160405190810160405280929190818152602001828054611e9490614286565b8015611ee15780601f10611eb657610100808354040283529160200191611ee1565b820191906000526020600020905b815481529060010190602001808311611ec457829003601f168201915b505050505081526020016003820160009054906101000a900473ffffffffffffffffffffffffffffffffffffffff1673ffffffffffffffffffffffffffffffffffffffff1673ffffffffffffffffffffffffffffffffffffffff16815260200160048201548152602001600582015481525050838281518110611f8d577f4e487b7100000000000000000000000000000000000000000000000000000000600052603260045260246000fd5b60200260200101819052508180611fa390614314565b9250505b8080611fb290614314565b915050611d32565b5060008167ffffffffffffffff811115611ffd577f4e487b7100000000000000000000000000000000000000000000000000000000600052604160045260246000fd5b60405190808252806020026020018201604052801561203657816020015b6120236134cc565b81526020019060019003908161201b5790505b50905060005b828110156120dc5783818151811061207d577f4e487b7100000000000000000000000000000000000000000000000000000000600052603260045260246000fd5b60200260200101518282815181106120be577f4e487b7100000000000000000000000000000000000000000000000000000000600052603260045260246000fd5b602002602001018190525080806120d490614314565b91505061203c565b5080935050505090565b606060008060149054906101000a900461ffff1661ffff1667ffffffffffffffff81111561213d577f4e487b7100000000000000000000000000000000000000000000000000000000600052604160045260246000fd5b60405190808252806020026020018201604052801561217657816020015b61216361346b565b81526020019060019003908161215b5790505b5090506000805b600060149054906101000a900461ffff1661ffff1681101561254d573373ffffffffffffffffffffffffffffffffffffffff16600282815481106121ea577f4e487b7100000000000000000000000000000000000000000000000000000000600052603260045260246000fd5b906000526020600020906007020160050160009054906101000a900473ffffffffffffffffffffffffffffffffffffffff1673ffffffffffffffffffffffffffffffffffffffff16141561253a5760028181548110612272577f4e487b7100000000000000000000000000000000000000000000000000000000600052603260045260246000fd5b9060005260206000209060070201604051806101000160405290816000820160009054906101000a900461ffff1661ffff1661ffff168152602001600182015481526020016002820180546122c690614286565b80601f01602080910402602001604051908101604052809291908181526020018280546122f290614286565b801561233f5780601f106123145761010080835404028352916020019161233f565b820191906000526020600020905b81548152906001019060200180831161232257829003601f168201915b5050505050815260200160038201805461235890614286565b80601f016020809104026020016040519081016040528092919081815260200182805461238490614286565b80156123d15780601f106123a6576101008083540402835291602001916123d1565b820191906000526020600020905b8154815290600101906020018083116123b457829003601f168201915b505050505081526020016004820180546123ea90614286565b80601f016020809104026020016040519081016040528092919081815260200182805461241690614286565b80156124635780601f1061243857610100808354040283529160200191612463565b820191906000526020600020905b81548152906001019060200180831161244657829003601f168201915b505050505081526020016005820160009054906101000a900473ffffffffffffffffffffffffffffffffffffffff1673ffffffffffffffffffffffffffffffffffffffff1673ffffffffffffffffffffffffffffffffffffffff1681526020016005820160149054906101000a900460ff16151515158152602001600682015481525050838281518110612520577f4e487b7100000000000000000000000000000000000000000000000000000000600052603260045260246000fd5b60200260200101819052508180612536906142e9565b9250505b808061254590614314565b91505061217d565b5060008161ffff1667ffffffffffffffff811115612594577f4e487b7100000000000000000000000000000000000000000000000000000000600052604160045260246000fd5b6040519080825280602002602001820160405280156125cd57816020015b6125ba61346b565b8152602001906001900390816125b25790505b50905060005b8261ffff1681101561267757838181518110612618577f4e487b7100000000000000000000000000000000000000000000000000000000600052603260045260246000fd5b6020026020010151828281518110612659577f4e487b7100000000000000000000000000000000000000000000000000000000600052603260045260246000fd5b6020026020010181905250808061266f90614314565b9150506125d3565b5080935050505090565b60076020528060005260406000206000915054906101000a900461ffff1681565b60046020528060005260406000206000915090508060000154908060010160009054906101000a900473ffffffffffffffffffffffffffffffffffffffff16908060020154908060030154905084565b60405180608001604052808281526020013373ffffffffffffffffffffffffffffffffffffffff168152602001600081526020016000815250600460003373ffffffffffffffffffffffffffffffffffffffff1673ffffffffffffffffffffffffffffffffffffffff1681526020019081526020016000206000820151816000015560208201518160010160006101000a81548173ffffffffffffffffffffffffffffffffffffffff021916908373ffffffffffffffffffffffffffffffffffffffff16021790555060408201518160020155606082015181600301559050507fa50219d9fe08f0c84080df6d3e14efcc4a4a138396328787c560d776875f5a0381336000806040516128089493929190613d4b565b60405180910390a150565b60056020528060005260406000206000915054906101000a900473ffffffffffffffffffffffffffffffffffffffff1681565b61284e61346b565b600060028361ffff168154811061288e577f4e487b7100000000000000000000000000000000000000000000000000000000600052603260045260246000fd5b9060005260206000209060070201604051806101000160405290816000820160009054906101000a900461ffff1661ffff1661ffff168152602001600182015481526020016002820180546128e290614286565b80601f016020809104026020016040519081016040528092919081815260200182805461290e90614286565b801561295b5780601f106129305761010080835404028352916020019161295b565b820191906000526020600020905b81548152906001019060200180831161293e57829003601f168201915b5050505050815260200160038201805461297490614286565b80601f01602080910402602001604051908101604052809291908181526020018280546129a090614286565b80156129ed5780601f106129c2576101008083540402835291602001916129ed565b820191906000526020600020905b8154815290600101906020018083116129d057829003601f168201915b50505050508152602001600482018054612a0690614286565b80601f0160208091040260200160405190810160405280929190818152602001828054612a3290614286565b8015612a7f5780601f10612a5457610100808354040283529160200191612a7f565b820191906000526020600020905b815481529060010190602001808311612a6257829003601f168201915b505050505081526020016005820160009054906101000a900473ffffffffffffffffffffffffffffffffffffffff1673ffffffffffffffffffffffffffffffffffffffff1673ffffffffffffffffffffffffffffffffffffffff1681526020016005820160149054906101000a900460ff1615151515815260200160068201548152505090508060c0015180612b5257508060c00151158015612b5157503373ffffffffffffffffffffffffffffffffffffffff168160a0015173ffffffffffffffffffffffffffffffffffffffff16145b5b15612b605780915050612b65565b600080fd5b919050565b80600060028261ffff1681548110612bab577f4e487b7100000000000000000000000000000000000000000000000000000000600052603260045260246000fd5b9060005260206000209060070201600101541415612bc857600080fd5b813373ffffffffffffffffffffffffffffffffffffffff1660028261ffff1681548110612c1e577f4e487b7100000000000000000000000000000000000000000000000000000000600052603260045260246000fd5b906000526020600020906007020160050160009054906101000a900473ffffffffffffffffffffffffffffffffffffffff1673ffffffffffffffffffffffffffffffffffffffff161415612c7157600080fd5b600060028461ffff1681548110612cb1577f4e487b7100000000000000000000000000000000000000000000000000000000600052603260045260246000fd5b9060005260206000209060070201604051806101000160405290816000820160009054906101000a900461ffff1661ffff1661ffff16815260200160018201548152602001600282018054612d0590614286565b80601f0160208091040260200160405190810160405280929190818152602001828054612d3190614286565b8015612d7e5780601f10612d5357610100808354040283529160200191612d7e565b820191906000526020600020905b815481529060010190602001808311612d6157829003601f168201915b50505050508152602001600382018054612d9790614286565b80601f0160208091040260200160405190810160405280929190818152602001828054612dc390614286565b8015612e105780601f10612de557610100808354040283529160200191612e10565b820191906000526020600020905b815481529060010190602001808311612df357829003601f168201915b50505050508152602001600482018054612e2990614286565b80601f0160208091040260200160405190810160405280929190818152602001828054612e5590614286565b8015612ea25780601f10612e7757610100808354040283529160200191612ea2565b820191906000526020600020905b815481529060010190602001808311612e8557829003601f168201915b505050505081526020016005820160009054906101000a900473ffffffffffffffffffffffffffffffffffffffff1673ffffffffffffffffffffffffffffffffffffffff1673ffffffffffffffffffffffffffffffffffffffff1681526020016005820160149054906101000a900460ff16151515158152602001600682015481525050905060008160a0015190508073ffffffffffffffffffffffffffffffffffffffff166108fc349081150290604051600060405180830381858888f19350505050158015612f77573d6000803e3d6000fd5b50348260e00151612f889190614134565b8260e00181815250508160028661ffff1681548110612fd0577f4e487b7100000000000000000000000000000000000000000000000000000000600052603260045260246000fd5b906000526020600020906007020160008201518160000160006101000a81548161ffff021916908361ffff1602179055506020820151816001015560408201518160020190805190602001906130279291906133e5565b5060608201518160030190805190602001906130449291906133e5565b5060808201518160040190805190602001906130619291906133e5565b5060a08201518160050160006101000a81548173ffffffffffffffffffffffffffffffffffffffff021916908373ffffffffffffffffffffffffffffffffffffffff16021790555060c08201518160050160146101000a81548160ff02191690831515021790555060e082015181600601559050506000600460008373ffffffffffffffffffffffffffffffffffffffff1673ffffffffffffffffffffffffffffffffffffffff168152602001908152602001600020604051806080016040529081600082015481526020016001820160009054906101000a900473ffffffffffffffffffffffffffffffffffffffff1673ffffffffffffffffffffffffffffffffffffffff1673ffffffffffffffffffffffffffffffffffffffff1681526020016002820154815260200160038201548152505090503481604001516131a89190614134565b81604001818152505080600460008473ffffffffffffffffffffffffffffffffffffffff1673ffffffffffffffffffffffffffffffffffffffff1681526020019081526020016000206000820151816000015560208201518160010160006101000a81548173ffffffffffffffffffffffffffffffffffffffff021916908373ffffffffffffffffffffffffffffffffffffffff16021790555060408201518160020155606082015181600301559050506000600460003373ffffffffffffffffffffffffffffffffffffffff1673ffffffffffffffffffffffffffffffffffffffff168152602001908152602001600020604051806080016040529081600082015481526020016001820160009054906101000a900473ffffffffffffffffffffffffffffffffffffffff1673ffffffffffffffffffffffffffffffffffffffff1673ffffffffffffffffffffffffffffffffffffffff16815260200160028201548152602001600382015481525050905034816060015161332b9190614134565b81606001818152505080600460003373ffffffffffffffffffffffffffffffffffffffff1673ffffffffffffffffffffffffffffffffffffffff1681526020019081526020016000206000820151816000015560208201518160010160006101000a81548173ffffffffffffffffffffffffffffffffffffffff021916908373ffffffffffffffffffffffffffffffffffffffff160217905550604082015181600201556060820151816003015590505050505050505050565b8280546133f190614286565b90600052602060002090601f016020900481019282613413576000855561345a565b82601f1061342c57805160ff191683800117855561345a565b8280016001018555821561345a579182015b8281111561345957825182559160200191906001019061343e565b5b509050613467919061351c565b5090565b604051806101000160405280600061ffff16815260200160008152602001606081526020016060815260200160608152602001600073ffffffffffffffffffffffffffffffffffffffff168152602001600015158152602001600081525090565b6040518060c0016040528060008152602001600061ffff16815260200160608152602001600073ffffffffffffffffffffffffffffffffffffffff16815260200160008152602001600081525090565b5b8082111561353557600081600090555060010161351d565b5090565b600061354c61354784614017565b613ff2565b90508281526020810184848401111561356457600080fd5b61356f848285614244565b509392505050565b600081359050613586816143fb565b92915050565b60008135905061359b81614412565b92915050565b600082601f8301126135b257600080fd5b81356135c2848260208601613539565b91505092915050565b6000813590506135da81614429565b92915050565b6000813590506135ef81614440565b92915050565b60006020828403121561360757600080fd5b600061361584828501613577565b91505092915050565b60006020828403121561363057600080fd5b600061363e8482850161358c565b91505092915050565b60008060006060848603121561365c57600080fd5b600084013567ffffffffffffffff81111561367657600080fd5b613682868287016135a1565b935050602084013567ffffffffffffffff81111561369f57600080fd5b6136ab868287016135a1565b925050604084013567ffffffffffffffff8111156136c857600080fd5b6136d4868287016135a1565b9150509250925092565b6000602082840312156136f057600080fd5b60006136fe848285016135cb565b91505092915050565b6000806040838503121561371a57600080fd5b6000613728858286016135cb565b925050602083013567ffffffffffffffff81111561374557600080fd5b613751858286016135a1565b9150509250929050565b6000806000806080858703121561377157600080fd5b600061377f878288016135cb565b945050602085013567ffffffffffffffff81111561379c57600080fd5b6137a8878288016135a1565b935050604085013567ffffffffffffffff8111156137c557600080fd5b6137d1878288016135a1565b925050606085013567ffffffffffffffff8111156137ee57600080fd5b6137fa878288016135a1565b91505092959194509250565b60006020828403121561381857600080fd5b6000613826848285016135e0565b91505092915050565b600061383b8383613aab565b905092915050565b600061384f8383613c27565b905092915050565b613860816141fc565b82525050565b61386f8161419c565b82525050565b61387e8161419c565b82525050565b61388d8161418a565b82525050565b600061389e8261407d565b6138a881856140b8565b9350836020820285016138ba85614048565b8060005b858110156138f657848403895281516138d7858261382f565b94506138e28361409e565b925060208a019950506001810190506138be565b50829750879550505050505092915050565b600061391382614088565b61391d81856140c9565b93508360208202850161392f85614058565b8060005b8581101561396b578484038952815161394c8582613843565b9450613957836140ab565b925060208a01995050600181019050613933565b50829750879550505050505092915050565b613986816141ae565b82525050565b613995816141ae565b82525050565b6139a4816141ba565b82525050565b6139b38161420e565b82525050565b60006139c482614093565b6139ce81856140da565b93506139de818560208601614253565b6139e7816143ea565b840191505092915050565b60006139fd82614093565b613a0781856140eb565b9350613a17818560208601614253565b613a20816143ea565b840191505092915050565b60008154613a3881614286565b613a4281866140eb565b94506001821660008114613a5d5760018114613a6f57613aa2565b60ff1983168652602086019350613aa2565b613a7885614068565b60005b83811015613a9a57815481890152600182019150602081019050613a7b565b808801955050505b50505092915050565b600061010083016000830151613ac46000860182613cb0565b506020830151613ad76020860182613cce565b5060408301518482036040860152613aef82826139b9565b91505060608301518482036060860152613b0982826139b9565b91505060808301518482036080860152613b2382826139b9565b91505060a0830151613b3860a0860182613866565b5060c0830151613b4b60c086018261397d565b5060e0830151613b5e60e0860182613cce565b508091505092915050565b600061010083016000830151613b826000860182613cb0565b506020830151613b956020860182613cce565b5060408301518482036040860152613bad82826139b9565b91505060608301518482036060860152613bc782826139b9565b91505060808301518482036080860152613be182826139b9565b91505060a0830151613bf660a0860182613866565b5060c0830151613c0960c086018261397d565b5060e0830151613c1c60e0860182613cce565b508091505092915050565b600060c083016000830151613c3f6000860182613cce565b506020830151613c526020860182613cb0565b5060408301518482036040860152613c6a82826139b9565b9150506060830151613c7f6060860182613866565b506080830151613c926080860182613cce565b5060a0830151613ca560a0860182613cce565b508091505092915050565b613cb9816141c4565b82525050565b613cc8816141c4565b82525050565b613cd7816141f2565b82525050565b613ce6816141f2565b82525050565b6000602082019050613d016000830184613884565b92915050565b60006020820190508181036000830152613d218184613893565b905092915050565b60006020820190508181036000830152613d438184613908565b905092915050565b6000608082019050613d60600083018761399b565b613d6d6020830186613884565b613d7a60408301856139aa565b613d8760608301846139aa565b95945050505050565b6000608082019050613da5600083018761399b565b613db26020830186613884565b613dbf6040830185613cdd565b613dcc6060830184613cdd565b95945050505050565b60006020820190508181036000830152613def8184613b69565b905092915050565b6000602082019050613e0c6000830184613cbf565b92915050565b6000606082019050613e276000830186613cbf565b613e346020830185613cdd565b613e41604083018461398c565b949350505050565b600061010082019050613e5f600083018b613cbf565b613e6c602083018a613cdd565b8181036040830152613e7e81896139f2565b90508181036060830152613e9281886139f2565b90508181036080830152613ea681876139f2565b9050613eb560a0830186613884565b613ec260c083018561398c565b613ecf60e08301846139aa565b9998505050505050505050565b600061010082019050613ef2600083018b613cbf565b613eff602083018a613cdd565b8181036040830152613f118189613a2b565b90508181036060830152613f258188613a2b565b90508181036080830152613f398187613a2b565b9050613f4860a0830186613857565b613f5560c083018561398c565b613f6260e0830184613cdd565b9998505050505050505050565b6000602082019050613f846000830184613cdd565b92915050565b600060c082019050613f9f6000830189613cdd565b613fac6020830188613cbf565b8181036040830152613fbe81876139f2565b9050613fcd6060830186613875565b613fda60808301856139aa565b613fe760a0830184613cdd565b979650505050505050565b6000613ffc61400d565b905061400882826142b8565b919050565b6000604051905090565b600067ffffffffffffffff821115614032576140316143bb565b5b61403b826143ea565b9050602081019050919050565b6000819050602082019050919050565b6000819050602082019050919050565b60008190508160005260206000209050919050565b600081519050919050565b600081519050919050565b600081519050919050565b6000602082019050919050565b6000602082019050919050565b600082825260208201905092915050565b600082825260208201905092915050565b600082825260208201905092915050565b600082825260208201905092915050565b6000614107826141c4565b9150614112836141c4565b92508261ffff038211156141295761412861435d565b5b828201905092915050565b600061413f826141f2565b915061414a836141f2565b9250827fffffffffffffffffffffffffffffffffffffffffffffffffffffffffffffffff0382111561417f5761417e61435d565b5b828201905092915050565b6000614195826141d2565b9050919050565b60006141a7826141d2565b9050919050565b60008115159050919050565b6000819050919050565b600061ffff82169050919050565b600073ffffffffffffffffffffffffffffffffffffffff82169050919050565b6000819050919050565b600061420782614220565b9050919050565b6000614219826141f2565b9050919050565b600061422b82614232565b9050919050565b600061423d826141d2565b9050919050565b82818337600083830152505050565b60005b83811015614271578082015181840152602081019050614256565b83811115614280576000848401525b50505050565b6000600282049050600182168061429e57607f821691505b602082108114156142b2576142b161438c565b5b50919050565b6142c1826143ea565b810181811067ffffffffffffffff821117156142e0576142df6143bb565b5b80604052505050565b60006142f4826141c4565b915061ffff8214156143095761430861435d565b5b600182019050919050565b600061431f826141f2565b91507fffffffffffffffffffffffffffffffffffffffffffffffffffffffffffffffff8214156143525761435161435d565b5b600182019050919050565b7f4e487b7100000000000000000000000000000000000000000000000000000000600052601160045260246000fd5b7f4e487b7100000000000000000000000000000000000000000000000000000000600052602260045260246000fd5b7f4e487b7100000000000000000000000000000000000000000000000000000000600052604160045260246000fd5b6000601f19601f8301169050919050565b6144048161418a565b811461440f57600080fd5b50565b61441b816141ba565b811461442657600080fd5b50565b614432816141c4565b811461443d57600080fd5b50565b614449816141f2565b811461445457600080fd5b5056fea26469706673582212204058caa2f6afe39c18f55554aa5f3530d5f70b29386e4c82e1830b449300e35564736f6c63430008040033",
  "immutableReferences": {},
  "source": "//SPDX-License-Identifier: Unlicense\npragma solidity ^0.8.4;\n\ncontract Blog {\n  struct User {\n    bytes32 name;\n    address wallet_address;\n    uint tips_received;\n    uint tips_sent;\n  }\n\n  struct Article {\n    uint16 id;\n    uint date;\n    string title;\n    string imageHash;\n    string content;\n    address payable author;\n    bool published;\n    uint tips;\n  }\n\n  struct Comment {\n    uint id;\n    uint16 articleId;\n    string message;\n    address payable author;\n    uint tips;\n    uint date;\n  }\n\n  address payable owner;\n  uint16 public articleCount = 0;\n  uint public commentCount = 0;\n  Article[] private articles;\n  Comment[] private comments;\n\n  mapping(address => User) public users;\n  mapping(uint16 => address) public articleToUser;\n  mapping(address => uint) public userArticlesCount;\n  mapping(uint => uint16) public commentToArticle;\n  mapping(uint16 => uint16) public articleCommentsCount;\n\n  event UserCreated(\n    bytes32 name,\n    address wallet_address,\n    uint tips_received,\n    uint tips_sent\n  );\n\n  event ArticleCreated(\n    uint16 id,\n    uint date,\n    string title,\n    string imageHash,\n    string content,\n    address author,\n    bool published,\n    uint tips\n  );\n\n  event ArticleEdited(\n    uint16 id,\n    uint date,\n    string title,\n    string imageHash,\n    string content,\n    address author,\n    bool published,\n    uint tips\n  );\n\n  event ArticlePublished(\n    uint16 id,\n    uint date,\n    bool published\n  );\n\n  event CommentCreated (\n    uint id,\n    uint16 articleId,\n    string message,\n    address payable author,\n    uint tips,\n    uint date\n  );\n\n  constructor() {\n    owner = payable(msg.sender);\n    createUser(\"Tiago Dias\");\n    // createArticle(\n    //   \"My first blog's title.\",\n    //   \"QmQpmL2kW6YfTmGwmN82AqNUAh7rbp6rTj3QDBaAsrWgcm\",\n    //   \"My first blog article content!\"\n    // );\n    // createArticle(\n    //   \"My second blog's title.\",\n    //   \"QmfG4fbLdwbhaS3beJuAhJduhCuvrFd8cqui6EDzVkdGYd\",\n    //   \"It's about unicorns!\"\n    // );\n  }\n\n  // User Methods\n  function createUser(bytes32 _name) public {\n    users[msg.sender] = User(_name, msg.sender, 0, 0);\n    emit UserCreated(_name, msg.sender, 0, 0);\n  }\n\n  // Article Methods\n  function createArticle(string memory _title, string memory _imageHash, string memory _content) public userExists() isOwner() {\n    articles.push(Article(articleCount, block.timestamp, _title, _imageHash, _content, payable(msg.sender), false, 0));\n    \n    articleToUser[articleCount] = msg.sender;\n    userArticlesCount[msg.sender] = userArticlesCount[msg.sender] + 1;\n\n    emit ArticleCreated(articleCount, articles[articleCount].date, _title, _imageHash, _content, msg.sender, false, 0);\n    articleCount++;\n  }\n\n  function editArticle(uint16 _id, string memory _title, string memory _imageHash, string memory _content)\n    public\n    userExists()\n    articleExists(_id)\n    isAuthor(_id) {\n      \n      Article storage _article = articles[_id];\n      _article.title = _title;\n      _article.content = _content;\n      _article.imageHash = _imageHash;\n      _article.date = block.timestamp;\n\n      emit ArticleEdited(_article.id, _article.date, _article.title, _article.imageHash, _article.content, _article.author, _article.published, _article.tips);\n  }\n\n  function getArticle(uint16 _id) external view returns(Article memory) {\n      Article memory _article = articles[_id];\n\n      if (_article.published || (!_article.published && _article.author == msg.sender)) {\n        return _article;  \n      }\n\n      revert();\n  }\n\n  function getArticles() external view returns(Article[] memory) {\n      Article[] memory _articles = new Article[](articleCount);\n\n      uint16 _publishedCount = 0;\n\n      for(uint i = 0; i < articleCount; i++) {\n        // Only published articles are being sent\n        if (articles[i].published) {\n          _articles[i] = articles[i];\n          _publishedCount++;\n        }\n      }\n\n      Article[] memory _publishedArticles = new Article[](_publishedCount);\n      for(uint i = 0; i < _articles.length; i++) {\n        // Only published articles are being sent\n        if (_articles[i].published) {\n          _publishedArticles[i] = articles[i];\n        }\n      }\n\n      return _publishedArticles;\n  }\n\n  function getUserArticles() external view returns(Article[] memory) {\n\n      Article[] memory _articles = new Article[](articleCount);\n\n      uint16 _myCount = 0;\n\n      for(uint i = 0; i < articleCount; i++) {\n        if (articles[i].author == msg.sender) {\n          _articles[i] = articles[i];\n          _myCount++;\n        }\n      }\n\n      Article[] memory _myArticles = new Article[](_myCount);\n      for(uint i = 0; i < _myCount; i++) {\n        _myArticles[i] = _articles[i];\n      }\n\n      return _myArticles;\n  }\n\n  function togglePublished(uint16 _id) external articleExists(_id) isAuthor(_id) {\n    Article storage _article = articles[_id];\n    _article.published = !_article.published;\n    _article.date = block.timestamp;\n    emit ArticlePublished(_article.id, _article.date, _article.published);\n  }\n\n  modifier userExists() {\n    if (users[msg.sender].name == '') {\n      revert();\n    }\n    _;\n  }\n\n  modifier articleExists(uint16 _id) {\n    if(articles[_id].date == 0) {\n      revert();\n    }\n    _;\n  }\n\n  modifier isAuthor(uint16 _id) {\n    if (articles[_id].author != msg.sender) {\n      revert();\n    }\n    _;\n  }\n\n  modifier isNotAuthor(uint16 _id) {\n    if (articles[_id].author == msg.sender) {\n      revert();\n    }\n    _;\n  }\n\n  modifier isOwner() {\n    if (owner != msg.sender) {\n      revert();\n    }\n    _;\n  }\n\n  // Tips\n  function tipArticle(uint16 _id) public payable articleExists(_id) isNotAuthor(_id) {\n    Article memory _article = articles[_id];\n\n    address payable _author_address = _article.author;\n    _author_address.transfer(msg.value);\n\n    _article.tips = _article.tips + msg.value;\n    articles[_id] = _article;\n    \n    User memory _author = users[_author_address];\n    _author.tips_received = _author.tips_received + msg.value;\n    users[_author_address] = _author;\n\n    User memory _tipper = users[msg.sender];\n    _tipper.tips_sent = _tipper.tips_sent + msg.value;\n    users[msg.sender] = _tipper;\n  }\n\n  // Comments methods\n  function addCommentToArticle(uint16 _articleId, string memory _message) external articleExists(_articleId) userExists() {\n    comments.push(Comment(commentCount, _articleId, _message, payable(msg.sender), 0, block.timestamp));\n\n    commentToArticle[commentCount] = _articleId;\n    articleCommentsCount[_articleId] = articleCommentsCount[_articleId] + 1;\n\n    // Emit Event here\n    emit CommentCreated(commentCount, _articleId, _message, payable(msg.sender), 0, comments[commentCount].date);\n    commentCount++;\n  }\n\n  function getArticleComments(uint16 _articleId) external view returns(Comment[] memory) {\n    Comment[] memory _comments = new Comment[](commentCount);\n\n    uint _articleCommentsCount = 0;\n    for (uint i = 0; i < commentCount; i++) {\n      if (comments[i].articleId == _articleId) {\n        _comments[i] = comments[i];\n        _articleCommentsCount++;\n      }\n    }\n\n    Comment[] memory _articleComments = new Comment[](_articleCommentsCount);\n    for (uint i = 0; i < _articleCommentsCount; i++) {\n      _articleComments[i] = _comments[i];\n    }\n\n    return _articleComments;\n  }\n\n  function getUserComments() external view returns(Comment[] memory) {\n    Comment[] memory _comments = new Comment[](commentCount);\n\n    uint _userCommentsCount = 0;\n    for (uint i = 0; i < commentCount; i++) {\n      if (comments[i].author == msg.sender) {\n        _comments[i] = comments[i];\n        _userCommentsCount++;\n      }\n    }\n\n    Comment[] memory _userComments = new Comment[](_userCommentsCount);\n    for (uint i = 0; i < _userCommentsCount; i++) {\n      _userComments[i] = _comments[i];\n    }\n\n    return _userComments;\n  }\n\n}",
  "sourcePath": "/Users/tiagodias/Desktop/Personal Dev/Blockchain/Blog/contracts/Blog.sol",
  "compiler": {
    "name": "solc",
    "version": "0.8.4+commit.c7e474f2.Emscripten.clang"
  },
  "schemaVersion": "3.3.4",
  "updatedAt": "2021-05-14T10:35:54.952Z",
  "networkType": "ethereum",
  "devdoc": {
    "kind": "dev",
    "methods": {},
    "version": 1
  },
  "userdoc": {
    "kind": "user",
    "methods": {},
    "version": 1
  }
}