{
  "contractName": "Blog",
  "abi": [
    {
      "inputs": [],
      "stateMutability": "nonpayable",
      "type": "constructor"
    },
    {
      "anonymous": false,
      "inputs": [
        {
          "indexed": false,
          "internalType": "uint16",
          "name": "id",
          "type": "uint16"
        },
        {
          "indexed": false,
          "internalType": "uint256",
          "name": "date",
          "type": "uint256"
        },
        {
          "indexed": false,
          "internalType": "string",
          "name": "title",
          "type": "string"
        },
        {
          "indexed": false,
          "internalType": "string",
          "name": "imageHash",
          "type": "string"
        },
        {
          "indexed": false,
          "internalType": "string",
          "name": "content",
          "type": "string"
        },
        {
          "indexed": false,
          "internalType": "address",
          "name": "author",
          "type": "address"
        },
        {
          "indexed": false,
          "internalType": "bool",
          "name": "published",
          "type": "bool"
        },
        {
          "indexed": false,
          "internalType": "uint256",
          "name": "tips",
          "type": "uint256"
        }
      ],
      "name": "ArticleCreated",
      "type": "event"
    },
    {
      "anonymous": false,
      "inputs": [
        {
          "indexed": false,
          "internalType": "uint16",
          "name": "id",
          "type": "uint16"
        },
        {
          "indexed": false,
          "internalType": "uint256",
          "name": "date",
          "type": "uint256"
        },
        {
          "indexed": false,
          "internalType": "bool",
          "name": "published",
          "type": "bool"
        }
      ],
      "name": "ArticlePublished",
      "type": "event"
    },
    {
      "anonymous": false,
      "inputs": [
        {
          "indexed": false,
          "internalType": "bytes32",
          "name": "name",
          "type": "bytes32"
        },
        {
          "indexed": false,
          "internalType": "address",
          "name": "wallet_address",
          "type": "address"
        },
        {
          "indexed": false,
          "internalType": "uint256",
          "name": "tips_received",
          "type": "uint256"
        },
        {
          "indexed": false,
          "internalType": "uint256",
          "name": "tips_sent",
          "type": "uint256"
        }
      ],
      "name": "UserCreated",
      "type": "event"
    },
    {
      "inputs": [],
      "name": "articleCount",
      "outputs": [
        {
          "internalType": "uint16",
          "name": "",
          "type": "uint16"
        }
      ],
      "stateMutability": "view",
      "type": "function",
      "constant": true
    },
    {
      "inputs": [
        {
          "internalType": "uint256",
          "name": "",
          "type": "uint256"
        }
      ],
      "name": "articleToUser",
      "outputs": [
        {
          "internalType": "address",
          "name": "",
          "type": "address"
        }
      ],
      "stateMutability": "view",
      "type": "function",
      "constant": true
    },
    {
      "inputs": [
        {
          "internalType": "uint256",
          "name": "",
          "type": "uint256"
        }
      ],
      "name": "articles",
      "outputs": [
        {
          "internalType": "uint16",
          "name": "id",
          "type": "uint16"
        },
        {
          "internalType": "uint256",
          "name": "date",
          "type": "uint256"
        },
        {
          "internalType": "string",
          "name": "title",
          "type": "string"
        },
        {
          "internalType": "string",
          "name": "imageHash",
          "type": "string"
        },
        {
          "internalType": "string",
          "name": "content",
          "type": "string"
        },
        {
          "internalType": "address payable",
          "name": "author",
          "type": "address"
        },
        {
          "internalType": "bool",
          "name": "published",
          "type": "bool"
        },
        {
          "internalType": "uint256",
          "name": "tips",
          "type": "uint256"
        }
      ],
      "stateMutability": "view",
      "type": "function",
      "constant": true
    },
    {
      "inputs": [
        {
          "internalType": "address",
          "name": "",
          "type": "address"
        }
      ],
      "name": "userArticlesCount",
      "outputs": [
        {
          "internalType": "uint256",
          "name": "",
          "type": "uint256"
        }
      ],
      "stateMutability": "view",
      "type": "function",
      "constant": true
    },
    {
      "inputs": [
        {
          "internalType": "address",
          "name": "",
          "type": "address"
        }
      ],
      "name": "users",
      "outputs": [
        {
          "internalType": "bytes32",
          "name": "name",
          "type": "bytes32"
        },
        {
          "internalType": "address",
          "name": "wallet_address",
          "type": "address"
        },
        {
          "internalType": "uint256",
          "name": "tips_received",
          "type": "uint256"
        },
        {
          "internalType": "uint256",
          "name": "tips_sent",
          "type": "uint256"
        }
      ],
      "stateMutability": "view",
      "type": "function",
      "constant": true
    },
    {
      "inputs": [
        {
          "internalType": "bytes32",
          "name": "_name",
          "type": "bytes32"
        }
      ],
      "name": "createUser",
      "outputs": [],
      "stateMutability": "nonpayable",
      "type": "function"
    },
    {
      "inputs": [
        {
          "internalType": "string",
          "name": "_title",
          "type": "string"
        },
        {
          "internalType": "string",
          "name": "_imageHash",
          "type": "string"
        },
        {
          "internalType": "string",
          "name": "_content",
          "type": "string"
        },
        {
          "internalType": "address payable",
          "name": "_author",
          "type": "address"
        }
      ],
      "name": "createArticle",
      "outputs": [],
      "stateMutability": "nonpayable",
      "type": "function"
    },
    {
      "inputs": [],
      "name": "getArticles",
      "outputs": [
        {
          "internalType": "uint16[]",
          "name": "",
          "type": "uint16[]"
        },
        {
          "internalType": "uint256[]",
          "name": "",
          "type": "uint256[]"
        },
        {
          "internalType": "string[]",
          "name": "",
          "type": "string[]"
        },
        {
          "internalType": "string[]",
          "name": "",
          "type": "string[]"
        },
        {
          "internalType": "string[]",
          "name": "",
          "type": "string[]"
        },
        {
          "internalType": "address[]",
          "name": "",
          "type": "address[]"
        },
        {
          "internalType": "bool[]",
          "name": "",
          "type": "bool[]"
        },
        {
          "internalType": "uint256[]",
          "name": "",
          "type": "uint256[]"
        }
      ],
      "stateMutability": "view",
      "type": "function",
      "constant": true
    },
    {
      "inputs": [
        {
          "internalType": "uint16",
          "name": "_id",
          "type": "uint16"
        }
      ],
      "name": "togglePublished",
      "outputs": [],
      "stateMutability": "nonpayable",
      "type": "function"
    },
    {
      "inputs": [
        {
          "internalType": "uint16",
          "name": "_id",
          "type": "uint16"
        }
      ],
      "name": "tipArticle",
      "outputs": [],
      "stateMutability": "payable",
      "type": "function",
      "payable": true
    }
  ],
  "bytecode": "0x608060405260008060006101000a81548161ffff021916908361ffff1602179055503480156200002e57600080fd5b50620000607f546961676f204469617300000000000000000000000000000000000000000000620000fd60201b60201c565b620000f76040518060400160405280601681526020017f4d7920666972737420626c6f672773207469746c652e000000000000000000008152506040518060600160405280602e8152602001620038bf602e91396040518060400160405280601e81526020017f4d7920666972737420626c6f672061727469636c6520636f6e74656e74210000815250336200022060201b60201c565b62000a7b565b60405180608001604052808281526020013373ffffffffffffffffffffffffffffffffffffffff168152602001600081526020016000815250600260003373ffffffffffffffffffffffffffffffffffffffff1673ffffffffffffffffffffffffffffffffffffffff1681526020019081526020016000206000820151816000015560208201518160010160006101000a81548173ffffffffffffffffffffffffffffffffffffffff021916908373ffffffffffffffffffffffffffffffffffffffff16021790555060408201518160020155606082015181600301559050507fa50219d9fe08f0c84080df6d3e14efcc4a4a138396328787c560d776875f5a03813360008060405162000215949392919062000755565b60405180910390a150565b806000600260008373ffffffffffffffffffffffffffffffffffffffff1673ffffffffffffffffffffffffffffffffffffffff1681526020019081526020016000206000015414156200027257600080fd5b600160405180610100016040528060008054906101000a900461ffff1661ffff1681526020014281526020018781526020018681526020018581526020018473ffffffffffffffffffffffffffffffffffffffff1681526020016000151581526020016000815250908060018154018082558091505060019003906000526020600020906007020160009091909190915060008201518160000160006101000a81548161ffff021916908361ffff1602179055506020820151816001015560408201518160020190805190602001906200034e929190620005ed565b5060608201518160030190805190602001906200036d929190620005ed565b5060808201518160040190805190602001906200038c929190620005ed565b5060a08201518160050160006101000a81548173ffffffffffffffffffffffffffffffffffffffff021916908373ffffffffffffffffffffffffffffffffffffffff16021790555060c08201518160050160146101000a81548160ff02191690831515021790555060e08201518160060155505033600360008060009054906101000a900461ffff1661ffff16815260200190815260200160002060006101000a81548173ffffffffffffffffffffffffffffffffffffffff021916908373ffffffffffffffffffffffffffffffffffffffff1602179055506001600460003373ffffffffffffffffffffffffffffffffffffffff1673ffffffffffffffffffffffffffffffffffffffff16815260200190815260200160002054620004b3919062000861565b600460003373ffffffffffffffffffffffffffffffffffffffff1673ffffffffffffffffffffffffffffffffffffffff168152602001908152602001600020819055507fd45a18f512a868a957b292903d58190ae32786655c138111e70120b435041d8c60008054906101000a900461ffff16600160008054906101000a900461ffff1661ffff168154811062000573577f4e487b7100000000000000000000000000000000000000000000000000000000600052603260045260246000fd5b90600052602060002090600702016001015487878787600080604051620005a2989796959493929190620007a2565b60405180910390a160008081819054906101000a900461ffff1680929190620005cb90620009dc565b91906101000a81548161ffff021916908361ffff160217905550505050505050565b828054620005fb90620009a6565b90600052602060002090601f0160209004810192826200061f57600085556200066b565b82601f106200063a57805160ff19168380011785556200066b565b828001600101855582156200066b579182015b828111156200066a5782518255916020019190600101906200064d565b5b5090506200067a91906200067e565b5090565b5b80821115620006995760008160009055506001016200067f565b5090565b620006a88162000920565b82525050565b620006b981620008be565b82525050565b620006ca81620008d2565b82525050565b620006db81620008de565b82525050565b620006ec8162000934565b82525050565b6000620006ff8262000845565b6200070b818562000850565b93506200071d81856020860162000970565b620007288162000a6a565b840191505092915050565b6200073e81620008e8565b82525050565b6200074f8162000916565b82525050565b60006080820190506200076c6000830187620006d0565b6200077b6020830186620006ae565b6200078a6040830185620006e1565b620007996060830184620006e1565b95945050505050565b600061010082019050620007ba600083018b62000733565b620007c9602083018a62000744565b8181036040830152620007dd8189620006f2565b90508181036060830152620007f38188620006f2565b90508181036080830152620008098187620006f2565b90506200081a60a08301866200069d565b6200082960c0830185620006bf565b6200083860e0830184620006e1565b9998505050505050505050565b600081519050919050565b600082825260208201905092915050565b60006200086e8262000916565b91506200087b8362000916565b9250827fffffffffffffffffffffffffffffffffffffffffffffffffffffffffffffffff03821115620008b357620008b262000a0c565b5b828201905092915050565b6000620008cb82620008f6565b9050919050565b60008115159050919050565b6000819050919050565b600061ffff82169050919050565b600073ffffffffffffffffffffffffffffffffffffffff82169050919050565b6000819050919050565b60006200092d8262000948565b9050919050565b6000620009418262000916565b9050919050565b600062000955826200095c565b9050919050565b60006200096982620008f6565b9050919050565b60005b838110156200099057808201518184015260208101905062000973565b83811115620009a0576000848401525b50505050565b60006002820490506001821680620009bf57607f821691505b60208210811415620009d657620009d562000a3b565b5b50919050565b6000620009e982620008e8565b915061ffff82141562000a015762000a0062000a0c565b5b600182019050919050565b7f4e487b7100000000000000000000000000000000000000000000000000000000600052601160045260246000fd5b7f4e487b7100000000000000000000000000000000000000000000000000000000600052602260045260246000fd5b6000601f19601f8301169050919050565b612e348062000a8b6000396000f3fe6080604052600436106100915760003560e01c80636529f44a116100595780636529f44a1461018d578063a87430ba146101bf578063abf7bfd8146101ff578063edcfafe614610228578063fd4214fe1461026c57610091565b8063056a86bb1461009657806310e61a45146100bf5780631686e838146100e8578063414e28b0146101255780635a35406314610150575b600080fd5b3480156100a257600080fd5b506100bd60048036038101906100b8919061225d565b610288565b005b3480156100cb57600080fd5b506100e660048036038101906100e191906121b2565b61047d565b005b3480156100f457600080fd5b5061010f600480360381019061010a9190612160565b61083c565b60405161011c9190612909565b60405180910390f35b34801561013157600080fd5b5061013a610854565b6040516101479190612791565b60405180910390f35b34801561015c57600080fd5b5061017760048036038101906101729190612286565b610866565b6040516101849190612636565b60405180910390f35b34801561019957600080fd5b506101a2610899565b6040516101b6989796959493929190612651565b60405180910390f35b3480156101cb57600080fd5b506101e660048036038101906101e19190612160565b6113d5565b6040516101f6949392919061274c565b60405180910390f35b34801561020b57600080fd5b5061022660048036038101906102219190612189565b611425565b005b34801561023457600080fd5b5061024f600480360381019061024a9190612286565b611546565b604051610263989796959493929190612876565b60405180910390f35b6102866004803603810190610281919061225d565b611771565b005b80600060018261ffff16815481106102c9577f4e487b7100000000000000000000000000000000000000000000000000000000600052603260045260246000fd5b90600052602060002090600702016001015414156102e657600080fd5b813373ffffffffffffffffffffffffffffffffffffffff1660018261ffff168154811061033c577f4e487b7100000000000000000000000000000000000000000000000000000000600052603260045260246000fd5b906000526020600020906007020160050160009054906101000a900473ffffffffffffffffffffffffffffffffffffffff1673ffffffffffffffffffffffffffffffffffffffff161461038e57600080fd5b600060018461ffff16815481106103ce577f4e487b7100000000000000000000000000000000000000000000000000000000600052603260045260246000fd5b906000526020600020906007020190508060050160149054906101000a900460ff16158160050160146101000a81548160ff0219169083151502179055504281600101819055507f14e88741af6b08028f509f1124d07f4f703011ddc2d1e829927f69fc5cc8aadf8160000160009054906101000a900461ffff1682600101548360050160149054906101000a900460ff1660405161046f939291906127ac565b60405180910390a150505050565b806000600260008373ffffffffffffffffffffffffffffffffffffffff1673ffffffffffffffffffffffffffffffffffffffff1681526020019081526020016000206000015414156104ce57600080fd5b600160405180610100016040528060008054906101000a900461ffff1661ffff1681526020014281526020018781526020018681526020018581526020018473ffffffffffffffffffffffffffffffffffffffff1681526020016000151581526020016000815250908060018154018082558091505060019003906000526020600020906007020160009091909190915060008201518160000160006101000a81548161ffff021916908361ffff1602179055506020820151816001015560408201518160020190805190602001906105a8929190611fec565b5060608201518160030190805190602001906105c5929190611fec565b5060808201518160040190805190602001906105e2929190611fec565b5060a08201518160050160006101000a81548173ffffffffffffffffffffffffffffffffffffffff021916908373ffffffffffffffffffffffffffffffffffffffff16021790555060c08201518160050160146101000a81548160ff02191690831515021790555060e08201518160060155505033600360008060009054906101000a900461ffff1661ffff16815260200190815260200160002060006101000a81548173ffffffffffffffffffffffffffffffffffffffff021916908373ffffffffffffffffffffffffffffffffffffffff1602179055506001600460003373ffffffffffffffffffffffffffffffffffffffff1673ffffffffffffffffffffffffffffffffffffffff168152602001908152602001600020546107079190612ac4565b600460003373ffffffffffffffffffffffffffffffffffffffff1673ffffffffffffffffffffffffffffffffffffffff168152602001908152602001600020819055507fd45a18f512a868a957b292903d58190ae32786655c138111e70120b435041d8c60008054906101000a900461ffff16600160008054906101000a900461ffff1661ffff16815481106107c6577f4e487b7100000000000000000000000000000000000000000000000000000000600052603260045260246000fd5b906000526020600020906007020160010154878787876000806040516107f39897969594939291906127e3565b60405180910390a160008081819054906101000a900461ffff168092919061081a90612c79565b91906101000a81548161ffff021916908361ffff160217905550505050505050565b60046020528060005260406000206000915090505481565b60008054906101000a900461ffff1681565b60036020528060005260406000206000915054906101000a900473ffffffffffffffffffffffffffffffffffffffff1681565b60608060608060608060608060008060009054906101000a900461ffff1661ffff1667ffffffffffffffff8111156108fa577f4e487b7100000000000000000000000000000000000000000000000000000000600052604160045260246000fd5b6040519080825280602002602001820160405280156109285781602001602082028036833780820191505090505b50905060008060009054906101000a900461ffff1661ffff1667ffffffffffffffff811115610980577f4e487b7100000000000000000000000000000000000000000000000000000000600052604160045260246000fd5b6040519080825280602002602001820160405280156109ae5781602001602082028036833780820191505090505b50905060008060009054906101000a900461ffff1661ffff1667ffffffffffffffff811115610a06577f4e487b7100000000000000000000000000000000000000000000000000000000600052604160045260246000fd5b604051908082528060200260200182016040528015610a3957816020015b6060815260200190600190039081610a245790505b50905060008060009054906101000a900461ffff1661ffff1667ffffffffffffffff811115610a91577f4e487b7100000000000000000000000000000000000000000000000000000000600052604160045260246000fd5b604051908082528060200260200182016040528015610ac457816020015b6060815260200190600190039081610aaf5790505b50905060008060009054906101000a900461ffff1661ffff1667ffffffffffffffff811115610b1c577f4e487b7100000000000000000000000000000000000000000000000000000000600052604160045260246000fd5b604051908082528060200260200182016040528015610b4f57816020015b6060815260200190600190039081610b3a5790505b50905060008060009054906101000a900461ffff1661ffff1667ffffffffffffffff811115610ba7577f4e487b7100000000000000000000000000000000000000000000000000000000600052604160045260246000fd5b604051908082528060200260200182016040528015610bd55781602001602082028036833780820191505090505b50905060008060009054906101000a900461ffff1661ffff1667ffffffffffffffff811115610c2d577f4e487b7100000000000000000000000000000000000000000000000000000000600052604160045260246000fd5b604051908082528060200260200182016040528015610c5b5781602001602082028036833780820191505090505b50905060008060009054906101000a900461ffff1661ffff1667ffffffffffffffff811115610cb3577f4e487b7100000000000000000000000000000000000000000000000000000000600052604160045260246000fd5b604051908082528060200260200182016040528015610ce15781602001602082028036833780820191505090505b50905060005b60008054906101000a900461ffff1661ffff168110156113aa5760018181548110610d3b577f4e487b7100000000000000000000000000000000000000000000000000000000600052603260045260246000fd5b906000526020600020906007020160000160009054906101000a900461ffff16898281518110610d94577f4e487b7100000000000000000000000000000000000000000000000000000000600052603260045260246000fd5b602002602001019061ffff16908161ffff168152505060018181548110610de4577f4e487b7100000000000000000000000000000000000000000000000000000000600052603260045260246000fd5b906000526020600020906007020160010154888281518110610e2f577f4e487b7100000000000000000000000000000000000000000000000000000000600052603260045260246000fd5b60200260200101818152505060018181548110610e75577f4e487b7100000000000000000000000000000000000000000000000000000000600052603260045260246000fd5b90600052602060002090600702016002018054610e9190612c16565b80601f0160208091040260200160405190810160405280929190818152602001828054610ebd90612c16565b8015610f0a5780601f10610edf57610100808354040283529160200191610f0a565b820191906000526020600020905b815481529060010190602001808311610eed57829003601f168201915b5050505050878281518110610f48577f4e487b7100000000000000000000000000000000000000000000000000000000600052603260045260246000fd5b602002602001018190525060018181548110610f8d577f4e487b7100000000000000000000000000000000000000000000000000000000600052603260045260246000fd5b90600052602060002090600702016003018054610fa990612c16565b80601f0160208091040260200160405190810160405280929190818152602001828054610fd590612c16565b80156110225780601f10610ff757610100808354040283529160200191611022565b820191906000526020600020905b81548152906001019060200180831161100557829003601f168201915b5050505050868281518110611060577f4e487b7100000000000000000000000000000000000000000000000000000000600052603260045260246000fd5b6020026020010181905250600181815481106110a5577f4e487b7100000000000000000000000000000000000000000000000000000000600052603260045260246000fd5b906000526020600020906007020160040180546110c190612c16565b80601f01602080910402602001604051908101604052809291908181526020018280546110ed90612c16565b801561113a5780601f1061110f5761010080835404028352916020019161113a565b820191906000526020600020905b81548152906001019060200180831161111d57829003601f168201915b5050505050858281518110611178577f4e487b7100000000000000000000000000000000000000000000000000000000600052603260045260246000fd5b6020026020010181905250600181815481106111bd577f4e487b7100000000000000000000000000000000000000000000000000000000600052603260045260246000fd5b906000526020600020906007020160050160009054906101000a900473ffffffffffffffffffffffffffffffffffffffff16848281518110611228577f4e487b7100000000000000000000000000000000000000000000000000000000600052603260045260246000fd5b602002602001019073ffffffffffffffffffffffffffffffffffffffff16908173ffffffffffffffffffffffffffffffffffffffff16815250506001818154811061129c577f4e487b7100000000000000000000000000000000000000000000000000000000600052603260045260246000fd5b906000526020600020906007020160050160149054906101000a900460ff168382815181106112f4577f4e487b7100000000000000000000000000000000000000000000000000000000600052603260045260246000fd5b60200260200101901515908115158152505060018181548110611340577f4e487b7100000000000000000000000000000000000000000000000000000000600052603260045260246000fd5b90600052602060002090600702016006015482828151811061138b577f4e487b7100000000000000000000000000000000000000000000000000000000600052603260045260246000fd5b60200260200101818152505080806113a290612ca4565b915050610ce7565b5087878787878787879f509f509f509f509f509f509f509f5050505050505050509091929394959697565b60026020528060005260406000206000915090508060000154908060010160009054906101000a900473ffffffffffffffffffffffffffffffffffffffff16908060020154908060030154905084565b60405180608001604052808281526020013373ffffffffffffffffffffffffffffffffffffffff168152602001600081526020016000815250600260003373ffffffffffffffffffffffffffffffffffffffff1673ffffffffffffffffffffffffffffffffffffffff1681526020019081526020016000206000820151816000015560208201518160010160006101000a81548173ffffffffffffffffffffffffffffffffffffffff021916908373ffffffffffffffffffffffffffffffffffffffff16021790555060408201518160020155606082015181600301559050507fa50219d9fe08f0c84080df6d3e14efcc4a4a138396328787c560d776875f5a03813360008060405161153b9493929190612707565b60405180910390a150565b6001818154811061155657600080fd5b90600052602060002090600702016000915090508060000160009054906101000a900461ffff169080600101549080600201805461159390612c16565b80601f01602080910402602001604051908101604052809291908181526020018280546115bf90612c16565b801561160c5780601f106115e15761010080835404028352916020019161160c565b820191906000526020600020905b8154815290600101906020018083116115ef57829003601f168201915b50505050509080600301805461162190612c16565b80601f016020809104026020016040519081016040528092919081815260200182805461164d90612c16565b801561169a5780601f1061166f5761010080835404028352916020019161169a565b820191906000526020600020905b81548152906001019060200180831161167d57829003601f168201915b5050505050908060040180546116af90612c16565b80601f01602080910402602001604051908101604052809291908181526020018280546116db90612c16565b80156117285780601f106116fd57610100808354040283529160200191611728565b820191906000526020600020905b81548152906001019060200180831161170b57829003601f168201915b5050505050908060050160009054906101000a900473ffffffffffffffffffffffffffffffffffffffff16908060050160149054906101000a900460ff16908060060154905088565b80600060018261ffff16815481106117b2577f4e487b7100000000000000000000000000000000000000000000000000000000600052603260045260246000fd5b90600052602060002090600702016001015414156117cf57600080fd5b813373ffffffffffffffffffffffffffffffffffffffff1660018261ffff1681548110611825577f4e487b7100000000000000000000000000000000000000000000000000000000600052603260045260246000fd5b906000526020600020906007020160050160009054906101000a900473ffffffffffffffffffffffffffffffffffffffff1673ffffffffffffffffffffffffffffffffffffffff16141561187857600080fd5b600060018461ffff16815481106118b8577f4e487b7100000000000000000000000000000000000000000000000000000000600052603260045260246000fd5b9060005260206000209060070201604051806101000160405290816000820160009054906101000a900461ffff1661ffff1661ffff1681526020016001820154815260200160028201805461190c90612c16565b80601f016020809104026020016040519081016040528092919081815260200182805461193890612c16565b80156119855780601f1061195a57610100808354040283529160200191611985565b820191906000526020600020905b81548152906001019060200180831161196857829003601f168201915b5050505050815260200160038201805461199e90612c16565b80601f01602080910402602001604051908101604052809291908181526020018280546119ca90612c16565b8015611a175780601f106119ec57610100808354040283529160200191611a17565b820191906000526020600020905b8154815290600101906020018083116119fa57829003601f168201915b50505050508152602001600482018054611a3090612c16565b80601f0160208091040260200160405190810160405280929190818152602001828054611a5c90612c16565b8015611aa95780601f10611a7e57610100808354040283529160200191611aa9565b820191906000526020600020905b815481529060010190602001808311611a8c57829003601f168201915b505050505081526020016005820160009054906101000a900473ffffffffffffffffffffffffffffffffffffffff1673ffffffffffffffffffffffffffffffffffffffff1673ffffffffffffffffffffffffffffffffffffffff1681526020016005820160149054906101000a900460ff16151515158152602001600682015481525050905060008160a0015190508073ffffffffffffffffffffffffffffffffffffffff166108fc349081150290604051600060405180830381858888f19350505050158015611b7e573d6000803e3d6000fd5b50348260e00151611b8f9190612ac4565b8260e00181815250508160018661ffff1681548110611bd7577f4e487b7100000000000000000000000000000000000000000000000000000000600052603260045260246000fd5b906000526020600020906007020160008201518160000160006101000a81548161ffff021916908361ffff160217905550602082015181600101556040820151816002019080519060200190611c2e929190611fec565b506060820151816003019080519060200190611c4b929190611fec565b506080820151816004019080519060200190611c68929190611fec565b5060a08201518160050160006101000a81548173ffffffffffffffffffffffffffffffffffffffff021916908373ffffffffffffffffffffffffffffffffffffffff16021790555060c08201518160050160146101000a81548160ff02191690831515021790555060e082015181600601559050506000600260008373ffffffffffffffffffffffffffffffffffffffff1673ffffffffffffffffffffffffffffffffffffffff168152602001908152602001600020604051806080016040529081600082015481526020016001820160009054906101000a900473ffffffffffffffffffffffffffffffffffffffff1673ffffffffffffffffffffffffffffffffffffffff1673ffffffffffffffffffffffffffffffffffffffff168152602001600282015481526020016003820154815250509050348160400151611daf9190612ac4565b81604001818152505080600260008473ffffffffffffffffffffffffffffffffffffffff1673ffffffffffffffffffffffffffffffffffffffff1681526020019081526020016000206000820151816000015560208201518160010160006101000a81548173ffffffffffffffffffffffffffffffffffffffff021916908373ffffffffffffffffffffffffffffffffffffffff16021790555060408201518160020155606082015181600301559050506000600260003373ffffffffffffffffffffffffffffffffffffffff1673ffffffffffffffffffffffffffffffffffffffff168152602001908152602001600020604051806080016040529081600082015481526020016001820160009054906101000a900473ffffffffffffffffffffffffffffffffffffffff1673ffffffffffffffffffffffffffffffffffffffff1673ffffffffffffffffffffffffffffffffffffffff168152602001600282015481526020016003820154815250509050348160600151611f329190612ac4565b81606001818152505080600260003373ffffffffffffffffffffffffffffffffffffffff1673ffffffffffffffffffffffffffffffffffffffff1681526020019081526020016000206000820151816000015560208201518160010160006101000a81548173ffffffffffffffffffffffffffffffffffffffff021916908373ffffffffffffffffffffffffffffffffffffffff160217905550604082015181600201556060820151816003015590505050505050505050565b828054611ff890612c16565b90600052602060002090601f01602090048101928261201a5760008555612061565b82601f1061203357805160ff1916838001178555612061565b82800160010185558215612061579182015b82811115612060578251825591602001919060010190612045565b5b50905061206e9190612072565b5090565b5b8082111561208b576000816000905550600101612073565b5090565b60006120a261209d84612949565b612924565b9050828152602081018484840111156120ba57600080fd5b6120c5848285612bd4565b509392505050565b6000813590506120dc81612d8b565b92915050565b6000813590506120f181612da2565b92915050565b60008135905061210681612db9565b92915050565b600082601f83011261211d57600080fd5b813561212d84826020860161208f565b91505092915050565b60008135905061214581612dd0565b92915050565b60008135905061215a81612de7565b92915050565b60006020828403121561217257600080fd5b6000612180848285016120cd565b91505092915050565b60006020828403121561219b57600080fd5b60006121a9848285016120f7565b91505092915050565b600080600080608085870312156121c857600080fd5b600085013567ffffffffffffffff8111156121e257600080fd5b6121ee8782880161210c565b945050602085013567ffffffffffffffff81111561220b57600080fd5b6122178782880161210c565b935050604085013567ffffffffffffffff81111561223457600080fd5b6122408782880161210c565b9250506060612251878288016120e2565b91505092959194509250565b60006020828403121561226f57600080fd5b600061227d84828501612136565b91505092915050565b60006020828403121561229857600080fd5b60006122a68482850161214b565b91505092915050565b60006122bb8383612341565b60208301905092915050565b60006122d3838361254c565b60208301905092915050565b60006122eb8383612588565b905092915050565b60006122ff83836125fa565b60208301905092915050565b60006123178383612618565b60208301905092915050565b61232c81612b8c565b82525050565b61233b81612b2c565b82525050565b61234a81612b1a565b82525050565b61235981612b1a565b82525050565b600061236a826129ca565b6123748185612a4d565b935061237f8361297a565b8060005b838110156123b057815161239788826122af565b97506123a283612a0c565b925050600181019050612383565b5085935050505092915050565b60006123c8826129d5565b6123d28185612a5e565b93506123dd8361298a565b8060005b8381101561240e5781516123f588826122c7565b975061240083612a19565b9250506001810190506123e1565b5085935050505092915050565b6000612426826129e0565b6124308185612a6f565b9350836020820285016124428561299a565b8060005b8581101561247e578484038952815161245f85826122df565b945061246a83612a26565b925060208a01995050600181019050612446565b50829750879550505050505092915050565b600061249b826129eb565b6124a58185612a80565b93506124b0836129aa565b8060005b838110156124e15781516124c888826122f3565b97506124d383612a33565b9250506001810190506124b4565b5085935050505092915050565b60006124f9826129f6565b6125038185612a91565b935061250e836129ba565b8060005b8381101561253f578151612526888261230b565b975061253183612a40565b925050600181019050612512565b5085935050505092915050565b61255581612b3e565b82525050565b61256481612b3e565b82525050565b61257381612b4a565b82525050565b61258281612b9e565b82525050565b600061259382612a01565b61259d8185612aa2565b93506125ad818560208601612be3565b6125b681612d7a565b840191505092915050565b60006125cc82612a01565b6125d68185612ab3565b93506125e6818560208601612be3565b6125ef81612d7a565b840191505092915050565b61260381612b54565b82525050565b61261281612b54565b82525050565b61262181612b82565b82525050565b61263081612b82565b82525050565b600060208201905061264b6000830184612350565b92915050565b600061010082019050818103600083015261266c818b612490565b90508181036020830152612680818a6124ee565b90508181036040830152612694818961241b565b905081810360608301526126a8818861241b565b905081810360808301526126bc818761241b565b905081810360a08301526126d0818661235f565b905081810360c08301526126e481856123bd565b905081810360e08301526126f881846124ee565b90509998505050505050505050565b600060808201905061271c600083018761256a565b6127296020830186612350565b6127366040830185612579565b6127436060830184612579565b95945050505050565b6000608082019050612761600083018761256a565b61276e6020830186612350565b61277b6040830185612627565b6127886060830184612627565b95945050505050565b60006020820190506127a66000830184612609565b92915050565b60006060820190506127c16000830186612609565b6127ce6020830185612627565b6127db604083018461255b565b949350505050565b6000610100820190506127f9600083018b612609565b612806602083018a612627565b818103604083015261281881896125c1565b9050818103606083015261282c81886125c1565b9050818103608083015261284081876125c1565b905061284f60a0830186612323565b61285c60c083018561255b565b61286960e0830184612579565b9998505050505050505050565b60006101008201905061288c600083018b612609565b612899602083018a612627565b81810360408301526128ab81896125c1565b905081810360608301526128bf81886125c1565b905081810360808301526128d381876125c1565b90506128e260a0830186612332565b6128ef60c083018561255b565b6128fc60e0830184612627565b9998505050505050505050565b600060208201905061291e6000830184612627565b92915050565b600061292e61293f565b905061293a8282612c48565b919050565b6000604051905090565b600067ffffffffffffffff82111561296457612963612d4b565b5b61296d82612d7a565b9050602081019050919050565b6000819050602082019050919050565b6000819050602082019050919050565b6000819050602082019050919050565b6000819050602082019050919050565b6000819050602082019050919050565b600081519050919050565b600081519050919050565b600081519050919050565b600081519050919050565b600081519050919050565b600081519050919050565b6000602082019050919050565b6000602082019050919050565b6000602082019050919050565b6000602082019050919050565b6000602082019050919050565b600082825260208201905092915050565b600082825260208201905092915050565b600082825260208201905092915050565b600082825260208201905092915050565b600082825260208201905092915050565b600082825260208201905092915050565b600082825260208201905092915050565b6000612acf82612b82565b9150612ada83612b82565b9250827fffffffffffffffffffffffffffffffffffffffffffffffffffffffffffffffff03821115612b0f57612b0e612ced565b5b828201905092915050565b6000612b2582612b62565b9050919050565b6000612b3782612b62565b9050919050565b60008115159050919050565b6000819050919050565b600061ffff82169050919050565b600073ffffffffffffffffffffffffffffffffffffffff82169050919050565b6000819050919050565b6000612b9782612bb0565b9050919050565b6000612ba982612b82565b9050919050565b6000612bbb82612bc2565b9050919050565b6000612bcd82612b62565b9050919050565b82818337600083830152505050565b60005b83811015612c01578082015181840152602081019050612be6565b83811115612c10576000848401525b50505050565b60006002820490506001821680612c2e57607f821691505b60208210811415612c4257612c41612d1c565b5b50919050565b612c5182612d7a565b810181811067ffffffffffffffff82111715612c7057612c6f612d4b565b5b80604052505050565b6000612c8482612b54565b915061ffff821415612c9957612c98612ced565b5b600182019050919050565b6000612caf82612b82565b91507fffffffffffffffffffffffffffffffffffffffffffffffffffffffffffffffff821415612ce257612ce1612ced565b5b600182019050919050565b7f4e487b7100000000000000000000000000000000000000000000000000000000600052601160045260246000fd5b7f4e487b7100000000000000000000000000000000000000000000000000000000600052602260045260246000fd5b7f4e487b7100000000000000000000000000000000000000000000000000000000600052604160045260246000fd5b6000601f19601f8301169050919050565b612d9481612b1a565b8114612d9f57600080fd5b50565b612dab81612b2c565b8114612db657600080fd5b50565b612dc281612b4a565b8114612dcd57600080fd5b50565b612dd981612b54565b8114612de457600080fd5b50565b612df081612b82565b8114612dfb57600080fd5b5056fea2646970667358221220ab46cb49c1cf9cfc20a2d762ad850bf1e489f8b70d734716d3e95a1d2e35635564736f6c63430008040033516d51706d4c326b57365966546d47776d4e383241714e554168377262703672546a33514442614173725767636d",
  "immutableReferences": {},
  "source": "//SPDX-License-Identifier: Unlicense\npragma solidity ^0.8.4;\n\ncontract Blog {\n  struct User {\n    bytes32 name;\n    address wallet_address;\n    uint tips_received;\n    uint tips_sent;\n  }\n\n  struct Article {\n    uint16 id;\n    uint date;\n    string title;\n    string imageHash;\n    string content;\n    address payable author;\n    bool published;\n    uint tips;\n  }\n\n  uint16 public articleCount = 0;\n  Article[] public articles;\n\n  mapping(address => User) public users;\n  mapping(uint => address) public articleToUser;\n  mapping(address => uint) public userArticlesCount;\n\n   event UserCreated(\n    bytes32 name,\n    address wallet_address,\n    uint tips_received,\n    uint tips_sent\n  );\n\n  event ArticleCreated(\n    uint16 id,\n    uint date,\n    string title,\n    string imageHash,\n    string content,\n    address author,\n    bool published,\n    uint tips\n  );\n\n  event ArticlePublished(\n    uint16 id,\n    uint date,\n    bool published\n  );\n\n  constructor() {\n    createUser(\"Tiago Dias\");\n    createArticle(\n      \"My first blog's title.\",\n      \"QmQpmL2kW6YfTmGwmN82AqNUAh7rbp6rTj3QDBaAsrWgcm\",\n      \"My first blog article content!\",\n      payable(msg.sender)\n    );\n  }\n\n  // User Methods\n  function createUser(bytes32 _name) public {\n    users[msg.sender] = User(_name, msg.sender, 0, 0);\n    emit UserCreated(_name, msg.sender, 0, 0);\n  }\n\n  // Article Methods\n  function createArticle(string memory _title, string memory _imageHash, string memory _content, address payable _author) public userExists(_author) {\n    articles.push(Article(articleCount, block.timestamp, _title, _imageHash, _content, _author, false, 0));\n    \n    articleToUser[articleCount] = msg.sender;\n    userArticlesCount[msg.sender] = userArticlesCount[msg.sender] + 1;\n\n    emit ArticleCreated(articleCount, articles[articleCount].date, _title, _imageHash, _content, _author, false, 0);\n    articleCount++;\n  }\n\n  function getArticles()\n    external\n    view\n    returns(\n      uint16[] memory,\n      uint[] memory,\n      string[] memory,\n      string[] memory,\n      string[] memory,\n      address[] memory,\n      bool[] memory,\n      uint[] memory\n    ) {\n\n      uint16[] memory ids = new uint16[](articleCount);\n      uint[] memory dates = new uint[](articleCount);\n      string[] memory titles = new string[](articleCount);\n      string[] memory imageHashes = new string[](articleCount);\n      string[] memory contents = new string[](articleCount);\n      address[] memory authors = new address[](articleCount);\n      bool[] memory publisheds = new bool[](articleCount);\n      uint[] memory tips = new uint[](articleCount);\n\n      for(uint i = 0; i < articleCount; i++) {\n        ids[i] = articles[i].id;\n        dates[i] = articles[i].date;\n        titles[i] = articles[i].title;\n        imageHashes[i] = articles[i].imageHash;\n        contents[i] = articles[i].content;\n        authors[i] = articles[i].author;\n        publisheds[i] = articles[i].published;\n        tips[i] = articles[i].tips;\n      }\n\n      return (ids, dates, titles, imageHashes, contents, authors, publisheds, tips);\n  }\n\n  function togglePublished(uint16 _id) external articleExists(_id) isOwner(_id) {\n    Article storage _article = articles[_id];\n    _article.published = !_article.published;\n    _article.date = block.timestamp;\n    emit ArticlePublished(_article.id, _article.date, _article.published);\n  }\n\n  modifier userExists(address wallet_address) {\n    if (users[wallet_address].name == '') {\n      revert();\n    }\n    _;\n  }\n\n  modifier articleExists(uint16 _id) {\n    if(articles[_id].date == 0) {\n      revert();\n    }\n    _;\n  }\n\n  modifier isOwner(uint16 _id) {\n    if (articles[_id].author != msg.sender) {\n      revert();\n    }\n    _;\n  }\n\n  modifier isNotOwner(uint16 _id) {\n    if (articles[_id].author == msg.sender) {\n      revert();\n    }\n    _;\n  }\n\n  // Tips\n  function tipArticle(uint16 _id) public payable articleExists(_id) isNotOwner(_id) {\n    Article memory _article = articles[_id];\n\n    address payable _author_address = _article.author;\n    _author_address.transfer(msg.value);\n\n    _article.tips = _article.tips + msg.value;\n    articles[_id] = _article;\n    \n    User memory _author = users[_author_address];\n    _author.tips_received = _author.tips_received + msg.value;\n    users[_author_address] = _author;\n\n    User memory _tipper = users[msg.sender];\n    _tipper.tips_sent = _tipper.tips_sent + msg.value;\n    users[msg.sender] = _tipper;\n  }\n\n}",
  "sourcePath": "/Users/tiagodias/Desktop/Personal Dev/Blockchain/Blog/contracts/Blog.sol",
  "compiler": {
    "name": "solc",
    "version": "0.8.4+commit.c7e474f2.Emscripten.clang"
  },
  "schemaVersion": "3.3.4",
  "updatedAt": "2021-04-30T21:21:32.522Z",
  "networkType": "ethereum",
  "devdoc": {
    "kind": "dev",
    "methods": {},
    "version": 1
  },
  "userdoc": {
    "kind": "user",
    "methods": {},
    "version": 1
  }
}