{
  "contractName": "Blog",
  "abi": [
    {
      "inputs": [],
      "stateMutability": "nonpayable",
      "type": "constructor"
    },
    {
      "anonymous": false,
      "inputs": [
        {
          "indexed": false,
          "internalType": "uint16",
          "name": "id",
          "type": "uint16"
        },
        {
          "indexed": false,
          "internalType": "uint256",
          "name": "date",
          "type": "uint256"
        },
        {
          "indexed": false,
          "internalType": "string",
          "name": "title",
          "type": "string"
        },
        {
          "indexed": false,
          "internalType": "string",
          "name": "imageUrl",
          "type": "string"
        },
        {
          "indexed": false,
          "internalType": "string",
          "name": "content",
          "type": "string"
        },
        {
          "indexed": false,
          "internalType": "address",
          "name": "author",
          "type": "address"
        },
        {
          "indexed": false,
          "internalType": "bool",
          "name": "published",
          "type": "bool"
        }
      ],
      "name": "ArticleCreated",
      "type": "event"
    },
    {
      "anonymous": false,
      "inputs": [
        {
          "indexed": false,
          "internalType": "uint16",
          "name": "id",
          "type": "uint16"
        },
        {
          "indexed": false,
          "internalType": "uint256",
          "name": "date",
          "type": "uint256"
        },
        {
          "indexed": false,
          "internalType": "bool",
          "name": "published",
          "type": "bool"
        }
      ],
      "name": "ArticlePublished",
      "type": "event"
    },
    {
      "anonymous": false,
      "inputs": [
        {
          "indexed": false,
          "internalType": "bytes32",
          "name": "name",
          "type": "bytes32"
        },
        {
          "indexed": false,
          "internalType": "address",
          "name": "wallet_address",
          "type": "address"
        },
        {
          "indexed": false,
          "internalType": "uint16",
          "name": "tips_received",
          "type": "uint16"
        },
        {
          "indexed": false,
          "internalType": "uint16",
          "name": "tips_sent",
          "type": "uint16"
        }
      ],
      "name": "UserCreated",
      "type": "event"
    },
    {
      "inputs": [],
      "name": "articleCount",
      "outputs": [
        {
          "internalType": "uint16",
          "name": "",
          "type": "uint16"
        }
      ],
      "stateMutability": "view",
      "type": "function",
      "constant": true
    },
    {
      "inputs": [
        {
          "internalType": "uint256",
          "name": "",
          "type": "uint256"
        }
      ],
      "name": "articleToUser",
      "outputs": [
        {
          "internalType": "address",
          "name": "",
          "type": "address"
        }
      ],
      "stateMutability": "view",
      "type": "function",
      "constant": true
    },
    {
      "inputs": [
        {
          "internalType": "uint256",
          "name": "",
          "type": "uint256"
        }
      ],
      "name": "articles",
      "outputs": [
        {
          "internalType": "uint16",
          "name": "id",
          "type": "uint16"
        },
        {
          "internalType": "uint256",
          "name": "date",
          "type": "uint256"
        },
        {
          "internalType": "string",
          "name": "title",
          "type": "string"
        },
        {
          "internalType": "string",
          "name": "imageUrl",
          "type": "string"
        },
        {
          "internalType": "string",
          "name": "content",
          "type": "string"
        },
        {
          "internalType": "address",
          "name": "author",
          "type": "address"
        },
        {
          "internalType": "bool",
          "name": "published",
          "type": "bool"
        }
      ],
      "stateMutability": "view",
      "type": "function",
      "constant": true
    },
    {
      "inputs": [
        {
          "internalType": "address",
          "name": "",
          "type": "address"
        }
      ],
      "name": "userArticlesCount",
      "outputs": [
        {
          "internalType": "uint256",
          "name": "",
          "type": "uint256"
        }
      ],
      "stateMutability": "view",
      "type": "function",
      "constant": true
    },
    {
      "inputs": [
        {
          "internalType": "uint256",
          "name": "",
          "type": "uint256"
        }
      ],
      "name": "users",
      "outputs": [
        {
          "internalType": "bytes32",
          "name": "name",
          "type": "bytes32"
        },
        {
          "internalType": "address",
          "name": "wallet_address",
          "type": "address"
        },
        {
          "internalType": "uint16",
          "name": "tips_received",
          "type": "uint16"
        },
        {
          "internalType": "uint16",
          "name": "tips_sent",
          "type": "uint16"
        }
      ],
      "stateMutability": "view",
      "type": "function",
      "constant": true
    },
    {
      "inputs": [
        {
          "internalType": "bytes32",
          "name": "_name",
          "type": "bytes32"
        },
        {
          "internalType": "address",
          "name": "_wallet_address",
          "type": "address"
        }
      ],
      "name": "createUser",
      "outputs": [],
      "stateMutability": "nonpayable",
      "type": "function"
    },
    {
      "inputs": [
        {
          "internalType": "string",
          "name": "_title",
          "type": "string"
        },
        {
          "internalType": "string",
          "name": "_imageUrl",
          "type": "string"
        },
        {
          "internalType": "string",
          "name": "_content",
          "type": "string"
        },
        {
          "internalType": "address",
          "name": "_author",
          "type": "address"
        }
      ],
      "name": "createArticle",
      "outputs": [],
      "stateMutability": "nonpayable",
      "type": "function"
    },
    {
      "inputs": [],
      "name": "getArticles",
      "outputs": [
        {
          "internalType": "uint16[]",
          "name": "",
          "type": "uint16[]"
        },
        {
          "internalType": "uint256[]",
          "name": "",
          "type": "uint256[]"
        },
        {
          "internalType": "string[]",
          "name": "",
          "type": "string[]"
        },
        {
          "internalType": "string[]",
          "name": "",
          "type": "string[]"
        },
        {
          "internalType": "string[]",
          "name": "",
          "type": "string[]"
        },
        {
          "internalType": "address[]",
          "name": "",
          "type": "address[]"
        },
        {
          "internalType": "bool[]",
          "name": "",
          "type": "bool[]"
        }
      ],
      "stateMutability": "view",
      "type": "function",
      "constant": true
    },
    {
      "inputs": [
        {
          "internalType": "uint16",
          "name": "_id",
          "type": "uint16"
        }
      ],
      "name": "togglePublished",
      "outputs": [],
      "stateMutability": "nonpayable",
      "type": "function"
    }
  ],
  "bytecode": "0x608060405260008060006101000a81548161ffff021916908361ffff1602179055503480156200002e57600080fd5b50620000617f546961676f20446961730000000000000000000000000000000000000000000033620000fe60201b60201c565b620000f86040518060400160405280601681526020017f4d7920666972737420626c6f672773207469746c652e0000000000000000000081525060405180606001604052806037815260200162002bfe603791396040518060400160405280601e81526020017f4d7920666972737420626c6f672061727469636c6520636f6e74656e74210000815250336200024760201b60201c565b620009dd565b600260405180608001604052808481526020018373ffffffffffffffffffffffffffffffffffffffff168152602001600061ffff168152602001600061ffff1681525090806001815401808255809150506001900390600052602060002090600202016000909190919091506000820151816000015560208201518160010160006101000a81548173ffffffffffffffffffffffffffffffffffffffff021916908373ffffffffffffffffffffffffffffffffffffffff16021790555060408201518160010160146101000a81548161ffff021916908361ffff16021790555060608201518160010160166101000a81548161ffff021916908361ffff16021790555050507f980ea50376f121cf48d1f3d179a3963e84acf8f4c498d24201b8bedc4b5b89c482826000806040516200023b949392919062000704565b60405180910390a15050565b60016040518060e0016040528060008054906101000a900461ffff1661ffff1681526020014281526020018681526020018581526020018481526020018373ffffffffffffffffffffffffffffffffffffffff16815260200160001515815250908060018154018082558091505060019003906000526020600020906006020160009091909190915060008201518160000160006101000a81548161ffff021916908361ffff1602179055506020820151816001015560408201518160020190805190602001906200031b929190620005ad565b5060608201518160030190805190602001906200033a929190620005ad565b50608082015181600401908051906020019062000359929190620005ad565b5060a08201518160050160006101000a81548173ffffffffffffffffffffffffffffffffffffffff021916908373ffffffffffffffffffffffffffffffffffffffff16021790555060c08201518160050160146101000a81548160ff021916908315150217905550505033600360008060009054906101000a900461ffff1661ffff16815260200190815260200160002060006101000a81548173ffffffffffffffffffffffffffffffffffffffff021916908373ffffffffffffffffffffffffffffffffffffffff1602179055506001600460003373ffffffffffffffffffffffffffffffffffffffff1673ffffffffffffffffffffffffffffffffffffffff16815260200190815260200160002054620004769190620007ff565b600460003373ffffffffffffffffffffffffffffffffffffffff1673ffffffffffffffffffffffffffffffffffffffff168152602001908152602001600020819055507f8cbf2fe6f24649077dd4a9bfbe81299cce81e488bbdb15c69fc713ddb60a771c60008054906101000a900461ffff16600160008054906101000a900461ffff1661ffff168154811062000536577f4e487b7100000000000000000000000000000000000000000000000000000000600052603260045260246000fd5b90600052602060002090600602016001015486868686600060405162000563979695949392919062000751565b60405180910390a160008081819054906101000a900461ffff16809291906200058c906200093e565b91906101000a81548161ffff021916908361ffff1602179055505050505050565b828054620005bb9062000908565b90600052602060002090601f016020900481019282620005df57600085556200062b565b82601f10620005fa57805160ff19168380011785556200062b565b828001600101855582156200062b579182015b828111156200062a5782518255916020019190600101906200060d565b5b5090506200063a91906200063e565b5090565b5b80821115620006595760008160009055506001016200063f565b5090565b62000668816200085c565b82525050565b620006798162000870565b82525050565b6200068a816200087c565b82525050565b6200069b81620008be565b82525050565b6000620006ae82620007e3565b620006ba8185620007ee565b9350620006cc818560208601620008d2565b620006d781620009cc565b840191505092915050565b620006ed8162000886565b82525050565b620006fe81620008b4565b82525050565b60006080820190506200071b60008301876200067f565b6200072a60208301866200065d565b62000739604083018562000690565b62000748606083018462000690565b95945050505050565b600060e08201905062000768600083018a620006e2565b620007776020830189620006f3565b81810360408301526200078b8188620006a1565b90508181036060830152620007a18187620006a1565b90508181036080830152620007b78186620006a1565b9050620007c860a08301856200065d565b620007d760c08301846200066e565b98975050505050505050565b600081519050919050565b600082825260208201905092915050565b60006200080c82620008b4565b91506200081983620008b4565b9250827fffffffffffffffffffffffffffffffffffffffffffffffffffffffffffffffff038211156200085157620008506200096e565b5b828201905092915050565b6000620008698262000894565b9050919050565b60008115159050919050565b6000819050919050565b600061ffff82169050919050565b600073ffffffffffffffffffffffffffffffffffffffff82169050919050565b6000819050919050565b6000620008cb8262000886565b9050919050565b60005b83811015620008f2578082015181840152602081019050620008d5565b8381111562000902576000848401525b50505050565b600060028204905060018216806200092157607f821691505b602082108114156200093857620009376200099d565b5b50919050565b60006200094b8262000886565b915061ffff8214156200096357620009626200096e565b5b600182019050919050565b7f4e487b7100000000000000000000000000000000000000000000000000000000600052601160045260246000fd5b7f4e487b7100000000000000000000000000000000000000000000000000000000600052602260045260246000fd5b6000601f19601f8301169050919050565b61221180620009ed6000396000f3fe608060405234801561001057600080fd5b50600436106100935760003560e01c8063365b98b211610066578063365b98b21461011c578063414e28b01461014f5780635a3540631461016d5780636529f44a1461019d578063edcfafe6146101c157610093565b8063056a86bb1461009857806310e61a45146100b45780631686e838146100d057806316db95ec14610100575b600080fd5b6100b260048036038101906100ad919061176f565b6101f7565b005b6100ce60048036038101906100c991906116c4565b610343565b005b6100ea60048036038101906100e5919061165f565b61069c565b6040516100f79190611d45565b60405180910390f35b61011a60048036038101906101159190611688565b6106b4565b005b61013660048036038101906101319190611798565b6107fb565b6040516101469493929190611c2a565b60405180910390f35b610157610877565b6040516101649190611c6f565b60405180910390f35b61018760048036038101906101829190611798565b610889565b6040516101949190611b2a565b60405180910390f35b6101a56108bc565b6040516101b89796959493929190611b45565b60405180910390f35b6101db60048036038101906101d69190611798565b6112db565b6040516101ee9796959493929190611cc1565b60405180910390f35b80600060018261ffff1681548110610238577f4e487b7100000000000000000000000000000000000000000000000000000000600052603260045260246000fd5b906000526020600020906006020160010154141561025557600080fd5b600060018361ffff1681548110610295577f4e487b7100000000000000000000000000000000000000000000000000000000600052603260045260246000fd5b906000526020600020906006020190508060050160149054906101000a900460ff16158160050160146101000a81548160ff0219169083151502179055504281600101819055507f14e88741af6b08028f509f1124d07f4f703011ddc2d1e829927f69fc5cc8aadf8160000160009054906101000a900461ffff1682600101548360050160149054906101000a900460ff1660405161033693929190611c8a565b60405180910390a1505050565b60016040518060e0016040528060008054906101000a900461ffff1661ffff1681526020014281526020018681526020018581526020018481526020018373ffffffffffffffffffffffffffffffffffffffff16815260200160001515815250908060018154018082558091505060019003906000526020600020906006020160009091909190915060008201518160000160006101000a81548161ffff021916908361ffff160217905550602082015181600101556040820151816002019080519060200190610415929190611500565b506060820151816003019080519060200190610432929190611500565b50608082015181600401908051906020019061044f929190611500565b5060a08201518160050160006101000a81548173ffffffffffffffffffffffffffffffffffffffff021916908373ffffffffffffffffffffffffffffffffffffffff16021790555060c08201518160050160146101000a81548160ff021916908315150217905550505033600360008060009054906101000a900461ffff1661ffff16815260200190815260200160002060006101000a81548173ffffffffffffffffffffffffffffffffffffffff021916908373ffffffffffffffffffffffffffffffffffffffff1602179055506001600460003373ffffffffffffffffffffffffffffffffffffffff1673ffffffffffffffffffffffffffffffffffffffff1681526020019081526020016000205461056a9190611f00565b600460003373ffffffffffffffffffffffffffffffffffffffff1673ffffffffffffffffffffffffffffffffffffffff168152602001908152602001600020819055507f8cbf2fe6f24649077dd4a9bfbe81299cce81e488bbdb15c69fc713ddb60a771c60008054906101000a900461ffff16600160008054906101000a900461ffff1661ffff1681548110610629577f4e487b7100000000000000000000000000000000000000000000000000000000600052603260045260246000fd5b9060005260206000209060060201600101548686868660006040516106549796959493929190611cc1565b60405180910390a160008081819054906101000a900461ffff168092919061067b9061206d565b91906101000a81548161ffff021916908361ffff1602179055505050505050565b60046020528060005260406000206000915090505481565b600260405180608001604052808481526020018373ffffffffffffffffffffffffffffffffffffffff168152602001600061ffff168152602001600061ffff1681525090806001815401808255809150506001900390600052602060002090600202016000909190919091506000820151816000015560208201518160010160006101000a81548173ffffffffffffffffffffffffffffffffffffffff021916908373ffffffffffffffffffffffffffffffffffffffff16021790555060408201518160010160146101000a81548161ffff021916908361ffff16021790555060608201518160010160166101000a81548161ffff021916908361ffff16021790555050507f980ea50376f121cf48d1f3d179a3963e84acf8f4c498d24201b8bedc4b5b89c482826000806040516107ef9493929190611be5565b60405180910390a15050565b6002818154811061080b57600080fd5b90600052602060002090600202016000915090508060000154908060010160009054906101000a900473ffffffffffffffffffffffffffffffffffffffff16908060010160149054906101000a900461ffff16908060010160169054906101000a900461ffff16905084565b60008054906101000a900461ffff1681565b60036020528060005260406000206000915054906101000a900473ffffffffffffffffffffffffffffffffffffffff1681565b606080606080606080606060008060009054906101000a900461ffff1661ffff1667ffffffffffffffff81111561091c577f4e487b7100000000000000000000000000000000000000000000000000000000600052604160045260246000fd5b60405190808252806020026020018201604052801561094a5781602001602082028036833780820191505090505b50905060008060009054906101000a900461ffff1661ffff1667ffffffffffffffff8111156109a2577f4e487b7100000000000000000000000000000000000000000000000000000000600052604160045260246000fd5b6040519080825280602002602001820160405280156109d05781602001602082028036833780820191505090505b50905060008060009054906101000a900461ffff1661ffff1667ffffffffffffffff811115610a28577f4e487b7100000000000000000000000000000000000000000000000000000000600052604160045260246000fd5b604051908082528060200260200182016040528015610a5b57816020015b6060815260200190600190039081610a465790505b50905060008060009054906101000a900461ffff1661ffff1667ffffffffffffffff811115610ab3577f4e487b7100000000000000000000000000000000000000000000000000000000600052604160045260246000fd5b604051908082528060200260200182016040528015610ae657816020015b6060815260200190600190039081610ad15790505b50905060008060009054906101000a900461ffff1661ffff1667ffffffffffffffff811115610b3e577f4e487b7100000000000000000000000000000000000000000000000000000000600052604160045260246000fd5b604051908082528060200260200182016040528015610b7157816020015b6060815260200190600190039081610b5c5790505b50905060008060009054906101000a900461ffff1661ffff1667ffffffffffffffff811115610bc9577f4e487b7100000000000000000000000000000000000000000000000000000000600052604160045260246000fd5b604051908082528060200260200182016040528015610bf75781602001602082028036833780820191505090505b50905060008060009054906101000a900461ffff1661ffff1667ffffffffffffffff811115610c4f577f4e487b7100000000000000000000000000000000000000000000000000000000600052604160045260246000fd5b604051908082528060200260200182016040528015610c7d5781602001602082028036833780820191505090505b50905060005b60008054906101000a900461ffff1661ffff168110156112b55760018181548110610cd7577f4e487b7100000000000000000000000000000000000000000000000000000000600052603260045260246000fd5b906000526020600020906006020160000160009054906101000a900461ffff16888281518110610d30577f4e487b7100000000000000000000000000000000000000000000000000000000600052603260045260246000fd5b602002602001019061ffff16908161ffff168152505060018181548110610d80577f4e487b7100000000000000000000000000000000000000000000000000000000600052603260045260246000fd5b906000526020600020906006020160010154878281518110610dcb577f4e487b7100000000000000000000000000000000000000000000000000000000600052603260045260246000fd5b60200260200101818152505060018181548110610e11577f4e487b7100000000000000000000000000000000000000000000000000000000600052603260045260246000fd5b90600052602060002090600602016002018054610e2d9061200a565b80601f0160208091040260200160405190810160405280929190818152602001828054610e599061200a565b8015610ea65780601f10610e7b57610100808354040283529160200191610ea6565b820191906000526020600020905b815481529060010190602001808311610e8957829003601f168201915b5050505050868281518110610ee4577f4e487b7100000000000000000000000000000000000000000000000000000000600052603260045260246000fd5b602002602001018190525060018181548110610f29577f4e487b7100000000000000000000000000000000000000000000000000000000600052603260045260246000fd5b90600052602060002090600602016003018054610f459061200a565b80601f0160208091040260200160405190810160405280929190818152602001828054610f719061200a565b8015610fbe5780601f10610f9357610100808354040283529160200191610fbe565b820191906000526020600020905b815481529060010190602001808311610fa157829003601f168201915b5050505050858281518110610ffc577f4e487b7100000000000000000000000000000000000000000000000000000000600052603260045260246000fd5b602002602001018190525060018181548110611041577f4e487b7100000000000000000000000000000000000000000000000000000000600052603260045260246000fd5b9060005260206000209060060201600401805461105d9061200a565b80601f01602080910402602001604051908101604052809291908181526020018280546110899061200a565b80156110d65780601f106110ab576101008083540402835291602001916110d6565b820191906000526020600020905b8154815290600101906020018083116110b957829003601f168201915b5050505050848281518110611114577f4e487b7100000000000000000000000000000000000000000000000000000000600052603260045260246000fd5b602002602001018190525060018181548110611159577f4e487b7100000000000000000000000000000000000000000000000000000000600052603260045260246000fd5b906000526020600020906006020160050160009054906101000a900473ffffffffffffffffffffffffffffffffffffffff168382815181106111c4577f4e487b7100000000000000000000000000000000000000000000000000000000600052603260045260246000fd5b602002602001019073ffffffffffffffffffffffffffffffffffffffff16908173ffffffffffffffffffffffffffffffffffffffff168152505060018181548110611238577f4e487b7100000000000000000000000000000000000000000000000000000000600052603260045260246000fd5b906000526020600020906006020160050160149054906101000a900460ff16828281518110611290577f4e487b7100000000000000000000000000000000000000000000000000000000600052603260045260246000fd5b60200260200101901515908115158152505080806112ad90612098565b915050610c83565b50868686868686869d509d509d509d509d509d509d505050505050505090919293949596565b600181815481106112eb57600080fd5b90600052602060002090600602016000915090508060000160009054906101000a900461ffff16908060010154908060020180546113289061200a565b80601f01602080910402602001604051908101604052809291908181526020018280546113549061200a565b80156113a15780601f10611376576101008083540402835291602001916113a1565b820191906000526020600020905b81548152906001019060200180831161138457829003601f168201915b5050505050908060030180546113b69061200a565b80601f01602080910402602001604051908101604052809291908181526020018280546113e29061200a565b801561142f5780601f106114045761010080835404028352916020019161142f565b820191906000526020600020905b81548152906001019060200180831161141257829003601f168201915b5050505050908060040180546114449061200a565b80601f01602080910402602001604051908101604052809291908181526020018280546114709061200a565b80156114bd5780601f10611492576101008083540402835291602001916114bd565b820191906000526020600020905b8154815290600101906020018083116114a057829003601f168201915b5050505050908060050160009054906101000a900473ffffffffffffffffffffffffffffffffffffffff16908060050160149054906101000a900460ff16905087565b82805461150c9061200a565b90600052602060002090601f01602090048101928261152e5760008555611575565b82601f1061154757805160ff1916838001178555611575565b82800160010185558215611575579182015b82811115611574578251825591602001919060010190611559565b5b5090506115829190611586565b5090565b5b8082111561159f576000816000905550600101611587565b5090565b60006115b66115b184611d85565b611d60565b9050828152602081018484840111156115ce57600080fd5b6115d9848285611fc8565b509392505050565b6000813590506115f08161217f565b92915050565b60008135905061160581612196565b92915050565b600082601f83011261161c57600080fd5b813561162c8482602086016115a3565b91505092915050565b600081359050611644816121ad565b92915050565b600081359050611659816121c4565b92915050565b60006020828403121561167157600080fd5b600061167f848285016115e1565b91505092915050565b6000806040838503121561169b57600080fd5b60006116a9858286016115f6565b92505060206116ba858286016115e1565b9150509250929050565b600080600080608085870312156116da57600080fd5b600085013567ffffffffffffffff8111156116f457600080fd5b6117008782880161160b565b945050602085013567ffffffffffffffff81111561171d57600080fd5b6117298782880161160b565b935050604085013567ffffffffffffffff81111561174657600080fd5b6117528782880161160b565b9250506060611763878288016115e1565b91505092959194509250565b60006020828403121561178157600080fd5b600061178f84828501611635565b91505092915050565b6000602082840312156117aa57600080fd5b60006117b88482850161164a565b91505092915050565b60006117cd8383611835565b60208301905092915050565b60006117e58383611a40565b60208301905092915050565b60006117fd8383611a7c565b905092915050565b60006118118383611aee565b60208301905092915050565b60006118298383611b0c565b60208301905092915050565b61183e81611f56565b82525050565b61184d81611f56565b82525050565b600061185e82611e06565b6118688185611e89565b935061187383611db6565b8060005b838110156118a457815161188b88826117c1565b975061189683611e48565b925050600181019050611877565b5085935050505092915050565b60006118bc82611e11565b6118c68185611e9a565b93506118d183611dc6565b8060005b838110156119025781516118e988826117d9565b97506118f483611e55565b9250506001810190506118d5565b5085935050505092915050565b600061191a82611e1c565b6119248185611eab565b93508360208202850161193685611dd6565b8060005b85811015611972578484038952815161195385826117f1565b945061195e83611e62565b925060208a0199505060018101905061193a565b50829750879550505050505092915050565b600061198f82611e27565b6119998185611ebc565b93506119a483611de6565b8060005b838110156119d55781516119bc8882611805565b97506119c783611e6f565b9250506001810190506119a8565b5085935050505092915050565b60006119ed82611e32565b6119f78185611ecd565b9350611a0283611df6565b8060005b83811015611a33578151611a1a888261181d565b9750611a2583611e7c565b925050600181019050611a06565b5085935050505092915050565b611a4981611f68565b82525050565b611a5881611f68565b82525050565b611a6781611f74565b82525050565b611a7681611fb6565b82525050565b6000611a8782611e3d565b611a918185611ede565b9350611aa1818560208601611fd7565b611aaa8161216e565b840191505092915050565b6000611ac082611e3d565b611aca8185611eef565b9350611ada818560208601611fd7565b611ae38161216e565b840191505092915050565b611af781611f7e565b82525050565b611b0681611f7e565b82525050565b611b1581611fac565b82525050565b611b2481611fac565b82525050565b6000602082019050611b3f6000830184611844565b92915050565b600060e0820190508181036000830152611b5f818a611984565b90508181036020830152611b7381896119e2565b90508181036040830152611b87818861190f565b90508181036060830152611b9b818761190f565b90508181036080830152611baf818661190f565b905081810360a0830152611bc38185611853565b905081810360c0830152611bd781846118b1565b905098975050505050505050565b6000608082019050611bfa6000830187611a5e565b611c076020830186611844565b611c146040830185611a6d565b611c216060830184611a6d565b95945050505050565b6000608082019050611c3f6000830187611a5e565b611c4c6020830186611844565b611c596040830185611afd565b611c666060830184611afd565b95945050505050565b6000602082019050611c846000830184611afd565b92915050565b6000606082019050611c9f6000830186611afd565b611cac6020830185611b1b565b611cb96040830184611a4f565b949350505050565b600060e082019050611cd6600083018a611afd565b611ce36020830189611b1b565b8181036040830152611cf58188611ab5565b90508181036060830152611d098187611ab5565b90508181036080830152611d1d8186611ab5565b9050611d2c60a0830185611844565b611d3960c0830184611a4f565b98975050505050505050565b6000602082019050611d5a6000830184611b1b565b92915050565b6000611d6a611d7b565b9050611d76828261203c565b919050565b6000604051905090565b600067ffffffffffffffff821115611da057611d9f61213f565b5b611da98261216e565b9050602081019050919050565b6000819050602082019050919050565b6000819050602082019050919050565b6000819050602082019050919050565b6000819050602082019050919050565b6000819050602082019050919050565b600081519050919050565b600081519050919050565b600081519050919050565b600081519050919050565b600081519050919050565b600081519050919050565b6000602082019050919050565b6000602082019050919050565b6000602082019050919050565b6000602082019050919050565b6000602082019050919050565b600082825260208201905092915050565b600082825260208201905092915050565b600082825260208201905092915050565b600082825260208201905092915050565b600082825260208201905092915050565b600082825260208201905092915050565b600082825260208201905092915050565b6000611f0b82611fac565b9150611f1683611fac565b9250827fffffffffffffffffffffffffffffffffffffffffffffffffffffffffffffffff03821115611f4b57611f4a6120e1565b5b828201905092915050565b6000611f6182611f8c565b9050919050565b60008115159050919050565b6000819050919050565b600061ffff82169050919050565b600073ffffffffffffffffffffffffffffffffffffffff82169050919050565b6000819050919050565b6000611fc182611f7e565b9050919050565b82818337600083830152505050565b60005b83811015611ff5578082015181840152602081019050611fda565b83811115612004576000848401525b50505050565b6000600282049050600182168061202257607f821691505b6020821081141561203657612035612110565b5b50919050565b6120458261216e565b810181811067ffffffffffffffff821117156120645761206361213f565b5b80604052505050565b600061207882611f7e565b915061ffff82141561208d5761208c6120e1565b5b600182019050919050565b60006120a382611fac565b91507fffffffffffffffffffffffffffffffffffffffffffffffffffffffffffffffff8214156120d6576120d56120e1565b5b600182019050919050565b7f4e487b7100000000000000000000000000000000000000000000000000000000600052601160045260246000fd5b7f4e487b7100000000000000000000000000000000000000000000000000000000600052602260045260246000fd5b7f4e487b7100000000000000000000000000000000000000000000000000000000600052604160045260246000fd5b6000601f19601f8301169050919050565b61218881611f56565b811461219357600080fd5b50565b61219f81611f74565b81146121aa57600080fd5b50565b6121b681611f7e565b81146121c157600080fd5b50565b6121cd81611fac565b81146121d857600080fd5b5056fea2646970667358221220697c6f61d7d0ab3584d89a8d082d132e7c95347a45d95da0d7b452ec57c0b70e64736f6c6343000804003368747470733a2f2f7777772e65706963636f64652e6465762f696d672f69636f6e426c61636b4c6f676f2e63643766643932652e706e67",
  "immutableReferences": {},
  "source": "pragma solidity ^0.8.4;\n\ncontract Blog {\n  struct User {\n    bytes32 name;\n    address wallet_address;\n    uint16 tips_received;\n    uint16 tips_sent;\n  }\n\n  struct Article {\n    uint16 id;\n    uint date;\n    string title;\n    string imageUrl;\n    string content;\n    address author;\n    bool published;\n  }\n\n  uint16 public articleCount = 0;\n  Article[] public articles;\n  User[] public users;\n\n  mapping(uint => address) public articleToUser;\n  mapping(address => uint) public userArticlesCount;\n\n   event UserCreated(\n    bytes32 name,\n    address wallet_address,\n    uint16 tips_received,\n    uint16 tips_sent\n  );\n\n  event ArticleCreated(\n    uint16 id,\n    uint date,\n    string title,\n    string imageUrl,\n    string content,\n    address author,\n    bool published\n  );\n\n  event ArticlePublished(\n    uint16 id,\n    uint date,\n    bool published\n  );\n\n  constructor() {\n    createUser(\"Tiago Dias\", msg.sender);\n    createArticle(\"My first blog's title.\", \"https://www.epiccode.dev/img/iconBlackLogo.cd7fd92e.png\" ,\"My first blog article content!\", msg.sender);\n  }\n\n  function createUser(bytes32 _name, address _wallet_address) public {\n    users.push(User(_name, _wallet_address, 0, 0));\n    emit UserCreated(_name, _wallet_address, 0, 0);\n  }\n\n  function createArticle(string memory _title, string memory _imageUrl, string memory _content, address _author) public {\n    articles.push(Article(articleCount, block.timestamp, _title, _imageUrl, _content, _author, false));\n    \n    articleToUser[articleCount] = msg.sender;\n    userArticlesCount[msg.sender] = userArticlesCount[msg.sender] + 1;\n\n    emit ArticleCreated(articleCount, articles[articleCount].date, _title, _imageUrl, _content, _author, false);\n    articleCount++;\n  }\n\n  function getArticles()\n    external\n    view\n    returns(\n      uint16[] memory,\n      uint[] memory,\n      string[] memory,\n      string[] memory,\n      string[] memory,\n      address[] memory,\n      bool[] memory\n    ) {\n\n      uint16[] memory ids = new uint16[](articleCount);\n      uint[] memory dates = new uint[](articleCount);\n      string[] memory titles = new string[](articleCount);\n      string[] memory imageUrls = new string[](articleCount);\n      string[] memory contents = new string[](articleCount);\n      address[] memory authors = new address[](articleCount);\n      bool[] memory publisheds = new bool[](articleCount);\n\n      for(uint i = 0; i < articleCount; i++) {\n        ids[i] = articles[i].id;\n        dates[i] = articles[i].date;\n        titles[i] = articles[i].title;\n        imageUrls[i] = articles[i].imageUrl;\n        contents[i] = articles[i].content;\n        authors[i] = articles[i].author;\n        publisheds[i] = articles[i].published;\n      }\n\n      return (ids, dates, titles, imageUrls, contents, authors, publisheds);\n  }\n\n  function togglePublished(uint16 _id) external articleExists(_id) {\n    Article storage _article = articles[_id];\n    _article.published = !_article.published;\n    _article.date = block.timestamp;\n    emit ArticlePublished(_article.id, _article.date, _article.published);\n  }\n\n  modifier articleExists(uint16 _id) {\n    if(articles[_id].date == 0) {\n      revert();\n    }\n    _;\n  }\n\n}",
  "sourcePath": "/Users/tiagodias/Desktop/Personal Dev/Blockchain/Blog/contracts/Blog.sol",
  "compiler": {
    "name": "solc",
    "version": "0.8.4+commit.c7e474f2.Emscripten.clang"
  },
  "schemaVersion": "3.3.4",
  "updatedAt": "2021-04-28T18:37:17.485Z",
  "networkType": "ethereum",
  "devdoc": {
    "kind": "dev",
    "methods": {},
    "version": 1
  },
  "userdoc": {
    "kind": "user",
    "methods": {},
    "version": 1
  }
}